:020000040800F2
:10000000E8070020690100083F06000829060008EB
:100010003D060008F7010008110B00080000000071
:1000200000000000000000000000000003090008BC
:10003000FD01000800000000010900080509000892
:100040008301000883010008830100088301000880
:100050008301000883010008830100088301000870
:100060008301000883010008830100088301000860
:1000700083010008F901000883010008FB01000862
:100080008301000883010008B10100088301000812
:100090008301000883010008830100088301000830
:1000A0008301000883010008830100088301000820
:1000B0008301000883010008830100088301000810
:1000C0008301000883010008830100088301000800
:1000D00083010008CD09000883010008D109000848
:1000E00083010008830100088301000883010008E0
:1000F000830100088301000883010008000000005C
:10010000830100080000000083010008830100084B
:100110008301000883010008C90900088301000861
:10012000830100088301000883010008830100089F
:1001300083010008000000000000000083010008A7
:10014000830100088301000883010008830100087F
:10015000DFF810D000F01AF8004800473118000806
:10016000AFF30080E80700200648804706480047B4
:10017000FEE7FEE7FEE7FEE7FEE7FEE7FEE7FEE757
:10018000FEE7FEE70909000851010008064C074D8B
:1001900006E0E06840F0010394E807009847103457
:1001A000AC42F6D3FFF7D8FFA4250008C425000809
:1001B0000248016821F004010160704700240140F9
:1001C00010B501F05DF800F059FF00F011FE00F0ED
:1001D0005BFE00F07BFE01F089F84FF4E13001F0A6
:1001E0005BF901F03DF901F0A3F800F0CBFFBDE8A9
:1001F000104001F01BB8FEE77047704770470000E1
:1002000010B500F013FA12480021016041608160CE
:100210000022026142619FED0F0A80ED060A80ED27
:10022000070A80ED080A80ED090A80ED0A0A80EDD0
:100230000B0A80ED0E0A9FED080A80ED0C0A9FED77
:10024000070A80ED0D0A9FED060A80ED0F0A10BD2A
:10025000280000200000000000007A450024744AB5
:100260000000C8422DE9F84F0025DFF8C091704E1C
:10027000DFF8C0A11027A9F10408C9F80070002414
:1002800003E02046641C0A2870D80221304601F0A1
:1002900099FC0028F5D04FF40341304601F064FC8E
:1002A000002403E02046641C0A285FD880213046E1
:1002B00001F088FC0028F5D0002403E02046641CEF
:1002C0000A2853D80121304601F07CFC0028F5D0E3
:1002D000304601F046FC8DF80000C8F80070C9F8FF
:1002E0000070002403E02046641C0A283ED8022146
:1002F000304601F067FC0028F5D04FF40441304649
:1003000001F032FC002403E02046641C0A282DD8AA
:100310008021304601F056FC0028F5D0002403E08F
:100320002046641C0A2876D80121304601F04AFC98
:100330000028F5D0304601F014FC8DF80100C8F813
:100340000070C9F80070002403E02046641C0A28ED
:1003500061D80221304601F035FC0028F5D04FF479
:100360000541304601F000FC002404E053E0204643
:10037000641C0A284FD88021304601F023FC002855
:10038000F5D0002403E02046641C0A2843D801214C
:10039000304601F017FC0028F5D0304601F0E1FBB3
:1003A0008DF80200C8F800709DF801009DF800105B
:1003B00040EA012200210020012404FA00F3134244
:1003C00001D0491CC9B2401CC0B21028F5D3C807DF
:1003D0001DD000219AF80900FF2802D2401C8AF89B
:1003E00009006D1CEDB2032DFFF447AF89B19008F1
:1003F000CAF80400C2F340008AF800009DF8020029
:10040000C0F380008AF801000120BDE8F88F0121C7
:10041000ECE70020F9E7C8F800709AF80800FF2818
:1004200002D2401C8AF808000020EEE714080140C0
:10043000003001401800002010B50D4C2078002835
:1004400015D172B69FED0B0A84ED060A84ED070AFA
:1004500084ED0A0A84ED0B0A84ED0C0A84ED120A7D
:1004600084ED130A00F0AAF90120207062B610BDD5
:10047000800000200000000010B50B4C2078002800
:1004800011D072B69FED090A84ED060A84ED070AC1
:1004900084ED0A0A84ED0B0A84ED0C0A00F020F9C1
:1004A0000020207062B610BD800000200000000017
:1004B0000C489FED0B0A80ED010A80ED020A80EDE9
:1004C000060A80ED070A80ED0A0A80ED0B0A80ED2E
:1004D0000C0A00210170044890ED0E0A00F006B8E5
:1004E0000000000080000020D000002010EE100A64
:1004F0000949884201DB9FED090A09490948D1ED04
:10050000050A60EE800AC0ED100AD1ED040A20EE63
:10051000800A80ED110A704700409C4500409C45D0
:10052000D0000020800000200748012101704170A8
:10053000002181700548016041600168C160416827
:10054000826801614261704710000020680000204D
:100550002DE9F0470024314D2978621E00274FF025
:100560000108002908D001290DD0012852D01446D5
:10057000AF702046BDE8F087012801D01446F7E7A8
:1005800085F80180F4E7254EB61E012812D02549D2
:10059000DFF88CC06FF00103D1F888106FF002090A
:1005A0004FF0C80802280BD0032818D0042822D006
:1005B0001446DDE7FFF760FF378085F80180D7E755
:1005C000DCF8040008B11C46D2E731B1FFF734FF74
:1005D000A6F8008002206870CAE74C46C8E7DCF83D
:1005E000040008B11C46C3E7FFF726FFA6F8008009
:1005F00003206870BCE7DCF8040008B11C46B7E7CC
:1006000031B1FFF719FFA6F8008004206870AFE74A
:100610004C46ADE785F80180AAE7000010000020F5
:1006200068000020D0000020FEE7000002494FF4DF
:100630008040C8607047000028000020FEE7704737
:100640002DE9F047002400250026214F01213846DE
:1006500001F0C5FD0121384601F0C4FD0028F9D0A4
:100660000121384601F0BBFDDFF86880DFF86890B3
:1006700012E00121384601F0B5FD01280CD101211D
:10068000384601F0ACFD641CD8F8000080B2054487
:10069000D9F8000080B20644402CEADB95FBF4F068
:1006A00001B20E48018096FBF4F212B242800020A3
:1006B000A1F282714FF4C874431EA14200D91846BA
:1006C000A2F28272A24200D91846BDE8F08700006B
:1006D000002C0140402401403C2801400A00002039
:1006E00010B5174C00221146204601F07BFC002279
:1006F0000121204601F076FC00220221204601F073
:1007000071FC00221146204601F0FCFA0022012172
:10071000204601F0F7FA00220221204601F0F2FA09
:100720000121204601F05BFD0121204601F05AFD28
:100730000028F9D02046BDE81040012101F04FBD4E
:10074000002C014010B540F2DC501B490860091D27
:100750000860091D0860184C0121343C204601F056
:100760003EFD0121204601F03DFD0028F9D0012188
:10077000204601F034FD01220021204601F032FC28
:1007800001221146204601F02DFC012202212046C3
:1007900001F028FC04220021204601F0B3FA0422D3
:1007A0000121204601F0AEFA20460422BDE81040A7
:1007B000022101F0A7BA0000342C014010B500203E
:1007C0001A490860091D0860091D0860174C0121BD
:1007D000343C204601F003FD0121204601F002FDDA
:1007E0000028F9D00121204601F0F9FC0122002166
:1007F000204601F0F7FB01221146204601F0F2FBF2
:1008000001220221204601F0EDFB042200212046B6
:1008100001F078FA04220121204601F073FA204603
:100820000422BDE81040022101F06CBA342C0140D2
:1008300010B5304C0421204600F030FA0421204647
:1008400000F052FA204600F0C9F9012000F04EFEF7
:10085000204600F06DF90121204600F094FA0421B1
:10086000204600F041FA0421204600F02AFA224CEA
:10087000204600F0B3F9012000F038FE204600F0D9
:1008800057F91E4C204601F0A5FC0121204601F03D
:100890001EFD40F2DC51194A34321160121D116004
:1008A000121D116000221146204601F09BFB002220
:1008B0000121204601F096FB00220221204601F092
:1008C00091FB00221146204601F01CFA0022012172
:1008D000204601F017FA00220221204601F012FA08
:1008E0000121204601F0E7FC2046BDE8104001F060
:1008F000EBB900000024014000280140002C014019
:10090000704770477047000008B52C48016841F4F3
:10091000700101602A48016841F00101016001682D
:100920008907FCD5416841F08001416000220092B6
:1009300002E00099491C009100995029F9D34168BF
:1009400041F090014160009202E00099491C009141
:1009500000995029F9D3416841F0A001416000920B
:1009600002E00099491C009100995029F9D341688F
:1009700041F0B0014160009202E00099491C0091F1
:1009800000995029F9D3416821F0030141600168C1
:100990000C4B194001604FF47F0181604260C262DC
:1009A000016821F48021016001F08CF9BDE8084064
:1009B00000214FF0006000F0DFBF000088ED00E094
:1009C00000100240FFFFF6EA00F08CB801F08CBC8A
:1009D00001F0C2BC3548002101609FED350A80ED71
:1009E000010A9FED340A80ED020A0722C2609FEDE2
:1009F000320A80ED040A9FED310A80ED050AB2EE5D
:100A0000040A80ED060ADFED2E0AC0ED070AF2EEB9
:100A1000000AC0ED080AB0EE081A80ED091AC0F805
:100A200090100122C26381629FED261A80ED0B1A9D
:100A30009FED251A80ED0C1A9FED241A80ED0D1AFA
:100A40009FED231A80ED0E1A0164B6EE001A80EDB8
:100A5000111A9FED201A80ED121A9FED1F1A80EDDA
:100A6000131A9FED1E1A80ED141AB0EE001A80EDD5
:100A7000151AB3EE0E1A80ED161A9FED191A80EDB5
:100A8000171A80ED181AC0ED190AF3EE0C0AC0ED22
:100A90001A0AF3EE040AC0ED1B0AF1EE040AC0EDD7
:100AA0001C0A80ED1D0AC0F888107047D000002095
:100AB00017B7D138DAAC7A3D2F350F407651743AFA
:100AC0000000704200002043CDCC4C3D0AD7A33C2F
:100AD00000007A440AD7233CCDCCCC3D0000C8426C
:100AE0000000484210B5084C0121204601F0D9FB16
:100AF000012807D10121204601F0D0FB03480168FD
:100B0000491C016010BD00000010004004000020DE
:100B1000FEE702E008C8121F08C1002AFAD1704798
:100B20007047002001E001C1121F002AFBD170476D
:100B3000816841F00801816081680907FCD48168FF
:100B400041F00401816081684907FCD47047521E5E
:100B500001290DD002290AD1816B21F44011816352
:100B6000816B4FF4401303EA0252114381637047D3
:100B7000C16A21F47001C162C16A4FF4700303EAD3
:100B800002521143C1627047002904D0816841F4C8
:100B9000006181607047816821F400618160704765
:100BA00010B50D4940180CD0B0F5806F13D140F24C
:100BB0000A34204600F0C2FF2046BDE8104000F095
:100BC000AFBF40F20934204600F0B8FF2046BDE830
:100BD000104000F0A5BF10BD00DCFEBF8168C90752
:100BE00003D1816841F0010181607047002A0CD077
:100BF000CA0703D0826842F480128260890703D555
:100C0000816841F4004181607047CA0703D082685F
:100C100022F4801282608907F6D5816821F40041B0
:100C200081607047012909D0022906D1816821F429
:100C3000E04181608168114381607047816821F4DF
:100C400060218160816811438160704730B5846B99
:100C5000C4F30155846B491BC91C01EB81011F259D
:100C60008D40AC4302FA01F52543856307250A2A26
:100C700008D2046902EB42018D40AC438B40234310
:100C8000036130BD122AFCD2C4680A3A02EB420169
:100C90008D40AC438B402343C36030BDCA0703D0B3
:100CA000426822F0400242608A0703D5426822F07F
:100CB00020024260490703D5416821F0800141606C
:100CC0007047CA0703D0426842F0400242608A0778
:100CD00003D5426842F020024260490703D54168CB
:100CE00041F080014160704702688A4302607047AA
:100CF00004490A6822F470220A600A6802430A6002
:100D0000704700000424014030B51F24062909D291
:100D1000456B01EB81018C40A54302FA01F42C43A1
:100D2000446318E00C290AD2056B891F01EB81018D
:100D30008C40A54302FA01F42C4304630BE0102914
:100D400009D2C56A0C3901EB81018C40A54302FA36
:100D500001F42C43C46207250A2A08D2046902EB75
:100D600042018D40AC438B402343036130BD122AC6
:100D7000FCD2C4680A3A02EB42018D40AC438B407E
:100D80002343C36030BDCA0703D0826842F48002A7
:100D90008260890703D5816841F400118160704742
:100DA000002A12D0CA0503D5426842F4807242601C
:100DB0004A0503D5426842F480624260890703D540
:100DC000816841F0020181607047CA0503D542681D
:100DD00022F4807242604A0503D5426822F48062A0
:100DE00042608907F0D5816821F002018160704777
:100DF00010B54FF4A020FFF77BFF224C2046FFF7F1
:100E0000CFFE012202212046FFF7CAFF0122110274
:100E10002046FFF7C5FF00212046FFF7B5FE01225F
:100E200011462046FFF793FE0123032200212046AE
:100E3000FFF76AFF022211462046FFF788FE0022D4
:100E4000012311462046FFF701FF01231A461946E8
:100E50002046FFF7FBFE4FF4602201212046FFF7FA
:100E6000E1FE012211462046FFF7C0FEA214022136
:100E70002046FFF7D7FE20460122BDE810400221A0
:100E8000FFF7B4BE0024014010B50F4C2046FFF719
:100E900087FE00212046FFF777FE0122022120462F
:100EA000FFF755FE0123022200212046FFF7CEFE68
:100EB000A21402212046FFF7B5FE20460122BDE81C
:100EC00010400221FFF792BE002801402DE9F047B3
:100ED00088B0DFF88CA10021504600F061FB01A82A
:100EE00000F0ECFB5F4801905F48039000248DF810
:100EF0001C4001258DF81D502802029080000490AE
:100F00008DF81E4005958600069601AA00215046E0
:100F100000F063FB0021504600F030FB00215046FA
:100F200000F008FB0221504600F03AFB01A800F057
:100F3000C5FB8DF81E404D4803908DF81D5004945C
:100F40004FF02008CDF81480DFF82491CDF80490FC
:100F50008DF81C4002946F03069701AA02215046A7
:100F600000F03BFB0221504600F0F6FA0221504609
:100F700000F086FB0221504600F0DCFA01215046C9
:100F800000F00EFB01A800F099FB8DF81E508DF8C3
:100F90001D500494CDF804908DF81C4002940696E0
:100FA00001AA0121504600F018FB0121504600F033
:100FB000D3FA0121504600F063FB0121504600F0B6
:100FC000A7FA0421504600F0EBFA01A800F076FBE6
:100FD0008DF81E40274803908DF81D500494CDF8DD
:100FE0001480DFF89480CDF804808DF81C400294C2
:100FF000069701AA0421504600F0EFFA042150465A
:1010000000F0AAFA0421504600F03AFB04215046B1
:1010100000F090FA0321504600F0C2FA01A800F057
:101020004DFB8DF81E508DF81D500494CDF80480B2
:101030008DF81C400294069601AA0321504600F048
:10104000CCFA0321504600F087FA0321504600F005
:1010500017FB0321504600F05BFA08B0BDE8F087AB
:10106000000002404C24014008000020A80300209A
:1010700004480040680300200438014070B53F4C2C
:101080004FF4807303221821204600F049FB6315BA
:1010900003221821204600F043FB25152B4603228E
:1010A0001821204600F03CFB354E63140322182122
:1010B000304600F035FB2B0103221821304600F0AA
:1010C0002FFB6B0103221821304600F029FB01237E
:1010D00004220021204600F023FB022304220021E9
:1010E000204600F01DFB04231A460021204600F094
:1010F00017FB082304220021204600F011FB0423E3
:1011000001221021304600F00BFB0421304600F094
:1011100003FB0121042000F05DFB40230322182182
:10112000304600F0FDFA802303220421304600F00F
:10113000F7FA2B4603221821304600F0F1FAE314A7
:1011400003220421304600F0EBFA10230322194653
:10115000204600F0E5FA1021204600F0DFFAA02337
:1011600003221821204600F0DBFA2046BDE870403B
:1011700040230322042100F0D3BA000000080140FC
:10118000000C014070B5274C4FF48071204600F0F0
:1011900019FB6115204600F015FB25152946204650
:1011A00000F010FB204E6114304600F00BFB2901CB
:1011B000304600F007FB6901304600F003FB0121D7
:1011C000204600F0FFFA0221204600F0FBFA04213D
:1011D000204600F0F7FA0821204600F0F3FA10212B
:1011E000204600F0EFFA2021204600F0EBFA4021E3
:1011F000204600F0E7FA8021204600F0E3FA402183
:10120000304600F0DFFA8021304600F0DBFA294654
:10121000304600F0D7FAE1143046BDE8704000F0E7
:10122000D1BA000000080140000C014010B54FF495
:10123000407000F097FB00220421362000F04AFBAA
:1012400001210C4801F026F800220321122000F0B1
:1012500041FB04210848FFF734FD0022042125202A
:1012600000F038FBBDE810404FF44171034801F035
:1012700048B900000010004000240140003801403F
:1012800010B540F2026000F03DFC40F2036000F057
:1012900039FC40F2046000F035FC4FF4C06000F00F
:1012A00031FC40F2096000F02DFC40F20A6000F0D1
:1012B00029FC012000F06CFB40F20B6000F022FCE6
:1012C00040F2047000F01EFC4FF4A06000F01AFC25
:1012D00040F2127000F016FC40F20E6000F012FCBA
:1012E000BDE8104040F20C6000F00CBC10B588B0B6
:1012F0000E4C204600F03AFC01A800F081FC0021D1
:1013000002914FF482720192E21403920322069238
:101310006215049210220792059101A9204600F05F
:1013200058FC204600F018FC08B010BD0030014009
:1013300030B58BB0494D284600F088FE07A800F074
:10134000C8FF0024ADF81C404020ADF81E00ADF8E9
:10135000204040F6B8300990ADF828408DF82A407A
:1013600007A9284600F046FF04A800F066FE012009
:10137000ADF810000420ADF81200ADF81440ADF83F
:101380001640ADF81840ADF81A4004AA00212846CE
:1013900000F0D8FC04AA0121284600F0D3FC04AADE
:1013A0000221284600F0CEFC04AA0321284600F0C2
:1013B000C9FC00221146284600F0DAFD6022002117
:1013C000284600F0ABFD08220021284600F0E0FD91
:1013D00000220121284600F0CBFD60220121284691
:1013E00000F09CFD08220121284600F0D1FD0022DA
:1013F0000221284600F0BCFD60220221284600F0B0
:101400008DFD08220221284600F0C2FD40F6B332CD
:101410000321284600F0ACFD60220321284600F09D
:101420007DFD00220321284600F0B2FD684600F051
:1014300060FCADF80040ADF80240ADF80440ADF8F6
:101440000640ADF80840ADF80A40ADF80C406946DA
:10145000284600F03EFC0BB030BD0000002C0140DF
:101460001FB50C4C204600F0F1FD684600F031FF3E
:101470007721ADF800100021ADF80210ADF804108E
:101480004FF6FF720292ADF80C106946204600F04C
:10149000B1FE1FBD0010004070B50546124C20463D
:1014A00000F0CEFF2946204600F08EFF00212046A6
:1014B00001F06FF80021204601F059F80421204680
:1014C00001F04BF80821204601F059F84021204650
:1014D00000F0FEFF8021204601F004F82046BDE820
:1014E000704001F009B800000038014008B544F22E
:1014F00030314843009000E000BF0098411E009149
:10150000FAD208BD014800F065BE0000001000409E
:1015100070B505460C462146284600F0C3F840B198
:1015200004EB840005EB8000816821F001018160FB
:1015300070BDFEE770B505460C462146284600F012
:10154000B1F840B104EB840005EB8000816841F004
:101550000101816070BDFEE770B505460C4621466D
:10156000284600F09FF840B104EB840005EB8000B2
:10157000816821F02001816070BDFEE770B50546ED
:101580000C462146284600F08DF840B104EB84005B
:1015900005EB8000816841F02001816070BDFEE7AD
:1015A00070B504460D462946204600F07BF898B1F8
:1015B00005EB850004EB8002906820F0010090604C
:1015C00000209060D060106150616068AA000F2117
:1015D00091400843606070BDFEE770B506460D4659
:1015E00014462946304600F05DF848B305EB850007
:1015F00006EB800022680261A1684161218A89B2FC
:10160000C160816821F47C52E368616819436369B1
:10161000134319438160217E012912D0816821F092
:1016200040018160617E012910D0816821F0800134
:101630008160A17E79B1816841F01001816070BD47
:10164000FEE7816841F040018160EBE7816841F08D
:1016500080018160EDE7816821F01001816070BD3B
:1016600070B506460C4615462146304600F01AF87D
:1016700028B104EB840006EB8000456170BDFEE7F5
:1016800070B505460C462146284600F00BF840B1DF
:1016900004EB840005EB8000816821F480418160C7
:1016A00070BDFEE702460120034B9A4202D1042995
:1016B00000D90020704700000004024000280AD032
:1016C00000210160416001768160C1604176016165
:1016D000817641617047FEE770B506460C461546B7
:1016E00021463046FFF7DEFF30B104EB840106EB04
:1016F0008101A8B2C86070BDFEE770B505460C4612
:1017000021462846FFF7CEFF28B104EB840005EB05
:101710008000C06870BDFEE741617047016170479D
:101720002DE9F04301F00F04CD0602D5042A18D0AC
:10173000144300224FF00F0C012707FA02F51D4059
:101740001AD0D0F8009096000CFA06F829EA080999
:1017500004FA06F848EA0908282908D0482908D0D8
:1017600008E044F00304C26B1A43C263E1E7456139
:1017700000E00561C0F80080521C92B2082ADCD358
:10178000082207FA02F51D4016D0D0F80490A2F105
:101790000806B6000CFA06F829EA080904FA06F861
:1017A00048EA0908282902D0482902D002E0456108
:1017B00000E00561C0F80480521C92B2102AE0D308
:1017C000BDE8F08341F48032826181618261816988
:1017D00080697047F0B5154C002801DAE36900E034
:1017E0006368C0F30346420D120185B2C0F301578E
:1017F0009540032F07D0C2020CD50322B240934379
:1018000043F0E06209E023F0E062636823F0E06304
:10181000636002E0AB4343F0E06201B12A43002879
:1018200001DAE261F0BD6260F0BD0000000001403D
:1018300072B6FEF7C5FCFFF7CDF8FEF775FEFEF7B2
:10184000F7FFFEF735FEFEF7DBFCFFF75BFEFEF76A
:1018500079FF62B6002200241B4D1C4E0BE0A868E5
:10186000B04203DD641CE4B2142C06D80220FFF75A
:101870003DFE521CD2B2FA2AF1D3FEF7E1FE002857
:10188000FBD10025124C19E0012803D10320FEF7FB
:101890005FFE25702078022802D1FEF759FE2570E0
:1018A0002078032803D10420FEF752FE257020780B
:1018B000042803D10120FEF74BFE2570FEF7D2FC71
:1018C00020780028FAD0DFE7800000200000A04147
:1018D00000000020F0B506460F46002300242048F3
:1018E000006800F4E0654FF4A06085422FD006DC6C
:1018F000B5F5407F31D0B5F5806F06D12AE0B5F55A
:10190000C06F21D0B5F5E06F1CD000F02BF802239A
:101910000224C3F104008740C4F104010F20C84031
:1019200010403843000106F1E02181F8000406F080
:101930001F01012088407109890001F1E021C1F8EF
:101940000001F0BD0424E4E701230324E1E70223BE
:101950000224DEE703230124DBE70423D9E70000A8
:101960000CED00E00249084302490860704700009E
:101970000000FA050CED00E0034A11400143034862
:101980000160BFF34F8F704780FFFF1F08ED00E03D
:1019900010B5124B5968124A1140DA6A22F000520F
:1019A0000C2817D2DFE800F006060606160916090D
:1019B0001010101041EA80310CE020F0040041EAE0
:1019C000803040F0805105E020F00C0041EA803189
:1019D00042F000525960DA6210BD0000001002406F
:1019E000FF3FFFEF70B588B0044600203DA104AE74
:1019F00091E82C00C9682CC607913BA106C9CDE926
:101A0000021239A106C9CDE900123A4D6968C1F345
:101A100081023949002A40D0012A3ED0022A3CD115
:101A20006A6802F480324FF480339A421ED1EA6A27
:101A300002F0804202B13149EA6A02F480329A42ED
:101A40000DD1EA6AC2F303135B1CEA6AC2F30322F4
:101A5000921C112A00D11422B1FBF3F15143EA6A1E
:101A600002F00F02521CB1FBF2F300E0244B696854
:101A7000C1F383426968890001D542F010020F2A40
:101A800001D2921C00E0521C03FB02F10F2A04D188
:101A900003EB4301490001EB53016A68C2F30312EF
:101AA00004AB9A5C21FA02F26B68C3F3022302AE24
:101AB000F35C22FA03F36D68C5F3C2251DF80550E7
:101AC00022FA05F544B1012C08D0022C08D0032CD1
:101AD00000D1284608B070BD0846FBE71046F9E77C
:101AE0001846F7E7000000000000000001020304B0
:101AF000060708090010024000127A00006CDC02A0
:101B000000093D00054901EB90110A6800F01F0330
:101B10000120984002430A60704700000010024014
:101B2000054901EB90110A6800F01F03012098405D
:101B300082430A607047000000100240054901EB33
:101B400090110A6800F01F030120984002430A60C8
:101B50007047000000100240016841F04001016040
:101B60007047C06880B27047C160704710B51449B3
:101B700040180FD0B0F5806F16D0B0F5784F1DD15A
:101B80004FF443742046FFF7D9FF2046BDE81040CC
:101B9000FFF7C6BF40F20E442046FFF7CFFF2046B6
:101BA000BDE81040FFF7BCBF40F20F442046FFF7EE
:101BB000C5FF2046BDE81040FFF7B2BF10BD0000D2
:101BC00000C8FFBF8068084201D001207047002094
:101BD0007047026802F441520B6813434A681A4383
:101BE0008B681343CA681A430B6913434A691A4343
:101BF000896911430160C16921F40061C1617047C5
:101C00000021016041608160C160016141618161C9
:101C10007047000000212548026842F480320260CB
:101C20004FF6FF73491C026802F400320AB9994268
:101C3000F8D10168890300D4FEE71D490A6822F043
:101C40000702D21C0A6041684160416841604168F6
:101C500041F4806141604168164A11404160416829
:101C6000154A11434160C16A144A1140C162C16AF8
:101C7000134A1143C162016841F08061016001684B
:101C80000901FCD5016841F080710160016889019A
:101C9000FCD5416821F003014160416841F0020137
:101CA000416041680907FCD5704700000010024000
:101CB00000200240FFFFC3DF0000352000F0FEBF20
:101CC00019080100FFF7A6BF016841F0800101601B
:101CD000704710B50A884B88CC881A438B882343F9
:101CE0001A430B891A434B8989891A430A43426470
:101CF00010BD0021018041808180C180018141812E
:101D00008181704700290CD0012912D0022907D106
:101D1000016A21F480610162016A41EA02210162E3
:101D20007047016A21F004010162016A11430162F6
:101D30007047016A21F040010162016A41EA021123
:101D40000162704730B5734B734C002929D00129CB
:101D500060D002297ED0032922D1016A21F480516A
:101D60000162016A158841EA05310162016A21F4C4
:101D700000510162016A958841EA05310162984289
:101D800001D0A04208D1416821F4804141604168FE
:101D9000128941EA82114160C16921F44071C16137
:101DA00030BD016A21F001010162016A15882943F1
:101DB0000162016A21F002010162016A95882943EA
:101DC0000162984201D0A0421FD1016A21F00401B2
:101DD0000162016A538819430162016A21F0080116
:101DE0000162016AD38819430162416821F480715C
:101DF00041604168138919434160416821F40071D1
:101E000041604168528911434160816921F00301B9
:101E1000816130BD016A21F010010162016A1588FB
:101E200041EA05110162016A21F020010162016AA3
:101E3000958841EA05110162984201D0A04225D15E
:101E4000016A21F040010162016A538841EA0311ED
:101E5000016200E01FE0016A21F080010162016A75
:101E6000D38841EA03110162416821F48061416035
:101E70004168138941EA83014160416821F40061AE
:101E800041604168528941EA82014160816921F4DF
:101E90004071816130BD016A21F480710162016A83
:101EA000158841EA05210162016A21F4007101628D
:101EB000016A958841EA05210162984201D0A04259
:101EC00023D1016A21F480610162016A538841EAE9
:101ED00003210162016A21F400610162016AD38871
:101EE00041EA03210162416821F480514160416867
:101EF000138941EA03114160416821F400514160B6
:101F00004168528941EA02114160C16921F003012F
:101F1000C16130BD002C01400034014000290ED0C9
:101F2000012914D002291BD0032907D1C16921F44A
:101F3000E041C161C16941EA0221C1617047816923
:101F400021F070018161816911438161704781696C
:101F500021F4E0418161816941EA02218161704798
:101F6000C16921F07001C161C1691143C16170474C
:101F7000002907D0012907D0022907D0032900D161
:101F8000026470474263704782637047C263704760
:101F900000290ED0012914D002291BD0032907D112
:101FA000C16921F40061C161C16941EA0221C161D5
:101FB0007047816921F00801816181691143816164
:101FC0007047816921F400618161816941EA0221E0
:101FD00081617047C16921F00801C161C169114384
:101FE000C161704700290ED0012914D002291BD0ED
:101FF000032907D1016A21F480510162016A41EA93
:10200000023101627047016A21F001010162016A37
:10201000114301627047016A21F010010162016AF7
:1020200041EA021101627047016A21F48071016284
:10203000016A41EA0221016270470021018041806A
:102040008180C180018141817047000010B55E4AE6
:10205000811A141590427DD029DC5C4AA0EB020164
:10206000904266D011DCB0F1804F50D058494018F2
:1020700055D0A0426FD140F202442046FFF75EFDEA
:102080002046BDE81040FFF74BBDA1425BD0B1F543
:10209000006F65D0B1F5406F5DD140F20644204637
:1020A000FFF74CFD2046BDE81040FFF739BDB1F504
:1020B000983F5FD011DCA1427AD0B1F5883F1CD0A7
:1020C000B1F58C3F7ED140F20D342046FFF736FD4E
:1020D0002046BDE81040FFF723BDB1F59A3F53D02D
:1020E000B1F59C3F6ED140F215342046FFF726FD36
:1020F0002046BDE81040FFF713BD40F20B342046E8
:10210000FFF71CFD2046BDE81040FFF709BD204643
:10211000FFF714FD2046BDE81040FFF701BD40F277
:1021200001442046FFF70AFD2046BDE81040FFF7B6
:10213000F7BC40F203442046FFF700FD2046BDE80F
:102140001040FFF7EDBC40F204442046FFF7F6FCD8
:10215000204601E022E035E0BDE81040FFF7E0BC9A
:1021600040F205442046FFF7E9FC2046BDE8104058
:10217000FFF7D6BC40F213342046FFF7DFFC2046C1
:10218000BDE81040FFF7CCBC4FF445742046FFF784
:10219000D5FC2046BDE81040FFF7C2BC40F2074422
:1021A0002046FFF7CBFC2046BDE81040FFF7B8BC47
:1021B0004FF481642046FFF7C1FC2046BDE8104083
:1021C000FFF7AEBC10BD0000001C0040000C00403A
:1021D00000FCFFBF016841F0010101607047C94385
:1021E000016170470069084201D00120704700205A
:1021F0007047000030B50A8882621F4A1F4B904228
:102200000DD0B0F1804F0AD01D4CA04207D01D4C1C
:10221000A04204D01C4CA04201D098420FD10468C7
:1022200024F07004046004688D7805F060052C4388
:10223000046004680D7905F010052C4304608C6877
:10224000C462124CA0420CD0114CA04209D00468C8
:1022500024F44074046004688D8905F440752C43AF
:102260000460904201D0984201D1897B01634169A9
:1022700041F00101416130BD002C014000340140BA
:102280000004004000080040000C00400010004026
:1022900000140040C2680A43C2607047C94301612C
:1022A0007047C2680A400069084202D00AB10120A2
:1022B000704700207047012904D0416C21F400418F
:1022C00041647047416C41F40041416470470163CF
:1022D000704700210180418081804FF6FF7282604B
:1022E000818181737047000070B5164D164C2946E8
:1022F000204600F019F9012823D12946204600F094
:102300000AF9204600F098F8104C04212046FFF707
:10231000FFF804212046FFF7F0F90D49C0F1200035
:1023200008800C4A04212046FFF79AF92022042154
:102330002046FFF7D1F92046BDE870400421FFF7A1
:10234000F9B870BD040304000038014000000240E9
:10235000140000206803002070B5164D164C294665
:10236000204600F0E1F8012823D12946204600F05C
:10237000D2F8204600F060F8104C02212046FFF70A
:10238000C7F802212046FFF7B8F90D49C0F1200037
:1023900048800C4A02212046FFF762F920220221E0
:1023A0002046FFF799F92046BDE870400221FFF76B
:1023B000C1B870BD040304000048004000000240A2
:1023C00014000020A803002070B504460D4600202C
:1023D000174BE21A1E159C4216D008DC15496218EC
:1023E0000ED0B24217D10220FFF7FCFA13E0B2423E
:1023F0000ED0B2F56C4F0ED10320FFF7F3FA0AE0CE
:102400000220FFF7EFFA06E00220FFF7EBFA02E006
:102410000220FFF7E7FA00EB5500B0FBF5F04FF6AE
:10242000F071014000F00F021143A16070BD000087
:10243000004C004000BCFFBF4068C0F3080070477C
:1024400010B5214A811A1315904228D00EDC1F497D
:1024500040181AD0984236D140F212442046FFF775
:102460006DFB2046BDE81040FFF75ABB994220D0D3
:10247000B1F56C4F27D140F20E342046FFF75EFBDA
:102480002046BDE81040FFF74BBB40F21144204608
:10249000FFF754FB2046BDE81040FFF741BB40F278
:1024A00013442046FFF74AFB2046BDE81040FFF7E3
:1024B00037BB40F214442046FFF740FB2046BDE8FE
:1024C0001040FFF72DBB10BD004C004000BCFFBF0B
:1024D000426922F040024261426901F040010A4330
:1024E00042617047426922F080024261426901F014
:1024F00080010A4342617047C16841F40051C160E4
:10250000704700EB9110026801F01F030121994010
:102510000A4302607047C1F3044301229A4000EB72
:102520009150D2430260704730B5C1F3891282588E
:1025300001F01F04012505FA04F31A4000EB915045
:102540000068C1F3044105FA01F31840002802D0E5
:102550000AB1012030BD002030BDC26822F0040263
:10256000C260C26801F004010A43C2607047026998
:1025700022F44052026102690A4302617047C26854
:1025800022F00802C260C26801F008010A43C2607A
:102590007047C26822F48052C260C2680A43C260B7
:1025A00070470000C425000800000020180000004B
:1025B000120B0008DC25000818000020D0070000DE
:1025C000220B0008000000000000000000000000D6
:0C25D000000000000000000000000000FF
:04000005080001519D
:00000001FF
