:020000040800F2
:100000002048002029020008DD2B00082D180008D8
:10001000D92B0008150400089D33000800000000DB
:10002000000000000000000000000000D12F0008C8
:10003000BD04000800000000612E000851300008D7
:10004000430200084302000843020008430200087C
:10005000430200084302000843020008430200086C
:10006000430200084302000843020008430200085C
:10007000430200084302000843020008430200084C
:10008000B9040008430200084302000843020008C4
:10009000190400082904000843020008430200086C
:1000A000430200084302000843020008430200081C
:1000B000430200084302000843020008430200080C
:1000C00043020008430200084302000843020008FC
:1000D0004302000843020008753300084302000889
:1000E00043020008430200084302000843020008DC
:1000F00043020008430200084302000843020008CC
:1001000043020008430200084302000843020008BB
:10011000430200084302000839320008493200084F
:10012000430200084302000843020008430200089B
:100130004302000800000000000000004302000825
:10014000390400084904000843020008430200087B
:10015000430200084302000843020008430200086B
:10016000430200084302000843020008430200085B
:1001700043020008430200080000000000000000E5
:10018000430200084302000800F002F800F03CF8C7
:100190000AA090E8000C82448344AAF10107DA45E2
:1001A00001D100F031F8AFF2090EBAE80F0013F0F8
:1001B000010F18BFFB1A43F00103184778460000EF
:1001C00098460000103A24BF78C878C1FAD8520780
:1001D00024BF30C830C144BF04680C6070470000C1
:1001E0000023002400250026103A28BF78C1FBD840
:1001F000520728BF30C148BF0B6070471FB504F0DD
:10020000E1FA1FBD10B510BD00F0D6F81146FFF79A
:10021000F5FF03F043FA00F0F4F803B4FFF7F2FF40
:1002200003BC03F027F9000009488047094800474C
:10023000FEE7FEE7FEE7FEE7FEE7FEE7FEE7FEE796
:10024000FEE7FEE704480549054A064B70470000F3
:1002500025310008890100082042002020480020A4
:100260002044002020440020704753EA020C00F094
:1002700069802DE9F04B4FF00006002B1FBFB3FA49
:1002800083F503FA05F424FA05F65E4012BF16431F
:10029000B2FA82F502FA05F4C5F120051EBF22FA72
:1002A00005FC44EA0C04203556EA044C4FEA144499
:1002B00018BF641C4FF000084FF00009904271EB2A
:1002C000030C39D3002919BFB1FA81F701FA07F6F7
:1002D000B0FA80F700FA07F6C7F120071EBF20FA30
:1002E00007FC46EA0C062037B6FBF4FCA7EB050733
:1002F000103F07F01F0BCBF120062CFA06F60CFA84
:100300000BFB44BFB3460026202FA4BF5E464FF030
:10031000000B5BEA060C08BF4FF0010B19EB0B0951
:1003200048EB0608ABFB027C06FB02CC0BFB03CCC4
:10033000C01B71EB0C01C1E70B4602464146484623
:10034000BDE8F08B13B5084318BF4FF0FF300146EE
:10035000AFF30080BDE81C4070474FF0000200B5CD
:10036000134694469646203922BFA0E80C50A0E8D8
:100370000C50B1F12001BFF4F7AF090728BFA0E886
:100380000C5048BF0CC05DF804EB890028BF40F852
:10039000042B08BF704748BF20F8022B11F0804F94
:1003A00018BF00F8012B70477047704770477047BF
:1003B00000487047700000207546FFF7F9FFAE4611
:1003C00005006946534620F00700854618B020B561
:1003D000FFF738FFBDE820404FF000064FF0000760
:1003E0004FF000084FF0000BAC46ACE8C009ACE899
:1003F000C009ACE8C009ACE8C00921F007018D468E
:10040000704710B50446AFF300802046BDE81040A9
:10041000FFF703BFFEE7000080B540F2E810C2F22C
:10042000000000F077F980BD80B540F2E810C2F21C
:10043000000000F06FF980BD80B540F21020C2F2DC
:10044000000000F067F980BD80B540F21020C2F2D4
:10045000000000F05FF980BD80B58AB05FEA817C62
:1004600008D452010092062202EA41025B01019285
:1004700002930EE04FEAC24CCDF800C04FF0060CDC
:100480000CEA410C4CEAC2020192DA0402924CEAF4
:10049000C3020392CA08C1F38001059204910121AD
:1004A00000220891CDE906210E210991694600F04C
:1004B00031F80AB080BD00007047000070470000AE
:1004C000A0F20120032888BF704780B503A252F82C
:1004D000200003F0ABF8BDE880407047F402002034
:1004E0000C030020240300203C030020EFF31080C5
:1004F00072B600BFFEE7000041F2244040F29411C2
:10050000C4F20000C2F2000100680968C1EB0141B9
:1005100008447047B0B590F82020013A012A2FD83E
:1005200046F20060C4F20000026842F0010202607C
:10053000026822F47C520260D1F814E0CC694A6A65
:100540000368012C43EA022202600EF01F024FF002
:10055000010303FA02F2C3696FEA020C23EA020301
:10056000C36113D02CBBC36803EA0C03C360CB6820
:100570008C8844EA034300EBCE0423640B4611E06D
:10058000416A41F4802141620120B0BDC368134338
:10059000C3600B688C8844EA034300EBCE042364F9
:1005A00001F10C038C681B8843EA044300EBCE0482
:1005B000636443688D6943EA0204D1F810E0096A74
:1005C000002D08BF03EA0C0444604369BEF1000F2C
:1005D00043EA020408BF03EA0C040129446102D182
:1005E000C1691143C161016821F00101016000206E
:1005F000B0BD00007047000010B590F82040013CED
:10060000012C0CD8D0F800C079B1DCF81040A40758
:100610000FD100F1240101204FF4001270E000F12D
:10062000240101204FF480226AE0DCF80C40A4078A
:100630006AD0046804EB011CDCF8B0410CF5D87EEC
:1006400014F004049460DCF8B04119BFE40854606D
:10065000640D1460DEF80040002904F00204D46048
:10066000DCF8B44104F00F041461DCF8B441C4F3C5
:1006700007249461DCF8B4414FEA14445461DCF877
:10068000B8211A70026802EB0112D2F8B8214FEAC1
:1006900012225A70026802EB0112D2F8B8214FEA16
:1006A00012429A70026802EB0112D2F8B8214FEAA6
:1006B0001262DA70026802EB0112D2F8BC211A71E0
:1006C000026802EB0112D2F8BC214FEA12225A71E1
:1006D000026802EB0112D2F8BC214FEA12429A7171
:1006E000026802EB0112D2F8BC214FEA1262DA7101
:1006F000006814BF00F1100100F10C01002020225D
:100700000B681A430A6010BD00F1240101204FF468
:100710000012F5E72DE9F04F81B004460068466904
:10072000D0F804908768D0F80CB0D0F810A0D0F8BA
:100730001880F10703D1002530071CD423E0F90706
:1007400010D00121BA07816009D4780700F1AA808E
:10075000380700F1B080204600F09CFA02E0204605
:1007600000F09AFA0025F80500F18480F80300F102
:10077000AA80300707D51BF0100004D0206845F48C
:1007800000751021C160700708D51BF0080005D066
:1007900020680821C160204600F0E8F9B00706D5BE
:1007A0002068C068800702D0204600F0E1F970069A
:1007B00007D51AF0100004D0206845F48065102198
:1007C0000161B00608D51AF0080005D0206808219C
:1007D0000161204600F0FCF9F00606D520680069AA
:1007E000800702D0204600F0F5F9B00308D519F0D3
:1007F000100005D0206810214160204600F01AFA50
:10080000F00308D519F0080005D0206808214160E0
:10081000204600F04BFA300440F18F805FEA4970C7
:1008200040F1888006F4807008EA102028435FEACF
:100830008871014648BF41F00201B20558BF014628
:100840005FEA48700D4648BF45F00405700558BF83
:100850000D4630056ED518F070006BD010380009C9
:10086000052862D8DFE800F0035356595C5F45F075
:1008700008055AE020684FF48071BA0581600AD4F7
:10088000780512D4380519D4204600F007FAF80389
:100890007FF56FAF17E0204600F002FAF8037FF50E
:1008A00068AF10E04FF400655DE705F50055F8030B
:1008B0007FF55FAF07E04FF4805554E705F58045BD
:1008C000F8037FF556AF20684FF48031BA0381609A
:1008D0000AD478030FD4380313D4204600F0E2F989
:1008E00030073FF548AF4EE7204600F0DDF930070E
:1008F0003FF541AF47E705F5004530073FF53BAF12
:1009000041E705F5803530073FF535AF3BE745F06A
:1009100010050AE045F0200507E045F0400504E039
:1009200045F0800501E045F480752068816921F07B
:10093000700181612068042141602DB1606A284303
:1009400060622046FFF756FE01B0BDE8F08F000060
:10095000B0B5C8B1044690F8200010B9204600F0A8
:1009600071F82068016841F00101016000F088FA27
:10097000054600BF20684168C90707D100F080FA2A
:10098000401B0B28F6D312E00120B0BD016821F016
:100990000201016000F074FA054600BF206841685A
:1009A00089070DD500F06CFA401B0B28F6D3606A5E
:1009B000052140F400306062012084F82010B0BDB1
:1009C000217E0268012922F0800208BF8032026085
:1009D000617E0268012922F0400208BF40320260B5
:1009E000A17E0268012922F0200208BF20320260A5
:1009F000E17E0268012922F0100218BF1032026065
:100A0000217F0268012922F0080208BF0832026033
:100A1000617F0268012922F0040208BF04320260EB
:100A2000D4E901C2D4E9033561691A432A43114369
:100A3000ACF101021143C16100200121606284F820
:100A40002010B0BDB0B586B00021CDE90411CDE9CC
:100A50000211006846F60002C4F2000290420191C1
:100A60002FD046F20041C4F2000188427BD140F20F
:100A70001C11C2F200010A6843F64000C4F20200F1
:100A8000531C0B6052B900210091016841F00071C4
:100A90000160016801F0007100910099002100914E
:100AA00050F8101C152441F0020140F8101C50F8B9
:100AB000100C142500F00200009000984FF44070D4
:100AC00031E043F64000C4F202000091016841F0B9
:100AD00080610160016801F080610091009940F23D
:100AE0001C11C2F200010A68531C0B6052B90021AC
:100AF0000091016841F000710160016801F000712E
:100B0000009100990021009150F8101C412441F0FF
:100B1000020140F8101C50F8100C402500F00200B3
:100B20000090009860200190022002900020039025
:100B3000032004900920059040F20040C4F2020016
:100B400001A900F0C9F828460521002200F048FA62
:100B5000284600F041FA20460521002200F040FA24
:100B6000204600F039FA06B0B0BD00007047000022
:100B700010B5016846F60002C4F20002914215D099
:100B800046F20042C4F20002914218BF10BD40F28A
:100B9000D404C2F2000404F11C0300212246FFF732
:100BA0002BFD40F25430C2F200000DE040F2D404BC
:100BB000C2F2000404F11C0300212246FFF71CFDD1
:100BC00040F25830C2F2000001682046884710BD4C
:100BD0007047000010B5016846F60002C4F200023A
:100BE000914215D046F20042C4F20002914218BF71
:100BF00010BD40F2F804C2F2000404F11C0301210C
:100C00002246FFF7F9FC40F25430C2F200000DE03A
:100C100040F2F804C2F2000404F11C030121224650
:100C2000FFF7EAFC40F25830C2F2000001682046AB
:100C3000884710BD70470000B0B5044690F820000A
:100C400001281DD1022084F820002068016821F0CD
:100C50000101016000F014F9054600BF20684068FA
:100C6000C00713D000F00CF9401B0B28F6D3606AC4
:100C700040F400306062052084F820000120B0BDFF
:100C8000606A40F4002060620120B0BD0020606214
:100C9000B0BD0000704700007047000070470000C2
:100CA0007047000070470000704700007047000068
:100CB000B0B5044600F0E4F8054640F26400C2F224
:100CC00000000078611C18BF044400BF00F0D8F891
:100CD000401BA042FAD3B0BD2DE9F04F83B000F124
:100CE0003E4202F1FF724FEAB22241F60047019202
:100CF000C4F2020708224FF0010E00254FF0000A4F
:100D00004FF00008B84208BF072200920AE000BF77
:100D100008F101080AF1040AB8F1100F05F1020503
:100D200000F0A4800C680EFA08FB14EA0B09EFD05F
:100D30004C6804F0030CACF1010EBEF1010F11D8A8
:100D40000322876802FA05F6CA68B743AA403A4305
:100D500082604268C4F3001722EA0B0207FA08F720
:100D60003A434260BCF1030F1CD0C26803238E6873
:100D700003FA05F7BA4306FA05F73A43BCF1020F46
:100D8000C2600FD16FF0030202EA580202440AF077
:100D90001C060F23176A03FA06F40B69A743B34036
:100DA0003B431362026803234F68AB409A4307F04A
:100DB0000303AB401A4317F4403F4FF0010E0260AB
:100DC000A6D0002243F644030292C4F202031A683A
:100DD00043F6004442F480421A601A68C4F20104E7
:100DE00002F480420292029A28F003024FF6084B66
:100DF0002244CFF6FF7B52F80B300AF00C070F2687
:100E0000BE4023EA060C019B009E072B38BF1E46FE
:100E100006FA07F747EA0C0342F80B30A2684B6862
:100E200042EA090743F60C4CDE0258BF22EA0907E2
:100E3000A760C4F2010CDCF800209E0242EA090718
:100E400058BF22EA0907CCF8007062689E0342EAA4
:100E5000090758BF22EA090767602268DB0342EAF4
:100E6000090358BF22EA0903236051E703B0BDE834
:100E7000F08F0000002A08BF09048161704700005C
:100E800044F21400C2F200000068704740F26400AF
:100E900044F21401C2F20000C2F2000100780A68B4
:100EA000104408607047000080B543F60040C4F26B
:100EB0000200016841F400710160016841F4806141
:100EC0000160016841F480710160032000F098F82E
:100ED0000F2000F005F800F05BF8002080BD000056
:100EE00070B586B0002543F640010195C4F20201B9
:100EF0000A68044642F010020A60096801A801F07D
:100F0000100101910199694600F02EF9049E002E0E
:100F100018BF012600F04EF94DF68361B040C4F2CF
:100F20001B31A0FB01014FF0FF3000EB914140F27B
:100F3000382041F20002C2F20000C4F2000240F286
:100F4000E733C0E90021C0E902530561856100F083
:100F50001FFB0546C0B940F23820C2F2000000F085
:100F600047FB054680B9362000F036F80F2C0AD82A
:100F700036202146002200F033F840F26800C2F229
:100F80000000046000E00125284606B070BD0000A6
:100F900080B582B0002043F640010190C4F2020106
:100FA0004A6842F480424A604A6802F480420192F0
:100FB000019A00900868002240F08050086008689C
:100FC0000F2100F08050009000986FF0010000F0B9
:100FD00007F802B080BD000080B502F001FA80BDC4
:100FE00070B514460D46064602F012FA294622460E
:100FF00001F00CFE0146304602F01AFA70BD000006
:1010000080B502F027FA80BD2DE9F041002800F0FC
:101010008B8043F60808C4F202080446D8F8F803A7
:101020000D4600F00700884207D288F8F853D8F838
:10103000F80300F00700A84276D12068810717D591
:10104000410705D5D8F8001041F4E051C8F8001068
:10105000010705D5D8F8001041F46041C8F8001028
:10106000D8F80010A26821F0F0011143C8F8001070
:10107000C0073FD1D8F8F80300F00700A84207D90D
:1010800088F8F853D8F8F80300F00700A8424BD1CD
:101090002068410707D5D8F80010E26821F4E05134
:1010A0001143C8F80010000708D5D8F800002169DE
:1010B00020F4604040EAC100C8F8000000F08CF85D
:1010C000D8F8001044F60802C1F30311C0F600027C
:1010D000515C40F2000220FA01F140F26800C2F2D5
:1010E00000000068C2F200021160FFF7F9FE002064
:1010F000BDE8F0816068811E022907D258F8081CFB
:1011000089015CBF0120BDE8F08110E0012807D112
:1011100058F8081C89035CBF0120BDE8F08106E097
:1011200058F8081C890702D40120BDE8F081D8F8DE
:10113000001021F003010843C8F80000FFF7A0FEEB
:10114000064641F2883700BFD8F80000616800F019
:101150000C00B0EB810F8DD0FFF792FE801BB842E0
:10116000F2D90320BDE8F0810F22026043F60802A5
:10117000C4F20202136803F003034360136803F030
:10118000F0038360136803F4E053C360D2F800C037
:101190004FF4E05303EADC030361D2F8F80300F0F4
:1011A000070008607047000040F20000C2F2000033
:1011B0000068704780B5FFF7F7FF43F60801C4F2F7
:1011C0000201096844F61802C1F38221C0F6000248
:1011D000515CC84080BD000010B543F60404C4F261
:1011E0000204606800F00C0142F200400829C0F2DD
:1011F000F40007D0042918BF10BD41F20020C0F24E
:101200007A0010BD216801F03F022168236849027D
:10121000C3F3881105D4A1FB00010023FFF725F8D3
:1012200006E041F20020C0F27A004843B0FBF2F041
:1012300021680222C1F3014102EB4101B0FBF1F050
:1012400010BD00002DE9F04182B0002800F0A1801F
:101250000446007843F60006C007C4F2020643D0F5
:10126000B06800F00C00042805D1306880033BD53D
:101270006068C8BB8DE0B06800F00C00082802D19F
:1012800070684002F1D46568B5F5A02F0AD0B5F5B5
:10129000803F0BD0306820F480303060306820F41C
:1012A000802006E0306840F480203060306840F4F0
:1012B00080303060FFF7E4FD002D054611D000BFFF
:1012C0003068800310D4FFF7DBFD401B6428F7D99A
:1012D00020E100BFFFF7D4FD401B64284FF003005E
:1012E00054D830688003F5D4207880071AD5B068C8
:1012F00010F00C0F09D0B06800F00C00082840F086
:1013000088807068400200F184803068800702D5D0
:10131000E06801283DD13068216920F0F80040EAFA
:10132000C10030602078000737D4207840074AD4C5
:10133000A56955B3B06800F00C00082840F09C8007
:10134000012D26D07068E16900F480028A4220D124
:10135000216A00F03F028A421BD147F6C071626ADF
:101360000140B1EB821F14D1A16A4FF6FF73C9038C
:10137000994300F44032A1F580318A4209D1E16AF3
:1013800000F07060B0EB016F03D1002002B0BDE847
:10139000F081012002B0BDE8F0816069002840F2D0
:1013A0000000C4F2472056D00121C0F8801EFFF78C
:1013B00067FD0546706F8007B7D4FFF761FD401BDE
:1013C0000228F7D9A6E0306C10F080580AD100202E
:1013D0000190306C40F080503064306C00F08050F0
:1013E0000190019847F20007C4F200073868C00571
:1013F00024D4386840F480703860FFF741FD05461A
:101400003868C0051AD4FFF73BFD401B0228F7D906
:1014100080E0E068002851D00020C4F2472001217C
:101420000160FFF72DFD0546306880073FF573AF7B
:10143000FFF726FD401B0228F6D96BE0A568052DB5
:1014400050D0012D52D0306F20F001003067306F46
:1014500020F004004DE00021C0F8801EFFF710FDD1
:10146000054600BF706F80077FF55FAFFFF708FD8F
:10147000401B0228F6D94DE00027C4F24727002080
:101480003866FFF7FDFC022D05460BD13068800160
:1014900058D5FFF7F5FC401B02284FF00300F5D9A3
:1014A00074E700BF306880017FF56FAFFFF7E8FC9D
:1014B000401B02284FF00300F4D967E70020C4F274
:1014C000472000210160FFF7DBFC054630688007FC
:1014D0007FF528AFFFF7D4FC401B02284FF0030034
:1014E000F4D953E7306F40F004003067306F40F0BC
:1014F00001003067FFF7C4FC002D054641F2883734
:1015000014D000BF306F800713D4FFF7B9FC401B25
:10151000B842F7D9032002B0BDE8F081FFF7B0FC74
:10152000401BB8424FF003003FF630AF306F8007EA
:10153000F4D4B8F1000F7FF4FBAE306C20F0805093
:101540003064F5E604F11C052FCD084340EA821013
:10155000D9034FF6FF729143A1F5803140EA05604F
:101560000843706001203866FFF78AFC044600BF1C
:10157000306880013FF509AFFFF782FC001B0228AD
:101580004FF00300F4D901E77047000070470000F6
:10159000002804BF0120704710B5044690F83D00B4
:1015A00028B9002084F83C00204600F01FF80220F3
:1015B00084F83D002068211D01F04AFE012084F8D6
:1015C000460084F83E0084F83F0084F8400084F828
:1015D000410084F8420084F8430084F8440084F811
:1015E000450084F83D00002010BD00007047000059
:1015F00090F83D1001291CBF01207047022180F89E
:101600003D10006841F2FF72C168C4F200029042CE
:1016100041F00101C1600DDC40F2FF71C4F2000134
:10162000884215DCB0F1804F29D040F20041C4F26D
:10163000000122E040F2FF31C4F20101884212DCD5
:1016400041F60001C4F20001884218D0002112E0E6
:1016500040F60001C4F20001884210D040F600417B
:10166000C4F2000109E044F20001C4F20101884221
:1016700005D040F20041C4F20101884206D18168E0
:1016800001F00701062904BF00207047016841F0FE
:1016900001010160002070477047000010B504464A
:1016A00000680169890744BFC1685FEA817138D465
:1016B00020680169490744BFC1685FEA41713CD4B1
:1016C00020680169090744BFC1685FEA017141D41C
:1016D00020680169C90644BFC1685FEAC16145D499
:1016E00020680169C9071CBFC1685FEAC1714AD19E
:1016F00020680169090644BFC1685FEA016149D4F5
:1017000020680169490644BFC1685FEA416148D465
:1017100020680169890644BFC1685FEA816147D4D6
:1017200010BD6FF0020101610121217780698007FE
:1017300045D02046FFF7B0FF47E06FF0040101619C
:1017400002212177806910F4407F41D02046FFF7C5
:10175000A3FF43E06FF00801016104212177C06914
:1017600080073ED02046FFF797FF40E06FF0100162
:10177000016108212177C06910F4407F3AD02046EA
:10178000FFF78AFF3CE06FF001010161204600F0A5
:101790003FF8ADE76FF0800101612046FFF7F4FEEE
:1017A000AEE76FF040010161204600F03DF8AFE781
:1017B0006FF0200101612046FFF7E8FE10BD2046D2
:1017C00000F022F8204600F021F8002020776FE793
:1017D000204600F019F8204600F018F80020207785
:1017E0006EE7204600F010F8204600F00FF80020C9
:1017F00020776DE7204600F007F8204600F006F855
:10180000002020776CE70000704700007047000060
:1018100080B5006841F20001C4F20001884208BFAF
:10182000FFF734FB80BD000070470000FEE70000BA
:1018300010B50446043004F1080104F10C0200F074
:101840001DFF04F1100004F1140104F1180200F06E
:10185000A7FE10BD10B584B0044600BF00F03EFFE7
:101860000028FBD144F2E070C0F600008268D0E9A5
:1018700000100392CDE90110204600F025F840F257
:101880002010C2F20000082101F0B4FB40F2481021
:101890009FED0A0ADFED0A0AC2F2000001AA002148
:1018A00001F0C4FA40F2C420DFED060AC2F20000E3
:1018B000B3EE040A00F050F804B010BD00007A4402
:1018C0000000000000004843F0B581B00446002548
:1018D00040F2FF76002703E0B74207F1010722D26A
:1018E0002046FFF7A5FFB7F5967FF5D994ED010ADD
:1018F00094ED072A94ED021A30EE020A94ED082ABC
:1019000094ED033A84ED070A31EE020A94ED091AC8
:1019100084ED080A33EE010A022084ED090A01353C
:1019200001F042FED8E7A8B200EE100A94ED071AC3
:1019300094ED082A94ED093AB8EE400A81EE001AB7
:1019400082EE002A83EE000A84ED071A84ED082A4D
:1019500084ED090A01B0F0BD00214FF07E524161D3
:1019600080ED090AC0ED0A0AC0E90721C262C0E998
:101970000011704781B043F63001C4F202010A68D9
:1019800002430A60096808400090009801B070475F
:1019900081B043F64001C4F202010A6802430A60C2
:1019A000096808400090009801B0704781B043F684
:1019B0004400C4F20200016841F4805101600068F3
:1019C00000F480500090009801B0704746F20C007F
:1019D000C4F202004FF480610160704746F20C00CF
:1019E000C4F202004FF400610160704746F29C00AF
:1019F000C4F20200016821F0040101607047000098
:101A000044F62002C0F60002515C0A5822F001029E
:101A10000A50704744F62002C0F60002515C0A5892
:101A200042F480220A50704744F62002C0F60002B9
:101A3000515C0A5842F001020A50704744F62002F5
:101A4000C0F60002515C085800F400207047000006
:101A500044F62002C0F60002515C0844406880B29F
:101A60007047000044F62002C0F60002515C08589E
:101A700000F001007047000046F28800C4F2020046
:101A80000168042262F35B610160704744F6200341
:101A9000C0F60003595C0B5823F400231A430A5084
:101AA0007047000044F62003C0F60003595C4FF66F
:101AB000FF73084441689943114341607047000037
:101AC00046F28800C4F20200016821F0C001016002
:101AD0007047000044F62003C0F60003595C084438
:101AE000016902617047000044F62003C0F600035C
:101AF000595C0844C260704746F28800C4F2020094
:101B0000016841F4806101607047000046F288007E
:101B1000C4F20200016821F4C04101607047000076
:101B200046F28800C4F20200016841F4807121F09D
:101B3000200101607047000044F62003C0F6000356
:101B4000595C08448260704746F28800C4F2020083
:101B5000016821F4007101607047000046F28800BE
:101B6000C4F20200016821F4C05101607047000016
:101B700046F28800C4F202000168022262F31141B9
:101B8000016070472DE9F0410C46096891FAA1F215
:101B9000B2FA82F731FA07F235D005464FF0010864
:101BA0000EE062692846314600F040F86268284637
:101BB000314600F04DF82168013731FA07F022D0A4
:101BC00008FA07F011EA0006F5D06068013801282C
:101BD00009D8A2682846314600F060F8E268284635
:101BE000314600F045F822692846314600F046F8B3
:101BF00060680228DAD13006D3D0626928463146BF
:101C000000F004F8D2E70020BDE8F08191FAA1F1DC
:101C1000B1FA81F1D0F820C089000F238B402CEA63
:101C2000030302FA01F1194301627047090A91FAAC
:101C3000A1F1B1FA81F1D0F824C089000F238B40C3
:101C40002CEA030302FA01F11943416270470000D4
:101C500091FAA1F1B1FA81F1D0F800C04900032353
:101C60008B402CEA030302FA01F11943016070472B
:101C700043688B43514319434160704791FAA1F186
:101C8000B1FA81F1D0F80CC0490003238B402CEA53
:101C9000030302FA01F11943C160704791FAA1F1FF
:101CA000B1FA81F1D0F808C0490003238B402CEA37
:101CB000030302FA01F119438160704743F60800FB
:101CC000C4F20200006800F0F000704743F608001C
:101CD000C4F20200006800F4E050704743F60800C8
:101CE000C4F20200006800F46040704743F6080048
:101CF000C4F20200006800F00C00704710B5044602
:101D000001F00AF9206001F0DDF8606001F0E8F808
:101D10006168A060084601F0F1F8E06010BD0000C5
:101D200043F60400C4F20200006800F03F00704770
:101D300043F60400C4F20200006800F4800070471B
:101D400043F60400C4F202000068C0F38810704734
:101D500043F60400C4F20200006800F4403070470B
:101D6000016841F040010160704700002DE9F04337
:101D700081B00D46044600F03DF808B1012029E08D
:101D800020684FF6BF7120EA010C95E80E4205F17C
:101D9000140841EA0C011143194398E8C00141EAD3
:101DA000090141EA0E013143286A394341EA080139
:101DB000014321606168B0F5005F21F0040141EA50
:101DC0001641616005D1696A204600F017F80020CD
:101DD00000E00020E16921F40061E16101B0BDE8AB
:101DE000F0830000806800F0010070478068C0F355
:101DF000400070470068C0F38010704789B20161ED
:101E00007047000043F20400C4F20100016821F0B1
:101E1000100101607047000040F22040C4F2000051
:101E2000016841F4807101607047000041F2104088
:101E3000C4F200006FF0010101607047016821F0F9
:101E40008001016070470000816821F0800181609D
:101E50007047000040F24440C4F20000016841F4C1
:101E6000004101607047000041F20040C4F20000F0
:101E7000016841F0010101607047000040F200403C
:101E8000C4F20000016841F00101016070470000E8
:101E900041F20C40C4F20000016841F00101016010
:101EA00070470000416941F0010141617047000045
:101EB00070B50D4640F6FF3104460068C4F20001DB
:101EC00040F200468C42C4F201060FDCB4F1804FB0
:101ED00019D040F20042C4F20002944213D040F6FE
:101EE0000002C4F2000294420DD010E040F600421D
:101EF000C4F20002944206D0B44204D00022C4F2DC
:101F00000102944203D16A6820F07000104341F648
:101F1000FF72C4F2000294420DDC8C421FDCB4F16B
:101F2000804F41D040F20041C4F200018C423BD0CE
:101F300040F6000121E043F6FF71C4F201018C423A
:101F400020DC42F20001C4F200018C422CD00021BE
:101F5000C4F201018C4227D0B44225D028E040F6DB
:101F60000041C4F200018C421ED041F60001C4F2CF
:101F700000018C4218D041F60041C4F200018C42AD
:101F800012D015E044F20001C4F201018C420BD0E2
:101F900044F60001C4F201018C4205D044F2004134
:101FA000C4F201018C4203D1E96820F44070084377
:101FB0002060A968204600F067F82988204600F0D4
:101FC0006FF844F48060B04203D12969204600F0E4
:101FD00069F82046FFF766FF002070BD41F210400F
:101FE000C4F20000006800F00100704740F21C409D
:101FF000C4F20000016821F0040101607047000094
:1020000040F21C40C4F20000016841F00801016088
:102010007047000080B50346FF294FF0010009DC3E
:10202000012914D010291DD11846114600F046FE92
:10203000002080BDB1F5807F0FD0B1F5805F18BF63
:1020400080BD1846114600F0C1FE002080BD184634
:10205000114600F0F1FD002080BD1846114600F049
:1020600071FE002080BD00004163704781637047AE
:10207000C163704740F23C40C4F20000002101609F
:102080007047000001647047C162704740F2084029
:10209000C4F20000016844F20702914301607047F6
:1020A0008162704701637047416821F070014160AF
:1020B0007047000081B0016800910099406800906D
:1020C000009801B0704700006FF020010160704778
:1020D00044F21040C4F20000016821F49041016014
:1020E000416821F02A0141607047000044F20C4031
:1020F000C4F20000016841F4005101607047000023
:10210000C16841F40051C16070470000143000BF45
:1021100050E8001F41F0400140E80012002AF7D1CA
:10212000704700000C3000BF50E8001F41F0100164
:1021300040E80012002AF7D17047000070B584B063
:102140000D46044600F068F810B1012004B070BDDF
:10215000E06849F20C6120EA010CD5E901E1D5E91A
:1021600003364CEA0E00AA69184330431043E0607E
:10217000204600F0A1F86969204600F097F868460B
:10218000FFF7BCFD44F6FF70C4F2000084424FF03C
:10219000000114DC44F20040C4F20000844223D069
:1021A00044F60000C4F2000084421DD044F6004012
:1021B000C4F20000844208BF0299D9B9C5E745F2CC
:1021C0000000C4F2000084420ED041F20040C4F28C
:1021D000010084420BD041F20000C4F201008442AD
:1021E00008BF039931B9B0E7029919B9ADE703996E
:1021F0000029AAD02B68002BA7D0AA69204600F09E
:102200000FF8002004B070BD0068C0F300107047E4
:102210000068C0F340107047C068C0F3403070479A
:1022200010B504461920B2F5004FA1FB00011CD1E6
:102230005A00DB0FFEF719F848F21F51C5F2EB11F7
:10224000A0FB01235A096FF0630302FB0300322352
:1022500003EBC000A0FB01014FF4F87000EA11107D
:1022600000EB0210C1F342111AE09A009B0FFDF738
:10227000FCFF48F21F51C5F2EB11A0FB01235A09E4
:102280006FF0630302FB0300322303EB0010A0FB9B
:102290000101F02000EA511000EB0210C1F34311DC
:1022A0004FF6F07210400844A06010BD426922F45D
:1022B0004072114341617047026922F44052114358
:1022C00001617047B0B501207521012400F01AFAB0
:1022D00005460A2001F068F9702D40F08980012040
:1022E0006B21802200F074FA0A2001F05DF90120D0
:1022F0006B210022002400F06BFA0A2001F054F94F
:1023000001206821072200F063FA0A2001F04CF94D
:1023100001206B21032200F05BFA0A2001F044F94E
:1023200001206C21002200F053FA0A2001F03CF950
:1023300001201A21002200F04BFA0A2001F034F9A2
:1023400001201921002200F043FA0A2001F02CF9A3
:1023500001201A21002200F03BFA0A2001F024F9A2
:1023600001201B21182200F033FA0A2001F01CF989
:1023700001201C21102200F02BFA0A2001F014F990
:1023800001203821012200F023FA0A2001F00CF983
:1023900001203721012200F01BFA0A2001F004F984
:1023A000012027210D2200F013FA0A2001F0FCF889
:1023B000012067210D2200F00BFA0A2001F0F4F849
:1023C000012027210D2200F003FA0A2001F0ECF889
:1023D00001206B21012200F0FBF90A2001F0E4F852
:1023E00001206C21002200F0F3F90A2001F0DCF852
:1023F0002046B0BD10B50220752100F083F90446D7
:102400000A2001F0D1F8702C1CBF012010BD022061
:102410006B21802200F0DCF90A2001F0C5F80220CF
:102420006B210022002400F0D3F90A2001F0BCF84F
:1024300002206821072200F0CBF90A2001F0B4F84D
:1024400002206B21032200F0C3F90A2001F0ACF84E
:1024500002206C21002200F0BBF90A2001F0A4F850
:1024600002201A21002200F0B3F90A2001F09CF8A2
:1024700002201921002200F0ABF90A2001F094F8A3
:1024800002201A21002200F0A3F90A2001F08CF8A2
:1024900002201B21182200F09BF90A2001F084F889
:1024A00002201C21102200F093F90A2001F07CF890
:1024B00002203821012200F08BF90A2001F074F883
:1024C00002203721012200F083F90A2001F06CF884
:1024D000022027210D2200F07BF90A2001F064F888
:1024E000022026210D2200F073F90A2001F05CF889
:1024F000022027210D2200F06BF90A2001F054F888
:1025000002206B21012200F063F90A2001F04CF84F
:1025100002206C21002200F05BF90A2001F044F84F
:10252000204610BD2DE9F04782B00DF1020790461C
:102530008946824601203B2106223B4600F010F9E5
:10254000BDF80200BDF8045004BABDF806003B21F6
:1025500006BA022006223B4600F002F9BDF804103C
:10256000BDF80200C9BA01EB244101EBD171490861
:1025700000BAAAF80010E9BAA1EB2040BDF8062085
:1025800000EBD0704008A9F80000D0BA00EB26405C
:1025900000EBD0704008A8F8000002B0BDE8F0875A
:1025A00070B582B014460D4606460DF1060001A92D
:1025B0000DF10202FFF7B6FFBDF906009FED0F1AFD
:1025C00000EE100AB8EEC00ABDF9040020EE010AC0
:1025D00086ED000A00EE100AB8EEC00ABDF902004E
:1025E00020EE010A85ED000A00EE100AB8EEC00ADE
:1025F00020EE010A84ED000A02B070BD00008039AF
:102600002DE9F04782B00DF10207904689468246D7
:102610000120432106223B4600F0A2F8BDF802004B
:10262000BDF8045004BABDF80600432106BA0220E2
:1026300006223B4600F094F8BDF80410BDF80200F5
:10264000C9BA01EB244101EBD171490800BAAAF8DB
:102650000010E9BAA1EB2040BDF8062000EBD070D5
:102660004008A9F80000D0BA00EB264000EBD0707B
:102670004008A8F8000002B0BDE8F08770B582B04D
:1026800014460D4606460DF1060001A90DF10202A1
:10269000FFF7B6FFBDF906009FED0F1A00EE100A16
:1026A000B8EEC00ABDF9040020EE010A86ED000A6A
:1026B00000EE100AB8EEC00ABDF9020020EE010AD1
:1026C00085ED000A00EE100AB8EEC00A20EE010AFD
:1026D00084ED000A02B070BDF8C1793D80B5FFF706
:1026E000F1FD10B9FFF786FE08B1012080BDFFF7AC
:1026F000B1FBFFF7C3FBFFF78FFBFFF7BBFC00202D
:1027000080BD0000F0B581B043F20005C4F20105C0
:1027100005F558440F4606460128204603D0022EF0
:1027200005D105F5504010210022FEF7A3FB47F02C
:102730008001284600F030FC2846FF2100F02CFCE8
:10274000012E074603D0022E06D105F5504420463F
:1027500010210122FEF78EFB384601B0F0BD0000CB
:102760002DE9F04381B043F20005C4F2010505F5FF
:102770005849984617460C4606460128484603D055
:10278000022E05D105F5504010210022FEF772FB04
:1027900044F08001284600F0FFFB57B1A8F1010486
:1027A0002846FF21013F00F0F7FB002F04F8010F3E
:1027B000F6D1012E03D0022E06D105F55049484628
:1027C00010210122FEF756FB01B0BDE8F0830000A6
:1027D0002DE9F04143F20005C4F2010505F5584426
:1027E00090460F4606460128204603D0022E05D10A
:1027F00005F5504010210022FEF73CFB28463946E3
:1028000000F0CAFB2846414600F0C6FB012E05D069
:10281000022E18BFBDE8F08105F550442046102176
:102820000122FEF727FBBDE8F081000010B540F261
:10283000E81046F20041C2F20000C4F20001032297
:1028400000234FF0012480E80E0000F10C014FF44A
:10285000002C4FF4401E81E8085084618383FEF70A
:1028600077F8002808BF10BDFDF740FE10B540F214
:10287000102046F60001C2F20000C4F2000103225B
:1028800000234FF0012480E80E0000F10C014FF40A
:10289000002C4FF4401E81E8085084618383FEF7CA
:1028A00057F8002808BF10BDFDF720FE80B54FF493
:1028B0000010FFF75FF800F0A3FD00F091F901466A
:1028C000102000F0ADFD102000F07AFD80BD00006A
:1028D0002DE9F04786B0002743F630000597CDE993
:1028E0000377CDE901770097C4F202000168002464
:1028F00041F0800101600168C4F2020401F080012E
:102900000091009900970168012241F001010160E6
:1029100001684FF0100801F0010100910099009743
:1029200001684FF0010941F004010160016801F004
:102930000401009100990097016841F002010160D3
:102940000068102100F00200009000982046FEF779
:1029500091FA04F50065284610210122FEF78AFA53
:1029600001AE4FF0020A20463146CDE901890397B6
:10297000CDF810A0FEF7B0F928463146CDE901891F
:10298000CDE9037AFEF7A8F906B0BDE8F0870000AC
:1029900070B590B006AC20462821FDF7DEFC00267D
:1029A000CDE90466CDE90266CDE90066FEF7FEFFDB
:1029B0000120FEF7DFFFE0200090022001900320BD
:1029C00043F20005CDE902060520C4F20105059099
:1029D00005F5504069460496FFF7D4F84FF482702D
:1029E0000696CDE907064FF40070CDE909660B9015
:1029F0001020CDE90C060A200F90284621460E969D
:102A0000FFF7B4F9FFF7FEF910B070BD70B594B0E0
:102A1000002502201395CDE91155CDE90F55CDE9DB
:102A20000D55CDE90B55CDE90955CDE90755CDE952
:102A30000555CDE90355CDE901550226FEF7A8FF5E
:102A4000532040F20044ADF83C0040F2E730C4F2BD
:102A500000041095CDE911050FA92046FFF728FACB
:102A60002046FFF7EBF9FFF711FBFFF7C9FA6020EB
:102A7000CDE9070507AA20464FF48071CDE9095535
:102A80000B95FFF7C7FAFFF7B1FA2046FFF70CFBEB
:102A90002046FFF7D9F90220FEF76CFF0120CDE9AF
:102AA000010604F5003001A9CDE90355CDE905562D
:102AB000FFF768F814B070BD10B586B00024202070
:102AC0000594CDE90344CDE90144FEF761FF00F030
:102AD00097FC00F085F80146372000F0A1FC372074
:102AE00000F06EFC5320029441F20044ADF8040063
:102AF0004FF6FF70C4F20004039001A92046FFF7CF
:102B0000D7F92046FFF79AF92046FFF7CDFA20467D
:102B1000FFF79AF906B010BDB0B58EB000254FF49E
:102B200000300D95CDE90B55CDE90955CDE9075597
:102B3000CDE90555CDE90355CDE90155FEF728FF4F
:102B40000120FEF717FF0C200190022002900320C5
:102B500044F20044CDE903050720C4F200040690C6
:102B600004F5DE3001A90595FFF70CF8FEF784FFA8
:102B7000FEF7A6FFFEF7FCFFFEF7D2FFFEF7E4FF2D
:102B8000FEF7BAFFFEF7EAFFFEF7C0FFFEF72EFFE3
:102B900000F036FC00F024F80146262000F040FC4E
:102BA000262000F00DFC48F2A060C0F20100CDE943
:102BB00007054FF480600A9004200995CDE90B05C4
:102BC00007A920460D95FFF7B9FAFFF781FAFFF73D
:102BD0008DFA0EB0B0BD0000FEE70000FEE7000079
:102BE00000F0070080F00701042928BF04214FF0FE
:102BF000FF32033802FA01F14FF0050238BF00201E
:102C000022EA010101FA00F07047000000F007001D
:102C100080F00703042B28BF04234FF0FF3C033848
:102C20000CFA03F338BF0020994381400CFA00F0FE
:102C300022EA0000084370472DE9F0410446006A8B
:102C400040F2004220F00100206244F48060C4F2AF
:102C50000102256A6368D4F818C090420A6948687E
:102C600025F0030522F00102D1F800E042EA050256
:102C700042EA000514D101F1140825F00C0098E88F
:102C800060016FF004078A6807EA8505284340EA77
:102C9000820523F4407026F40072104340EA480392
:102CA0002CF0730040EA0E006360A061C968204602
:102CB000FFF7DAF92562BDE8F08100002DE9F04167
:102CC0000446006A6FF0100620F010002062256AAA
:102CD0006368D4F818C00A69D1E900E025F030052E
:102CE00006EA021240F200462A4344F48065C4F228
:102CF0000106B54242EA001516D101F1140825F08B
:102D0000C00098E860016FF040078A6807EA8515FF
:102D1000284340EA821523F44060B20040F60303E2
:102D20009A43104340EAC8032CF4E64040EA0E20E0
:102D30006360A061C9682046FFF798F92562BDE885
:102D4000F08100002DE9F0410446006A40F2FF16D0
:102D500020F480702062256A6368D4F81CC00A6978
:102D6000D1E900E0120225F44075B24340F200467A
:102D70002A4344F48065C4F20106B54242EA0025C4
:102D800016D101F1140825F4406098E8600140F282
:102D9000FF77AD028A68BD43284340EA822523F4C9
:102DA0004050320142F20F039A43104340EA481365
:102DB0002CF0730040EA0E006360E061C9682046B1
:102DC000FFF756F92562BDE8F0810000F0B581B04B
:102DD0000446006A40F2004720F480502062206AD6
:102DE0006268E369D1E900EC0D6944F48066C4F2DD
:102DF0000107BE4204D18E6922F4804242EA861263
:102E000023F4E6432D0341F6FF7643EA0E2320F434
:102E10004050B5436260E3612843C96840EA0C351D
:102E20002046FFF72FF9256201B0F0BD002818BF3A
:102E3000002A00D1704780B5136801704360536861
:102E400028218360926880ED040AC260C0ED050A03
:102E50002030FDF782FABDE8804070470000000096
:102E6000EFF30980BFF36F8F154B1A681EF0100F38
:102E700008BF20ED108A20E9F04F10602DE909000D
:102E80004FF0500080F31188BFF34F8FBFF36F8F67
:102E900001F086F94FF0000080F31188BDE80900C9
:102EA00019680868B0E8F04F1EF0100F08BFB0ECCA
:102EB000108A80F30988BFF36F8F704700BF00BF8F
:102EC0005C03002010B50446FEF7F8FE44F6080146
:102ED000C0F30310C0F60001085C24FA00F010BD36
:102EE00010B50446FEF7F2FE44F61801800AC0F65B
:102EF0000001085C24FA00F010BD000010B5044683
:102F0000FEF7ECFE44F61801400BC0F60001085C29
:102F100024FA00F010BD000080B5FEF7E7FE082897
:102F20000AD0042819BF42F20040C0F2F40041F276
:102F30000020C0F27A0080BD082000F001F880BDBA
:102F400010B50446FEF7F4FE082C1CBF002010BD8F
:102F500042F20044C0F2F404B0F5800F04BF41F225
:102F60000024C0F27A04002804BF42F20044C0F2F8
:102F7000F404FEF7D5FEB4FBF0F4FEF7E1FE4443A3
:102F8000FEF7E6FE000C022101EB4000B4FBF0F07E
:102F900010BD00007047000070B50D46044640F2B9
:102FA000F51600BF2046FEF721FF08B9013EF9D112
:102FB000E56040F2F51500BF2046FEF713FF08B9A3
:102FC000013DF9D1E068C0B270BD00000000000012
:102FD000074B19680868B0E8F04F80F30988BFF321
:102FE0006F8F4FF0000080F31188704700BF00BF63
:102FF0005C0300200829C4BF01207047024600205E
:10300000C2E90810C2E90000C2E9020070470000EE
:1030100040F2D814C2F20004FFF7BCFF206800F0B1
:10302000B7FBF9E7A0F20120032888BF704780B5FD
:1030300003A252F8200000F0F9FABDE88040704782
:10304000040000201C000020340000204C00002060
:1030500080B54FF0500080F31188BFF36F8FBFF33E
:103060004F8F01F071FA30B14EF60450CEF20000ED
:103070004FF080510160002080F3118880BD000076
:1030800070B592B006AC20463021FDF766F90025F8
:1030900043F640000595CDE90355CDE9015500956E
:1030A000C4F202000168022641F08051016000680C
:1030B00000F080500090009847F200000095C4F2A4
:1030C0000000016841F4804101600068A82100F41B
:1030D000804000900098012006904FF480300790C7
:1030E0004FF480000D9004200C960E90CDE90F1641
:1030F00011902046FEF7A6F888B90F20CDE9010609
:103100004FF4A05004904FF48050059001A8052181
:103110000395FDF779FF002804BF12B070BDFDF7DD
:10312000E5F900004EF68850CEF20000016841F447
:103130007001016070470000B0B5012000F09CF9FB
:1031400043F20000C4F2010000F0DAF940F29810F6
:10315000C2F2000043F2D95300F12001C0F600038F
:10316000202200F0D1F940F2E815C2F2000543F246
:10317000A132C0F600022846022100F08BF940F28D
:103180001024C2F2000443F2B132C0F6000220461D
:10319000022100F07FF940F2F940C0F6000000F093
:1031A00039FA2846002140F2012240F2FF33FDF7B0
:1031B00053F92846082140F2022240F2FF33FDF77E
:1031C0004BF92846102140F2032240F2FF33FDF76D
:1031D00043F9284618214FF4017240F2FF33FDF7FE
:1031E0003BF920467C2140F2012240F2FF33FDF7FB
:1031F00033F92046842140F2022240F2FF33FDF7EA
:103200002BF920468C2140F2032240F2FF33FDF7D8
:1032100023F9204694214FF4017240F2FF33FDF769
:103220001BF940F28020C2F20000FEF713FB4FF4BE
:10323000967000F0B9F9B0BD80B540F23820C2F206
:103240000000FEF72BFA80BD80B500F097F880BD36
:1032500010B540F6FF3E0368C4F2000E40F2004C89
:103260007045C4F2010C0FDCB0F1804F19D040F270
:103270000042C4F20002904213D040F60002C4F2B1
:10328000000290420DD010E040F60042C4F200026D
:10329000904206D0604504D00022C4F20102904260
:1032A00003D14A6823F07003134341F6FF72C4F25E
:1032B000000290420DDC70451FDCB0F1804F41D020
:1032C00040F20042C4F2000290423BD040F60002BD
:1032D00021E043F6FF72C4F20102904220DC42F288
:1032E0000002C4F2000290422CD00022C4F201027B
:1032F000904227D0604525D028E040F60042C4F235
:10330000000290421ED041F60002C4F20002904238
:1033100018D041F60042C4F20002904212D015E0EB
:1033200044F20002C4F2010290420BD044F60002C3
:10333000C4F20102904205D044F20042C4F20102FC
:10334000904203D1CA6823F44073134323F08002F0
:103350004B69D1F800E08C681A430260C46240F403
:103360008062C0F828E0624504BF09690163012159
:10337000416110BD80B500F0A5FC80BD80B5FEF7B1
:103380002DFE012818BF80BDFEF750FD40F29410BD
:10339000C2F2000001680131016080BDFEE700005B
:1033A00080B5014651F81C0BFDF78AF880BD00007E
:1033B00080B5014651F81C0BFFF734FE80BD0000BC
:1033C000C1B200F01F00012202FA00F04EF200121A
:1033D000CEF2000242EAD10121F0030108607047F9
:1033E000002848BF704700F01F01012202FA01F1D6
:1033F0004EF200124009CEF2000242F8201070474F
:103400004EF60C50CEF200000068C0F30220704768
:103410004EF60C50CEF200000068C0F30220704758
:10342000E422C0F2E002090162F31F20017070473C
:103430004EF6145300F00F02CEF2000309011A44B5
:1034400000F16043B0F1FF3FC8BF03F56442117063
:10345000704700004EF60C51CEF200010A684FF69C
:10346000FF031A4060F30A2242F0806040F0FD70D2
:10347000086070477047000080B540F2DC11C2F26E
:1034800000010870FEF7F0FCFEF702FDFEF7CEFC2F
:1034900080BD000070B514460D460646FDF7CCFB16
:1034A0003068416921F40041416125B1022D04D009
:1034B000012D06D009E0022104E0416941F002013A
:1034C0004161102142691143416146F20041C4F259
:1034D000000188420AD046F60001C4F20001884289
:1034E0000BD140F25830C2F2000003E040F25430F9
:1034F000C2F200000460002070BD012070BD000019
:1035000080B5FEF72DFC80BDF0B581B0074644F2D2
:103510000400C2F20000028044F20800C2F200007F
:10352000076044F20C00C2F20000016044F2100097
:1035300046F20004C2F20000C4F202040360A4F5E3
:10354000063015460E46A0F57F7220460521FEF78F
:10355000F3FA204605213A46FEF7C6FA2046052131
:103560003246FEF7B7FA204605212A46FEF79AFAB8
:1035700020460521FEF74EFA20460521FEF740FAC7
:1035800020460521FEF750FAA4F507342046FEF741
:10359000BDFD2046FEF7C6FD2046FEF78BFD20460A
:1035A000FEF7AEFD01B0F0BD10B540F2DC11C2F285
:1035B00000010978044651B1FCF79EFF4FF47A717F
:1035C00004FB0104FCF798FF8442FBD210BD2046A7
:1035D000FDF76EFB10BD0000122918BF704780B5C3
:1035E00082B040F2E011C2F2000102220A7040F201
:1035F0009012C2F20002126848604FF0000C1046B0
:1036000003220023CDF800C000F008FF02B0BDE89F
:103610008040704700280FBF002040F2D001C2F266
:103620000001086018BF0120704700000288428036
:103630000A8812BA120C02804A8812BA120C02824C
:10364000898809BA090C418201884288891AB1F532
:10365000805F02DD4FF0FF3106E001884288891A61
:1036600011F5805F03DA0121826811448160017DD8
:1036700041B101290ED10188818000218160C160A2
:103680000175704781680288838802EB4131C91A4D
:10369000C1607047013901757047000088B0FDF7BF
:1036A00003FCFFF7EDFCFFF713F9FFF7FFF8FFF757
:1036B000BDF8FFF7DBF8FFF72FFAFFF7FDF9FFF78B
:1036C00067F9FFF7A3F9FFF737FD44F2EC70C0F696
:1036D000000090E80E50D0E905400191029203935A
:1036E000CDF810C0CDF814E0CDE9064001A80021C6
:1036F00000F016F840F2D811C2F20001086000F0A4
:1037000009F800BFFEE70000B0F1840118BFC11C3A
:103710000846704780B500F0FBFC002080BD00002B
:103720002DE9F04385B047690C46A7B1856995B18D
:10373000D0E90086D0F81090B0F90800FFF7E4FF58
:10374000CDE90007304641464A462346029500F03F
:1037500029FE049013E0D0E90056078AB0F908006A
:10376000FFF7D2FF0DF1100C0090304629463A4683
:103770002346CDF804C000F0E1FD012803D10498F0
:1037800005B0BDE8F083002005B0BDE8F08300007F
:1037900080B500F045FC002080BD000070B50446F7
:1037A00000F070FB44F21800C2F20000016840F221
:1037B0005C3501310160C2F20005296844F2E0166F
:1037C000C2F2000641B1306860B92868E16AC06A97
:1037D000884298BF2C6005E02C600068012801D168
:1037E00000F00CF944F22400C2F20000016844F237
:1037F000280201310160E06AC2F20002012113686F
:1038000081401943116040F26C3100EB8000C2F23C
:10381000000101EB8000211D00F01CFB00F056FBB5
:10382000306880B12868E16AC06A884228BF70BDEC
:103830004EF60450CEF200004FF080510160BFF30D
:103840004F8FBFF36F8F70BDF0B581B044F21C0590
:10385000C2F200052868E0B144F2002644F21807DD
:10386000C2F20006C2F2000700F00CFBF068C46868
:10387000201D00F0BDFA386801383860286801382A
:10388000286000F023FB204600F006F82868002896
:10389000EAD101B0F0BD000010B5044690F8510027
:1038A000022808BF10BD012803D030B9206B00F0FA
:1038B00025FB204600F022FB10BD4FF0500080F3A6
:1038C0001188BFF36F8FBFF34F8F00BFFEE700007B
:1038D00040F2F830C2F20000C21D22F0070210F0E0
:1038E000070CA0EB020318BF104644F2E412C2F228
:1038F00000020021C2E900014FF47052BCF1000F38
:1039000018BF03F570520244083A40F2643322F0C3
:103910000702C2F200031A60C2E90011111A1A6804
:10392000C0E9002144F2B410C2F20000016044F288
:103930005800C2F20000016044F22C00C2F2000004
:10394000012101707047000040F26C344EF60455BE
:10395000C2F20004CEF200054FF08056FFF774FF6C
:1039600020680228FAD32E60BFF34F8FBFF36F8F0A
:10397000F4E700002DE9F047DDE909878246386B5E
:10398000089C00EB82000438994620F0070679B1C4
:1039900007F13400002200BF8B5C83548B5C1BB1A9
:1039A0000F2A02F10102F7D3002087F8430002E05A
:1039B000002087F834000025381D062C28BF062477
:1039C000FC62C7E9114500F041FA07F1180000F068
:1039D0003DFA84F00700B861304651464A463F61DF
:1039E0007F62FD6487F8505000F058F9B8F1000F7D
:1039F000386018BFC8F80070BDE8F087B0B540F275
:103A00006C350024C2F20005281900F013FA1434B2
:103A10008C2CF9D144F23004C2F20004204600F0AC
:103A200009FA44F24405C2F20005284600F002FA01
:103A300044F2CC10C2F2000000F0FCF944F2002085
:103A4000C2F2000000F0F6F944F2EC10C2F20000FD
:103A500000F0F0F940F26030C2F20000046040F281
:103A60006830C2F200000560B0BD000080B544F2CD
:103A7000E412C2F2000200BF114612688242FBD378
:103A8000D1F804C001EB0C03834203D140686044C9
:103A900048600846D0F804E000EB0E03934201D0E2
:103AA000026010E040F26433C2F20003D3F800C0B9
:103AB000624506D00B6852681B687244C0E9003248
:103AC00001E0C0F800C0814218BF086080BD00005E
:103AD00008480068006880F308884FF0000080F311
:103AE000148862B661B6BFF34F8FBFF36F8F00DFEC
:103AF00000BF00BF08ED00E040F26030C2F20000FD
:103B00000168096821B10068C068C068406801E0C8
:103B10004FF0FF3044F2B811C2F200010860704764
:103B200081B00020009040F26C00C2F200000068FA
:103B30004FF0500181F31188BFF36F8FBFF34F8FA8
:103B4000013001D0FEE700BF00980028FCD001B092
:103B5000704700002DE9F04381B0044600F018FBE7
:103B600040F26436C2F200063068002808BFFFF752
:103B7000AFFE44F22C08C2F2000898F800000028BA
:103B800018BF4FF0004020420DD0002400F08EFD01
:103B900060071ED04FF0500080F31188BFF36F8F85
:103BA000BFF34F8FFEE7C4B104F1080111F0070025
:103BB0001EBF081A00F108015FEA41700ED04FF0F5
:103BC000500080F31188BFF36F8FBFF34F8F00BF9A
:103BD000FEE7204601B0BDE8F083002144F2580919
:103BE000C2F20009D9F800004A1E8242CDD244F246
:103BF000E410C2F2000005682F4657F8042F8A42ED
:103C000011D22B685BB100BF1F4657F8042F28461E
:103C10001D468A4207D22B68002BF5D103E044F2FF
:103C2000E410C2F2000033689D42AED004682B68F5
:103C3000521A112A036010D36818430709D04FF0B5
:103C4000500080F31188BFF36F8FBFF34F8F00BF19
:103C5000FEE742603960FFF709FF44F2B4113868AB
:103C6000D9F80020C2F200010B68121A9A42C9F872
:103C7000002038BF0A6098F80010083400294FF07F
:103C8000000118BF40F00040296044F2C011C2F2A8
:103C900000010A683860501C086077E7034643F665
:103CA0002130C0F600004FF0807C21F0010103E9D3
:103CB00003106FF0020043F8240CA3F1440043F812
:103CC000202C7047B0B546F20004C4F20204A4F5FB
:103CD00007352846FEF79CFA012803D12846FEF74F
:103CE000F3F9B0BD2846FEF78FFA012848D12846DF
:103CF000FEF7E0F920460521FDF7A0FE0546204627
:103D00000521FDF77DFE20460521FDF7ABFE002DC8
:103D100040D000BF48B120460521FDF771FE204686
:103D20000521FDF79FFE0028F5D1FDF757FEFDF7B1
:103D30004DFE204605210022FDF7A8FE44F20400B6
:103D4000C2F20000058820460521FDF781FE281AF1
:103D500044F20005C2F20005288020460521FDF747
:103D600063FE44F21000C2F200000268002A08BF9D
:103D7000B0BD44F20C00C2F20000006829889047F0
:103D8000B0BD00BF20460521FDF73AFE20460521C3
:103D9000FDF768FE0028F5D1FDF720FEFDF716FEC1
:103DA000204605214FF40022FDF770FE44F2040086
:103DB000C2F20000058820460521FDF749FE281AB9
:103DC00044F20005C2F20005288020460521FDF7D7
:103DD0002BFE44F21000C2F200000268002ACFD08D
:103DE00044F20800C2F20000006829889047B0BD84
:103DF000D0E90123016993604B68D0F808C0834281
:103E0000CCF8042001D182684A600022026108686F
:103E1000013808600868704744F26013C2F200037A
:103E2000036044F25C00C2F20000086040201060B1
:103E3000704700004FF0FF31024642F8081F002192
:103E40004260C0E903220160704700000021016167
:103E500070470000D0F800C0436808619A684B6062
:103E60008A609A68996051600CF1010101607047A5
:103E7000DFF80C00016841F470010160704700BF79
:103E800088ED00E04FF0500080F31188BFF36F8F92
:103E9000BFF34F8F40F26C00C2F2000001684A1C71
:103EA000026001B170474EF60450CEF20000006887
:103EB000000608BF70474FF0500080F31188BFF331
:103EC0006F8FBFF34F8F00BFFEE7000040F26C0022
:103ED000C2F20000016839B10139016018BF7047B2
:103EE000002080F3118870474FF0500080F3118854
:103EF000BFF36F8FBFF34F8FFEE70000B0B5002810
:103F000008BFB0BD044644F22C00C2F200000078A5
:103F100054F8041C002818BF4FF0004008420CD091
:103F2000A4F108052A6892B14FF0500080F311887F
:103F3000BFF36F8FBFF34F8FFEE74FF0500080F35A
:103F40001188BFF36F8FBFF34F8F00BFFEE721EAE9
:103F5000000044F8040C00F01BF944F25801C2F2CE
:103F6000000154F8040C0A68104408602846FFF762
:103F70007DFD44F2C410C2F200000168013101600D
:103F800000F094FBB0BD00004EF21000CEF2000035
:103F900000210160816040F20001C2F20001096865
:103FA00044F6D352C1F26202A1FB02124FF0FF317C
:103FB00001EB92114160072101607047EFF305802A
:103FC000102814D34EF2F031CEF20001405C43F6DB
:103FD000F871C2F200010978884208D24FF050000F
:103FE00080F31188BFF36F8FBFF34F8FFEE74EF65C
:103FF0000C50CEF2000043F6FC710068C2F20001E2
:10400000096800F4E060884298BF70474FF05000A4
:1040100080F31188BFF36F8FBFF34F8FFEE700006F
:1040200070B50446FFF72EFF40F25C36002CC2F25A
:10403000000608BF3468251D2846FFF7D9FEA0B941
:10404000E06A40F26C3200EB8001C2F2000252F8EA
:10405000211051B944F22802C2F200020121136872
:1040600001FA00F023EA00001060A06A18B104F120
:104070001800FFF7BDFE44F22400C2F20000016800
:1040800001310160306884420CD044F21800C2F261
:1040900000000168013901602046FFF7FDFBFFF7D2
:1040A0002BFD0DE044F20020C2F200002946FFF78C
:1040B000D1FE44F21C00C2F200000168013101602F
:1040C000FFF704FF44F2E010C2F200000068E8B11C
:1040D0003068844218BF70BD44F22000C2F2000074
:1040E000006840B14FF0500080F31188BFF36F8F2C
:1040F000BFF34F8FFEE74EF60450CEF200004FF0B4
:1041000080510160BFF34F8FBFF36F8F70BD000010
:1041100010B586B0002405A804A903AACDE904447B
:10412000FFF77AFEDDE9032005990023CDE90101BF
:1041300043F64910C0F6000013A1009400F032F9D4
:1041400044F25C11C2F200010860D8B14FF0500097
:1041500080F31188BFF36F8FBFF34F8F44F2B81015
:10416000C2F200004FF0FF31016044F2E010C2F2F1
:1041700000000121016044F21420C2F2000004603A
:1041800000F052F806B010BD49444C450000000054
:1041900044F22000C2F20000016801310160704762
:1041A00044F22000C2F20000006830B144F218204E
:1041B000C2F2000001210160704744F21820C2F2EF
:1041C00000000021016044F22800C2F200000068F3
:1041D000B0FA80F0C0B2C0F11F0040F26C3100EBC9
:1041E0008000C2F2000151F8202092B101EB800062
:1041F00050F8041F4968021D9142016001D14968CD
:104200000160006840F25C31C068C2F200010860E1
:1042100070474FF0500080F31188BFF36F8FBFF3EA
:104220004F8F00BFFEE7000080B582B04EF2004025
:10423000CEF200004CF27021C4F20F11D0F8002928
:104240004B1C9A4209D14FF0500080F31188BFF304
:104250006F8FBFF34F8F00BFFEE7D0F800298A426F
:1042600009D14FF0500080F31188BFF36F8FBFF377
:104270004F8F00BFFEE7017843F6F8720191FF21EE
:1042800001700178C2F200028DF803109DF803104E
:1042900001F05001117043F6FC71C2F200010722D7
:1042A0000A609DF90320B2F1FF3F0CDC0A6800BFF1
:1042B0009DF80330013A5B008DF803309DF903301F
:1042C000002BF5D40A600A68032A2DD14FF4E0636D
:1042D00003EA02220A6001990170D0F8201941F422
:1042E0007001C0F82019D0F8201941F07041C0F8D1
:1042F0002019FFF749FE40F26C00C2F200000021D5
:104300000160FFF7B5FD4EF63470CEF20000016893
:1043100041F040410160FFF7DBFBFFF741FFFFF792
:10432000FFFB002002B080BD4FF0500080F31188E9
:10433000BFF36F8FBFF34F8FFEE700002DE9F0430F
:1043400083B007469000984615468946FFF702FC61
:1043500078B106465420FFF7FDFB38B104460663EA
:1043600054B94FF0FF3003B0BDE8F0833046FFF79B
:10437000C5FD0024002CF4D0DDE90A10002284F8E9
:104380005120CDE90010384649462A46434602945A
:10439000FFF7F0FA2046FFF701FA012003B0BDE86D
:1043A000F083000070B586B00B9CCCB10C9E06B3B8
:1043B00054250495049D542D25D1049DDDF828C075
:1043C000022586F8515005AD3463CDE900C502964B
:1043D000FFF7D0FA3046FFF7E1F9059806B070BD57
:1043E0004FF0500080F31188BFF36F8FBFF34F8FF2
:1043F000FEE74FF0500080F31188BFF36F8FBFF3DB
:104400004F8F00BFFEE74FF0500080F31188BFF3DD
:104410006F8FBFF34F8F00BFFEE700002DE9F04123
:1044200020B31D46174604460E46FFF7C7FDEFF3BF
:1044300011884FF0500080F31188BFF36F8FBFF3E6
:104440004F8F002D1CBFE06C286094F850000221B3
:10445000042F84F8501012D80125DFE807F0230359
:104460001C262000E16C3143E1641FE04FF0500056
:1044700080F31188BFF36F8FBFF34F8FFEE7E16CBE
:10448000013113D04FF0500080F31188BFF36F8FCC
:10449000BFF34F8FFEE7E16C0131E16406E00228D3
:1044A00003D1002501284AD103E0E6640125012853
:1044B00045D1A06A48B14FF0500080F31188BFF396
:1044C0006F8FBFF34F8F00BFFEE744F22000C2F2B0
:1044D0000000006830B144F2CC1004F11801C2F2BF
:1044E000000016E0261D3046FFF782FC44F2280249
:1044F000E06AC2F200020121136881401943116091
:1045000040F26C3100EB8000C2F2000101EB800050
:104510003146FFF79FFC40F25C31C2F20001E06AD5
:104520000968C96A88420AD9069800281CBF012177
:10453000016044F21820C2F200000121016088F3FA
:1045400011882846BDE8F0812DE9F04F81B044F292
:104550002000C2F20000006840B144F2C810C2F26C
:10456000000001680024013101609BE044F2142046
:10457000C2F2000001684E1C066021D340F2603098
:10458000C2F200000168096849B14FF0500080F3A1
:104590001188BFF36F8FBFF34F8F00BFFEE740F26C
:1045A0006832C2F2000201681368036044F2BC1072
:1045B0001160C2F20000016801310160FFF79CFA4E
:1045C00044F2B811C2F20001086840F25C3A864237
:1045D000C2F2000A01D200244EE040F2603BC2F277
:1045E000000BDBF8000000240068D8B344F228096F
:1045F0000127C2F200091FE0D8F82C00D9F80010FA
:1046000007FA00F21143C9F8001040F26C3100EBD8
:104610008000C2F2000101EB80002946FFF71AFC7E
:10462000D8F82C00DAF80010C96ADBF800208842BC
:10463000106828BF3C46C0B1DBF80000C068D0F865
:104640000C80454655F8040F864210D32846FFF7E4
:10465000CFFBD8F828000028CED008F11800FFF7CB
:10466000C7FBC9E74FF0FF3005E04FF0FF3044F2E1
:10467000B811C2F200010860DAF8000040F26C31B3
:10468000C06AC2F2000100EB800051F8200001284E
:1046900044F21820C2F2000088BF012400680028FC
:1046A00018BF0124204601B0BDE8F08F2DE9F04F7E
:1046B00081B044F22004C2F20004206868B1FFF720
:1046C000E1FB206801382060206880B10024FFF7FA
:1046D000FDFB204601B0BDE8F08F4FF0500080F3A5
:1046E0001188BFF36F8FBFF34F8F00BFFEE744F217
:1046F0001800C2F20000006800285FD044F2CC1617
:10470000C2F20006306844F21828C2F2000898B3DA
:1047100044F2280540F26C3940F25C3A4FF0010B4C
:10472000C2F20005C2F20009C2F2000AF068C768CE
:1047300007F11800FFF75CFB3C1D2046FFF758FB14
:10474000F86A29680BFA00F2114300EB8000296037
:1047500009EB80002146FFF77DFBF86ADAF80010CC
:10476000C96A884228BFC8F800B030680028DDD187
:10477000002F18BFFFF7C0F944F2C814C2F20004BA
:1047800025685DB1012600BFFFF7DEFE002818BFD7
:10479000C8F80060013DF7D100202060D8F8000083
:1047A00070B14EF60450CEF200004FF0805101601F
:1047B000BFF34F8F0124BFF36F8F88E7002486E794
:1047C000002484E7F1EE100A4FF6FF71C0F2C03109
:1047D00020EA010040F04070E1EE100A704700004E
:1047E0000000C8430000003F0000003F28480008C8
:1047F00011300008000000000000000080000000F0
:1048000000000000000000000000000000000000A8
:104810000102030406070809000000000102030466
:10482000102840587088A0B864656661756C74542F
:1048300061736B0058480008000000207000000001
:10484000C4010008C848000870000020B0470000FC
:10485000E0010008000000000024F4000000000057
:104860000000000000000000000000000000000048
:104870000500000000000000000000000000000033
:104880000000000000000000050000000000000023
:104890000000000000000000000000000000000018
:1048A0000500000000000000000000000000000003
:1048B00000000000000000000500000001000000F2
:0848C00010000000AAAAAAAA38
:040000050800018965
:00000001FF
