:020000040800F2
:10000000C8040020B10100088F160008A1140008E0
:100010008D1600087D040008851700080000000008
:10002000000000000000000000000000931600081F
:100030005B050008000000009116000895160008F6
:10004000CB010008CB010008CB010008CB01000860
:10005000CB010008CB010008CB010008CB01000850
:10006000CB010008CB010008CB010008CB01000840
:10007000CB010008CB010008CB010008CB01000830
:10008000CB010008CB010008CB01000800000000F4
:10009000000000000000000000000000CB0100088C
:1000A000CB0100085B170008CB010008CB0100085A
:1000B000CB010008CB010008CB010008CB010008F0
:1000C000CB010008CB010008CB010008CB010008E0
:1000D000CB010008CB010008CB01000800000000A4
:1000E000CB010008CB010008CB0100080000000094
:1000F000000000000000000000000000CB0100082C
:1001000000000000CB010008CB010008CB01000873
:1001100000000000000000000000000000000000DF
:1001200081040008CB010008CB010008CB010008C6
:10013000CB010008000000000000000000000000EB
:10014000000000000000000000000000CB010008DB
:10015000CB010008CB010008CB010008CB0100084F
:10016000CB010008CB0100080000000000000000E7
:10017000000000000000000000000000000000007F
:1001800000000000CB01000800000000000000009B
:10019000CB010008CB010008DFF810D000F07CF89C
:1001A00000480047ED170008AFF30080C8040020A6
:1001B0000648804706480047FEE7FEE7FEE7FEE701
:1001C000FEE7FEE7FEE7FEE7FEE7FEE72917000889
:1001D000990100082DE9F05F0546002092469B46F4
:1001E00088460646814640241BE02846414647464D
:1001F000224600F041F853465A46C01A914110D3A6
:1002000011461846224600F028F82D1A67EB01081F
:100210004F4622460120002100F01FF817EB00098D
:100220004E41201EA4F10104DFDC484631462A4637
:100230004346BDE8F09FD2B201E000F8012B491E11
:10024000FBD270470022F6E710B513460A46044673
:100250001946FFF7F0FF204610BD202A04DB203AA4
:1002600000FA02F1002070479140C2F1200320FA09
:1002700003F3194390407047202A04DB203A21FA07
:1002800002F00021704721FA02F3D040C2F12002AF
:100290009140084319467047064C074D06E0E06858
:1002A00040F0010394E8070098471034AC42F6D3BD
:1002B000FFF776FF281800084818000810B5014617
:1002C000886B026C12F0500F05D0026CD20626D556
:1002D00000F0FEF910BD016C41F400710164016889
:1002E0008A6812F0405F17D1027EAAB9CA6A12F476
:1002F000700F02D08A6852050ED44A6822F020029C
:100300004A60016C21F480710164016CC90403D45A
:10031000016C41F00101016400F0D8F910BD806B5F
:10032000C26CBDE810400846104710B5806B4021F4
:100330000164416C41F00401416400F0C9F910BD51
:1003400010B5806B00F0C3F910BD00004A494A683F
:1003500022F440324A604A6843681A434A6001689E
:100360004A6822F480724A6001684A68036942EA76
:1003700003224A6001684A6822F040724A600168BC
:100380004A6883681A434A6001688A6822F40062F6
:100390008A6001688A68C3681A438A60816A6FF05C
:1003A0007062D14214D001688A6822F070628A605B
:1003B00001688A68836A1A438A6001688A6822F041
:1003C00040528A6001688A68C36A1A438A6009E0F9
:1003D00001688A6822F070628A6001688A6822F087
:1003E00040528A6001688A6822F002028A600168CD
:1003F0008A68037E42EA43028A6090F8201089B13D
:1004000001684A6842F400624A6001684A6822F45E
:1004100060424A6001684B68426A521E43EA4232B7
:100420004A6004E001684A6822F400624A60016898
:10043000CA6A22F47002CA620168CB6A828B521EB9
:1004400043EA0252CA6201688A6822F400728A6032
:1004500001688A6890F8303042EA43228A60016875
:100460008A6822F480628A6001688A68406942EA88
:10047000802088607047000000230140FEE70000F4
:10048000014800F03DBA0000640000200168CAB2D3
:10049000103A1823B2FBF3F2064B9B5CC3656FF373
:1004A0000901032A02D9091D816500E08165806D7B
:1004B000704700000E18000810B5014600208A6A37
:1004C0008B694FF0C074002B0ED0B3F5005F1AD0CB
:1004D00062B3012A2AD0022A28D0032A03D1C96A8A
:1004E000C90100D5012010BD1AB1012A06D0022A87
:1004F000F9D1C96AC901F6D5012010BDC96AA14266
:10050000FBD1012010BD52B1012A0AD0022A06D027
:10051000032AF7D1C96AA142F4D1012010BD0120FC
:1005200010BDC96AC901FBD5012010BD012010BD55
:1005300030B50468256825F480252560046863606B
:100540008368402B04D0036899600068C26030BDA6
:1005500003689A600068C16030BD704772B6FEE7FC
:1005600078B50024009490F83C20012A19D001228B
:1005700080F83C200A680725092A14D90368DE6838
:100580000A3A02EB42029540AE43DE600A788B687D
:100590000A3A02EB420293400268D5682B43D360CB
:1005A00011E0022078BD03681E6902EB420295400B
:1005B000AE431E610A788B6802EB420293400268E8
:1005C00015692B4313614A681F25072A13D2036854
:1005D0005E6B521E02EB82029540AE435E630A8858
:1005E00093B20A79521E02EB820293400268556B65
:1005F0002B43536328E00D2A13D203681E6BD21FCE
:1006000002EB82029540AE431E630A8893B20A79D8
:10061000D21F02EB820293400268156B2B431363D7
:1006200012E00368DE6A0D3A02EB82029540AE43A7
:10063000DE620A8893B20A790D3A02EB8202934095
:100640000268D56A2B43D3621B4A1C4B05689D4246
:100650000AD10D68122D07D1556825F400055560A3
:10066000556845F48005556005689D4220D1144DBC
:100670000B68AB4201D0112B1AD1536823F48003CD
:100680005360536843F4000353600968A9420FD1D3
:100690000C490D4A0968B1FBF2F101EB81014900F7
:1006A000009102E00099491E009100990029F9D1BA
:1006B00080F83C40002078BD00230140002001402C
:1006C000120000100C00002040420F0070477047DD
:1006D000704770B504460026002C03D0206C00251E
:1006E00010B107E0012070BD204600F01DF86564E0
:1006F00084F83C50206CC00610D4206C20F4885044
:1007000040F0020020642046FFF720FE6564206C64
:1007100020F0020040F00100206400E0012684F88F
:100720003C50304670BD000070B586B006461421BE
:1007300001A8FFF787FD1D493068884234D10025A4
:100740001B48016841F480710160006800F480700A
:10075000009017481438016841F0010101600068F9
:1007600000F001000090032001900290039501A980
:10077000104800F04FFA114C0F4820606560A560EA
:10078000E56000152061400060618000A0614011BB
:10079000E061000220626562204600F099F908B12C
:1007A000FFF7DCFEB463A66306B070BD0020014015
:1007B00044380240000002401064024064000020FF
:1007C000F8B504460023009394F83C00012807D0B4
:1007D000012084F83C0020688568ED0702D014E011
:1007E0000220F8BD856845F0010585603D483E4D15
:1007F0000068B0FBF5F000EB4000009002E00098CC
:10080000401E009000980028F9D120688568ED0509
:1008100003D5856825F48075856020688568ED07B7
:1008200056D0256C40F20166B54345F480752564C9
:100830004068400505D5206C20F4005040F48050FD
:100840002064206CC00404D5606C20F00600606455
:1008500000E0636484F83C30244EA36B2448D863E2
:10086000A36B24481864A36B2348D86423686FF0F3
:10087000220018602068436843F08063436020686A
:10088000836843F480738360206813464C300A46C3
:10089000A56B0146284600F085F97068C00608D0AF
:1008A0001649206888421BD1816811F0405F0AD048
:1008B00016E02068816811F0405F11D1816841F035
:1008C000804181600CE0816841F08041816007E0F7
:1008D000206C40F010002064606C40F00100606407
:1008E0000020F8BD0C00002040420F000023014012
:1008F000BD020008410300082B030008002001404E
:100900002DE9F84304464FF00009CDF800906F48F8
:100910004FF416510068B0FBF1F7A56D2E6894F8FE
:100920005C00082202FA00F1314210D02068016810
:1009300049070CD5016821F00401016094F85C00BE
:1009400002FA00F1A960606D40F00100606594F862
:100950005C104FF0010808FA01F0304208D021681D
:100960004969090604D5A860606D40F00200606521
:1009700094F85C1004208840304208D0216809684F
:10098000890704D5A860606D40F00400606594F8A4
:100990005C1010208840304220D021680968090787
:1009A0001CD5A8602068016849030CD500680003C5
:1009B00004D4216C91B1204688470FE0A16C69B145
:1009C000204688470AE00168C90503D4016821F080
:1009D00008010160216C09B12046884794F85C1039
:1009E0002020884030424CD021680968C90648D58B
:1009F000A86094F8350005280BD0206801684903E9
:100A000030D50068000328D4616C51B32046884774
:100A100037E02068016821F0160101602068416913
:100A200021F080014161206C08B9A06C20B12068E0
:100A3000016821F00801016094F85C103F208840B3
:100A4000A86084F8358084F83490216D00293BD06B
:100A500001B02046BDE8F0430847E16B09B12046EC
:100A600088470EE00168C90507D4016821F010012C
:100A7000016084F8358084F83490E16B09B1204638
:100A80008847606D00281FD0606DC00714D0052016
:100A900084F835002068016821F0010101600098A8
:100AA000401C0090B84203D820680068C007F6D107
:100AB00084F8358084F83490E16C002904D001B0CA
:100AC0002046BDE8F0430847BDE8F8830C0000204D
:100AD0002DE9F041044600F071F905465CB10220B1
:100AE00084F83500002684F834602068016821F01D
:100AF000010101600DE00120BDE8F08100F05EF928
:100B0000401B052805D920206065032084F83500A6
:100B1000F2E720680068C007F0D121680A68204821
:100B20000240D4E901031843D4E903352B431843A9
:100B300063691843A3691843E3691843236A184398
:100B40001043626A042A03D1D4E90B231A431043E9
:100B500008602068406920F00700656A294605435F
:100B6000012704290DD1A06A0543E06A48B1204657
:100B7000FFF7A2FC28B14020606584F835700120A1
:100B8000BAE7206845612046FFF780FC94F85C20B6
:100B90003F2191408160666584F835700020ABE7A5
:100BA0003F8010F02DE9F04104460025A66D94F831
:100BB000340001280DD0012084F8340094F83570F9
:100BC0000020012F07D084F8340002252846BDE814
:100BD000F0810220FBE7022784F83570606520462B
:100BE000FFF7A6FC94F85C103F208840B0602068B6
:100BF000016841F016010160206C20B12068016895
:100C000041F0080101602068016841F001010160C4
:100C1000DCE700002DE9F84F0022DFF880914FF06B
:100C2000010803274FF00F0C09F1040AA9F1040B86
:100C300008FA02F50B682B40AB426ED10C7904F038
:100C40000304012C01D0022C15D18668540007FA48
:100C500004FE26EA0E06D1F80CE00EFA04FE4EEA77
:100C6000060EC0F808E04468AC430D79C5F30015E2
:100C70009540254345600C79E443A40708D0C56836
:100C8000540007FA04F6B5438E68A6402E43C660AA
:100C90000C7904F00304022C11D1D40800EB840673
:100CA000356A5407E40E0CFA04FE25EA0E05D1F865
:100CB00010E00EFA04FE4EEA050EC6F820E00568C4
:100CC000540007FA04F6B5430E7906F00306A64071
:100CD0002E4306604C6814F4403F58D0304C2568D1
:100CE00045F480452560246804F4804400942D4C2C
:100CF00022F003052E19D6F8085894074FEA147EFF
:100D00000CFA0EF4A543284CA04201D1002415E0B2
:100D1000264CA04202D1012410E038E0244CA0422D
:100D200001D102240AE0234CA04201D1032405E0B2
:100D3000214CA04201D1042400E0072404FA0EF45F
:100D40002C43C6F80848D9F800409C434D68ED0292
:100D500000D51C43C9F80040DAF800409C434D68B8
:100D6000AD0200D51C43CAF80040DBF800409C43AC
:100D70004D68AD0300D51C43CBF80040074D083D3E
:100D80002C689C434E68F60300D51C432C60521C13
:100D9000102AFFF44DAFBDE8F88F0000083C014079
:100DA000443802400030014000000240000402408C
:100DB00000080240000C0240001002400148806818
:100DC000704700000000002002488168027811444A
:100DD000816070470000002010B50B48016841F4A5
:100DE00000710160016841F480610160016841F4B3
:100DF00080710160032000F071F80F2000F006F808
:100E000000F026F8002010BD003C024070B50446FA
:100E10000D4D4FF47A712878B1FBF0F00B49096859
:100E2000B1FBF0F000F028FB08B1012070BD102CE0
:100E300007D200222146501E00F030F86C600020DE
:100E400070BD012070BD0000000000200C000020DB
:100E500008B50A48016841F480410160006800F467
:100E6000804000900548001F016841F080510160FA
:100E7000006800F08050009008BD00004438024037
:100E8000002809DB00F01F02012191404009800089
:100E900000F1E020C0F8001170470000F0B40D46EA
:100EA0000D4B1B68C3F30223C3F10704042C00D9C4
:100EB0000424191D072901D2002300E0DB1E0126AE
:100EC00006FA04F1491E294099409E40761E1640BC
:100ED0003143F0BC00F057BC0CED00E000F007011E
:100EE000054A10684FF6FF03184040EA0120034905
:100EF00008431060704700000CED00E00000FA05A8
:100F00002DE9F04704460D46002C13D0DFF8289158
:100F1000D9F80000EFB200F00700A8420CD289F81F
:100F20000070D9F8000000F00700A84204D00120AA
:100F3000BDE8F0870120FBE72068404E810712D50D
:100F4000400703D5306840F4E05030602078000757
:100F500003D5306840F4604030603068A16820F00C
:100F6000F000084330602078C00731D03349606812
:100F70000839012808D002280BD0032809D00968B5
:100F800089070BD40120D3E70968890306D401201F
:100F9000CEE70968890101D40120C9E7316821F051
:100FA000030101433160FFF709FF804641F2883AAF
:100FB00007E0FFF703FFA0EB0800504501D903202D
:100FC000B6E73068616800F00C00B0EB810FF0D13B
:100FD000D9F8000000F00700A84209D989F800708C
:100FE000D9F8000000F00700A84201D001209FE7D7
:100FF0002078400705D53068E16820F4E0500843C8
:1010000030602078000706D53068216920F4604000
:1010100040EAC100306000F019F83168084AC1F3B5
:101020000311515CC8400749086007480068FFF792
:10103000EDFE00207CE70000003C02400838024042
:10104000161800080C0000200400002010B51748F6
:10105000006810F00C01164816D0164B042912D067
:10106000082911D1114C241F216801F03F02216889
:1010700049020AD52068C0F38810A0FB03010023B1
:10108000FFF7A8F809E0184610BD21680023C1F356
:101090008811A1FB0001FFF79DF82168C1F3014110
:1010A000491C4900B0FBF1F010BD000008380240B7
:1010B0000024F40040787D012DE9F84F0446002C0F
:1010C00013D02078DFF8A083C007A8F1040556D01C
:1010D00008F104000168C1F3810101290CD0006806
:1010E000C0F38100022803D00DE00120BDE8F88F95
:1010F000D8F80000400206D5286880033FD5606814
:1011000070BB0120F2E76068B0F5803F10D0B0F509
:10111000A02F12D0286820F480302860286820F49E
:10112000802028606068E0B1FFF748FE064614E0C2
:10113000286840F480302860F4E7286840F4802074
:101140002860286840F480302860EBE7FFF736FE1F
:10115000801B642801D90320C8E728688003F5D5DF
:101160000DE0FFF72BFE064606E0FFF727FE801B8B
:10117000642801D90320B9E728688003F5D42078D2
:10118000BA4F80074FF0000948D5B748001D0168E5
:1011900011F00C0F08D00068C0F38100022813D1B1
:1011A000D8F8000040020FD42868800704D5E06812
:1011B000012801D0012099E72868216920F0F80072
:1011C00040EAC100286029E0E068B8B10120386039
:1011D000FFF7F4FD064606E0FFF7F0FD801B02284E
:1011E00001D9032082E728688007F5D5286821699E
:1011F00020F0F80040EAC10028600FE0C7F8009036
:10120000FFF7DCFD064606E0FFF7D8FD801B02284D
:1012100001D903206AE728688007F5D42078000701
:1012200029D5DFF844A2924861690AF1700A89B1B0
:1012300001210160FFF7C2FD064606E0FFF7BEFD93
:10124000801B022801D9032050E7DAF8000080074C
:10125000F4D510E0C0F80090FFF7B0FD064606E0B8
:10126000FFF7ACFD801B022801D903203EE7DAF826
:1012700000008007F4D42078400778D54FF0000AAA
:1012800079483C300068C0000BD477483C30016896
:1012900041F080510160006800F0805000904FF0F4
:1012A000010ADFF8D0B1DBF80000C00514D4DBF888
:1012B000000040F48070CBF80000FFF77FFD064689
:1012C00006E0FFF77BFD801B022801D903200DE714
:1012D000DBF80000C005F4D5634EA0686C36012829
:1012E0000FD0052812D0306820F00100306030683F
:1012F00020F004003060A068F8B1FFF75FFD83467E
:1013000017E0306840F001003060F4E7306840F0EA
:1013100004003060306840F001003060EBE7FFF718
:101320004DFDA0EB0B0141F28830814201D9032031
:10133000DCE630688007F2D510E0FFF73FFD83461A
:1013400009E0FFF73BFDA0EB0B0141F28830814241
:1013500001D90320CAE630688007F2D4BAF1010F40
:1013600005D141483C30016821F080510160A069FD
:10137000C0B33D49091D09684FF0FF36C1F3810133
:10138000022946D0022805D0C7F86090FFF716FD65
:1013900004463AE0C7F86090FFF710FD814607E089
:1013A000FFF70CFDA0EB0900022801D903209DE600
:1013B00028688001F4D4D4E907010843616AA26A6D
:1013C000890106EB520241EA0241084394F82C10CD
:1013D00040EA0160C8F8000001203866FFF7EEFC23
:1013E000044607E03DE0FFF7E9FC001B022801D9B5
:1013F00003207BE628688001F5D532E0FFF7DEFCAC
:10140000001B022801D9032070E628688001F5D46A
:1014100027E0012823D0D8F80000E26900F4800119
:1014200091421AD1226A00F03F01914215D147F64C
:10143000C071626A0140B1EB821F0ED1A26A00F452
:10144000403106EB5202B1EB024F06D194F82C105A
:1014500000F07060B0EB016F03D0012046E6012080
:1014600044E6002042E60000043802400000474203
:10147000800E47420070004010B5401EB0F1807FE2
:1014800001D3012010BD4FF0E02460610F216017EF
:1014900000F079F90020A06107202061002010BD34
:1014A000FEE70000F0B502681D4B1E4C9F031E4D69
:1014B0001E4E984207D0B84205D0A04203D0A842A1
:1014C00001D0B04205D1D1F804C022F0700242EA46
:1014D0000C02984210D0B8420ED0A0420CD0A842C4
:1014E0000AD0B04208D0124CA04205D0114CA04204
:1014F00002D0114CA04203D1CC6822F440722243A6
:1015000002608A68C2620A888262984201D10969CF
:101510000163416941F0010141610020F0BD00001B
:10152000000001400004004000080040000C0040A2
:101530000040014000440140004801407FB50024C4
:1015400000940194029403941848174901604FF4E1
:1015500080314160846001250561057680F8204076
:10156000C46213498162C4600226C66180F83050AB
:101570004561FFF7AEF808B1FEF7F0FF0094019562
:10158000029469460948FEF7EBFF08B1FEF7E6FF53
:101590000095019669460548FEF7E2FF002801D054
:1015A000FEF7DCFF7FBD0000002001401C00002092
:1015B0000100000F08B50948016841F4800101608D
:1015C000006800F480000090002211463820FFF7E8
:1015D00065FCBDE808403820FFF752BC30380240B7
:1015E00008B50948016841F080010160016801F017
:1015F00080010091016841F001010160006800F084
:101600000100009008BD00003038024010B586B0DF
:10161000142101A8FEF716FE1848016841F40031B4
:101620000160006800F40030009015480068C0F3C5
:101630000220011D072901D2002000E0C01E002267
:1016400002FA00F108010F4908704FF0E0214FF055
:101650000070C1F800016320ADF8040002924FF65B
:10166000FF7003900492084C01A92046FFF71AFF6F
:10167000216821F08001216006B010BD443802408D
:101680000CED00E019E400E000440140FEE7FEE755
:1016900070477047FFF798BB30B593B0302107A86B
:1016A000FEF7D0FD142102A8FEF7CCFD00251C4852
:1016B000016841F080510160006800F080500190A5
:1016C0001848016841F440410160006800F440405E
:1016D0000190012007900004089002240D948001DD
:1016E0000E900C200F906020109011940420129006
:1016F00007A8FFF7E1FC08B1FEF730FF0F200290CA
:10170000039404954FF4805005900695032102A898
:10171000FFF7F6FB002801D0FEF720FF13B030BD25
:1017200040380240007000400248016841F47001F6
:101730000160704788ED00E010B5012000F042F82C
:10174000BDE81040022202490248FFF739B8000004
:10175000100000201C000020704700F001B80000BD
:1017600006480169C1F30001002906D06FF00101AC
:10177000016103484168491C4160704700440140D1
:1017800014000020FEE70907090E002804DB00F121
:10179000E02080F80014704700F00F0000F1E02016
:1017A00080F8141D704702E008C8121F08C1002A03
:1017B000FAD170477047002001E001C1121F002AD2
:1017C000FBD17047074908700748C16841F0010123
:1017D000C1606FF001010161016841F00101016028
:1017E000704700001400002000440140FFF7F4FAA5
:1017F000FFF752FFFFF7F4FEFFF7DCFEFFF706FFEF
:10180000FFF79CFEFFF798FFFFF7A6FFFCE7000637
:101810001016000610160000000000000000010273
:10182000030406070809000048180008000000200B
:101830001C000000A6170008641800081C00002007
:10184000AC040000B6170008010000001000000002
:10185000000000000024F400000000000000000070
:041860000000000084
:040000050800019955
:00000001FF
