:020000040800F2
:10000000A04D00206902000895290008A11F0008E2
:10001000912900087504000819300008000000004C
:10002000000000000000000000000000212C00087B
:10003000ED08000800000000F1290008852C0008E8
:10004000830200088302000883020008830200087C
:10005000830200088302000883020008830200086C
:10006000830200088302000883020008830200085C
:10007000830200088302000883020008830200084C
:10008000E9080008830200088302000883020008D0
:10009000790400088904000883020008830200082C
:1000A000830200088302000883020008830200081C
:1000B000830200088302000883020008830200080C
:1000C00083020008830200088302000883020008FC
:1000D0008302000883020008892F000883020008B9
:1000E00083020008830200088302000883020008DC
:1000F00083020008830200088302000883020008CC
:1001000083020008830200088302000883020008BB
:1001100083020008830200084D2E00085D2E0008AF
:10012000830200088302000883020008830200089B
:1001300083020008000000000000000083020008A5
:1001400099040008A904000883020008830200083B
:10015000830200088302000883020008830200086B
:10016000830200088302000883020008830200085B
:100170008302000883020008000000000000000065
:10018000830200088302000800F002F800F05CF827
:100190000AA090E8000C82448344AAF10107DA45E2
:1001A00001D100F051F8AFF2090EBAE80F0013F0D8
:1001B000010F18BFFB1A43F001031847885B0000CA
:1001C000A85B00000A444FF0000C10F8013B13F04C
:1001D000070408BF10F8014B1D1108BF10F8015BA0
:1001E000641E05D010F8016B641E01F8016BF9D193
:1001F00013F0080F1EBF10F8014BAD1C0C1B09D1EA
:100200006D1E58BF01F801CBFAD505E014F8016B5B
:1002100001F8016B6D1EF9D59142D6D370470000ED
:100220000023002400250026103A28BF78C1FBD8FF
:10023000520728BF30C148BF0B6070471FB505F09B
:10024000B0FC1FBD10B510BD00F0E6F81146FFF779
:10025000F5FF03F015F900F004F903B4FFF7F2FF1E
:1002600003BC02F045FF00000948804709480047E9
:10027000FEE7FEE7FEE7FEE7FEE7FEE7FEE7FEE756
:10028000FEE7FEE704480549054A064B70470000B3
:10029000592D000889010008A0470020A04D00202A
:1002A000A0490020A0490020704753EA020C00F04A
:1002B00069802DE9F04B4FF00006002B1FBFB3FA09
:1002C00083F503FA05F424FA05F65E4012BF1643DF
:1002D000B2FA82F502FA05F4C5F120051EBF22FA32
:1002E00005FC44EA0C04203556EA044C4FEA144459
:1002F00018BF641C4FF000084FF00009904271EBEA
:10030000030C39D3002919BFB1FA81F701FA07F6B6
:10031000B0FA80F700FA07F6C7F120071EBF20FAEF
:1003200007FC46EA0C062037B6FBF4FCA7EB0507F2
:10033000103F07F01F0BCBF120062CFA06F60CFA43
:100340000BFB44BFB3460026202FA4BF5E464FF0F0
:10035000000B5BEA060C08BF4FF0010B19EB0B0911
:1003600048EB0608ABFB027C06FB02CC0BFB03CC84
:10037000C01B71EB0C01C1E70B46024641464846E3
:10038000BDE8F08B13B5084318BF4FF0FF300146AE
:10039000AFF30080BDE81C4070474FF0000200B58D
:1003A000134694469646203922BFA0E80C50A0E898
:1003B0000C50B1F12001BFF4F7AF090728BFA0E846
:1003C0000C5048BF0CC05DF804EB890028BF40F812
:1003D000042B08BF704748BF20F8022B11F0804F54
:1003E00018BF00F8012B704770477047704770477F
:1003F00010B500F009F8006810BD10B5044600F013
:1004000003F8046010BD0000004870479801002008
:1004100000487047980100207546FFF7F9FFAE4687
:1004200005006946534620F00700854618B020B500
:10043000FFF728FFBDE820404FF000064FF000070F
:100440004FF000084FF0000BAC46ACE8C009ACE838
:10045000C009ACE8C009ACE8C00921F007018D462D
:10046000704710B50446AFF300802046BDE8104049
:10047000FFF7F3BEFEE7000080B540F2DC70C2F289
:10048000000000F01BFD80BD80B540F2DC70C2F2C0
:10049000000000F013FD80BD80B540F60400C2F2FC
:1004A000000000F00BFD80BD80B540F60400C2F2F4
:1004B000000000F003FD80BD80B582B040F2F81C62
:1004C000C2F2000C4FEA102E8CF80100080A8CF8DA
:1004D0000200100A8CF80400180A8CF8060040F29A
:1004E000DC708CF800E08CF803108CF805208CF898
:1004F00007304FF0030EC2F200004FF40071624665
:100500000823CDF800E000F05FF802B080BD0000E5
:1005100080B582B040F2002CC2F2000C4FEA102EDF
:100520008CF80100080A8CF80200100A8CF804000C
:10053000180A8CF8060040F604008CF800E08CF8ED
:1005400003108CF805208CF807304FF0030EC2F230
:1005500000004FF4007162460823CDF800E000F07F
:1005600033F802B080BD000080B58AB05FEA817CBC
:1005700008D452010092062202EA41025B01019274
:1005800002930EE04FEAC24CCDF800C04FF0060CCB
:100590000CEA410C4CEAC2020192DA0402924CEAE3
:1005A000C3020392CA08C1F380010592049101219C
:1005B00000220891CDE906210E210991694600F03B
:1005C00069FB0AB080BD000070B582B00546069890
:1005D000164640F20822C2F2000200240328C2E9B3
:1005E0000014C2E90244136125D80FF20601DFE8C6
:1005F00000F0021A1705012001901CE0284600F0C7
:1006000049FC0028FAD02868816849010ED4816825
:1006100009010ED48068C00044BF042001900AE0A4
:100620000420019007E00220019004E001200190E5
:1006300001E00220019040F20821C2F2000101AB6A
:100640002846324600F0D4FAB0FA80F0400902B0F1
:1006500070BD00002DE9F04182B0044600681E2103
:10066000B0F9080004F2B44702F0D2FE4FF68A5502
:1006700049F65866CFF6FF75CFF6FF7646F2A81812
:10068000294640F276223346CDF8008002F0D4FEAF
:1006900000EE100A2068B8EEC00AB0F906001E216C
:1006A00087ED010A02F0B4FE294640F27622334675
:1006B000CDF8008002F0C0FE00EE100A2068B8EE0F
:1006C000C00AB0F902001E2187ED000A02F0A0FE68
:1006D0004EF2C0034FF4FA56CFF6FF73294640F2AC
:1006E0007622009602F0A8FE404200EE100AB8EE14
:1006F000C00A87ED020A02B0BDE8F0812DE9F04F93
:1007000083B0044602F046FE019440F2600740F2D6
:10071000C00540F20001019E4FF00009C2F200073F
:10072000C2F20005C2F200014FF0000B4FF00008CA
:10073000206000BF029106EB0904029A04F16400F4
:10074000002101F02FFC04F5EA7000212A4601F097
:1007500029FC04F5517000213A4601F023FC0121E7
:1007600006EB8800C0F8C014002084F8B61084F8A6
:10077000241284F8941384F8961384F8261206EB56
:100780000B0AC4F27A405FFA88F4CAF808002046DF
:1007900002F0E8FDCAF80400204602F0EFFD0299DD
:1007A00009F15C0908F101080BF10C0B1837183539
:1007B000B9F5B87F01F11801CAF83400BAD103B015
:1007C000BDE8F08F10B50446FFF744FF204600F067
:1007D000A5F8204600F002F810BD00002DE9F04F0A
:1007E00081B000266FF0030A00240090009F07EB01
:1007F000040B0BF59A68BD1907EB0A0098ED000A87
:10080000D5ED1F0A90ED031A05F1640902F0DAF93B
:1008100004EB44000744786888ED000AB0F9100042
:10082000F0EE400A00EE100AB8EEC00A484602F0A8
:100830005FFE95ED230A796BBDEEC00A10EE100A3B
:10084000B88191ED030A0BF59C61D1ED000A05F525
:100850005170B8EEC00A02F04BFE786BB0F9101080
:10086000D5EDDB0A00EE101A05F5EA70B8EEC00A05
:1008700002F03EFE95ED7F0A5C36BDEEC00A10EE3A
:10088000100A0434B6F5B87F0AF10C0AB887ADD166
:1008900001B0BDE8F08F000082B003F0F3FF40F23A
:1008A000C024C2F2000401902046FFF727FF01ADEB
:1008B0002846012103F0FEFC2046FFF783FFB4F930
:1008C0000C00B4F91810B4F92420B4F93030FFF753
:1008D000F3FDB4F93C00B4F94810B4F95420B4F96C
:1008E0006030FFF715FEE3E7704700007047000037
:1008F000A0F20120032888BF704780B503A252F8F8
:10090000200002F04DFDBDE88040704778080020CF
:1009100090080020A8080020C0080020B0B52DEDE8
:10092000088B00F2B44595ED001A0446B5EE401A66
:10093000F1EE10FA0ED195ED010AB5EE400AF1EE96
:1009400010FA07D195ED020AB5EE400AF1EE10FA61
:1009500000F01F8195ED020A9FED96AA95ED012A00
:1009600020EE0A3A32EE430A71EE430A04F02AF905
:100970009FED918A95ED001A20EE080A85ED0F0A89
:1009800095ED020A95ED012A20EE0A3A32EE430A6D
:1009900071EE030A04F016F920EE080A85ED100A3C
:1009A00095ED020A95ED001A95ED012A20EE0A3A1E
:1009B00032EE030A71EE030A04F004F920EE080A8D
:1009C00085ED110A95ED020A95ED001A95ED012AC3
:1009D00020EE0A3A32EE030A71EE430A04F0F2F80E
:1009E00020EE080A85ED120A9FED740A9FED741A35
:1009F0009FED742A002011E00123B0EE404A33EE4F
:100A0000043AC1F8C03482ED003A23EE023A01F50F
:100A10009C6181ED003A0430102813D0211801F5B3
:100A20009E6292ED003AB5EE403AF1EE10FAE3DA4A
:100A3000B5EE403AF1EE10FAEDDA4FF0FF33B0EEDA
:100A4000414ADCE7D4F8C00495ED011A404200EEBB
:100A5000100AB8EEC0BA95ED020AB0EE008A20EE98
:100A60000A0A31EE400AF0EE480A04F001FAB0EE4C
:100A7000409A95ED020A95ED001A20EE0A0A31EE31
:100A8000400AF0EE480A04F0F3F939EE000AB1EE3C
:100A9000C00AD4F8C40420EE0B0A404285ED0A0ACD
:100AA00000EE100AB8EEC0BA95ED020A95ED011AF3
:100AB00020EE0A0A31EE400AF0EE480A04F0D8F9B6
:100AC000B0EE409A95ED020A95ED001A20EE0A0A62
:100AD00031EE000AF0EE480A04F0CAF939EE000AD5
:100AE000B1EEC00A04F5996020EE0B0A90ED001AF1
:100AF00085ED070A95ED020AB8EEC1BA95ED011A27
:100B000020EE0A0A31EE000AF0EE480A04F0B0F9CD
:100B1000B0EE409A95ED020A95ED001A20EE0A0A11
:100B200031EE000AF0EE480A04F0A2F939EE000AAC
:100B3000B1EEC00A04F2CC4020EE0B0A90ED001A90
:100B400085ED080A95ED020AB8EEC1BA95ED011AD5
:100B500020EE0A0A31EE000AF0EE480A04F088F9A5
:100B6000B0EE409A95ED020A95ED001A20EE0A0AC1
:100B700031EE400AF0EE480A04F07AF939EE000A44
:100B8000B1EEC00A20EE0B0A85ED090ABDEC088B18
:100B9000B0BD04F59E6004210022012340F8202C02
:100BA000026040F8102C40F8303C013900F104009C
:100BB000F4D1EBE7F304353FE12E65420000B4C207
:100BC0000000B442CDCC4C45EFF3108072B600BFAC
:100BD000FEE7000041F2244040F27C21C4F2000014
:100BE000C2F2000100680968C1EB01410844704786
:100BF00010B590F820E0D0F800C0AEF1010EBEF1C3
:100C0000010FDCF808E00DD81EF0E05F10D0CEF345
:100C1000016EBEF1030F11D100F1240101204FF448
:100C2000000233E000F1240101204FF480222DE086
:100C300000F1240101204FF4001227E0012000FA06
:100C40000EF01860886818B14B6840EAC30001E0F4
:100C500008684005D1E9033403430CEB0E10C0F8DB
:100C60008031C0F88441097D012905D100F5C271A8
:100C70000B6843F480730B605168C0F88C111268E4
:100C800000F5C071C0F88821002001220B681A43CA
:100C90000A6010BDB0B590F82020013A012A2FD883
:100CA00046F20060C4F20000026842F001020260F5
:100CB000026822F47C520260D1F814E0CC694A6ADE
:100CC0000368012C43EA022202600EF01F024FF07B
:100CD000010303FA02F2C3696FEA020C23EA02037A
:100CE000C36113D02CBBC36803EA0C03C360CB6899
:100CF0008C8844EA034300EBCE0423640B4611E0E6
:100D0000416A41F4802141620120B0BDC3681343B0
:100D1000C3600B688C8844EA034300EBCE04236471
:100D200001F10C038C681B8843EA044300EBCE04FA
:100D3000636443688D6943EA0204D1F810E0096AEC
:100D4000002D08BF03EA0C0444604369BEF1000FA4
:100D500043EA020408BF03EA0C040129446102D1FA
:100D6000C1691143C161016821F0010101600020E6
:100D7000B0BD00007047000010B590F82040013C65
:100D8000012C0CD8D0F800C079B1DCF81040A407D1
:100D90000FD100F1240101204FF4001270E000F1A6
:100DA000240101204FF480226AE0DCF80C40A40703
:100DB0006AD0046804EB011CDCF8B0410CF5D87E65
:100DC00014F004049460DCF8B04119BFE4085460E6
:100DD000640D1460DEF80040002904F00204D460C1
:100DE000DCF8B44104F00F041461DCF8B441C4F33E
:100DF00007249461DCF8B4414FEA14445461DCF8F0
:100E0000B8211A70026802EB0112D2F8B8214FEA39
:100E100012225A70026802EB0112D2F8B8214FEA8E
:100E200012429A70026802EB0112D2F8B8214FEA1E
:100E30001262DA70026802EB0112D2F8BC211A7158
:100E4000026802EB0112D2F8BC214FEA12225A7159
:100E5000026802EB0112D2F8BC214FEA12429A71E9
:100E6000026802EB0112D2F8BC214FEA1262DA7179
:100E7000006814BF00F1100100F10C0100202022D5
:100E80000B681A430A6010BD00F1240101204FF4E1
:100E90000012F5E790F820100139012984BF0020E5
:100EA00070470068816882688068C1F38061C2F31E
:100EB000C0621144C0F30070084470472DE9F04F40
:100EC00081B0044600684669D0F804908768D0F87D
:100ED0000CB0D0F810A0D0F81880F10703D100258D
:100EE00030071CD423E0F90710D00121BA07816034
:100EF00009D4780700F1AA80380700F1B0802046B5
:100F000000F09CFA02E0204600F09AFA0025F8056D
:100F100000F18480F80300F1AA80300707D51BF0A8
:100F2000100004D0206845F400751021C1607007DE
:100F300008D51BF0080005D020680821C1602046B4
:100F400000F0E8F9B00706D52068C068800702D035
:100F5000204600F0E1F9700607D51AF0100004D021
:100F6000206845F4806510210161B00608D51AF0AB
:100F7000080005D0206808210161204600F0FCF936
:100F8000F00606D520680069800702D0204600F0F0
:100F9000F5F9B00308D519F0100005D0206810212C
:100FA0004160204600F01AFAF00308D519F0080055
:100FB00005D0206808214160204600F04BFA30043B
:100FC00040F18F805FEA497040F1888006F48070BC
:100FD00008EA102028435FEA8871014648BF41F0C3
:100FE0000201B20558BF01465FEA48700D4648BF8E
:100FF00045F00405700558BF0D4630056ED518F054
:1010000070006BD010380009052862D8DFE800F0C6
:10101000035356595C5F45F008055AE020684FF4C9
:101020008071BA0581600AD4780512D4380519D4C4
:10103000204600F007FAF8037FF56FAF17E020466F
:1010400000F002FAF8037FF568AF10E04FF4006596
:101050005DE705F50055F8037FF55FAF07E04FF456
:10106000805554E705F58045F8037FF556AF2068B5
:101070004FF48031BA0381600AD478030FD4380367
:1010800013D4204600F0E2F930073FF548AF4EE7B1
:10109000204600F0DDF930073FF541AF47E705F5A1
:1010A000004530073FF53BAF41E705F58035300798
:1010B0003FF535AF3BE745F010050AE045F0200568
:1010C00007E045F0400504E045F0800501E045F407
:1010D00080752068816921F0700181612068042198
:1010E00041602DB1606A284360622046FFF742FEEE
:1010F00001B0BDE8F08F0000B0B5C8B1044690F86B
:10110000200010B9204600F071F82068016841F015
:101110000101016000F06EFA054600BF20684168D9
:10112000C90707D100F066FA401B0B28F6D312E07E
:101130000120B0BD016821F00201016000F05AFAFF
:10114000054600BF2068416889070DD500F052FAB6
:10115000401B0B28F6D3606A052140F40030606222
:10116000012084F82010B0BD217E0268012922F000
:10117000800208BF80320260617E0268012922F08D
:10118000400208BF40320260A17E0268012922F0BD
:10119000200208BF20320260E17E0268012922F0AD
:1011A000100218BF10320260217F0268012922F06C
:1011B000080208BF08320260617F0268012922F03C
:1011C000040208BF04320260D4E901C2D4E9033545
:1011D00061691A432A431143ACF101021143C16111
:1011E00000200121606284F82010B0BDB0B586B047
:1011F0000021CDE90411CDE90211006846F6000294
:10120000C4F20002904201912FD046F20041C4F294
:10121000000188427BD140F27021C2F200010A68CD
:1012200043F64000C4F20200531C0B6052B9002187
:101230000091016841F000710160016801F00071E6
:10124000009100990021009150F8101C152441F0E4
:10125000020140F8101C50F8100C142500F0020098
:10126000009000984FF4407031E043F64000C4F223
:1012700002000091016841F080610160016801F0A5
:1012800080610091009940F27021C2F200010A6869
:10129000531C0B6052B900210091016841F00071AC
:1012A0000160016801F00071009100990021009136
:1012B00050F8101C412441F0020140F8101C50F875
:1012C000100C402500F00200009000986020019072
:1012D0000220029000200390032004900920059032
:1012E00040F20040C4F2020001A900F0B5F828461F
:1012F0000521002200F02EFA284600F027FA2046A9
:101300000521002200F026FA204600F01FFA06B060
:10131000B0BD00007047000010B5016846F600023D
:10132000C4F20002914215D046F20042C4F200021B
:10133000914218BF10BD40F22824C2F2000404F10B
:101340001C0300212246FFF717FD40F6D800C2F229
:1013500000000DE040F22824C2F2000404F11C0356
:1013600000212246FFF708FD40F6DC00C2F2000033
:1013700001682046884710BD7047000010B501681D
:1013800046F60002C4F20002914215D046F2004235
:10139000C4F20002914218BF10BD40F24C24C2F2C8
:1013A000000404F11C0301212246FFF7E5FC40F68E
:1013B000D800C2F200000DE040F24C24C2F200045A
:1013C00004F11C0301212246FFF7D6FC40F6DC00A5
:1013D000C2F2000001682046884710BD7047000037
:1013E000B0B5044690F8200001281DD1022084F8F1
:1013F00020002068016821F00101016000F0FAF886
:10140000054600BF20684068C00713D000F0F2F81E
:10141000401B0B28F6D3606A40F400306062052060
:1014200084F820000120B0BD606A40F400206062B2
:101430000120B0BD00206062B0BD00007047000018
:1014400070470000704700007047000070470000C0
:1014500070470000704700002DE9F04F83B000F1A5
:101460003E4202F1FF724FEAB22241F6004701927A
:10147000C4F2020708224FF0010E00254FF0000AC7
:101480004FF00008B84208BF072200920AE000BFF0
:1014900008F101080AF1040AB8F1100F05F102057C
:1014A00000F0A4800C680EFA08FB14EA0B09EFD0D8
:1014B0004C6804F0030CACF1010EBEF1010F11D821
:1014C0000322876802FA05F6CA68B743AA403A437E
:1014D00082604268C4F3001722EA0B0207FA08F799
:1014E0003A434260BCF1030F1CD0C26803238E68EC
:1014F00003FA05F7BA4306FA05F73A43BCF1020FBF
:10150000C2600FD16FF0030202EA580202440AF0EF
:101510001C060F23176A03FA06F40B69A743B340AE
:101520003B431362026803234F68AB409A4307F0C2
:101530000303AB401A4317F4403F4FF0010E026023
:10154000A6D0002243F644030292C4F202031A68B2
:1015500043F6004442F480421A601A68C4F201045F
:1015600002F480420292029A28F003024FF6084BDE
:101570002244CFF6FF7B52F80B300AF00C070F26FF
:10158000BE4023EA060C019B009E072B38BF1E4677
:1015900006FA07F747EA0C0342F80B30A2684B68DB
:1015A00042EA090743F60C4CDE0258BF22EA09075B
:1015B000A760C4F2010CDCF800209E0242EA090791
:1015C00058BF22EA0907CCF8007062689E0342EA1D
:1015D000090758BF22EA090767602268DB0342EA6D
:1015E000090358BF22EA0903236051E703B0BDE8AD
:1015F000F08F000044F29850C2F20000006870477B
:1016000040F2881044F29851C2F20000C2F2000188
:1016100000780A68104408607047000080B543F6FF
:101620000040C4F20200016841F4007101600168E9
:1016300041F480610160016841F480710160032020
:1016400000F098F80F2000F005F800F05BF800209B
:1016500080BD000070B586B0002543F640010195BD
:10166000C4F202010A68044642F010020A600968E6
:1016700001A801F0100101910199694600F02EF9CD
:10168000049E002E18BF012600F04EF94DF683612E
:10169000B040C4F21B31A0FB01014FF0FF3000EB62
:1016A000914140F62C0041F20002C2F20000C4F267
:1016B000000240F2E733C0E90021C0E902530561AE
:1016C000856100F01FFB0546C0B940F62C00C2F250
:1016D000000000F047FB054680B9362000F036F8E0
:1016E0000F2C0AD836202146002200F033F840F2B1
:1016F0008C10C2F20000046000E00125284606B00C
:1017000070BD000080B582B0002043F6400101901A
:10171000C4F202014A6842F480424A604A6802F414
:1017200080420192019A00900868002240F08050A7
:10173000086008680F2100F08050009000986FF05A
:10174000010000F007F802B080BD000080B501F094
:1017500085FC80BD70B514460D46064601F096FC2A
:101760002946224601F02EF90146304601F09EFC42
:1017700070BD000080B501F0ABFC80BD2DE9F041EB
:10178000002800F08B8043F60808C4F202080446E3
:10179000D8F8F8030D4600F00700884207D288F811
:1017A000F853D8F8F80300F00700A84276D1206873
:1017B000810717D5410705D5D8F8001041F4E0514D
:1017C000C8F80010010705D5D8F8001041F46041B1
:1017D000C8F80010D8F80010A26821F0F0011143F9
:1017E000C8F80010C0073FD1D8F8F80300F0070090
:1017F000A84207D988F8F853D8F8F80300F0070092
:10180000A8424BD12068410707D5D8F80010E268FC
:1018100021F4E0511143C8F80010000708D5D8F8AA
:101820000000216920F4604040EAC100C8F80000CF
:1018300000F08CF8D8F8001045F61852C1F30311E7
:10184000C0F60002515C40F2201220FA01F140F291
:101850008C10C2F200000068C2F200021160FFF7B3
:10186000F9FE0020BDE8F0816068811E022907D2E0
:1018700058F8081C89015CBF0120BDE8F08110E028
:10188000012807D158F8081C89035CBF0120BDE876
:10189000F08106E058F8081C890702D40120BDE851
:1018A000F081D8F8001021F003010843C8F80000C7
:1018B000FFF7A0FE064641F2883700BFD8F80000C7
:1018C000616800F00C00B0EB810F8DD0FFF792FE45
:1018D000801BB842F2D90320BDE8F0810F220260DC
:1018E00043F60802C4F20202136803F003034360E4
:1018F000136803F0F0038360136803F4E053C360DC
:10190000D2F800C04FF4E05303EADC030361D2F8DD
:10191000F80300F0070008607047000040F2201054
:10192000C2F200000068704780B5FFF7F7FF43F68A
:101930000801C4F20201096845F62852C1F3822168
:10194000C0F60002515CC84080BD000010B543F6EF
:101950000404C4F20204606800F00C0142F200408A
:101960000829C0F2F40007D0042918BF10BD41F2C5
:101970000020C0F27A0010BD216801F03F0221680A
:1019800023684902C3F3881105D4A1FB0001002399
:10199000FEF78BFC06E041F20020C0F27A004843DB
:1019A000B0FBF2F021680222C1F3014102EB4101D8
:1019B000B0FBF1F010BD00002DE9F04182B000282D
:1019C00000F0A1800446007843F60006C007C4F288
:1019D000020643D0B06800F00C00042805D130683E
:1019E00080033BD56068C8BB8DE0B06800F00C0098
:1019F000082802D170684002F1D46568B5F5A02FBF
:101A00000AD0B5F5803F0BD0306820F480303060CC
:101A1000306820F4802006E0306840F48020306098
:101A2000306840F480303060FFF7E4FD002D05465B
:101A300011D000BF3068800310D4FFF7DBFD401BDE
:101A40006428F7D920E100BFFFF7D4FD401B6428CC
:101A50004FF0030054D830688003F5D42078800715
:101A60001AD5B06810F00C0F09D0B06800F00C0067
:101A7000082840F088807068400200F18480306857
:101A8000800702D5E06801283DD13068216920F047
:101A9000F80040EAC10030602078000737D4207891
:101AA00040074AD4A56955B3B06800F00C00082877
:101AB00040F09C80012D26D07068E16900F480021E
:101AC0008A4220D1216A00F03F028A421BD147F6A8
:101AD000C071626A0140B1EB821F14D1A16A4FF656
:101AE000FF73C903994300F44032A1F580318A4263
:101AF00009D1E16A00F07060B0EB016F03D1002002
:101B000002B0BDE8F081012002B0BDE8F08160695B
:101B1000002840F20000C4F2472056D00121C0F84E
:101B2000801EFFF767FD0546706F8007B7D4FFF78B
:101B300061FD401B0228F7D9A6E0306C10F08058F8
:101B40000AD100200190306C40F080503064306C3D
:101B500000F080500190019847F20007C4F200079E
:101B60003868C00524D4386840F480703860FFF7C6
:101B700041FD05463868C0051AD4FFF73BFD401B00
:101B80000228F7D980E0E068002851D00020C4F294
:101B9000472001210160FFF72DFD054630688007D1
:101BA0003FF573AFFFF726FD401B0228F6D96BE027
:101BB000A568052D50D0012D52D0306F20F00100C6
:101BC0003067306F20F004004DE00021C0F8801E27
:101BD000FFF710FD054600BF706F80077FF55FAF10
:101BE000FFF708FD401B0228F6D94DE00027C4F29C
:101BF000472700203866FFF7FDFC022D05460BD174
:101C00003068800158D5FFF7F5FC401B02284FF0E3
:101C10000300F5D974E700BF306880017FF56FAF2E
:101C2000FFF7E8FC401B02284FF00300F4D967E7F8
:101C30000020C4F2472000210160FFF7DBFC0546CD
:101C4000306880077FF528AFFFF7D4FC401B0228DF
:101C50004FF00300F4D953E7306F40F004003067D1
:101C6000306F40F001003067FFF7C4FC002D0546DF
:101C700041F2883714D000BF306F800713D4FFF7CC
:101C8000B9FC401BB842F7D9032002B0BDE8F0818F
:101C9000FFF7B0FC401BB8424FF003003FF630AFF7
:101CA000306F8007F4D4B8F1000F7FF4FBAE306CD6
:101CB00020F080503064F5E604F11C052FCD084378
:101CC00040EA8210D9034FF6FF729143A1F58031AB
:101CD00040EA05600843706001203866FFF78AFC1F
:101CE000044600BF306880013FF509AFFFF782FC72
:101CF000001B02284FF00300F4D901E770470000F1
:101D000070470000002804BF0120704710B504464A
:101D100090F83D0028B9002084F83C00204600F0EF
:101D20001FF8022084F83D002068211D01F09AF878
:101D3000012084F8460084F83E0084F83F0084F8CF
:101D4000400084F8410084F8420084F8430084F89D
:101D5000440084F8450084F83D00002010BD0000D8
:101D60007047000090F83D1001291CBF012070470A
:101D7000022180F83D10006841F2FF72C168C4F290
:101D80000002904241F00101C1600DDC40F2FF71A0
:101D9000C4F20001884215DCB0F1804F29D040F236
:101DA0000041C4F2000122E040F2FF31C4F201011F
:101DB000884212DC41F60001C4F20001884218D0CA
:101DC000002112E040F60001C4F20001884210D068
:101DD00040F60041C4F2000109E044F20001C4F2FF
:101DE0000101884205D040F20041C4F2010188425D
:101DF00006D1816801F00701062904BF0020704761
:101E0000016841F001010160002070477047000047
:101E100010B5044600680169890744BFC1685FEADC
:101E2000817138D420680169490744BFC1685FEAFD
:101E300041713CD420680169090744BFC1685FEA69
:101E4000017141D420680169C90644BFC1685FEAD5
:101E5000C16145D420680169C9071CBFC1685FEA38
:101E6000C1714AD120680169090644BFC1685FEAAF
:101E7000016149D420680169490644BFC1685FEA2D
:101E8000416148D420680169890644BFC1685FEA9E
:101E9000816147D410BD6FF00201016101212177FA
:101EA0008069800745D02046FFF7B0FF47E06FF01C
:101EB0000401016102212177806910F4407F41D043
:101EC0002046FFF7A3FF43E06FF008010161042102
:101ED0002177C06980073ED02046FFF797FF40E09A
:101EE0006FF01001016108212177C06910F4407F73
:101EF0003AD02046FFF78AFF3CE06FF00101016114
:101F0000204600F03FF8ADE76FF080010161204608
:101F1000FFF7F4FEAEE76FF040010161204600F0EC
:101F20003DF8AFE76FF0200101612046FFF7E8FEC2
:101F300010BD204600F022F8204600F021F80020D5
:101F400020776FE7204600F019F8204600F018F8D7
:101F5000002020776EE7204600F010F8204600F0C1
:101F60000FF8002020776DE7204600F007F82046A4
:101F700000F006F8002020776CE7000070470000B2
:101F80007047000080B5006841F20001C4F2000112
:101F9000884208BFFFF734FB80BD00007047000097
:101FA000FEE70000002818BF002A00D1704780B566
:101FB0004FF0000CA0F850C0C0F818C0136880F8AB
:101FC00052C043605368017083609368C360D368F4
:101FD0000361136943615269C26401F069FCBDE8A1
:101FE0008040704781B043F63001C4F202010A68B4
:101FF00002430A60096808400090009801B07047E9
:1020000081B043F64001C4F202010A6802430A604B
:10201000096808400090009801B0704746F20C0033
:10202000C4F202004FF480610160704746F20C0078
:10203000C4F202004FF400610160704746F29C0058
:10204000C4F20200016821F0040101607047000041
:1020500045F63052C0F60002515C0A5822F00102E7
:102060000A50704745F63052C0F60002515C0A58DB
:1020700042F480220A50704745F63052C0F6000202
:10208000515C0A5842F001020A50704745F630523E
:10209000C0F60002515C085800F4002070470000B0
:1020A00045F63052C0F60002515C0844406880B2E8
:1020B0007047000045F63052C0F60002515C0858E7
:1020C00000F001007047000046F28800C4F20200F0
:1020D0000168042262F35B610160704745F630538A
:1020E000C0F60003595C0B5823F400231A430A502E
:1020F0007047000045F63053C0F60003595C4FF6B8
:10210000FF730844416899431143416070470000E0
:1021100046F28800C4F20200016821F0C0010160AB
:102120007047000045F63053C0F60003595C084480
:10213000016902617047000045F63053C0F60003A4
:10214000595C0844C260704746F28800C4F202003D
:10215000016841F4806101607047000046F2880028
:10216000C4F20200016821F4C04101607047000020
:1021700046F28800C4F20200016841F4807121F047
:10218000200101607047000045F63053C0F600039F
:10219000595C08448260704746F28800C4F202002D
:1021A000016821F4007101607047000046F2880068
:1021B000C4F20200016821F4C051016070470000C0
:1021C00046F28800C4F202000168022262F3114163
:1021D000016070472DE9F0410C46096891FAA1F2BF
:1021E000B2FA82F731FA07F235D005464FF001080E
:1021F0000EE062692846314600F040F862682846E1
:10220000314600F04DF82168013731FA07F022D04D
:1022100008FA07F011EA0006F5D0606801380128D5
:1022200009D8A2682846314600F060F8E2682846DE
:10223000314600F045F822692846314600F046F85C
:1022400060680228DAD13006D3D062692846314668
:1022500000F004F8D2E70020BDE8F08191FAA1F186
:10226000B1FA81F1D0F820C089000F238B402CEA0D
:10227000030302FA01F1194301627047090A91FA56
:10228000A1F1B1FA81F1D0F824C089000F238B406D
:102290002CEA030302FA01F119434162704700007E
:1022A00091FAA1F1B1FA81F1D0F800C049000323FD
:1022B0008B402CEA030302FA01F1194301607047D5
:1022C00043688B43514319434160704791FAA1F130
:1022D000B1FA81F1D0F80CC0490003238B402CEAFD
:1022E000030302FA01F11943C160704791FAA1F1A9
:1022F000B1FA81F1D0F808C0490003238B402CEAE1
:10230000030302FA01F119438160704743F60800A4
:10231000C4F20200006800F0F000704743F60800C5
:10232000C4F20200006800F4E050704743F6080071
:10233000C4F20200006800F46040704743F60800F1
:10234000C4F20200006800F00C00704710B50446AB
:1023500000F0AAFB206000F07DFB606000F088FBCD
:102360006168A060084600F091FBE06010BD0000CD
:1023700043F60400C4F20200006800F03F0070471A
:1023800043F60400C4F20200006800F480007047C5
:1023900043F60400C4F202000068C0F388107047DE
:1023A00043F60400C4F20200006800F440307047B5
:1023B00041F21040C4F200006FF00101016070476B
:1023C00041F20040C4F20000016821F08001016088
:1023D0007047000041F20840C4F20000016821F09B
:1023E000800101607047000041F20040C4F200002B
:1023F000016841F0010101607047000041F20C40AA
:10240000C4F20000016841F0010101607047000062
:10241000416941F0010141617047000070B50D460E
:1024200040F6FF3104460068C4F2000140F2004665
:102430008C42C4F201060FDCB4F1804F19D040F297
:102440000042C4F20002944213D040F60002C4F2EB
:10245000000294420DD010E040F60042C4F20002A7
:10246000944206D0B44204D00022C4F20102944245
:1024700003D16A6820F07000104341F6FF72C4F285
:10248000000294420DDC8C421FDCB4F1804F41D03D
:1024900040F20041C4F200018C423BD040F6000102
:1024A00021E043F6FF71C4F201018C4220DC42F2CC
:1024B0000001C4F200018C422CD00021C4F20101C1
:1024C0008C4227D0B44225D028E040F60041C4F227
:1024D00000018C421ED041F60001C4F200018C4282
:1024E00018D041F60041C4F200018C4212D015E030
:1024F00044F20001C4F201018C420BD044F6000109
:10250000C4F201018C4205D044F20041C4F2010141
:102510008C4203D1E96820F4407008432060A96828
:10252000204600F019F82988204600F017F844F4F6
:102530008060B04203D12969204600F011F820469E
:10254000FFF766FF002070BD41F21040C4F20000AA
:10255000006800F001007047C162704781627047F7
:102560000163704741F20440C4F20000016821F0A9
:10257000700101607047000081B00168009100990E
:1025800040680090009801B0704700006FF0200193
:102590000160704744F21040C4F20000016821F469
:1025A00090410160416821F02A01416070470000BC
:1025B00044F20C40C4F20000016841F40051016093
:1025C00070470000C16841F40051C16070470000CD
:1025D000143000BF50E8001F41F0400140E80012F5
:1025E000002AF7D1704700000C3000BF50E8001FF0
:1025F00041F0100140E80012002AF7D170470000B6
:1026000070B584B00D46044600F068F810B10120A2
:1026100004B070BDE06849F20C6120EA010CD5E914
:1026200001E1D5E903364CEA0E00AA6918433043AC
:102630001043E060204600F0A1F86969204600F0F0
:1026400097F86846FFF782FE44F6FF70C4F2000078
:1026500084424FF0000114DC44F20040C4F2000058
:10266000844223D044F60000C4F2000084421DD00E
:1026700044F60040C4F20000844208BF0299D9B970
:10268000C5E745F20000C4F2000084420ED041F2DA
:102690000040C4F2010084420BD041F20000C4F2B9
:1026A0000100844208BF039931B9B0E7029919B912
:1026B000ADE703990029AAD02B68002BA7D0AA69FF
:1026C000204600F00FF8002004B070BD0068C0F391
:1026D000001070470068C0F340107047C068C0F336
:1026E0004030704710B504461920B2F5004FA1FBE9
:1026F00000011CD15A00DB0FFDF7D7FD48F21F5136
:10270000C5F2EB11A0FB01235A096FF0630302FB32
:102710000300322303EBC000A0FB01014FF4F8706B
:1027200000EA111000EB0210C1F342111AE09A0006
:102730009B0FFDF7BAFD48F21F51C5F2EB11A0FB4C
:1027400001235A096FF0630302FB0300322303EBFA
:102750000010A0FB0101F02000EA511000EB021074
:10276000C1F343114FF6F07210400844A06010BD51
:10277000426922F44072114341617047026922F4B8
:10278000405211430161704710B540F2DC7046F2CF
:102790000041C2F20000C4F20001032200234FF006
:1027A000012480E80E0000F10C014FF4002C4FF4DE
:1027B000401E81E8085084618383FEF79DFC002859
:1027C00008BF10BDFEF700FA10B540F6040046F64B
:1027D0000001C2F20000C4F20001032200234FF006
:1027E000012480E80E0000F10C014FF4002C4FF49E
:1027F000401E81E8085084618383FEF77DFC002839
:1028000008BF10BDFEF7E0F980B54FF40010FFF7E8
:10281000E9FB00F033FC00F0BFF80146102000F0A7
:102820003DFC102000F00AFC80BD000083B00020B9
:1028300043F630010290C4F202010A6842F08002BD
:102840000A600A6802F080020292029A01900A6805
:1028500042F001020A600A6802F001020192019A44
:102860000090086840F002000860086800F002006C
:102870000090009803B0704710B586B00024202067
:102880000594CDE90344CDE90144FFF7B9FB00F01D
:10289000F5FB00F081F80146372000F0FFFB372000
:1028A00000F0CCFB5320ADF804004FF6FF7003900E
:1028B00041F20040C4F2000001A90294FFF7AEFD0E
:1028C000FFF77EFDFFF74EFEFFF784FD06B010BD5B
:1028D000B0B58EB000254FF400300D95CDE90B5505
:1028E000CDE90955CDE90755CDE90555CDE90355A4
:1028F000CDE90155FFF784FB0120FFF773FB0C20A6
:10290000019002200290032044F20044CDE9030527
:102910000720C4F20004069004F5DE3001A90595F5
:10292000FFF758FCFFF7D0FBFFF7F2FBFFF748FC7F
:10293000FFF71EFCFFF730FCFFF706FCFFF736FC45
:10294000FFF70CFCFFF77AFB00F098FB00F024F88F
:102950000146262000F0A2FB262000F06FFB48F283
:10296000A060C0F20100CDE907054FF480600A9035
:1029700004200995CDE90B0507A920460D95FFF721
:102980003FFEFFF707FEFFF713FE0EB0B0BD0000DD
:10299000FEE70000FEE7000000F0070080F00701FE
:1029A000042928BF04214FF0FF32033802FA01F155
:1029B0004FF0050238BF002022EA010101FA00F0C1
:1029C0007047000000F0070080F00703042B28BFC9
:1029D00004234FF0FF3C03380CFA03F338BF002008
:1029E000994381400CFA00F022EA00000843704746
:1029F000EFF30980BFF36F8F154B1A681EF0100FAD
:102A000008BF20ED108A20E9F04F10602DE9090081
:102A10004FF0500080F31188BFF34F8FBFF36F8FDB
:102A200001F05CFD4FF0000080F31188BDE8090063
:102A300019680868B0E8F04F1EF0100F08BFB0EC3E
:102A4000108A80F30988BFF36F8F704700BF00BF03
:102A5000E008002010B50446FFF758FC45F6185171
:102A6000C0F30310C0F60001085C24FA00F010BDAA
:102A700010B50446FFF752FC45F62851800AC0F60F
:102A80000001085C24FA00F010BD000010B50446F7
:102A9000FFF74CFC45F62851400BC0F60001085CDE
:102AA00024FA00F010BD000080B5FFF747FC0828AD
:102AB0000AD0042819BF42F20040C0F2F40041F2EB
:102AC0000020C0F27A0080BD082000F001F880BD2F
:102AD00010B50446FFF754FC082C1CBF002010BDA5
:102AE00042F20044C0F2F404B0F5800F04BF41F29A
:102AF0000024C0F27A04002804BF42F20044C0F26D
:102B0000F404FFF735FCB4FBF0F4FFF741FC444359
:102B1000FFF746FC000C022101EB4000B4FBF0F093
:102B200010BD000040F27424C2F2000400204FF0F7
:102B3000FF3122464FF0FF3301F05CFF0128F5D151
:102B4000206801780229F1D1406800F067FBEDE7C9
:102B500000EBE03181EAE03000B2704780B582B02E
:102B6000072040F2782C009042F62530C2F2000C8B
:102B7000C0F600000DA180220023CDF804C001F0B2
:102B80007BFD062040F2202C009040F69900C2F216
:102B9000000CC0F6000007A14FF480720023CDF8AE
:102BA00004C001F069FD02B080BD00BF72635F74B4
:102BB00061736B00636861737369735F7461736BD6
:102BC00000000000B0EEE02AB0EEC03A32EE432A38
:102BD000B5EE402A30EEC02AB1EE083AB0EEC22A75
:102BE00021EE033AF1EE10FAC8BFB0EE431AB4EE8C
:102BF000412AF1EE10FAB8BF7047F4EE400A30EE09
:102C0000412AF1EE10FAC8BFB0EE420AB4EE600AF3
:102C1000F1EE10FAC8BF31EE000A70470000000064
:102C2000074B19680868B0E8F04F80F30988BFF3D4
:102C30006F8F4FF0000080F31188704700BF00BF16
:102C4000E008002040F2C074C2F20004FFF786FFE3
:102C5000206800F077FEF9E7A0F20120032888BF82
:102C6000704780B503A252F8200000F099FBBDE840
:102C700080407047280100204001002058010020BA
:102C80007001002080B54FF0500080F31188BFF331
:102C90006F8FBFF34F8F01F0FBFD30B14EF6045044
:102CA000CEF200004FF080510160002080F31188C7
:102CB00080BD000070B592B006AC20463021FDF713
:102CC0006CFB002543F640000595CDE90355CDE9A1
:102CD00001550095C4F202000168022641F08051BE
:102CE0000160006800F080500090009847F20000FA
:102CF0000095C4F20000016841F480410160006861
:102D0000A82100F4804000900098012006904FF424
:102D1000803007904FF480000D9004200C960E90A8
:102D2000CDE90F1611902046FEF746FE88B90F2018
:102D3000CDE901064FF4A05004904FF48050059067
:102D400001A805210395FEF719FD002804BF12B064
:102D500070BDFDF739FF00004EF68850CEF200003E
:102D6000016841F47001016070470000B0B50120B6
:102D700000F0C0F940F28020C2F2000043F21133AB
:102D800000F12001C0F60003202200F0F7F940F224
:102D9000DC75C2F2000543F21D02C0F600022846AF
:102DA000022100F0B5F940F60404C2F2000443F237
:102DB0002D02C0F600022046022100F0A9F940F6DB
:102DC000D530C0F6000000F0C1FA2846002140F2DC
:102DD000012240F2FF33FDF7C7FB2846082140F2ED
:102DE000022240F2FF33FDF7BFFB2846102140F2DC
:102DF000032240F2FF33FDF7B7FB284618214FF4BA
:102E0000017240F2FF33FDF7AFFB20467C2140F218
:102E1000012240F2FF33FDF7A7FB2046842140F258
:102E2000022240F2FF33FDF79FFB20468C2140F247
:102E3000032240F2FF33FDF797FB204694214FF425
:102E4000017240F2FF33FDF78FFBB0BD80B540F655
:102E50002C00C2F20000FEF7DBFF80BD80B500F061
:102E6000CBF880BD10B540F6FF3E0368C4F2000EFB
:102E700040F2004C7045C4F2010C0FDCB0F1804F01
:102E800019D040F20042C4F20002904213D040F642
:102E90000002C4F2000290420DD010E040F6004261
:102EA000C4F20002904206D0604504D00022C4F271
:102EB0000102904203D14A6823F07003134341F6A4
:102EC000FF72C4F2000290420DDC70451FDCB0F1CD
:102ED000804F41D040F20042C4F2000290423BD009
:102EE00040F6000221E043F6FF72C4F20102904274
:102EF00020DC42F20002C4F2000290422CD00022F8
:102F0000C4F20102904227D0604525D028E040F667
:102F10000042C4F2000290421ED041F60002C4F208
:102F20000002904218D041F60042C4F200029042E2
:102F300012D015E044F20002C4F2010290420BD01C
:102F400044F60002C4F20102904205D044F200426D
:102F5000C4F20102904203D1CA6823F440731343C0
:102F600023F080024B69D1F800E08C681A430260BC
:102F7000C46240F48062C0F828E0624504BF096979
:102F800001630121416110BD80B500F0C7FF80BD24
:102F9000B0B540F22420C2F200000068E8B140F66B
:102FA0007404C2F2000425688047FDB121689FEDDA
:102FB000111A4A42884238BFCA43111800EE101A4B
:102FC000B8EE400A40F22411C2F20001206020EE67
:102FD000010A002081ED000AB0BD40F22410C2F2C7
:102FE00000004FF07E5101600120B0BD2060012043
:102FF000B0BD00BFBD37863580B5FFF7A5FA012803
:1030000018BF80BDFFF7D4F940F27C20C2F2000067
:1030100001680131016080BDFEE7000080B5014616
:1030200051F81C0BFDF764FC80BD000080B5014623
:1030300051F81C0BFFF710FE80BD0000C1B200F07C
:103040001F00012202FA00F04EF20012CEF200023E
:1030500042EAD10121F0030108607047002848BF0F
:10306000704700F01F01012202FA01F14EF2001236
:103070004009CEF2000242F8201070474EF60C5084
:10308000CEF200000068C0F3022070474EF60C50EC
:10309000CEF200000068C0F302207047E422C0F2C4
:1030A000E002090162F31F20017070474EF61453CD
:1030B00000F00F02CEF2000309011A4400F1604350
:1030C000B0F1FF3FC8BF03F56442117070470000C4
:1030D0004EF60C51CEF200010A684FF6FF031A407B
:1030E00060F30A2242F0806040F0FD700860704793
:1030F0007047000080B540F2C471C2F20001087050
:10310000FFF772F9FFF77AF9FFF752F980BD000077
:1031100070B514460D460646FEF762F930684169FF
:1031200021F40041416125B1022D04D0012D06D0CA
:1031300009E0022104E0416941F0020141611021EE
:1031400042691143416146F20041C4F200018842E4
:103150000AD046F60001C4F2000188420BD140F6C5
:10316000DC00C2F2000003E040F6D800C2F200002A
:103170000460002070BD012070BD0000F0B581B07A
:10318000074644F28850C2F20000028044F28C509C
:10319000C2F20000076044F29050C2F200000160E9
:1031A00044F2945046F20004C2F20000C4F2020459
:1031B0000360A4F5063015460E46A0F57F72204642
:1031C0000521FEF7E1FF204605213A46FEF7B4FF50
:1031D000204605213246FEF7A5FF204605212A4656
:1031E000FEF788FF20460521FEF73CFF204605211B
:1031F000FEF72EFF20460521FEF73EFFA4F507341B
:103200002046FFF7E5F92046FFF7EEF92046FFF7E5
:10321000B3F92046FFF7D6F901B0F0BD70B500282C
:1032200075D00478417840F2D07661F30A24C2F276
:103230000006748041788378CA0863F34A12B2802A
:103240008178C37805799B0043EA911105F0010369
:1032500041EA8323F38001794579490865F3CA116E
:1032600031814579C5F3011535704579AD09757022
:10327000057C407C45EA0020A4F580657580A2F5B8
:103280008065B580A3F58065F580A1F58065A2F223
:10329000FB323581A0F5806592B20A2A75819CBF08
:1032A0000022B280A3F2FB3292B2A1F2FB310A2AD1
:1032B00089B2A0F2FB309CBF0022F2800A2980B2C2
:1032C0009CBF002131810A289CBF00207081B6F983
:1032D0000400FFF73DFCB0F5257F15DCB6F90600CC
:1032E000FFF736FCB0F5257F0EDCB6F90800FFF7D6
:1032F0002FFCB0F5257F07DCB6F90A00FFF728FCA4
:10330000B0F5257FD8BF70BD0020B060706070BD83
:10331000122918BF704780B582B040F2C871C2F25E
:10332000000102220A7040F27822C2F20002126802
:1033300048604FF0000C104603220023CDF800C077
:1033400001F00AFA02B0BDE88040704700280FBFC4
:10335000002040F22421C2F20001086018BF0120C1
:103360007047000000F0030040F6780100EB4000D9
:10337000C2F2000101EBC0007047000000F0030042
:1033800040F2281100EB4000C2F2000101EBC00046
:103390007047000040F2D070C2F200007047000099
:1033A000028842800A8812BA120C02804A8812BA35
:1033B000120C0282898809BA090C4182018842886C
:1033C000891AB1F5805F02DD4FF0FF3106E0018818
:1033D0004288891A11F5805F03DA0121826811445D
:1033E0008160017D41B101290ED1018881800021D8
:1033F0008160C1600175704781680288838802EB33
:103400004131C91AC1607047013901757047000028
:10341000012806DB401A01B20029D8BF002000B203
:103420007047B0F1FF3F01DD00B27047084401B2C0
:1034300000EAE13000B270479042C8BF1046521A0D
:10344000401AB8BF002000EE100A01EE102AB8EEB4
:10345000C00AB8EEC11A80EE010A0098C01A01EE47
:10346000100AB8EEC11A20EE010A01EE103AB8EEC9
:10347000C11A30EE010ABDEEC00A10EE100A704704
:1034800088B0FEF7CBF8FFF715FCFFF7CFF9FFF791
:10349000BBF9FFF779F9FFF797F9FFF719FAFFF78B
:1034A000EBF9FFF763FC45F6FC40C0F6000090E83E
:1034B0000E50D0E90540019102920393CDF810C05F
:1034C000CDF814E0CDE9064001A8002100F002FA91
:1034D00040F2C071C2F20001086000F0F5F900BFCF
:1034E000FEE70000B0F1840118BFC11C0846704718
:1034F0002DE9F0412DED108B9FEDEB9A002800F0A7
:10350000CD81044690F85200B0EE60AAB0EE408A39
:1035100020B1FFF73DFD002840F0C08184ED06AAF0
:10352000D4E910013AEE480AC4E9110120F0004044
:1035300094ED131A02EE100AB4EE412AF1EE10FADD
:1035400084ED100A02DA0020A062A7E194ED11AA2E
:103550009FEDD69A3AEE401A207821EE091A30EE05
:1035600001BA012884ED10BA46D0002840F09481B9
:1035700094ED010A94ED02DA9FEDCBCAB5EE400A54
:103580002BEE001AF1EE10FAB0EE4C0AB5EE40DA6E
:1035900018BFB0EE410AF1EE10FA84ED0B0A71D0BB
:1035A00094F85100002873D094ED16EAB0EECB0ADF
:1035B000B4EE4E0AF1EE10FA7CDD10EE100A02F0C5
:1035C00055FA94ED15FA80461FEE100A0E4602F0E9
:1035D0004DFA07461EEE100A0D4602F047FA3A462B
:1035E0002B4601F09DFF4246334602F08DFA00283B
:1035F00066D09FEDAD0A6BE094ED011A94ED02DA0E
:103600009FEDA9CA3BEE4A0AB5EE401A20EE010A28
:10361000F1EE10FAB0EE4C1AB5EE40DA18BFB0EE8B
:10362000401AF1EE10FA84ED0B1A2ED094F85100E6
:10363000B8B394ED16EAB0EECB0AB4EE4E0AF1EE52
:1036400010FA3ADD10EE100A02F010FA94ED15FAB5
:1036500080461FEE100A0E4602F008FA07461EEEDC
:10366000100A0D4602F002FA3A462B4601F058FFC6
:103670004246334602F048FA002800F086809FED6B
:103680008A0A8AE00020206347E000202063A5E04A
:1036900040F22410C2F2000090ED000A2BEE0D1A49
:1036A00020E040F22410C2F2000090ED000A2BEE60
:1036B0000D1A7CE0B7EE000A0AE0B7EE000A6CE0F3
:1036C000B0EECA0A3FEE400A3EEE000A80EE0F0A54
:1036D00040F22410C2F200002DEE000A90ED001A14
:1036E0002BEE000A94ED0C2A21EE001A94ED050A47
:1036F00032EE011AB4EE401AF1EE10FA84ED0C1A13
:1037000002DD84ED0C0A08E0B1EE400AB4EE401A86
:10371000F1EE10FAB8BF84ED0C0AB5EE40DAF1EE26
:1037200010FA00F09A8094F8500098B1D4E907019B
:1037300084ED078A206240F2241094ED080AC2F258
:10374000000090ED001A38EE400AA06B80EE010AEE
:1037500061620AE040F22410C2F2000090ED000A1B
:103760003BEE4A1A81EE000AA06B01EE100A31EE20
:10377000401A21EE091A30EE010AE06384ED0E0AC8
:1037800094ED031A21EE00CA67E0B0EECA0A3FEEDC
:10379000400A3EEE000A80EE0F0A40F22410C2F208
:1037A00000002DEE000A90ED001A2BEE000A94EDB9
:1037B000052A21EE000AB4EE420AF1EE10FA84ED79
:1037C0000C0A02DD84ED0C2A08E0B1EE421AB4EED8
:1037D000410AF1EE10FAB8BF84ED0C1AB5EE40DAEA
:1037E000F1EE10FA39D094F85000B0B1D4E90701E5
:1037F000A26BC4E9080194ED080AE26394ED091A8A
:1038000030EE000A38EE400A94ED0F2A31EE000A3D
:1038100084ED078A32EE401A0DE0A06B3AEE0A0AF8
:1038200094ED121A3BEE400A30EE010A01EE100A46
:1038300031EE401AE06321EE091A30EE010A84ED00
:103840000E0A40F2241094ED031AC2F2000090ED2B
:10385000002A21EE000A80EE02CA84ED0DCA94ED22
:103860000B1A94ED0C2A94ED040A31EE021A31EE93
:103870000C1AB4EE401AF1EE10FA84ED0A1A02DDC9
:1038800084ED0A0A08E0B1EE400AB4EE401AF1EE07
:1038900010FAB8BF84ED0A0A94ED0A9AB0EE490A0C
:1038A000BDEC108BBDE8F08100000000CDCC4C3D9C
:1038B000002808BF704780B51C303021FCF76DFD33
:1038C000BDE880407047000080B500F0BFFD0020DB
:1038D00080BD00002DE9F04385B047690C46A7B1D3
:1038E000856995B1D0E90086D0F81090B0F908004C
:1038F000FFF7F8FDCDE90007304641464A4623462A
:10390000029500F0EDFE049013E0D0E90056078A1E
:10391000B0F90800FFF7E6FD0DF1100C00903046FD
:1039200029463A462346CDF804C000F0A5FE0128FA
:1039300003D1049805B0BDE8F083002005B0BDE8D0
:10394000F083000080B500F009FD002080BD00007C
:10395000F0B581B00D4644F2987140F6E006C2F22F
:103960000001C2F200060F6831680446081D00F02D
:103970006BFB10B1601C0FD019E0306844F2AC5200
:10398000C06AC2F200020121136801FA00F023EAC2
:1039900000001060601C0AD14DB13068011D44F276
:1039A0007070C2F2000000F09FFB01B0F0BD306803
:1039B000E41944600AD340F6EC00C2F2000000684B
:1039C0003168043100F072FB01B0F0BD40F6E40054
:1039D000C2F2000000683168043100F067FB44F275
:1039E0003C70C2F2000001688C4238BF046001B034
:1039F000F0BD000070B5044600F08EFB44F29C5010
:103A0000C2F20000016840F6E00501310160C2F237
:103A10000005296844F26476C2F2000641B13068BC
:103A200060B92868E16AC06A884298BF2C6005E0E6
:103A30002C600068012801D100F00CF944F2A85074
:103A4000C2F20000016844F2AC5201310160E06A48
:103A5000C2F200020121136881401943116040F64F
:103A6000F00100EB8000C2F2000101EB8000211D9B
:103A700000F03AFB00F074FB306880B12868E16A1E
:103A8000C06A884228BF70BD4EF60450CEF20000D6
:103A90004FF080510160BFF34F8FBFF36F8F70BD48
:103AA000F0B581B044F2A055C2F200052868E0B13B
:103AB00044F2847644F29C57C2F20006C2F2000738
:103AC00000F02AFBF068C468201D00F0BDFA3868D9
:103AD0000138386028680138286000F041FB204632
:103AE00000F006F828680028EAD101B0F0BD000017
:103AF00010B5044690F85100022808BF10BD0128F7
:103B000003D030B9206B00F043FB204600F040FBAF
:103B100010BD4FF0500080F31188BFF36F8FBFF3DB
:103B20004F8F00BFFEE7000040F67C10C2F200009D
:103B3000C21D22F0070210F0070CA0EB020318BF11
:103B4000104644F26872C2F200020021C2E900018C
:103B50004FF47052BCF1000F18BF03F570520244CD
:103B6000083A40F6E80322F00702C2F200031A60A6
:103B7000C2E90011111A1A68C0E9002144F2387034
:103B8000C2F20000016044F2DC50C2F200000160A9
:103B900044F2B050C2F200000121017070470000F1
:103BA00040F6F0044EF60455C2F20004CEF20005D1
:103BB0004FF08056FFF774FF20680228FAD32E607A
:103BC000BFF34F8FBFF36F8FF4E700002DE9F0478D
:103BD000DDE909878246386B089C00EB82000438D7
:103BE000994620F0070679B107F13400002200BFA2
:103BF0008B5C83548B5C1BB10F2A02F10102F7D35B
:103C0000002087F8430002E0002087F834000025F8
:103C1000381D062C28BF0624FC62C7E9114500F0B8
:103C200041FA07F1180000F03DFA84F00700B8618E
:103C3000304651464A463F617F62FD6487F85050E6
:103C400000F058F9B8F1000F386018BFC8F80070DC
:103C5000BDE8F087B0B540F6F0050024C2F20005DB
:103C6000281900F013FA14348C2CF9D144F2B4540E
:103C7000C2F20004204600F009FA44F2C855C2F22C
:103C80000005284600F002FA44F25070C2F200002B
:103C900000F0FCF944F28470C2F2000000F0F6F982
:103CA00044F27070C2F2000000F0F0F940F6E40057
:103CB000C2F20000046040F6EC00C2F200000560B1
:103CC000B0BD000080B544F26872C2F2000200BFCD
:103CD000114612688242FBD3D1F804C001EB0C03F9
:103CE000834203D14068604448600846D0F804E04D
:103CF00000EB0E03934201D0026010E040F6E803AF
:103D0000C2F20003D3F800C0624506D00B685268C7
:103D10001B687244C0E9003201E0C0F800C0814273
:103D200018BF086080BD000008480068006880F384
:103D300008884FF0000080F3148862B661B6BFF3C4
:103D40004F8FBFF36F8F00DF00BF00BF08ED00E0B3
:103D500040F6E400C2F200000168096821B1006881
:103D6000C068C068406801E04FF0FF3044F23C7129
:103D7000C2F200010860704781B00020009040F25C
:103D80009010C2F2000000684FF0500181F31188DA
:103D9000BFF36F8FBFF34F8F013001D0FEE700BF3D
:103DA00000980028FCD001B0704700002DE9F043D6
:103DB00081B0044600F08AFB40F6E806C2F2000635
:103DC0003068002808BFFFF7AFFE44F2B058C2F2D7
:103DD000000898F80000002818BF4FF0004020426B
:103DE0000DD0002400F04EFE60071ED04FF05000B2
:103DF00080F31188BFF36F8FBFF34F8FFEE7C4B11D
:103E000004F1080111F007001EBF081A00F10801B3
:103E10005FEA41700ED04FF0500080F31188BFF37D
:103E20006F8FBFF34F8F00BFFEE7204601B0BDE8A4
:103E3000F083002144F2DC59C2F20009D9F80000F5
:103E40004A1E8242CDD244F26870C2F20000056878
:103E50002F4657F8042F8A4211D22B685BB100BF5E
:103E60001F4657F8042F28461D468A4207D22B6862
:103E7000002BF5D103E044F26870C2F20000336811
:103E80009D42AED004682B68521A112A036010D3E9
:103E90006818430709D04FF0500080F31188BFF332
:103EA0006F8FBFF34F8F00BFFEE742603960FFF7AF
:103EB00009FF44F238713868D9F80020C2F20001D5
:103EC0000B68121A9A42C9F8002038BF0A6098F8A5
:103ED0000010083400294FF0000118BF40F00040E6
:103EE000296044F24471C2F200010A683860501C33
:103EF000086077E7034643F67950C0F600004FF0BC
:103F0000807C21F0010103E903106FF0020043F807
:103F1000240CA3F1440043F8202C7047B0B546F2BE
:103F20000004C4F20204A4F507352846FEF7D2FBCC
:103F3000012803D12846FEF729FBB0BD2846FEF72D
:103F4000C5FB012848D12846FEF716FB204605216F
:103F5000FEF79CF8054620460521FEF779F8204635
:103F60000521FEF7A7F8002D40D000BF48B120463C
:103F70000521FEF76DF820460521FEF79BF8002885
:103F8000F5D1FEF753F8FEF749F820460521002247
:103F9000FEF7A4F844F28850C2F2000005882046DB
:103FA0000521FEF77DF8281A44F28455C2F2000577
:103FB000288020460521FEF75FF844F29450C2F2B3
:103FC00000000268002A08BFB0BD44F29050C2F25F
:103FD0000000006829889047B0BD00BF2046052139
:103FE000FEF736F820460521FEF764F80028F5D1E3
:103FF000FEF71CF8FEF712F8204605214FF40022C8
:10400000FEF76CF844F28850C2F2000005882046A2
:104010000521FEF745F8281A44F28455C2F200053E
:10402000288020460521FEF727F844F29450C2F27A
:1040300000000268002ACFD044F28C50C2F2000087
:10404000006829889047B0BDD0E9012301699360D9
:104050004B68D0F808C08342CCF8042001D18268B4
:104060004A600022026108680138086008687047E9
:1040700044F2E463C2F20003036044F2E050C2F28F
:104080000000086040201060704700004FF0FF31D2
:10409000024642F8081F00214260C0E90322016085
:1040A00070470000002101617047000080B5D1F821
:1040B00000C01CF1010207D000F108039E465B68B6
:1040C0001A686245FAD901E0D0F810E0DEF8042061
:1040D00008614A609160C1F808E0CEF804100168F8
:1040E0000131016080BD0000D0F800C04368086164
:1040F0009A684B608A609A68996051600CF101017E
:1041000001607047DFF80C00016841F47001016044
:10411000704700BF88ED00E04FF0500080F3118839
:10412000BFF36F8FBFF34F8F40F29010C2F20000C9
:1041300001684A1C026001B170474EF60450CEF28D
:1041400000000068000608BF70474FF0500080F381
:104150001188BFF36F8FBFF34F8F00BFFEE70000E2
:1041600040F29010C2F20000016839B101390160DB
:1041700018BF7047002080F3118870474FF050003F
:1041800080F31188BFF36F8FBFF34F8FFEE70000FE
:10419000B0B5002808BFB0BD044644F2B050C2F22A
:1041A0000000007854F8041C002818BF4FF00040AD
:1041B00008420CD0A4F108052A6892B14FF05000D3
:1041C00080F31188BFF36F8FBFF34F8FFEE74FF07F
:1041D000500080F31188BFF36F8FBFF34F8F00BF84
:1041E000FEE721EA000044F8040C00F06FF944F205
:1041F000DC51C2F2000154F8040C0A681044086053
:104200002846FFF75FFD44F24870C2F200000168E3
:104210000131016000F036FCB0BD00004EF210002C
:10422000CEF2000000210160816040F22011C2F254
:104230000001096844F6D352C1F26202A1FB0212E6
:104240004FF0FF3101EB921141600721016070478F
:10425000EFF30580102814D34EF2F031CEF20001B6
:10426000405C44F27C51C2F200010978884208D2D5
:104270004FF0500080F31188BFF36F8FBFF34F8F63
:10428000FEE74EF60C50CEF2000044F2805100687A
:10429000C2F20001096800F4E060884298BF7047EC
:1042A0004FF0500080F31188BFF36F8FBFF34F8F33
:1042B000FEE70000B0B590B10D46D1B1044644F21E
:1042C000A450C2F200000068E8B14FF0500080F343
:1042D0001188BFF36F8FBFF34F8F00BFFEE74FF022
:1042E000500080F31188BFF36F8FBFF34F8F00BF73
:1042F000FEE74FF0500080F31188BFF36F8FBFF3DC
:104300004F8F00BFFEE700F0E1F844F29870C2F270
:10431000000000682268904202EB050102D291423F
:1043200002D309E0914201D3814205D92160081AE4
:104330000021FFF70DFB00E0216000F0A3FB002847
:1043400018BFB0BD4EF60450CEF200004FF08051C1
:104350000160BFF34F8FBFF36F8FB0BD70B50446E0
:10436000FFF7DAFE40F6E006002CC2F2000608BFB6
:104370003468251D2846FFF767FEA0B9E06A40F6BD
:10438000F00200EB8001C2F2000252F8211051B994
:1043900044F2AC52C2F200020121136801FA00F0AB
:1043A00023EA00001060A06A18B104F11800FFF7BA
:1043B0004BFE44F2A850C2F20000016801310160D6
:1043C000306884420CD044F29C50C2F20000016874
:1043D000013901602046FFF78BFBFFF7B9FC0DE0C8
:1043E00044F28470C2F200002946FFF77DFE44F2D9
:1043F000A050C2F20000016801310160FFF7B0FE79
:1044000044F26470C2F200000068E8B1306884428F
:1044100018BF70BD44F2A450C2F20000006840B161
:104420004FF0500080F31188BFF36F8FBFF34F8FB1
:10443000FEE74EF60450CEF200004FF080510160CE
:10444000BFF34F8FBFF36F8F70BD000010B586B004
:10445000002405A804A903AACDE90444FFF708FE37
:10446000DDE9032005990023CDE9010143F6A130E0
:10447000C0F6000013A1009400F032F944F2E061AC
:10448000C2F200010860D8B14FF0500080F31188EB
:10449000BFF36F8FBFF34F8F44F23C70C2F2000046
:1044A0004FF0FF31016044F26470C2F2000001215C
:1044B000016044F29870C2F20000046000F052F80B
:1044C00006B010BD49444C450000000044F2A45021
:1044D000C2F20000016801310160704744F2A4504B
:1044E000C2F20000006830B144F29C70C2F20000D9
:1044F00001210160704744F29C70C2F2000000216B
:10450000016044F2AC50C2F200000068B0FA80F0E2
:10451000C0B2C0F11F0040F6F00100EB8000C2F213
:10452000000151F8202092B101EB800050F8041FE7
:104530004968021D9142016001D14968016000682B
:1045400040F6E001C068C2F20001086070474FF019
:10455000500080F31188BFF36F8FBFF34F8F00BF00
:10456000FEE7000080B582B04EF20040CEF20000BF
:104570004CF27021C4F20F11D0F800294B1C9A4262
:1045800009D14FF0500080F31188BFF36F8FBFF354
:104590004F8F00BFFEE7D0F800298A4209D14FF0C3
:1045A000500080F31188BFF36F8FBFF34F8F00BFB0
:1045B000FEE7017844F27C520191FF2101700178FD
:1045C000C2F200028DF803109DF8031001F05001B3
:1045D000117044F28051C2F2000107220A609DF975
:1045E0000320B2F1FF3F0CDC0A6800BF9DF80330E6
:1045F000013A5B008DF803309DF90330002BF5D4B0
:104600000A600A68032A2DD14FF4E06303EA02220C
:104610000A6001990170D0F8201941F47001C0F8C6
:104620002019D0F8201941F07041C0F82019FFF787
:10463000F5FD40F29010C2F2000000210160FFF78A
:1046400061FD4EF63470CEF20000016841F0404149
:104650000160FFF769FBFFF741FFFFF78DFB0020CB
:1046600002B080BD4FF0500080F31188BFF36F8F10
:10467000BFF34F8FFEE700002DE9F04383B00746FC
:104680009000984615468946FFF790FB78B106469C
:104690005420FFF78BFB38B10446066354B94FF042
:1046A000FF3003B0BDE8F0833046FFF771FD002412
:1046B000002CF4D0DDE90A10002284F85120CDE965
:1046C0000010384649462A4643460294FFF77EFAD0
:1046D0002046FFF78FF9012003B0BDE8F08300000A
:1046E00070B586B00B9CCCB10C9E06B354250495D6
:1046F000049D542D25D1049DDDF828C0022586F89F
:10470000515005AD3463CDE900C50296FFF75EFA5E
:104710003046FFF76FF9059806B070BD4FF05000B6
:1047200080F31188BFF36F8FBFF34F8FFEE74FF019
:10473000500080F31188BFF36F8FBFF34F8F00BF1E
:10474000FEE74FF0500080F31188BFF36F8FBFF387
:104750004F8F00BFFEE700002DE9F04120B31D465A
:10476000174604460E46FFF773FDEFF311884FF02E
:10477000500080F31188BFF36F8FBFF34F8F002D70
:104780001CBFE06C286094F850000221042F84F8CC
:10479000501012D80125DFE807F023031C26200063
:1047A000E16C3143E1641FE04FF0500080F3118869
:1047B000BFF36F8FBFF34F8FFEE7E16C013113D072
:1047C0004FF0500080F31188BFF36F8FBFF34F8F0E
:1047D000FEE7E16C0131E16406E0022803D1002527
:1047E00001284AD103E0E6640125012845D1A06AE9
:1047F00048B14FF0500080F31188BFF36F8FBFF3C3
:104800004F8F00BFFEE744F2A450C2F200000068E0
:1048100030B144F2507004F11801C2F2000016E009
:10482000261D3046FFF710FC44F2AC52E06AC2F29B
:1048300000020121136881401943116040F6F00124
:1048400000EB8000C2F2000101EB80003146FFF76F
:104850004BFC40F6E001C2F20001E06A0968C96A57
:1048600088420AD9069800281CBF0121016044F241
:104870009C70C2F200000121016088F31188284673
:10488000BDE8F08144F29870C2F200000068704701
:104890002DE9F04F81B044F2A450C2F2000000684C
:1048A00040B144F24C70C2F20000016800240131B2
:1048B00001609BE044F29870C2F2000001684E1C57
:1048C000066021D340F6E400C2F2000001680968E6
:1048D00049B14FF0500080F31188BFF36F8FBFF3E1
:1048E0004F8F00BFFEE740F6EC02C2F20002016803
:1048F0001368036044F240701160C2F20000016866
:1049000001310160FFF724FA44F23C71C2F2000168
:10491000086840F6E00A8642C2F2000A01D200248A
:104920004EE040F6E40BC2F2000BDBF8000000247E
:104930000068D8B344F2AC590127C2F200091FE065
:10494000D8F82C00D9F8001007FA00F21143C9F882
:10495000001040F6F00100EB8000C2F2000101EB14
:1049600080002946FFF7C0FBD8F82C00DAF80010C9
:10497000C96ADBF800208842106828BF3C46C0B1F5
:10498000DBF80000C068D0F80C80454655F8040FED
:10499000864210D32846FFF757FBD8F82800002896
:1049A000CED008F11800FFF74FFBC9E74FF0FF30FA
:1049B00005E04FF0FF3044F23C71C2F200010860A4
:1049C000DAF8000040F6F001C06AC2F2000100EB24
:1049D000800051F82000012844F29C70C2F20000CF
:1049E00088BF01240068002818BF0124204601B0B8
:1049F000BDE8F08F2DE9F0411E4615468846074672
:104A0000FFF78AFB40F6E004C2F20004206890F849
:104A10005000022819D02068C16C21EA0701C16446
:104A200020684FF0010180F8501076B13046012126
:104A3000FEF78EFF4EF60450CEF200004FF080518C
:104A40000160BFF34F8FBFF36F8FFFF789FBFFF755
:104A500063FB15B12068C06C28602068002590F8C1
:104A600050100020022905D121680125CA6C22EAD4
:104A70000802CA64216881F85000FFF771FB2846DC
:104A8000BDE8F0812DE9F04F81B044F2A454C2F2A8
:104A90000004206868B1FFF73FFB20680138206000
:104AA000206880B10024FFF75BFB204601B0BDE821
:104AB000F08F4FF0500080F31188BFF36F8FBFF37A
:104AC0004F8F00BFFEE744F29C50C2F20000006826
:104AD00000285FD044F25076C2F20006306844F2FB
:104AE0009C78C2F2000898B344F2AC5540F6F00945
:104AF00040F6E00A4FF0010BC2F20005C2F20009D5
:104B0000C2F2000AF068C76807F11800FFF79CFAC4
:104B10003C1D2046FFF798FAF86A29680BFA00F264
:104B2000114300EB8000296009EB80002146FFF76C
:104B3000DBFAF86ADAF80010C96A884228BFC8F8B8
:104B400000B030680028DDD1002F18BFFFF700F952
:104B500044F24C74C2F2000425685DB1012600BF26
:104B6000FFF796FE002818BFC8F80060013DF7D196
:104B700000202060D8F8000070B14EF60450CEF24C
:104B800000004FF080510160BFF34F8F0124BFF34D
:104B90006F8F88E7002486E7002484E7410008023D
:104BA00018BF04200A0E18BF40F001004FF07F42EA
:104BB00032EA010108BF40F00200012808BF0520C9
:104BC0007047000070B54FF068422DED048BF0EE99
:104BD000408A18EE900AB0EE608A18EE101A02EBC6
:104BE0004003B3F1654F3CBF02EB4102B2F1654FA8
:104BF0007DD200BFC0F3C753C1F3C7529A1A1B2A14
:104C000009DD10F0004F14BF9FED830A9FED830A6A
:104C1000BDEC048B70BD12F11A0F36DA11F0004FA3
:104C200009D010F0004F0CBF9FED7D0A9FED7D0A6B
:104C3000BDEC048B70BD88EE889A19EE100AFFF760
:104C4000ADFF042808BF00F063FC18EE900AFFF7E0
:104C5000A5FF054618EE100AFFF7A0FF044619EE5F
:104C6000100AFFF79BFF042D18BF052D08D1042C57
:104C700018BF052C04D1002804BF0220FBF7BDFBA0
:104C8000B0EE490ABDEC048B70BD4200B2EB410F9F
:104C90003AD910F0004F19BFDFED630A9FED630AA8
:104CA000DFED630A9FED630AB0EE481A0A46B1EEE3
:104CB000688A80F00041F0EE418A10460A1A5200DC
:104CC000B2F1807F34D2484010F0004FDFED5A1A25
:104CD0009FED5A2A1DBFBEEE001A70EEE10A30EEBB
:104CE000420AB6EE001A08BF70EEA10A00E040E0EA
:104CF00008BF30EE020AB0EE682A01EE482A08EE3C
:104D0000818AC2EE081A15E011F0004F04BF9FED32
:104D10004C0AF0EE400AD1D010F0004F19BFDFED81
:104D2000490A9FED490ADFED490A9FED490AC5E7A7
:104D3000C8EE881A21EEA11A9FED462ADFED462A19
:104D400041EE022A9FED452A01EE222ADFED442A98
:104D500041EE022A9FED432ABDEC048B01EE222A8C
:104D600021EE811A01EE020A30EE210A30EE200A0D
:104D700070BD4FF07F42B2EB400F28BFB2EB410F46
:104D800009D2F0EE480AB0EE680ABDEC048BBDE82B
:104D9000704000F0A9BB40EA01035B0008BF41F08E
:104DA000FF410BD0B2EB400F08BFB2EB410F08D16F
:104DB00020F0804008EE900A21F0804108EE101AA1
:104DC00018E7B2EB400F12BF5FEA410340F0FF402B
:104DD00001F000413FF40EAFB2EB410F12BF5FEAAA
:104DE000400200F0004041F0FF413FF403AF4A00B1
:104DF00092EA40033FF5FEAE002AACBF9FED1A0ACF
:104E00009FED1A0A68EE808A28EE008A18EE900A52
:104E100018EE101AEEE60000DB0FC9BFDB0FC93F2A
:104E2000DB0F4940DB0F49C00000C9BF22AAFDB912
:104E30000000C93F22AAFD390060ED3EC30ACE370B
:104E400000000000000049C022AA7DBA00004940CD
:104E500022AA7D3A2DAD65BD8FB8D53D0FB511BEE7
:104E600061C84C3EA8AAAABE0000804F0000802F57
:104E700010B510EE100A2DED068BB7EE001A10EEED
:104E8000901AB0EE418A0022A0F5000CDFEDFE9AE8
:104E90004FF00073BCF1FE4F4FF07F4403EB410C29
:104EA00080F0B481BCF1804FC0F02082F74901440A
:104EB0009FEDF73AB1F5005F40F2D48200F5802112
:104EC000CB0C03F00F0101EE901AC3F307137F3BE5
:104ED000A0EBC350B8EEE12A00EE100A1A44DFED51
:104EE000ED2AF0EE411A42EE221AF0EE613A70EE2F
:104EF000232A30EE632A12EE900A00F500606FF369
:104F00000B0001EE900A73EEE13A33EE804AC1EEF7
:104F1000223A22EE230A10EE100A00F500606FF329
:104F20000B0000EE100A00EE612A00EE442A62EE49
:104F3000232A70EE221A21EEA12ADFEDD73A02EEE3
:104F4000233A23EE023A20EE012A22EE811A03EEE2
:104F5000211A32EE010A10EE100A00F500606FF31C
:104F60000B0000EE100A72EE401A31EE812A9FED1E
:104F7000CB1A60EE011A9FEDCA1A20EE011A9FEDBE
:104F8000C90A02EE001A31EE810A10EE100A00F58D
:104F900000606FF30B0000EE100AC34871EEC01AF8
:104FA00031EE812A784400EBC10090ED003AD0ED5B
:104FB000011A100101EE100AF8EEC12A32EE211A90
:104FC00031EE001A31EE031A31EE221A11EE100AF8
:104FD00000F500606FF30B0009EE100A39EE621A5B
:104FE00031EE431A31EE400A30EE610A32EE40AA49
:104FF00010EE900A002100F500606FF30B0008EE40
:10500000900A084670EEE8AA4FF0000029EE280A40
:1050100000F00C01F0EEC00A10EE900AB0F18B4FD8
:105020000DDD10EE900AB4EB400F08D310EE100A1D
:105030004FF08B4262F31E0008EE900A13E069EE17
:105040002A0A38EEAA1A4AEE010A30EE201A11EEA8
:10505000100A00F500606FF30B0008EE900A30EEC6
:10506000680A70EE209A0C204FF0000038EEA90A72
:10507000B5EEC00AF1EE10FA34BFFEEE000AF6EE0D
:10508000000A30EE800ABDEEC00A10EE100A0111CF
:1050900000EE101AF8EEC00A00EE100AB8EEC00AD0
:1050A00038EEC00A30EE290ADFED801A9FED801A33
:1050B00000EE211ADFED7F1A7F4900F00F0040EE6D
:1050C000011A21EE800A794401EB800191ED001A6A
:1050D0007A49794401EB8001D1ED001A784901EE5B
:1050E000801A794401EB8000764990ED000A31EE98
:1050F000001AB0EEE00A10EE100A884215DA10EE3F
:10510000100AB4EB400F10D39FED6F0A30EE800A07
:10511000DFED6E0A20EE200A68EE010ABDEC068B78
:10512000BCEEC00A20EE200A10BD10EE100A68493D
:10513000884243DA10EE100AB4EB400F3ED3BDEEC6
:10514000E00A68EE010A10EE100A00EBD07251106E
:10515000C90501F17E5100EE101AA0EB6200C005F6
:1051600060EE200A00F17E5000EE100A60EE808AA8
:1051700018EE900AB4EB400F0FD10220FBF73DF977
:1051800000F0BEF910EE101A18EE100ABDEC068BF6
:1051900061F31E0000EE100A10BD18EE900A4000E8
:1051A00011D018EE900AFFF7F9FC042808BF00F0B0
:1051B000AFF9B0EE680ABDEC068B10BDF5EEC00A83
:1051C000F1EE10FA0FD20220FBF717F900F0A0F968
:1051D00010EE101A18EE100ABDEC068B61F31E00DB
:1051E00000EE100A10BD0220FBF707F900F088F965
:1051F00010EE101AB0EE480A10EE100ABDEC068B45
:1052000061F31E0000EE100A10BD00BFBCF1804F1C
:105210006CD300BF00F1FF43B3F1FE4F24D200BFB7
:10522000B0EEC00A10EE100AC1F3C7537F2B0DDB9E
:10523000972BBFF63BAEC3F196034FF0010C0CFA6F
:1052400003F3A3F1010C1CEA010F08D00120FBF7C6
:10525000D4F8BDEC068BBDE8104000F049B90B4214
:1052600018BFBFEE008A21E643001CBF4FF08073D9
:10527000B3EB400F34D96FF01A02DFED161A20EEAF
:10528000210A10EE100A27E000000000001080C084
:10529000ABAAAA3E0000803D7EE24C3E00B0384200
:1052A000D49AB8BB3BAA3842140C0000FC596337AF
:1052B000C9FF753A1872313DB20B0000E60B0000D1
:1052C000560B00000000FC420000FE420000004BB4
:1052D000000040430000004D10F0004FA0D1E5E574
:1052E000A0F50003B3F1FE4F21D2DFE503EB41034C
:1052F000B3F1007F11D3F5EEC00AF1EE10FA05D13B
:10530000430018BFB4EB400F76D883E701F00041AB
:1053100041F0FC5100EE901A7CE7B3F1807F06D299
:1053200010EE903AA3F5000300EE903A72E720F0F9
:1053300000426FF0FF4C604C02EB0C03A34210D311
:1053400021F000439C44A4450BD3B0F17E5F18BF0D
:105350005FEA410C50D0B2F1FF4F98BFB3F1FF4F5D
:1053600005D9BDEC068BBDE8104000F0BDB8B0F12A
:10537000FF4F0FD0C1F3C7527F2A09DB972A11DAFA
:10538000C2F19602012303FA02F2531E0B4205D02A
:10539000002208E011F0004F55D128E00A4218BF62
:1053A000012200D1022210F5000F13D028B3B0F172
:1053B000004F26D010F1814F4FD04FF0FE42B2EB9C
:1053C000400F94BF01200020012202EBE1718842CE
:1053D00039D10CE011F0004F02D0012A38D032E070
:1053E000012A02BF9FED350ABDEC068B10BD9FED73
:1053F000340ABDEC068B10BD2FE011F0004F0CD12C
:1054000021E0B1F1FF4F1ED011F5000F05D011F0D2
:10541000004F15D00AB1012A08D00220FAF7EDFF9B
:10542000BDEC068BBDE8104000F054B80220FAF73E
:10543000E4FF00F04FF8BDEC068BB1EE400A10BD62
:105440000AB1012A04D0B0EE690ABDEC068B10BD8A
:10545000BDEC068B9FED1B0A10BDBDEC068BB7EEB5
:10546000000A10BD30EE410AB5EE001A9FED172A72
:1054700000EE413AB6EE001A60EE001A00EE431A52
:1054800061EEC11A9FED101A20EE011A20EE020AF9
:105490009FED0F2A01EE820A71EE001A11EE900ABA
:1054A00000F500606FF30B0009EE100A31EE491AA7
:1054B00031EE00AA9CE50000FFFF3F00000080FFE6
:1054C0000000807F0000008000B0B841D49A38BB53
:1054D0003BAAB841DFED030AB7EE001A81EE200ABD
:1054E000704700000000000030EE200A7047000006
:1054F000DFED020A80EEA00A704700000000000005
:105500009FED020A20EE000A7047000000000070C4
:105510009FED020A20EE000A704700000000001014
:1055200010B591EA030F48BF83F0004300F1BC813E
:10553000841A71EB030C05D2121943EB0C03001B08
:1055400061EB0C014FEA1154A4EB135CDFF81CE192
:105550001EEA430F18BF9EEA445F73D021EA04514C
:1055600023EA0E0343F48013DCF1200E32D322FA37
:105570000CFE10EB0E0023FA0CFE41EB0E01CCF1F9
:10558000200E03FA0EFE10EB0E00CCF1200E51F1AE
:105590000001B1F5801F32D201EB045112FA0EF274
:1055A000BDE8104058BF7047401C38BF5FEA420258
:1055B00018BF7047002814BF20F0010041F100011E
:1055C0004FEA410313F5001F38BF7047A1F1C041F6
:1055D00000F05CB9012A43EB0302ACF1200CDCF1D2
:1055E0001F0E32BF4FF0000E23FA0CF310EB030036
:1055F00041EB0451B4EB115FD0D0A1EB045101F5A4
:105600008011490801EB04515FEA30000ED350F1DC
:10561000000038BF12FA0EFE08D1BDE81040C9E7FD
:10562000401C38BF5FEA4202CAD1C3E7BDE8104060
:105630004FEA410313F5001F38BF7047A1F1C04185
:1056400000F024B99EEA445F08D011EA5E0FBDE87D
:10565000104004BF01F0004100207047BDE8104039
:1056600070B500F0C5F800BF64FBBE3E0000E0FF6F
:10567000491058BFC1F140415B1058BFC3F14043CE
:105680008B42EFF30080704751EA030C17D41CF5EE
:10569000801F58BFBCF5801F00F10680994218BFDB
:1056A000704708BF9042704707D711F5801F58BF59
:1056B00013F5801F19D499427047894270471CF531
:1056C000801F08D5BCF5801FF7D58B4218BF7047E7
:1056D00008BF824270474FF4001C1CEB410F38BFDB
:1056E0001CEB430F01D28B42704770B500F080F87D
:1056F000922449004FF000514FF08053FFF7B8BF9C
:1057000051EA030C17D41CF5801F58BFBCF5801F4D
:1057100000F10680994218BF704708BF9042704759
:1057200007D711F5801F58BF13F5801F19D4994270
:105730007047894270471CF5801F08D5BCF5801F53
:10574000F7D58B4218BF704708BF824270474FF4AD
:10575000001C1CEB410F38BF1CEB430F01D28B42E6
:10576000704770B500F044F8922449004FF0805122
:105770004FF00053FFF77CBF51EA030C17D41CF520
:10578000801F58BFBCF5801F00F10680994218BFEA
:10579000704708BF9042704707D711F5801F58BF68
:1057A00013F5801F19D499427047894270471CF540
:1057B000801F08D5BCF5801FF7D58B4218BF7047F6
:1057C00008BF824270474FF4001C1CEB410F38BFEA
:1057D0001CEB430F01D28B42704770B500F008F804
:1057E000922449004FF000514FF08053FFF740BF23
:1057F0000EF1020E2EF0030E5EF8046B364205D455
:10580000012A43EB030515F5001F12D8012841EBCF
:10581000010C1CF5001F0CD80ED14FEAD17C0CEB0B
:105820004C0C0CF1020C15F5001F08BF4CEBD37C9F
:1058300004E04FF0080C01E04FEAD37C0CEB4C0580
:1058400026FA05F606F00706B6F1040C06D20EEBB2
:10585000860CBDE870404CF0010C6047DFE80CF0AE
:10586000090B02024FF00041A1F500214FF00000AA
:1058700070BD19461046012851EB010418BFD4F53C
:10588000001484BF002001F0004170BD0808A0F59D
:1058900000114FEA3101704710B591EA030F48BF7C
:1058A00083F000433FF544AE841A71EB030C07D23A
:1058B0008CF0004C121943EB0C03001B61EB0C0144
:1058C0004FEA1154A4EB135CDFF89CE11EEA430F8E
:1058D00018BF9EEA445F00F0B08021EA045123EA39
:1058E0006E035242C3EB6E0338BF5B1EDCF1200E29
:1058F00025D322FA0CFE10EB0E0043FA0CFE41EB0E
:105900000E01CCF1200E03FA0EFE10EB0E00CCF1CE
:10591000200E51F1000129D401EB045112FA0EF2CC
:10592000BDE8104058BF7047401C1CBFB2F1004F8B
:10593000704700280CBF491C20F00100704712EB93
:10594000020E43EB030218BF4FF0010E4EEA420273
:10595000ACF1200CDCF11E0E54D943FA0CFE10EB16
:105960000E00CCF11E0E51F1FF31D5D50EF1010E16
:1059700012FA0EFE404141EB010101EB445C5FEA8B
:105980005C5C10D901EB045110EBDE7038BFBEF146
:10599000004FBDE8104018BF704700280CBF491CDD
:1059A00020F00100704730D24FEAD42C24F4006478
:1059B00011F500111BD0B1FA81F20B3AA41AA41E02
:1059C000D2F12003914030FA03F31943904001EBE8
:1059D000CC7101EB0451002CBDE81040A8BF70470A
:1059E00001F1C04101F000414FF000007047B0FAF2
:1059F00080F310FA03F100D110BDE41A173C4805FA
:105A0000C90AE4E701EB045110BD49104FEA300028
:105A100001EB0451BDE8104002E04FF00001704777
:105A20004A0008BF0042F8D0B2F5001F28BF7047F7
:105A300001F000414FF0000070479EEA445F07D03C
:105A400011EA5E0FBDE8104004BF0021002070473E
:105A5000BDE8104070B5FFF7CBFE00BF40DFF63E5B
:105A6000104683F0004170470000E0FF43004FEA1A
:105A7000D30C4FEA3C0C43401FBF40070CF1605170
:105A800013F0FE4F70471CF0006F03D10CF0004183
:105A9000002070470CF0004343EA507040EACC000D
:105AA00010B500F038F800BF000000924FEA000186
:105AB000FFF7ECBE4FF00041A1F500214FF00000D0
:105AC000704710B5FFF7E0FD0CBF0120002010BDAE
:105AD00010B5FFF7D9FD14BF0120002010BD10B58F
