:020000040800F2
:1000000020090020690100081711000801110008EB
:100010001511000857060008B11400080000000080
:100020000000000000000000000000007313000842
:10003000D9080008000000007113000875130008BB
:100040008301000883010008830100088301000880
:100050008301000883010008830100088301000870
:100060008301000883010008830100088301000860
:1000700083010008D508000883010008D70800089C
:100080008301000883010008250600088301000899
:100090008301000883010008830100088301000830
:1000A0008301000883010008830100088301000820
:1000B0008301000883010008830100088301000810
:1000C0008301000883010008830100088301000800
:1000D000830100083D140008830100084114000852
:1000E00083010008830100088301000883010008E0
:1000F000830100088301000883010008000000005C
:10010000830100080000000083010008830100084B
:1001100083010008830100083914000883010008E6
:10012000830100088301000883010008830100089F
:1001300083010008000000000000000083010008A7
:10014000830100088301000883010008830100087F
:10015000DFF810D000F054FA0048004751220008A0
:10016000AFF300802009002006488047064800477A
:10017000FEE7FEE7FEE7FEE7FEE7FEE7FEE7FEE757
:10018000FEE7FEE77913000851010008D2B201E052
:1001900000F8012B491EFBD270470022F6E710B58C
:1001A00013460A4604461946FFF7F0FF204610BDE5
:1001B0002DE9FE4F804681EA0300C00F0C460090F7
:1001C00021F0004123F00045B8EB0200A94105D21F
:1001D0004046214690461C460B46024623F000400E
:1001E000104347D0270DC7F30A00C3F30A5102900A
:1001F000401A019040286BDAC3F3130040F4801BCF
:100200000098924620B10023D2EB030A63EB0B0B5C
:1002100001985946C0F14002504600F0B8F8064631
:100220000D4650465946019A00F0D0F810EB0800F0
:100230006141002487EA115284EAE7731A4340D0EF
:10024000009A62B3019A012A4FEA075215DC001B9B
:1002500061EB02014FF0004202EA0752CDE9004291
:10026000001C41F5801132462B4600F007F903B01F
:10027000BDE8F08F40462146F9E7001B61EB020123
:10028000001C41F5801300185B412018A2F50017EF
:1002900047EB030140EAD570B6196D4111E06D08D6
:1002A0004FEA360645EAC0754FEA0752001B61EB7C
:1002B0000201001C41F5801149084FEA3000001985
:1002C000514132462B4603B0BDE8F04F00F0C7B8AD
:1002D0000098012240000023D0EB020263EBE073A0
:1002E000009821464FEAE074B8EB000061EB04018E
:1002F000E9E783F000435BE781F0004158E7F0B4A1
:10030000CA17CB0F50405140C61841F100054FEAC3
:10031000C372314628004FF0960303D0B623F0BCD9
:1003200000F06FB830460021F9E770B5C1F30A520A
:1003300001F000450024C1F3130140F2FF3341F402
:1003400080119A4201DA002070BD40F233439A4294
:10035000A2F2334203DC524200F028F800E0904061
:100360002C43F1D0404270BD00F0004230F000401C
:100370000AD0C10D01F56071C0F3160042EA0151C7
:10038000C208400711437047002001467047202AE9
:1003900004DB203A00FA02F1002070479140C2F1DC
:1003A000200320FA03F3194390407047202A04DB0E
:1003B000203A21FA02F00021704721FA02F3D040DE
:1003C000C2F120029140084319467047202A06DBFB
:1003D000CB17203A41FA02F043EAE07306E041FA13
:1003E00002F3D040C2F12002914008431946704701
:1003F0000029A8BF7047401C490008BF20F0010039
:10040000704710B4B0FA80FC00FA0CF050EA010416
:1004100004BF10BC704749B1CCF1200421FA04F4A8
:1004200011FA0CF118BF012121430843A3EB0C0181
:10043000CB1D4FEA00614FEA102042BF002010BCE4
:10044000704700EBC35010440029A4BF10BC704794
:10045000401C490008BF20F0010010BC704710B5D7
:10046000141E73F1000408DA401C41F100019218D7
:100470005B411A4301D120F0010010BD2DE9F04D80
:1004800092469B4611B1B1FA81F202E0B0FA80F2D5
:1004900020329046FFF77BFF04460F4640EA0A00F1
:1004A00041EA0B0153465A46084313D0114653EA1A
:1004B000010019D0C8F140025046FFF777FF05460A
:1004C0000E46504659464246FFF761FF084305D0A5
:1004D000012004E020463946BDE8F08D00200543A8
:1004E00046EAE0762C4337430A986305E40AA0EB1A
:1004F00008000022FD0A44EA47540A3002D50020D1
:100500000146E9E7010510196941DDE908450019CF
:100510006941BDE8F04DA2E72DE9F041054621F023
:1005200000400C46284309D0C4F30A5040F233413E
:10053000884205DD28462146BDE8F0812846FBE7D4
:1005400040F2FE31884210DC0CDB4FEA043040EA16
:10055000155050EA053105D0104804F00041014320
:100560000020E9E700200146E6E7A0F233404642DA
:10057000C6F1400228462146FFF709FF0746884694
:10058000284621463246FFF711FF43463A46FFF719
:1005900066FF3246BDE8F041FFF7F9BE0000F03FCC
:1005A00030B5041E71F1000404DB4FF000444042FA
:1005B00064EB0101141E73F1000405DB1C464FF0CF
:1005C0000043524263EB04038B4208BF824230BDBA
:1005D00030B5041E71F1000404DB4FF000444042CA
:1005E00064EB0101141E73F1000405DB1C464FF09F
:1005F0000043524263EB0403994208BF904230BD6E
:10060000064C074D06E0E06840F0010394E807005F
:1006100098471034AC42F6D3FFF79EFD903C00089B
:10062000B03C00080348016821F00401016000F0BB
:10063000ABBC00000024014010B54FF4407001F045
:1006400099FE01F0E5FA01F00BFA01F0F5FABDE8C8
:10065000104001F0D1BBFEE72DE9F0412DED048BF8
:10066000934C616800EE101AB8EE400ADFED910A73
:1006700060EE208A904DB0EE083AF6EE003A95ED25
:10068000042A95ED000A22EE000A20EE030A60EE2D
:10069000231A237800279FED898A894E04F11000E0
:1006A000AC46D6ED022A264690ED000A96ED021AD7
:1006B000844EDCED050AB0EE009A00F108020A2B28
:1006C0000BD2DFE803F0ED050B232E42607C91A4F2
:1006D000676080ED008A02202070E1E072EE620A1D
:1006E0009FED791A00EE810A80ED000AF0EE480ACB
:1006F000B0EE601A00F0D6FB606849F640418842CF
:1007000003D300F0FBFD03202070C9E0C0EE020A15
:1007100020EE890AC0EE030AC5ED000A042020700D
:10072000BEE0676082ED008A82ED018AB1EE600A68
:1007300080ED000AC0ED010AB0EE481AF0EE480A5A
:1007400000F0B0FB05202070AAE001F0010102EBEF
:10075000810292ED000A30EE220A82ED000A00EBDF
:100760008100F0EE480A90ED000AB0EE601A00F049
:1007700099FB606844F62061884203D300F0BEFD17
:10078000062020708CE092ED010A92ED001A30EE06
:10079000410A20EE090A80EE801A21EE090AC0EE15
:1007A000030AC5ED010A95ED030AB8EEC00A00F090
:1007B0005BFB84ED028A67600720207070E021EE09
:1007C000A80AF0EE480A20EE230A00F06BFB18EEB0
:1007D000900AB0F1804F63DBD6E90401FFF78FFD8B
:1007E000E060082020705BE09FED380A31EE001ACF
:1007F00084ED021AF0EE480AB0EE610A00F052FBF6
:100800003349A06888424BDB0920207048E0D6E9D4
:100810000401FFF774FD00EE100AD4ED030A30EE78
:10082000600ABDEEC00A10EE100A002802DD0121A8
:10083000A96102E04FF0FF31A96196ED060A00EED2
:10084000900AB8EEC01AF8EEE00AC0EE811AF5EE92
:10085000C01AF1EE10FA08DDF8EEC00A00EE100A38
:10086000B8EEC01A81EE200A09E0F8EEC00A00EEE8
:10087000100AB8EEC00A80EE201AB1EE410AC9EEA5
:10088000000A10EE900AFFF76FFD41EC100B00F02C
:10089000C7FE51EC100BFFF748FDA8600A2020703E
:1008A0006068401C6060BDEC048BBDE8F081000016
:1008B0001800002017B75138040100200000000084
:1008C0007C000020B800002017B7D138BEB524390D
:1008D000DB0F4941704770477047000010B500F0CA
:1008E00011FC08489FED060A80ED0C0A9FED060AF0
:1008F00080ED0D0A9FED050A80ED0E0A10BD000087
:1009000000007A45B80000200024744A0000C84264
:100910002DE9F04100F0E8F86D4C28B104F14000F9
:1009200061684068401A2060A06901E0091A2160EE
:1009300021688142FADC01E0111821602268002A56
:10094000FADB2668A660E168711AE66000E0091A21
:10095000B1EB600FFBDC45106B4200E001448B42C1
:10096000FCDCD4E904C74FEAE1781CEB010147EB5A
:100970000807C4E90417D4ED090A94ED0A1A9FED9B
:10098000552A41EE020AC4ED090ABDEEE00A10EE56
:10099000101A711A00EE101AB8EEC00A05E001EE46
:1009A000900AF8EEE11A30EE610A01EE905AF8EE84
:1009B000E11AF4EEC01AF1EE10FAF0D305E001EE00
:1009C000900AF8EEE11A31EE800A01EE903AF8EE64
:1009D000E11AF4EEC01AF1EE10FAF0DCD4ED0C1AC4
:1009E00061EE821A41EE800AC4ED090A07E001EEC9
:1009F000900AF8EEE11A70EEE10AC4ED090A01EE80
:100A0000900AD4ED090AF8EEE11AF4EEE10AF1EEEB
:100A100010FAECDC07E001EE900AF8EEE11A70EE55
:100A2000A10AC4ED090AD4ED090AF5EEC00AF1EEF7
:100A300010FAF0D3D4ED0D0A60EE820A00EE801AAF
:100A400084ED0A1AB5EEC01AF1EE10FA01DCB1EE2F
:100A5000411A94ED0E0AB4EEC01AF1EE10FA03D268
:100A60009FED1D0A84ED0A0A00EE100A94ED0A1AA1
:100A7000B8EEC00AC1EE000A94ED0B0A9FED171AFA
:100A800070EE600A00EEC10A84ED0B0A00EE902AB7
:100A90009FED131A1349F8EEE00A60EE811AD1EDCA
:100AA000020AB8EEE02A21EE822A01EE900AF8EE60
:100AB000E11AC2EE212AC4ED072A20EE010AF8EE5F
:100AC000E00A20EE200A84ED080ABDE8F08100006B
:100AD000B800002017B7513800000000ABAAAA3EAA
:100AE000DB0FC940040100202DE9F84F0025DFF895
:100AF000A4A1DFF8A491694F1026AAF10408CAF84E
:100B00000060002403E02046641C0A2874D80221F7
:100B1000484601F031FD0028F5D04FF40341484626
:100B200001F0FCFC002403E02046641C0A2863D882
:100B30008021484601F020FD0028F5D0002403E084
:100B40002046641C0A2857D80121484601F014FDAC
:100B50000028F5D0484601F0DEFC8DF800000024A6
:100B600003E02046641C0A2846D80221484601F0CA
:100B700003FD0028F5D04FF40441484601F0CEFCB7
:100B8000002403E02046641C0A2879D880214846C6
:100B900001F0F2FC0028F5D0002403E02046641C9C
:100BA0000A286DD80121484601F0E6FC0028F5D05E
:100BB000484601F0B0FC8DF80100002403E0204617
:100BC000641C0A285CD80221484601F0D5FC0028A4
:100BD000F5D04FF40541484601F0A0FC002403E0A5
:100BE0002046641C0A284BD88021484601F0C4FCEA
:100BF0000028F5D0002404E042E02046641C0A28C6
:100C00003ED80121484601F0B7FC0028F5D04846FF
:100C100001F081FC8DF80200C8F800609DF8010029
:100C20009DF8001040EA012200210020012404FA6E
:100C300000F3134201D0491CC9B2401CC0B21028B5
:100C4000F5D3C80718D00021787AFF2801D2401CBC
:100C500078726D1CEDB2032DFFF451AF71B19008A5
:100C60007860C2F3400038709DF80200C0F3800045
:100C700078700120BDE8F88F0121EFE70020F9E747
:100C8000C8F80060387AFF2801D2401C3872002072
:100C9000F0E700001408014000300140F800002097
:100CA0000E489FED0D0A80ED040A80ED030A80EDE9
:100CB000020A80ED010A80ED000A80ED0E0A80ED47
:100CC000050A80ED0D0A80ED060A054890ED030A3D
:100CD000B8EEC00A00F0C8B8000000007C00002098
:100CE0000401002010B52DED068B84B0B0EE408AD3
:100CF000F0EE608AB0EE41AAF0EE61AA534C02A970
:100D000003A894ED041AD4ED030A94ED020A01F04D
:100D1000BBF804F11401081DB0EE4A1ADDED020A19
:100D20009DED030A01F03CFB94ED010ADFED480A5A
:100D300060EE200AB7EE001A81EE200AD4ED060A12
:100D400038EE609AD4ED050A78EEE09A94ED0D1A2B
:100D5000D4ED0B0A09EE201A61EE008A94ED0E1A0A
:100D600009EEA01A21EE008A28EEA80A08EE080A69
:100D700000F0C6FC9FED371AF0EE400A81EE200A23
:100D8000DFED351A10EE100AB0F17E5F0EDA68EE74
:100D9000808A28EE008A94ED0D0ADFED300A20EEFD
:100DA000200A20EE200A84ED0D0A0BE094ED0C0AD7
:100DB000D4ED0E0A20EE210A49EE000A49EE800A1F
:100DC000C4ED0E0AB7EE080AB0EE4A1A2AEE800AFF
:100DD00000EE211A694601A8F0EE480AB0EE680A52
:100DE00001F016FA194ADDED000A2432111F081F1E
:100DF0009DED010A01F0E8FB002822D1D4ED070A9D
:100E00009FED170A60EE800AFCEEE00A10EE900AF1
:100E100080B214490860D4ED080A60EE800AFCEE46
:100E2000E00A10EE900A80B2091D0860D4ED090AAC
:100E300020EE800ABCEEC00A10EE100A80B2091D36
:100E4000086004B0BDEC068B10BD00007C000020E3
:100E5000ABAA2A3FAC5C313F17B75138A4707D3F35
:100E600000803B45342C014010EE100A09498842AD
:100E700001DB9FED090A09490948D1ED010A60EE3D
:100E8000800AC0ED0B0AD1ED000A20EE800A80ED49
:100E90000C0A704700409C4500409C45040100201E
:100EA0007C00002010B52DED048B82B0B0EE419A8D
:100EB000304CDFED311AB7EE002A94ED011A21EE25
:100EC000211AC2EE011A61EE808A21EEA08A28EE74
:100ED000A80A08EE080A00F013FC9FED281AF0EEAD
:100EE000400A81EE200A10EE100AB0F17E5F03DAAC
:100EF00068EE808A28EE008A694601A8B0EE491A99
:100F0000F0EE480AB0EE680A01F082F9194ADDED08
:100F1000000A2432111F081F9DED010A01F054FB45
:100F2000002822D1D4ED070A9FED150A60EE800A51
:100F3000FCEEE00A10EE900A80B212490860D4ED8F
:100F4000080A60EE800AFCEEE00A10EE900A80B219
:100F5000091D0860D4ED090A20EE800ABCEEC00A23
:100F600010EE100A80B2091D086002B0BDEC048BBF
:100F700010BD00007C000020ABAA2A3FAC5C313FD2
:100F800000803B45342C014070B5494D0421284672
:100F900001F0EAF8474C4848008800EE100AB8EE25
:100FA000400ADFED460A80EE801A9FED450A71EE99
:100FB000400A9FED441A80EE810A00F07BFA9FED13
:100FC000421AC0EE010A9FED410AB7EE001A70EE18
:100FD000800A81EE200ADFED3E0A9FED3E1A70EE98
:100FE000600A94ED0A0A70EE600A00EEC10A84ED10
:100FF0000A0AFFF78DFC38480068DFED380A80B236
:1010000000EE100AB8EE400A20EE200A214681EDDB
:10101000000AD1ED010A9FED321A30EEC00A40EE0F
:10102000410AC1ED010A2C48001D00682D4A80B21A
:10103000B2F90020801A00EE100AF8EEC00A9FED07
:101040002A0A60EE800AC1ED030A28480068284A8F
:1010500080B2B2F90020801A01EE100AB8EEC11A6F
:1010600021EE000A81ED040AF1EE600A30EEC00ABA
:1010700081ED020A1F480078042812D2DFE800F050
:1010800011021105FFF7E8FA0BE01A491A489FED23
:101090001B0AD1ED021A90ED071AD1ED010AFFF7F4
:1010A00021FE2846BDE87040042101F05BB8000035
:1010B000000C01407C000020080000201C334E4B37
:1010C00000404E4500401C46004053450FCF5B3B5F
:1010D00033938843CDCCCC3D3C2401407BDC7A3C2F
:1010E000CDCC4C3D04000020C10D5C3D3C280140AE
:1010F000060000200C000020B800002000000000C6
:10110000FEE7000002494FF480408861704700000C
:10111000B8000020FEE770472DE9F04700240025C5
:101120000026204F0121384601F02DFE01213846CE
:1011300001F02CFE0028F9D00121384601F023FEF1
:10114000DFF86480DFF8649012E00121384601F096
:101150001DFE01280CD10121384601F014FE641C4B
:10116000D8F8000080B20544D9F8000080B20644E7
:10117000402CEADB95FBF4F001B20D48018096FBB0
:10118000F4F212B242800020A1F282714FF4C873CF
:10119000994200D90120A2F282729A4200D901201C
:1011A000BDE8F087002C0140402401403C2801406C
:1011B0000400002010B5304C0421204600F0A5FBAF
:1011C0000421204600F0C7FB204600F03EFB012032
:1011D00000F0ACFE204600F0DDFA0121204600F0D0
:1011E0000AFC0421204600F0B6FB0421204600F052
:1011F0009FFB224C204600F028FB012000F096FEC9
:10120000204600F0C7FA1E4C00221146204601F08D
:10121000BDFC00220121204601F0B8FC0022022181
:10122000204601F0B3FC00221146204601F03EFBAF
:1012300000220121204601F039FB00220221204634
:1012400001F034FB40F2DC510D4A34321160121DC2
:101250001160121D1160204601F090FD0121204611
:1012600001F009FE0121204601F0F9FD2046BDE80C
:10127000104001F0FDBA00000024014000280140A8
:10128000002C014010B540F2DC501B490860091DDC
:101290000860091D0860184C0121343C204601F00B
:1012A00072FD0121204601F071FD0028F9D00121D5
:1012B000204601F068FD01220021204601F066FC75
:1012C00001221146204601F061FC01220221204644
:1012D00001F05CFC04220021204601F0E7FA042220
:1012E0000121204601F0E2FA20460422BDE8104028
:1012F000022101F0DBBA0000342C014010B50020BF
:101300001A490860091D0860091D0860174C012171
:10131000343C204601F037FD0121204601F036FD26
:101320000028F9D00121204601F02DFD01220021E5
:10133000204601F02BFC01221146204601F026FC3C
:1013400001220221204601F021FC04220021204636
:1013500001F0ACFA04220121204601F0A7FA204650
:101360000422BDE81040022101F0A0BA342C014053
:10137000704770477047000008B52C48016841F479
:10138000700101602A48016841F0010101600168B3
:101390008907FCD5416841F080014160002200923C
:1013A00002E00099491C009100995029F9D3416845
:1013B00041F090014160009202E00099491C0091C7
:1013C00000995029F9D3416841F0A0014160009291
:1013D00002E00099491C009100995029F9D3416815
:1013E00041F0B0014160009202E00099491C009177
:1013F00000995029F9D3416821F003014160016847
:101400000C4B194001604FF47F0181604260C26261
:10141000016821F48021016001F028FABDE808404C
:1014200000214FF0006000F0AFBF000088ED00E049
:1014300000100240FFFFF6EA00F024B801F028BDDA
:10144000704700000B48072181609FED0B0A80ED7B
:10145000000A9FED0A0A80ED010A4FF47A71C1601B
:10146000B0EE080A80ED050A9FED050A80ED040A3A
:1014700070470000040100203D0A173FACC5A739A2
:10148000CDCC4C3F10B5084C0121204601F0DDFCCD
:10149000012807D10121204601F0D4FC034801684E
:1014A000491C016010BD0000001000400000002039
:1014B000FEE7000010EE100A10B50023A0F50001B1
:1014C000B1F1FE4F67D200BF00F500216FF07E0240
:1014D00002EBE15CC1F302524FF07E5101EB02518D
:1014E00000EE901AA0EBCC5003EB0C0100EE100ABA
:1014F00051EA020036D030EE601A70EE200A9FEDFD
:101500003D2A3E4881EE200A9FED3B1A60EE000A1C
:1015100000EE821A60EE201A61EE810A784401EE34
:10152000101A00EB82009FED362AB8EEC11AD0EDFA
:10153000001A344841EE021A784401EE101A00EB0A
:101540008200B8EEC11A90ED002ADFED2F2A01EEDD
:10155000222AB0EE001A72EE200A40EE010A31EEA5
:10156000A00A10BDF7EE000A9FED291A30EE600ABE
:10157000DFED260A00EE201ADFED260A60EE001AE3
:1015800040EE010A9FED241A00EE201A61EE810A56
:1015900030EE200A10BD4FF07F41B1EB400F03D277
:1015A000BDE8104000F0D4B8B0F1FF4F08BF10BD47
:1015B000B5EEC00AF1EE10FA06D2012000F0E4F810
:1015C000BDE8104000F0C8B8B5EEC00AF1EE10FA60
:1015D00007D1022000F0D8F800F0B0F8B1EE400AD0
:1015E00010BDDFED0E0A6FF0160320EE200A10EE9C
:1015F000100A69E766F1CC3EAAAA2A3F302700000C
:101600000070313F34270000F4FD053821ED423EE3
:101610000A1180BEC1ABAA3EFFFFFFBE0000004B17
:1016200010B52DED020B2DED088B84B09DED0C0B4C
:1016300051EC100BFEF770FF41EC180B9DED0C0BFD
:1016400053EC182B51EC100BFEF753FE41EC190B29
:101650000D989FED290B10F0004F53EC102B51EC1F
:10166000190B9FED21AB9FED22BB0ED0FEF798FF2B
:101670000ED953EC1B2B51EC190BFEF7A9FF1CD212
:1016800014E000BF41EC180B17E0FEF789FF06D20B
:1016900053EC1A2B51EC180BFEF72BFEF2E753EC30
:1016A0001B2B51EC190BFEF793FF06D853EC1A2BAA
:1016B00051EC180BFEF77CFDE4E78DED028B9DED00
:1016C0000C0B18EE901A10EE900A8DED000B61F3E2
:1016D0001E0003909DED020B04B0BDEC088B02B020
:1016E00010BD000000000000000000000000F03FFE
:1016F000000000000000E03F000000000000E0BF2C
:1017000010B52DED028BB1EEC08A18EE100A20F054
:101710000040C0F1FF40C00F0AD010EE100A20F0C8
:101720000040C0F1FF40C00F04BF012000F02CF8C2
:10173000B0EE480ABDEC028B10BD0000DFED030ADD
:10174000B7EE001A81EE200A70470000000000008A
:1017500030EE000A70470000DFED020A80EEA00ABA
:10176000704700000000000002E008C8121F08C116
:10177000002AFAD170477047002001E001C1121F12
:10178000002AFBD170470000014908607047000043
:1017900038000020816841F00801816081680907F4
:1017A000FCD4816841F00401816081684907FCD460
:1017B0007047521E01290DD002290AD1816B21F4F4
:1017C00040118163816B4FF4401303EA02521143CD
:1017D00081637047C16A21F47001C162C16A4FF42C
:1017E000700303EA02521143C1627047002904D01A
:1017F000816841F4006181607047816821F4006173
:101800008160704710B50D4940180CD0B0F5806F5D
:1018100013D140F20A34204600F028FE2046BDE8ED
:10182000104000F015BE40F20934204600F01EFEC4
:101830002046BDE8104000F00BBE10BD00DCFEBF2E
:10184000816841F48071816070478168C90703D164
:10185000816841F0010181607047002A0CD0CA07FD
:1018600003D0826842F480128260890703D58168C0
:1018700041F4004181607047CA0703D0826822F4B6
:10188000801282608907F6D5816821F40041816069
:101890007047012909D0022906D1816821F4E0416D
:1018A00081608168114381607047816821F4602103
:1018B0008160816811438160704730B5846BC4F3E7
:1018C0000155846B491BC91C01EB81011F258D400B
:1018D000AC4302FA01F52543856307250A2A08D29D
:1018E000046902EB42018D40AC438B40234303610A
:1018F00030BD122AFCD2C4680A3A02EB42018D4084
:10190000AC438B402343C36030BDCA0703D0426859
:1019100022F0400242608A0703D5426822F020028A
:101920004260490703D5416821F08001416070475A
:10193000CA0703D0426842F0400242608A0703D5DA
:10194000426842F020024260490703D5416841F0F5
:1019500080014160704702688A430260704700005E
:1019600004490A6822F470220A600A6802430A6085
:10197000704700000424014030B51F24062909D215
:10198000456B01EB81018C40A54302FA01F42C4325
:10199000446318E00C290AD2056B891F01EB810111
:1019A0008C40A54302FA01F42C4304630BE0102998
:1019B00009D2C56A0C3901EB81018C40A54302FABA
:1019C00001F42C43C46207250A2A08D2046902EBF9
:1019D00042018D40AC438B402343036130BD122A4A
:1019E000FCD2C4680A3A02EB42018D40AC438B4002
:1019F0002343C36030BDCA0703D0826842F480022B
:101A00008260890703D5816841F4001181607047C5
:101A1000002A12D0CA0503D5426842F4807242609F
:101A20004A0503D5426842F480624260890703D5C3
:101A3000816841F0020181607047CA0503D54268A0
:101A400022F4807242604A0503D5426822F4806223
:101A500042608907F0D5816821F0020181607047FA
:101A6000F0B587B01C216846FEF797FB40F2026094
:101A700000F0E0FC40F2096000F0DCFC40F20A609B
:101A800000F0D8FC002000F0ABFC4FF4A06000F0A8
:101A9000D1FC5A4C012304220021204600F066FBB1
:101AA000022304220021204600F060FB04231A4692
:101AB0000021204600F05AFB082304220021204682
:101AC00000F054FB4FF4A020FFF74AFF4C4E304685
:101AD000FFF798FE3046FFF7B3FE012202213046A1
:101AE000FFF796FF0122140221463046FFF790FFD0
:101AF00000213046FFF77AFE012211463046FFF7FB
:101B000058FE0123032200213046FFF735FF022251
:101B100011463046FFF74DFE0022012311463046A4
:101B2000FFF7CBFE01231A4619463046FFF7C5FEE4
:101B30004FF4602201213046FFF7ABFE012211462F
:101B40003046FFF78AFE25012A4602213046FFF77C
:101B5000A0FE012202213046FFF77FFE294F3846C2
:101B6000FFF750FE00213846FFF740FE0122022118
:101B70003846FFF71EFE0123022200213846FFF7F8
:101B80009CFE2A4602213846FFF783FE01220221ED
:101B90003846FFF762FE00220321122000F0A2FB6C
:101BA00004213046FFF7C4FE174F0021384600F0ED
:101BB0002FFA684600F0A8FA11484C3000901348FC
:101BC000029000268DF8186001238DF819300194D9
:101BD000990203918DF81A60049305956A460021D5
:101BE000384600F032FA0021384600F0FFF90021B3
:101BF000384600F0E9F907B0F0BD000000080140E8
:101C0000002401400028014000000240080000209C
:101C100010B540F2036000F00DFC064C04230122D5
:101C20001021204600F0A2FA2046BDE81040042111
:101C300000F098BA000C014030B58BB00024079436
:101C4000089409940A9404940594069400940194C9
:101C50000294039440F2026000F0ECFB40F2036057
:101C600000F0E8FB4FF4C06000F0E4FB40F20B60D2
:101C700000F0E0FB5D4D4FF48073032218212846ED
:101C800000F074FA6B1503221821284600F06EFA52
:101C90002B1503221821284600F068FA6B14544DC6
:101CA00003221821284600F061FA4FF480430322F2
:101CB0001821284600F05AFA4FF400430322182155
:101CC000284600F053FA4B4D284600F093FF07A832
:101CD00001F0D3F8ADF81C404020ADF81E00ADF87F
:101CE000204040F6B7300990ADF828408DF82A40E2
:101CF00007A9284601F052F804A800F072FF01205D
:101D0000ADF810000420ADF81200ADF81440ADF8A5
:101D10001640ADF81840ADF81A4004AA0021284634
:101D200000F0E4FD04AA0121284600F0DFFD04AA2A
:101D30000221284600F0DAFD04AA0321284600F01B
:101D4000D5FD00221146284600F0E6FE6022002163
:101D5000284600F0B7FE08220021284600F0ECFEDD
:101D600000220121284600F0D7FE602201212846EA
:101D700000F0A8FE08220121284600F0DDFE002226
:101D80000221284600F0C8FE60220221284600F009
:101D900099FE08220221284600F0CEFE40F6B3321A
:101DA0000321284600F0B8FE60220321284600F0F7
:101DB00089FE00220321284600F0BEFE684600F09E
:101DC0006CFDADF80040ADF80240ADF80440ADF850
:101DD0000640ADF80840ADF80A40ADF80C40694641
:101DE000284600F04AFD0BB030BD0000000801405D
:101DF000000C0140002C014010B588B040F20C608E
:101E000000F018FB40F2026000F014FB1C4C1023A1
:101E100003221946204600F0A9F91021204600F0BF
:101E2000A3F9A02303221821204600F09FF94023A4
:101E300003220421204600F099F91C2101A8FEF795
:101E4000ACF9104C204600F06BFB01A800F0B2FB8F
:101E5000002102914FF482720192E2140392032254
:101E600006926215049210220792059101A920465C
:101E700000F089FB204600F049FB08B010BD0000CF
:101E8000000801400030014080ED000A30EEC10A38
:101E9000DFED030A20EE200A81ED000A7047000002
:101EA0003ACD133F9FED1E1AF5EE000A40EE010AEF
:101EB000BDEEE00A10EE100AF5EEC00AF1EE10FADF
:101EC00000D2401E00EE100AB8EEC00A30EEC00A82
:101ED000DFED140A20EE200ABCEEC01A11EE100A43
:101EE00080B2B0F5007F02D3002030EE600A00EE31
:101EF000900AF8EE600A70EE600A0B4901EB80026E
:101F000092ED000A401C01EB800090ED001AF7EE04
:101F1000001A71EEE01A21EE800A00EE810A704785
:101F200083F9223E000000444C2F000808B544F21B
:101F300030314843009000E000BF0098411E0091FE
:101F4000FAD208BD7FB540F2047000F073FA0024A5
:101F50000094019402940394114D284600F04AFE27
:101F6000684600F08AFF7721ADF80010ADF8024016
:101F7000ADF804404FF6FF710291ADF80C40694690
:101F8000284600F00BFF00220421362000F0AAF9B9
:101F90000121284600F052FF284600F0EFFE7FBDE9
:101FA0000010004070B505460C462146284600F05A
:101FB0009FF840B104EB840005EB8000816821F0BC
:101FC0000101816070BDFEE770B505460C462146F3
:101FD000284600F08DF840B104EB840005EB80004A
:101FE000816841F00101816070BDFEE770B5054672
:101FF0000C462146284600F07BF840B104EB8400F3
:1020000005EB8000816841F02001816070BDFEE732
:1020100070B504460D462946204600F069F898B18F
:1020200005EB850004EB8002906820F001009060D1
:1020300000209060D060106150616068AA000F219C
:1020400091400843606070BDFEE770B506460D46DE
:1020500014462946304600F04BF848B305EB85009E
:1020600006EB800022680261A1684161218A89B281
:10207000C160816821F47C52E36861681943636937
:10208000134319438160217E012912D0816821F018
:1020900040018160617E012910D0816821F08001BA
:1020A0008160A17E79B1816841F01001816070BDCD
:1020B000FEE7816841F040018160EBE7816841F013
:1020C00080018160EDE7816821F01001816070BDC1
:1020D00070B506460C4615462146304600F008F815
:1020E00028B104EB840006EB8000456170BDFEE77B
:1020F00002460120034B9A4202D1042900D9002054
:10210000704700000004024000280AD0002101604E
:10211000416001768160C1604176016181764161F3
:102120007047FEE770B506460C4615462146304618
:10213000FFF7DEFF30B104EB840106EB8101A8B2AA
:10214000C86070BDFEE770B505460C4621462846BE
:10215000FFF7CEFF28B104EB840005EB8000C068D8
:1021600070BDFEE741617047016170472DE9F043A2
:1021700001F00F04CD0602D5042A18D01443002222
:102180004FF00F0C012707FA02F51D401AD0D0F8C6
:10219000009096000CFA06F829EA080904FA06F8F5
:1021A00048EA0908282908D0482908D008E044F05E
:1021B0000304C26B1A43C263E1E7456100E00561B5
:1021C000C0F80080521C92B2082ADCD3082207FA19
:1021D00002F51D4016D0D0F80490A2F10806B60012
:1021E0000CFA06F829EA080904FA06F848EA090888
:1021F000282902D0482902D002E0456100E00561AB
:10220000C0F80480521C92B2102AE0D3BDE8F083DB
:1022100010B5F0EE402AB0EE603AF0EE413A0346D7
:102220000C46B0EE630A00F02FF9B0EE402AB0EE93
:10223000630AFFF737FE62EE800A43EE420AC3EDFF
:10224000000A62EE820A43EE000AC4ED000A10BDE5
:1022500072B6FFF7F7F8FEF723FDFFF773FEFEF700
:10226000EBF9FEF7A7FFFEF739FB62B60022002468
:10227000174E184D0BE07068A84203DD641CE4B2F1
:10228000142C06D80220FFF751FE521CD2B2FA2AB3
:10229000F1D3FEF741FF0028FBD10F49022008705F
:1022A000FEF7F0FF40F6B8300C4908600020091D29
:1022B0000860091D08604FF4FA70FFF737FE084800
:1022C0000168416000210160FFF718F8FEE7000097
:1022D0007C0000200000A0410C000020342C0140B4
:1022E000B8000020F0B506460F4600230024204821
:1022F000006800F4E0654FF4A06085422FD006DC52
:10230000B5F5407F31D0B5F5806F06D12AE0B5F53F
:10231000C06F21D0B5F5E06F1CD000F02BF8022380
:102320000224C3F104008740C4F104010F20C84017
:1023300010403843000106F1E02181F8000406F066
:102340001F01012088407109890001F1E021C1F8D5
:102350000001F0BD0424E4E701230324E1E70223A4
:102360000224DEE703230124DBE70423D9E700008E
:102370000CED00E002490843024908607047000084
:102380000000FA050CED00E0034A11400143034848
:102390000160BFF34F8F704780FFFF1F08ED00E023
:1023A00010B5F0EE402AB0EE603AF0EE413A034646
:1023B0000C46B0EE630A00F067F8B0EE402AB0EECB
:1023C000630AFFF76FFD62EE800A43EE020AC3ED77
:1023D000000A23EE000A02EEC20A84ED000A10BDD4
:1023E00010B5124B5968124A1140DA6A22F00052B5
:1023F0000C2817D2DFE800F00606060616091609B3
:102400001010101041EA80310CE020F0040041EA85
:10241000803040F0805105E020F00C0041EA80312E
:1024200042F000525960DA6210BD00000010024014
:10243000FF3FFFEF054901EB90110A6800F01F0311
:102440000120984002430A607047000000100240DB
:10245000054901EB90110A6800F01F030120984024
:1024600082430A607047000000100240054901EBFA
:1024700090110A6800F01F030120984002430A608F
:102480007047000000100240DFED1D0A60EE200AD8
:10249000BDEEE01A11EE100AB5EEC00AF1EE10FA28
:1024A00000D2401E00EE100AB8EEC00A30EEC00A9C
:1024B000DFED140A20EE200ABCEEC01A11EE100A5D
:1024C00080B2B0F5007F02D3002030EE600A00EE4B
:1024D000900AF8EE600A70EE600A0B4901EB800288
:1024E00092ED000A401C01EB800090ED001AF7EE1F
:1024F000001A71EEE01A21EE800A00EE810A7047A0
:1025000083F9223E000000444C2F0008016841F08E
:10251000400101607047C06880B27047C160704779
:1025200010B5144940180FD0B0F5806F16D0B0F533
:10253000784F1DD14FF443742046FFF797FF204694
:10254000BDE81040FFF784BF40F20E442046FFF77D
:102550008DFF2046BDE81040FFF77ABF40F20F44E0
:102560002046FFF783FF2046BDE81040FFF770BF0D
:1025700010BD000000C8FFBF8068084201D00120E4
:10258000704700207047026802F441520B68134301
:102590004A681A438B681343CA681A430B6913438A
:1025A0004A691A43896911430160C16921F40061D4
:1025B000C16170470021016041608160C1600161BB
:1025C000416181617047000010B59FED781A20EEDF
:1025D000811ADFED771AF5EEC00A60EEA11AF1EE6E
:1025E00010FA16DBB5EEC00AF1EE10FA08DBB4EE15
:1025F000C01AF1EE10FA01DD022320E001231EE0F3
:10260000F4EEC01AF1EE10FA01DD032317E0022305
:1026100015E0B5EEC00AF1EE10FA08DBF4EEC01AD0
:10262000F1EE10FA01DD052309E0062307E0B4EE20
:10263000C01AF1EE10FA01DD042300E00523DFEDFE
:102640005B4AF0EE402A40EEE42A9FED5A1AF0EE83
:10265000403AB0EE403AB1EE402A40EEA43A10EED5
:10266000A43A00EEE42A20EE814AB7EE001AF6EE14
:10267000001A9FED510A072B20EE800A6AD2DFE88C
:1026800003F0690415263748590031EE620A30EE2E
:10269000440A20EE210A80ED000A30EE220A81ED84
:1026A000000A30EE040A82ED000A53E031EE630ABC
:1026B00030EE430A20EE210A81ED000A30EE030AD3
:1026C00080ED000A30EE230A82ED000A42E031EE8E
:1026D000440A30EE420A20EE210A81ED000A30EE73
:1026E000040A82ED000A30EE020A80ED000A31E0B1
:1026F00071EE430A70EEC00A60EEA10AC2ED000A54
:1027000030EE800A81ED000A30EE030A80ED000A07
:1027100020E031EE420A30EE620A20EE210A82ED1C
:10272000000A30EE020A80ED000A30EE220A81ED46
:10273000000A0FE071EE400A70EEE30A60EEA10AB3
:10274000C0ED000A70EEA30AC2ED000A30EE800A66
:1027500081ED000A90ED000AB5EEC00AF1EE10FA24
:102760001DDB10EE100A4FF07E53984217DC91EDFE
:10277000000AB5EEC00AF1EE10FA10DB10EE100AF6
:1027800098420CDC92ED000AB5EEC00AF1EE10FAA8
:1027900005DB10EE100A984201DC012000E0002069
:1027A00008B1002010BD4FF0FF3010BD3ACD133FEF
:1027B0003ACD13BF3ACD933F3ACD93BF0021254880
:1027C000026842F4803202604FF6FF73491C0268CF
:1027D00002F400320AB99942F8D10168890300D4A1
:1027E000FEE71D490A6822F00702D21C0A60416810
:1027F000416041684160416841F4806141604168E5
:10280000164A114041604168154A11434160C16A4E
:10281000144A1140C162C16A134A1143C16201687E
:1028200041F08061016001680901FCD5016841F057
:102830008071016001688901FCD5416821F00301C4
:102840004160416841F00201416041680907FCD5DF
:10285000704700000010024000200240FFFFC3DF6D
:102860000000352000F0FEBF19080100FFF7A6BFE9
:10287000016841F080010160704710B50A884B88FB
:10288000CC881A438B8823431A430B891A434B89FC
:1028900089891A430A43426410BD002101804180A6
:1028A0008180C180018141818181704700290CD0E4
:1028B000012912D0022907D1016A21F48061016245
:1028C000016A41EA022101627047016A21F00401B4
:1028D0000162016A114301627047016A21F04001FF
:1028E0000162016A41EA02110162704730B5734B1F
:1028F000734C002929D0012960D002297ED00329F8
:1029000022D1016A21F480510162016A158841EAED
:1029100005310162016A21F400510162016A958862
:1029200041EA05310162984201D0A04208D14168D4
:1029300021F4804141604168128941EA821141607D
:10294000C16921F44071C16130BD016A21F001010A
:102950000162016A158829430162016A21F00201BE
:102960000162016A958829430162984201D0A04220
:102970001FD1016A21F004010162016A53881943E1
:102980000162016A21F008010162016AD3881943DA
:102990000162416821F480714160416813891943E3
:1029A0004160416821F400714160416852891143DE
:1029B0004160816921F00301816130BD016A21F02C
:1029C00010010162016A158841EA05110162016A7C
:1029D00021F020010162016A958841EA0511016236
:1029E000984201D0A04225D1016A21F04001016244
:1029F000016A538841EA0311016200E01FE0016AA5
:102A000021F080010162016AD38841EA0311016269
:102A1000416821F4806141604168138941EA830182
:102A20004160416821F4006141604168528941EA96
:102A300082014160816921F44071816130BD016A88
:102A400021F480710162016A158841EA0521016261
:102A5000016A21F400710162016A958841EA052149
:102A60000162984201D0A04223D1016A21F4806121
:102A70000162016A538841EA03210162016A21F47B
:102A800000610162016AD38841EA03210162416861
:102A900021F4805141604168138941EA031141608A
:102AA000416821F4005141604168528941EA0211B4
:102AB0004160C16921F00301C16130BD002C0140BA
:102AC0000034014000290ED0012914D002291BD066
:102AD000032907D1C16921F4E041C161C16941EA1B
:102AE0000221C1617047816921F0700181618169B2
:102AF000114381617047816921F4E04181618169FD
:102B000041EA022181617047C16921F07001C16110
:102B1000C1691143C1617047002907D0012907D05D
:102B2000022907D0032900D102647047426370472D
:102B300082637047C263704700290ED0012914D008
:102B400002291BD0032907D1C16921F40061C161A9
:102B5000C16941EA0221C1617047816921F0080120
:102B600081618169114381617047816921F400614C
:102B70008161816941EA022181617047C16921F067
:102B80000801C161C1691143C161704700290ED0BC
:102B9000012914D002291BD0032907D1016A21F48D
:102BA00080510162016A41EA023101627047016AA3
:102BB00021F001010162016A114301627047016A5B
:102BC00021F010010162016A41EA021101627047BD
:102BD000016A21F480710162016A41EA0221016205
:102BE00070470021018041808180C1800181418145
:102BF0007047000010B55E4A811A141590427DD0CE
:102C000029DC5C4AA0EB0201904266D011DCB0F1F5
:102C1000804F50D05849401855D0A0426FD140F253
:102C200002442046FFF722FC2046BDE81040FFF793
:102C30000FBCA1425BD0B1F5006F65D0B1F5406F1C
:102C40005DD140F206442046FFF710FC2046BDE867
:102C50001040FFF7FDBBB1F5983F5FD011DCA142FA
:102C60007AD0B1F5883F1CD0B1F58C3F7ED140F2CF
:102C70000D342046FFF7FAFB2046BDE81040FFF771
:102C8000E7BBB1F59A3F53D0B1F59C3F6ED140F20E
:102C900015342046FFF7EAFB2046BDE81040FFF759
:102CA000D7BB40F20B342046FFF7E0FB2046BDE8DF
:102CB0001040FFF7CDBB2046FFF7D8FB2046BDE80C
:102CC0001040FFF7C5BB40F201442046FFF7CEFBA2
:102CD0002046BDE81040FFF7BBBB40F2034420464E
:102CE000FFF7C4FB2046BDE81040FFF7B1BB40F240
:102CF00004442046FFF7BAFB204601E022E035E01D
:102D0000BDE81040FFF7A4BB40F205442046FFF7A2
:102D1000ADFB2046BDE81040FFF79ABB40F21334EC
:102D20002046FFF7A3FB2046BDE81040FFF790BB0D
:102D30004FF445742046FFF799FB2046BDE810404C
:102D4000FFF786BB40F207442046FFF78FFB204683
:102D5000BDE81040FFF77CBB4FF481642046FFF7CD
:102D600085FB2046BDE81040FFF772BB10BD000098
:102D7000001C0040000C004000FCFFBF016841F057
:102D8000010101607047C943016170470069084251
:102D900001D00120704700207047000030B50A883C
:102DA00082621F4A1F4B90420DD0B0F1804F0AD073
:102DB0001D4CA04207D01D4CA04204D01C4CA04288
:102DC00001D098420FD1046824F0700404600468B4
:102DD0008D7805F060052C43046004680D7905F0DA
:102DE00010052C4304608C68C462124CA0420CD0C5
:102DF000114CA04209D0046824F4407404600468B3
:102E00008D8905F440752C430460904201D09842AE
:102E100001D1897B0163416941F00101416130BD0C
:102E2000002C014000340140000400400008004034
:102E3000000C00400010004000140040C2680A432B
:102E4000C2607047C94301617047C2680A400069A7
:102E5000084202D00AB101207047002070470129C2
:102E600004D0416C21F4004141647047416C41F44D
:102E70000041416470470163704700210180418037
:102E800081804FF6FF7282608181817370470000FC
:102E900070B5164D164C2946204600F03EF8012824
:102EA00023D12946204600F02FF8204600F028F8CC
:102EB000104C04212046FFF775F804212046FFF747
:102EC00042F90D49C0F1200008800C4A0421204637
:102ED000FFF7FEF8202204212046FFF723F92046C1
:102EE000BDE870400421FFF76FB870BD0403040013
:102EF00000380140000002400A0000203C00002091
:102F00004068C0F308007047C1F3044301229A40AF
:102F100000EB9150D2430260704730B5C1F3891283
:102F2000825801F01F04012505FA04F31A4000EB52
:102F300091500068C1F3044105FA01F318400028DC
:102F400002D00AB1012030BD002030BD00000000D9
:102F5000920E493CB10AC93C2BC3163D2EFB483D9D
:102F6000752B7B3D04A9963D80B6AF3D36BDC83D6F
:102F70002FBCE13D73B2FA3D87CF093E8340163E38
:102F8000B5AB223EA2102F3ECF6E3B3EC2C5473EA0
:102F90000115543E135C603E7F9A6C3ECCCF783E68
:102FA000C07D823E938E883E229A8E3E32A0943E11
:102FB00086A09A3EE59AA03E128FA63ED47CAC3EF7
:102FC000EF63B23E2A44B83E491DBE3E15EFC33EF4
:102FD00053B9C93ECA7BCF3E4136D53E80E8DA3E82
:102FE0004F92E03E7533E63EBBCBEB3EEA5AF13EF4
:102FF000CBE0F63E275DFC3EE4E7003F3D9C033F0F
:10300000824B063F9BF5083F6B9A0B3FDA390E3F28
:10301000CDD3103F2A68133FD9F6153FC07F183F24
:10302000C6021B3FD17F1D3FCBF61F3F9967223F52
:1030300025D2243F5636273F1594293F4AEB2B3F94
:10304000DE3B2E3FBB85303FC9C8323FF304353FDE
:10305000233A373F4268393F3B8F3B3FF9AE3D3F14
:1030600067C73F3F70D8413F01E2433F03E4453F1C
:1030700065DE473F12D1493FF8BB4B3F029F4D3FB2
:10308000207A4F3F3D4D513F4918533F31DB543F6C
:10309000E595563F5348583F6AF2593F1A945B3FB3
:1030A000532D5D3F05BE5E3F2146603F97C5613FA2
:1030B0005A3C633F59AA643F880F663FD86B673F0D
:1030C0003CBF683FA7096A3F0C4B6B3F5E836C3F78
:1030D00093B26D3F9ED86E3F73F56F3F0809713F05
:1030E0005213723F4714733FDD0B743F0BFA743F6A
:1030F000C6DE753F07BA763FC58B773FF853783FFA
:103100009812793F9DC7793F02737A3FBE147B3F87
:10311000CDAC7B3F283B7C3FC9BF7C3FAC3A7D3F79
:10312000CCAB7D3F23137E3FB0707E3F6DC47E3FAE
:10313000580E7F3F6D4E7F3FAB847F3F0FB17F3F87
:1031400097D37F3F43EC7F3F11FB7F3F0000803FE1
:1031500011FB7F3F43EC7F3F97D37F3F0FB17F3F12
:10316000AB847F3F6D4E7F3F580E7F3F6DC47E3FE7
:10317000B0707E3F23137E3FCCAB7D3FAC3A7D3FAA
:10318000C9BF7C3F283B7C3FCDAC7B3FBE147B3F1F
:1031900002737A3F9DC7793F9812793FF853783F81
:1031A000C58B773F07BA763FC6DE753F0BFA743F93
:1031B000DD0B743F4714733F5213723F0809713F90
:1031C00073F56F3F9ED86E3F93B26D3F5E836C3F49
:1031D0000C4B6B3FA7096A3F3CBF683FD86B673F0A
:1031E000880F663F59AA643F5A3C633F97C5613FC9
:1031F0002146603F05BE5E3F532D5D3F1A945B3F05
:103200006AF2593F5348583FE595563F31DB543FEA
:103210004918533F3D4D513F207A4F3F029F4D3F4C
:10322000F8BB4B3F12D1493F65DE473F03E4453FC2
:1032300001E2433F70D8413F67C73F3FF9AE3D3F92
:103240003B8F3B3F4268393F233A373FF304353FDA
:10325000C9C8323FBB85303FDE3B2E3F4AEB2B3F98
:103260001594293F5636273F25D2243F9967223FA0
:10327000CBF61F3FD17F1D3FC6021B3FC07F183FCB
:10328000D9F6153F2A68133FCDD3103FDA390E3FE8
:103290006B9A0B3F9BF5083F824B063F3D9C033FDB
:1032A000E4E7003F275DFC3ECBE0F63EEA5AF13E04
:1032B000BBCBEB3E7533E63E4F92E03E80E8DA3E14
:1032C0004136D53ECA7BCF3E53B9C93E15EFC33E0A
:1032D000491DBE3E2A44B83EEF63B23ED47CAC3EAC
:1032E000128FA63EE59AA03E86A09A3E32A0943E5A
:1032F000229A8E3E938E883EC07D823ECCCF783E11
:103300007F9A6C3E135C603E0115543EC2C5473E39
:10331000CF6E3B3EA2102F3EB5AB223E8340163E01
:1033200087CF093E73B2FA3D2FBCE13D36BDC83DA3
:1033300080B6AF3D04A9963D752B7B3D2EFB483DE5
:103340002BC3163DB10AC93C920E493C0000000057
:10335000920E49BCB10AC9BC2BC316BD2EFB48BD99
:10336000752B7BBD04A996BD80B6AFBD36BDC8BD6B
:103370002FBCE1BD73B2FABD87CF09BE834016BE34
:10338000B5AB22BEA2102FBECF6E3BBEC2C547BE9C
:10339000011554BE135C60BE7F9A6CBECCCF78BE64
:1033A000C07D82BE938E88BE229A8EBE32A094BE0D
:1033B00086A09ABEE59AA0BE128FA6BED47CACBEF3
:1033C000EF63B2BE2A44B8BE491DBEBE15EFC3BEF0
:1033D00053B9C9BECA7BCFBE4136D5BE80E8DABE7E
:1033E0004F92E0BE7533E6BEBBCBEBBEEA5AF1BEF0
:1033F000CBE0F6BE275DFCBEE4E700BF3D9C03BF0B
:10340000824B06BF9BF508BF6B9A0BBFDA390EBF24
:10341000CDD310BF2A6813BFD9F615BFC07F18BF20
:10342000C6021BBFD17F1DBFCBF61FBF996722BF4E
:1034300025D224BF563627BF159429BF4AEB2BBF90
:10344000DE3B2EBFBB8530BFC9C832BFF30435BFDA
:10345000233A37BF426839BF3B8F3BBFF9AE3DBF10
:1034600067C73FBF70D841BF01E243BF03E445BF18
:1034700065DE47BF12D149BFF8BB4BBF029F4DBFAE
:10348000207A4FBF3D4D51BF491853BF31DB54BF68
:10349000E59556BF534858BF6AF259BF1A945BBFAF
:1034A000532D5DBF05BE5EBF214660BF97C561BF9E
:1034B0005A3C63BF59AA64BF880F66BFD86B67BF09
:1034C0003CBF68BFA7096ABF0C4B6BBF5E836CBF74
:1034D00093B26DBF9ED86EBF73F56FBF080971BF01
:1034E000521372BF471473BFDD0B74BF0BFA74BF66
:1034F000C6DE75BF07BA76BFC58B77BFF85378BFF6
:10350000981279BF9DC779BF02737ABFBE147BBF83
:10351000CDAC7BBF283B7CBFC9BF7CBFAC3A7DBF75
:10352000CCAB7DBF23137EBFB0707EBF6DC47EBFAA
:10353000580E7FBF6D4E7FBFAB847FBF0FB17FBF83
:1035400097D37FBF43EC7FBF11FB7FBF000080BFDD
:1035500011FB7FBF43EC7FBF97D37FBF0FB17FBF0E
:10356000AB847FBF6D4E7FBF580E7FBF6DC47EBFE3
:10357000B0707EBF23137EBFCCAB7DBFAC3A7DBFA6
:10358000C9BF7CBF283B7CBFCDAC7BBFBE147BBF1B
:1035900002737ABF9DC779BF981279BFF85378BF7D
:1035A000C58B77BF07BA76BFC6DE75BF0BFA74BF8F
:1035B000DD0B74BF471473BF521372BF080971BF8C
:1035C00073F56FBF9ED86EBF93B26DBF5E836CBF45
:1035D0000C4B6BBFA7096ABF3CBF68BFD86B67BF06
:1035E000880F66BF59AA64BF5A3C63BF97C561BFC5
:1035F000214660BF05BE5EBF532D5DBF1A945BBF01
:103600006AF259BF534858BFE59556BF31DB54BFE6
:10361000491853BF3D4D51BF207A4FBF029F4DBF48
:10362000F8BB4BBF12D149BF65DE47BF03E445BFBE
:1036300001E243BF70D841BF67C73FBFF9AE3DBF8E
:103640003B8F3BBF426839BF233A37BFF30435BFD6
:10365000C9C832BFBB8530BFDE3B2EBF4AEB2BBF94
:10366000159429BF563627BF25D224BF996722BF9C
:10367000CBF61FBFD17F1DBFC6021BBFC07F18BFC7
:10368000D9F615BF2A6813BFCDD310BFDA390EBFE4
:103690006B9A0BBF9BF508BF824B06BF3D9C03BFD7
:1036A000E4E700BF275DFCBECBE0F6BEEA5AF1BE00
:1036B000BBCBEBBE7533E6BE4F92E0BE80E8DABE10
:1036C0004136D5BECA7BCFBE53B9C9BE15EFC3BE06
:1036D000491DBEBE2A44B8BEEF63B2BED47CACBEA8
:1036E000128FA6BEE59AA0BE86A09ABE32A094BE56
:1036F000229A8EBE938E88BEC07D82BECCCF78BE0D
:103700007F9A6CBE135C60BE011554BEC2C547BE35
:10371000CF6E3BBEA2102FBEB5AB22BE834016BEFD
:1037200087CF09BE73B2FABD2FBCE1BD36BDC8BD9F
:1037300080B6AFBD04A996BD752B7BBD2EFB48BDE1
:103740002BC316BDB10AC9BC920E49BC0000008053
:10375000005EBCE2613FDD83C29C7E20A3FD1F4171
:103760009DC3217FFCA2401E5F01E3BD3E6082DC61
:10377000237D9FC1421CFEA0E1BF5D0380DE3C6251
:10378000BEE0025CDF81633D7C22C09E1D43A1FF41
:103790004618FAA427799BC584DA3866E5BB590731
:1037A000DB856739BAE406581947A5FB7826C49A21
:1037B000653BD987045AB8E6A7F91B45C6987A2411
:1037C000F8A6441A99C7257B3A6486D85B05E7B901
:1037D0008CD2306EEDB3510F4E10F2AC2F7193CDF1
:1037E000114FADF3702ECC92D38D6F31B2EC0E50E1
:1037F000AFF1134DCE90722C6D33D18F0C52B0EED1
:10380000326C8ED0530DEFB1F0AE4C1291CF2D73C0
:10381000CA947628ABF517490856B4EA6937D58BB0
:103820005709EBB536688AD495CB2977F4AA4816A0
:10383000E9B7550B88D6346A2B7597C94A14F6A890
:10384000742AC896154BA9F7B6E80A54D7896B3580
:1038500000000000B71DC1046E3B8209D926430D4C
:10386000DC7604136B6BC517B24D861A0550471EE4
:10387000B8ED08260FF0C922D6D68A2F61CB4B2B84
:10388000649B0C35D386CD310AA08E3CBDBD4F382C
:1038900070DB114CC7C6D0481EE09345A9FD5241CC
:1038A000ACAD155F1BB0D45BC2969756758B565264
:1038B000C836196A7F2BD86EA60D9B6311105A6704
:1038C00014401D79A35DDC7D7A7B9F70CD665E74AC
:1038D000E0B6239857ABE29C8E8DA191399060950C
:1038E0003CC0278B8BDDE68F52FBA582E5E6648624
:1038F000585B2BBEEF46EABA3660A9B7817D68B344
:10390000842D2FAD3330EEA9EA16ADA45D0B6CA06B
:10391000906D32D42770F3D0FE56B0DD494B71D98B
:103920004C1B36C7FB06F7C32220B4CE953D75CAA3
:1039300028803AF29F9DFBF646BBB8FBF1A679FFC3
:10394000F4F63EE143EBFFE59ACDBCE82DD07DECEB
:1039500077708634C06D4730194B043DAE56C5397B
:10396000AB0682271C1B4323C53D002E7220C12AB3
:10397000CF9D8E1278804F16A1A60C1B16BBCD1FB3
:1039800013EB8A01A4F64B057DD00808CACDC90CFB
:1039900007AB9778B0B6567C69901571DE8DD475FB
:1039A000DBDD936B6CC0526FB5E6116202FBD06633
:1039B000BF469F5E085B5E5AD17D1D576660DC5333
:1039C00063309B4DD42D5A490D0B1944BA16D8407B
:1039D00097C6A5AC20DB64A8F9FD27A54EE0E6A1BB
:1039E0004BB0A1BFFCAD60BB258B23B69296E2B273
:1039F0002F2BAD8A98366C8E41102F83F60DEE87F3
:103A0000F35DA9994440689D9D662B902A7BEA94BA
:103A1000E71DB4E0500075E4892636E93E3BF7ED3A
:103A20003B6BB0F38C7671F7555032FAE24DF3FEF2
:103A30005FF0BCC6E8ED7DC231CB3ECF86D6FFCB72
:103A40008386B8D5349B79D1EDBD3ADC5AA0FBD83A
:103A5000EEE00C6959FDCD6D80DB8E6037C64F649A
:103A60003296087A858BC97E5CAD8A73EBB04B7752
:103A7000560D044FE110C54B383686468F2B474212
:103A80008A7B005C3D66C158E4408255535D4351DA
:103A90009E3B1D252926DC21F0009F2C471D5E281A
:103AA000424D1936F550D8322C769B3F9B6B5A3BD2
:103AB00026D6150391CBD40748ED970AFFF0560E92
:103AC000FAA011104DBDD014949B93192386521D5A
:103AD0000E562FF1B94BEEF5606DADF8D7706CFC5A
:103AE000D2202BE2653DEAE6BC1BA9EB0B0668EF92
:103AF000B6BB27D701A6E6D3D880A5DE6F9D64DAD2
:103B00006ACD23C4DDD0E2C004F6A1CDB3EB60C919
:103B10007E8D3EBDC990FFB910B6BCB4A7AB7DB0D9
:103B2000A2FB3AAE15E6FBAACCC0B8A77BDD79A311
:103B3000C660369B717DF79FA85BB4921F46759651
:103B40001A163288AD0BF38C742DB081C330718599
:103B500099908A5D2E8D4B59F7AB085440B6C950E9
:103B600045E68E4EF2FB4F4A2BDD0C479CC0CD4301
:103B7000217D827B9660437F4F460072F85BC17661
:103B8000FD0B86684A16476C93300461242DC56589
:103B9000E94B9B115E565A1587701918306DD81C69
:103BA000353D9F0282205E065B061D0BEC1BDC0F81
:103BB00051A69337E6BB52333F9D113E8880D03AE1
:103BC0008DD097243ACD5620E3EB152D54F6D42909
:103BD0007926A9C5CE3B68C1171D2BCCA000EAC829
:103BE000A550ADD6124D6CD2CB6B2FDF7C76EEDBC1
:103BF000C1CBA1E376D660E7AFF023EA18EDE2EEA1
:103C00001DBDA5F0AAA064F4738627F9C49BE6FD48
:103C100009FDB889BEE0798D67C63A80D0DBFB84A8
:103C2000D58BBC9A62967D9EBBB03E930CADFF9740
:103C3000B110B0AF060D71ABDF2B32A66836F3A220
:103C40006D66B4BCDA7B75B8035D36B5B440F7B1C8
:103C5000000000000030F13D0070643E0000A33E13
:103C60000090CF3E0090F83E00400F3F00E0203F24
:103C70000000000015B78337CDE37B380EE1C5386F
:103C800060F69138AF5F0F38E1BC3E3823F4473916
:103C9000B03C0008000000203C000000681700084D
:103CA000EC3C00083C000020E40800007817000805
:103CB0000000000000000000000000000000000004
:103CC00000000000000000000100000000000000F3
:103CD00000000000000000000000000000000000E4
:0C3CE000000000000000000000000000D8
:04000005080001519D
:00000001FF
