:020000040800F2
:100000008006002039020008311A0008210C00087F
:100010002D1A0008310400088D1C000800000000A3
:10002000000000000000000000000000391B000874
:100030004504000800000000651A00086D1B000858
:10004000530200085302000853020008530200083C
:10005000530200085302000853020008530200082C
:10006000530200085302000853020008530200081C
:10007000530200085302000853020008530200080C
:100080005302000853020008530200080000000059
:100090000000000000000000000000005302000803
:1000A00053020008611C00085302000853020008B4
:1000B00053020008530200085302000853020008CC
:1000C00053020008530200085302000853020008BC
:1000D00053020008691C00085302000800000000D9
:1000E00053020008530200085302000800000000F9
:1000F00000000000000000000000000053020008A3
:1001000000000000530200085302000853020008D8
:1001100000000000000000000000000000000000DF
:10012000350400085302000839040008530200088F
:100130005302000800000000000000000000000062
:100140000000000000000000000000005302000852
:100150003D0400085302000841040008530200084F
:1001600053020008530200080000000000000000D5
:10017000000000000000000000000000000000007F
:100180000000000053020008000000000000000012
:10019000530200085302000800F002F800F03CF897
:1001A0000AA090E8000C82448344AAF10107DA45D2
:1001B00001D100F031F8AFF2090EBAE80F0013F0E8
:1001C000010F18BFFB1A43F001031847181C000069
:1001D000381C0000103A24BF78C878C1FAD85207FA
:1001E00024BF30C830C144BF04680C6070470000B1
:1001F0000023002400250026103A28BF78C1FBD830
:10020000520728BF30C148BF0B6070471FB501F0CF
:10021000CCFD1FBD10B510BD00F0D0F81146FFF7A2
:10022000F5FF01F0ABFD00F0EEF803B4FFF7F2FFCD
:1002300003BC00F0F5F80000094880470948004772
:10024000FEE7FEE7FEE7FEE7FEE7FEE7FEE7FEE786
:10025000FEE7FEE704480549054A064B70470000E3
:10026000151C00089901000880000020800600206D
:10027000800200208002002053EA020C00F0698016
:100280002DE9F04B4FF00006002B1FBFB3FA83F5AA
:1002900003FA05F424FA05F65E4012BF1643B2FADB
:1002A00082F502FA05F4C5F120051EBF22FA05FC0D
:1002B00044EA0C04203556EA044C4FEA144418BFB3
:1002C000641C4FF000084FF00009904271EB030CE2
:1002D00039D3002919BFB1FA81F701FA07F6B0FA4C
:1002E00080F700FA07F6C7F120071EBF20FA07FCC7
:1002F00046EA0C062037B6FBF4FCA7EB0507103FD7
:1003000007F01F0BCBF120062CFA06F60CFA0BFBBC
:1003100044BFB3460026202FA4BF5E464FF0000B1B
:100320005BEA060C08BF4FF0010B19EB0B0948EB19
:100330000608ABFB027C06FB02CC0BFB03CCC01B0C
:1003400071EB0C01C1E70B46024641464846BDE849
:10035000F08B13B5084318BF4FF0FF300146AFF3E1
:100360000080BDE81C4070474FF0000200B5134606
:1003700094469646203922BFA0E80C50A0E80C50C5
:10038000B1F12001BFF4F7AF090728BFA0E80C5076
:1003900048BF0CC05DF804EB890028BF40F8042B6F
:1003A00008BF704748BF20F8022B11F0804F18BFDC
:1003B00000F8012B7047704770477047754600F092
:1003C0002BF8AE4605006946534620F007008546E7
:1003D00018B020B5FFF73EFFBDE820404FF0000603
:1003E0004FF000074FF000084FF0000BAC46ACE8B0
:1003F000C009ACE8C009ACE8C009ACE8C00921F00C
:1004000007018D46704710B50446AFF300802046C3
:10041000BDE81040FFF709BF0048704710000020FA
:1004200001491820ABBEFEE726000200704700001D
:10043000FEE70000704700007047000070470000B2
:100440007047000070470000EFF3108072B600BFE5
:10045000FEE700002DE9F04F83B000F13E4202F1CB
:10046000FF724FEAB22241F200070192C4F2020782
:1004700007224FF0010E00254FF0000A4FF0000850
:10048000B84208BF042200920AE000BF08F1010848
:100490000AF1040AB8F1100F05F1020500F0A4807A
:1004A0000C680EFA08FB14EA0B09EFD04C6804F054
:1004B000030CACF1010EBEF1010F11D803228768C5
:1004C00002FA05F6CA68B743AA403A438260426816
:1004D000C4F3001722EA0B0207FA08F73A43426016
:1004E000BCF1030F1CD0C26803238E6803FA05F722
:1004F000BA4306FA05F73A43BCF1020FC2600FD1C6
:100500006FF0030202EA580202440AF01C060F23AD
:10051000176A03FA06F40B69A743B3403B4313621F
:10052000026803234F68AB409A4307F00303AB40D4
:100530001A4317F4403F4FF0010E0260A6D000228C
:1005400043F644030292C4F202031A6843F60044DD
:1005500042F480421A601A68C4F2010402F4804234
:100560000292029A28F003024FF6084B2244CFF67B
:10057000FF7B52F80B300AF00C070F26BE4023EA2F
:10058000060C019B009E042B38BF1E4606FA07F797
:1005900047EA0C0342F80B30A2684B6842EA0907AD
:1005A00043F60C4CDE0258BF22EA0907A760C4F2EA
:1005B000010CDCF800209E0242EA090758BF22EA3B
:1005C0000907CCF8007062689E0342EA090758BF29
:1005D00022EA090767602268DB0342EA090358BF81
:1005E00022EA0903236051E703B0BDE8F08F000061
:1005F000002A08BF090481617047000040F27C00B6
:10060000C2F200000068704740F2040040F27C0132
:10061000C2F20000C2F2000100780A6810440860CB
:100620007047000080B543F60040C4F20200016844
:1006300041F400710160016841F48061016001686A
:1006400041F480710160032000F05CF80F2000F09D
:1006500005F800F02BF8002080BD0000B0B540F296
:100660000402C2F2000240F200011278C2F200015C
:100670004FF47A730968B3FBF2F20446B1FBF2F16E
:10068000084600F0C9FA0F2C4FF001050CD858B9F4
:100690004FF0FF3021460022002500F023F840F201
:1006A0000800C2F2000004602846B0BD82B00020FD
:1006B00043F640010190C4F202014A6842F48042CC
:1006C0004A604A6802F480420192019A00900868E8
:1006D00040F080500860086800F08050009000985A
:1006E00002B0704770B514460D46064601F0E8FAB0
:1006F0002946224601F0A0F90146304601F0F0FA01
:1007000070BD000080B501F0FDFA80BD2DE9F0411B
:10071000002800F08B8043F60808C4F20208044663
:10072000D8F8F8030D4600F00700884207D288F891
:10073000F853D8F8F80300F00700A84276D12068F3
:10074000810717D5410705D5D8F8001041F4E051CD
:10075000C8F80010010705D5D8F8001041F4604131
:10076000C8F80010D8F80010A26821F0F001114379
:10077000C8F80010C0073FD1D8F8F80300F0070010
:10078000A84207D988F8F853D8F8F80300F0070012
:10079000A8424BD12068410707D5D8F80010E2687D
:1007A00021F4E0511143C8F80010000708D5D8F82B
:1007B0000000216920F4604040EAC100C8F8000050
:1007C00000F054F8D8F8001041F6C452C1F30311F8
:1007D000C0F60002515C40F2000220FA01F140F242
:1007E0000800C2F200000068C2F200021160FFF7C8
:1007F00035FF0020BDE8F0816068811E022907D224
:1008000058F8081C89015CBF0120BDE8F08110E0A8
:10081000012807D158F8081C89035CBF0120BDE8F6
:10082000F08106E058F8081C890702D40120BDE8D1
:10083000F081D8F8001021F003010843C8F8000047
:10084000FFF7DCFE064641F2883700BFD8F800000B
:10085000616800F00C00B0EB810F8DD0FFF7CEFE89
:10086000801BB842F2D90320BDE8F08110B543F6F1
:100870000404C4F20204606800F00C0008280AD0E6
:10088000042819BF42F20040C0F2F40047F64000CD
:10089000C0F27D1010BD206821682368490247F628
:1008A0004001C0F27D1100F03F02C3F388105CBF2D
:1008B00042F20041C0F2F401A1FB00010023FFF766
:1008C000DBFC21680222C1F3014102EB4101B0FBD4
:1008D000F1F010BD2DE9F04182B0002800F0A180B8
:1008E0000446007843F60006C007C4F2020643D06F
:1008F000B06800F00C00042805D1306880033BD5B7
:100900006068C8BB8DE0B06800F00C00082802D118
:1009100070684002F1D46568B5F5A02F0AD0B5F52E
:10092000803F0BD0306820F480303060306820F495
:10093000802006E0306840F480203060306840F469
:1009400080303060FFF75AFE002D054611D000BF01
:100950003068800310D4FFF751FE401B6428F7D99C
:1009600020E100BFFFF74AFE401B64284FF0030060
:1009700054D830688003F5D4207880071AD5B06841
:1009800010F00C0F09D0B06800F00C00082840F0FF
:1009900088807068400200F184803068800702D54A
:1009A000E06801283DD13068216920F0F80040EA74
:1009B000C10030602078000737D4207840074AD43F
:1009C000A56955B3B06800F00C00082840F09C8081
:1009D000012D26D07068E16900F480028A4220D19E
:1009E000216A00F03F028A421BD147F6C071626A59
:1009F0000140B1EB821F14D1A16A4FF6FF73C90306
:100A0000994300F44032A1F580318A4209D1E16A6C
:100A100000F07060B0EB016F03D1002002B0BDE8C0
:100A2000F081012002B0BDE8F0816069002840F249
:100A30000000C4F2472056D00121C0F8801EFFF705
:100A4000DDFD0546706F8007B7D4FFF7D7FD401B6B
:100A50000228F7D9A6E0306C10F080580AD10020A7
:100A60000190306C40F080503064306C00F0805069
:100A70000190019847F20007C4F200073868C005EA
:100A800024D4386840F480703860FFF7B7FD05461D
:100A90003868C0051AD4FFF7B1FD401B0228F7D90A
:100AA00080E0E068002851D00020C4F247200121F6
:100AB0000160FFF7A3FD0546306880073FF573AF7F
:100AC000FFF79CFD401B0228F6D96BE0A568052DB9
:100AD00050D0012D52D0306F20F001003067306FC0
:100AE00020F004004DE00021C0F8801EFFF786FDD5
:100AF000054600BF706F80077FF55FAFFFF77EFD93
:100B0000401B0228F6D94DE00027C4F247270020F9
:100B10003866FFF773FD022D05460BD13068800162
:100B200058D5FFF76BFD401B02284FF00300F5D9A5
:100B300074E700BF306880017FF56FAFFFF75EFD9F
:100B4000401B02284FF00300F4D967E70020C4F2ED
:100B5000472000210160FFF751FD054630688007FE
:100B60007FF528AFFFF74AFD401B02284FF0030036
:100B7000F4D953E7306F40F004003067306F40F035
:100B800001003067FFF73AFD002D054641F2883736
:100B900014D000BF306F800713D4FFF72FFD401B28
:100BA000B842F7D9032002B0BDE8F081FFF726FD77
:100BB000401BB8424FF003003FF630AF306F800764
:100BC000F4D4B8F1000F7FF4FBAE306C20F080500D
:100BD0003064F5E604F11C052FCD084340EA82108D
:100BE000D9034FF6FF729143A1F5803140EA0560C9
:100BF0000843706001203866FFF700FD044600BF1F
:100C0000306880013FF509AFFFF7F8FC001B0228B0
:100C10004FF00300F4D901E780B500F08FFF80BDED
:100C2000FEE70000B0B5044642F20000C4F2010045
:100C30000D4600F031F800281CBF0120B0BD296826
:100C4000204600F0A1F80020B0BD000042F20800EC
:100C5000C4F20100016841F0010101607047000029
:100C6000B0B50D46044600F017F800281CBF01205F
:100C7000B0BD60684FF6FF61CFF6FF41084095E8D0
:100C80000E00084318436060A06820F40060104321
:100C9000A0600020B0BD0000806800F00100704737
:100CA000B0B50D460446FFF7F7FF00281CBF012032
:100CB000B0BD69686068002920F468401CBFAA685C
:100CC00010436060A0684FF6FD42CCF2FF02104076
:100CD0002A68D5E9033502F07062184310432843AF
:100CE000A060204600F016F80020B0BD42F20800D7
:100CF000C4F20100016841F44071016070470000D6
:100D000042F20800C4F20100016841F48061016010
:100D100070470000C26A22F470021143C16270473A
:100D200080B542F22C0CC0F30122C4F2010C5CF835
:100D300022E000F01F001F23834001F01F012EEA74
:100D4000030301FA00F018434CF8220080BD0000B4
:100D500042F20800C4F20100016841F080410160E4
:100D60007047000042F20C0CC0F34061C4F2010C69
:100D70005CF82130C0F30450072202FA00F023EAA5
:100D800000004CF821007047426822F440321143C1
:100D90004160704781B043F63001C4F202010A6835
:100DA00002430A60096808400090009801B070474B
:100DB00081B043F64000C4F20200016841F4804172
:100DC0000160006800F480400090009801B0704716
:100DD00081B043F64401C4F202010A6802430A608A
:100DE000096808400090009801B0704741F6DC5156
:100DF000C0F60001085C46F21441C4F202014258F8
:100E000022F004024250704746F21040C4F2020041
:100E1000016821F0010101607047000046F21040B6
:100E2000C4F20200016841F0010101607047000056
:100E300041F6DC52C0F60002105C46F20042C4F2F9
:100E40000202835823F06063194381507047000009
:100E500046F21441C4F202010A684FF6FF739A4346
:100E6000104308607047000041F6DC52C0F60002F3
:100E7000105C46F20042C4F20202835823F0C00321
:100E8000194381507047000046F21C41C4F2020130
:100E90000860704741F6DC51C0F60001085C46F27C
:100EA0000041C4F20201425842F48062425070474D
:100EB00041F6DC52C0F60002105C46F20042C4F279
:100EC0000202835823F4C043194381507047000045
:100ED00041F6DC52C0F60002105C46F20042C4F259
:100EE0000202835823F49073194381507047000025
:100EF00046F2184042F24C01C4F20200C4F2010171
:100F00000160704741F6DC51C0F60001085C46F212
:100F10000041C4F20201425822F40072425070476C
:100F200041F6DC52C0F60002105C46F20042C4F208
:100F30000202835823F4C0531943815070470000C4
:100F400041F6DC52C0F60002105C46F20042C4F2E8
:100F50000202835823F44033194381507047000044
:100F60002DE9F0410C46096891FAA1F2B2FA82F734
:100F700031FA07F235D005464FF001080EE06269FC
:100F80002846314600F040F862682846314600F0B5
:100F90004DF82168013731FA07F022D008FA07F03E
:100FA00011EA0006F5D060680138012809D8A26866
:100FB0002846314600F060F8E2682846314600F0E5
:100FC00045F822692846314600F046F86068022854
:100FD000DAD13006D3D062692846314600F004F8F1
:100FE000D2E70020BDE8F08191FAA1F1B1FA81F1D8
:100FF000D0F820C089000F238B402CEA030302FAAB
:1010000001F1194301627047090A91FAA1F1B1FA9D
:1010100081F1D0F824C089000F238B402CEA030310
:1010200002FA01F1194341627047000091FAA1F1FF
:10103000B1FA81F1D0F800C0490003238B402CEABB
:10104000030302FA01F119430160704743688B43BF
:10105000514319434160704791FAA1F1B1FA81F10E
:10106000D0F80CC0490003238B402CEA030302FA9A
:1010700001F11943C160704791FAA1F1B1FA81F110
:10108000D0F808C0490003238B402CEA030302FA7E
:1010900001F119438160704743F60800C4F2020071
:1010A000006800F0F000704743F60800C4F2020048
:1010B000006800F4E050704743F60800C4F20200F4
:1010C000006800F46040704743F60800C4F2020074
:1010D000006800F00C00704710B5044600F0EEFC0C
:1010E000206000F0C1FC606000F0CCFC6168A06092
:1010F000084600F0D5FCE06010BD000043F6040097
:10110000C4F20200006800F03F00704743F604009C
:10111000C4F20200006800F48000704743F6040047
:10112000C4F202000068C0F38810704743F6040060
:10113000C4F20200006800F4403070472DE9F0432B
:1011400081B00D46044600F035F808B1012029E0D1
:1011500020684FF6BF7120EA010C95E80E4205F1B8
:10116000140841EA0C011143194398E8C00141EA0F
:10117000090141EA0E013143286A394341EA080175
:10118000014321606168B0F5005F21F0040141EA8C
:101190001641616005D1696A204600F00FF8002011
:1011A00000E00020E16921F40061E16101B0BDE8E7
:1011B000F08300000068C0F38010704789B20161BD
:1011C00070470000416821F0100141607047000045
:1011D00044F21040C4F201006FF001010160704759
:1011E00044F20040C4F20100016821F08001016076
:1011F0007047000044F20040C4F20100016841F071
:10120000010101607047000044F20C40C4F201008B
:10121000016841F00101016070470000416941F03F
:10122000010141617047000070B50D4640F2FF7149
:1012300004460068C4F2000100268C42C4F2010694
:101240000ADD40F60002C4F2000294420DD0B4421E
:101250000BD040F6004204E0B4F1804F05D040F2DC
:101260000042C4F20002944203D16A6820F0700088
:1012700010434FF6FF72C4F20002944209DC8C4224
:1012800012DCB4F1804F26D040F20041C4F20001DC
:101290001FE044F2FF31C4F201018C420FDCB44282
:1012A00019D044F2000112E040F60001C4F200013E
:1012B0008C4210D040F60041C4F2000109E044F62F
:1012C0000001C4F201018C4205D044F20041C4F295
:1012D00001018C4203D1E96820F44070084320608A
:1012E000A968204600F016F82988204600F014F876
:1012F000B44202D1286900F011F82046FFF78EFFB2
:10130000002070BD44F21040C4F20100006800F0FB
:1013100001007047C1627047816270473021C4F29A
:10132000010108607047000041F21000C4F20100A2
:10133000016821F490410160416821F02A01416077
:101340007047000041F20C00C4F20100016841F452
:10135000005101607047000070B584B00D4604462E
:1013600000F044F810B1012004B070BDE06849F20B
:101370000C6120EA010CD5E901E1D5E903364CEA1C
:101380000E00AA69184330431043E060204600F085
:101390007DF86969204600F073F86846FFF79CFE07
:1013A00044F20040C4F2000084420ED041F20040FA
:1013B000C4F20100844205D041F20000C4F20100F1
:1013C000844205D1039931B9CDE7029919B9CAE729
:1013D00000210029C7D02B68002BC4D0AA69204661
:1013E00000F008F8002004B070BD0000C068C0F331
:1013F0004030704710B504461920B2F5004FA1FBEC
:1014000000011CD15A00DB0FFEF736FF48F21F51D6
:10141000C5F2EB11A0FB01235A096FF0630302FB35
:101420000300322303EBC000A0FB01014FF4F8706E
:1014300000EA111000EB0210C1F342111AE09A0009
:101440009B0FFEF719FF48F21F51C5F2EB11A0FBED
:1014500001235A096FF0630302FB0300322303EBFD
:101460000010A0FB0101F02000EA511000EB021077
:10147000C1F343114FF6F07210400844A06010BD54
:10148000426922F44072114341617047026922F4BB
:101490004052114301617047F0B58FB000254FF401
:1014A00080700E95CDE90C55CDE90A55CDE908556A
:1014B000CDE90655CDE90455CDE90255CDE90055F4
:1014C0004FF48076FFF784FC0120FFF763FC0620D1
:1014D00042F2000400900320C4F20104019004F5DC
:1014E000604069460495FFF73BFD00200021FFF7AF
:1014F0009FFC00200021FFF7B7FC00204FF4803153
:101500004FF48037FFF71CFD00204FF48071FFF788
:10151000DFFC0020FFF7F6FC0020FFF7BBFC0020FB
:101520004FF40061FFF7FCFC00204FF40051FFF77F
:10153000BFFC0020FFF75AFC0CA92046CDE90C5552
:101540000E96FFF78DFB4FF480100795CDE9080547
:1015500002200A904FF440700B9007A92046FFF735
:101560009FFBFFF7CDFB04F5407006A90697FFF738
:1015700059FB0124C0F230244FF400702146FFF7DC
:10158000CFFB2046FFF7EEFB0224C0F2602440F2BE
:1015900005202146FFF7C4FB2046FFF7E3FB0FB011
:1015A000F0BD000080B54FF48000FFF7F3FB00F0C2
:1015B0007FFB00F03FFA0146382000F089FB38201D
:1015C00000F066FB00F074FB00F034FA01463A20AC
:1015D00000F07EFB3A2000F05BFB00F069FB00F0BE
:1015E00029FA0146442000F073FB442000F050FB30
:1015F00000F05EFB00F01EFA0146462000F068FB9A
:10160000462000F045FB80BD2DE9F04387B0002463
:1016100043F630000694CDE90444CDE90244019438
:10162000C4F20200016840F2000841F004010160C8
:101630000168C4F2020801F00401019101990194CA
:10164000016808F5006741F080010160016801222E
:1016500001F0800101910199019401684FF4005655
:1016600041F00101016001684FF0010901F0010141
:10167000019101990194016841F002010160006843
:101680004FF4005100F00200019001983846FEF737
:10169000AFFF40464FF404710122FEF7A9FF08F5A1
:1016A0008065284640F207410122FEF7A1FF40462F
:1016B0004FF480710022FEF79BFFCDE9026902AE74
:1016C00038463146CDE90444FEF7C4FE4FF44040AD
:1016D000CDE90204384631460494FEF7BBFE4FF4D0
:1016E0004470CDE90209022740463146CDF81090FA
:1016F0000597FEF7AFFE0320CDE90209CDE904907E
:1017000028463146FEF7A6FE40F20440CDE9020924
:1017100028463146CDE90497FEF79CFE4FF48060E1
:1017200002A981E8110240463146FEF793FE4FF4CC
:101730006070CDE90204284631460494FEF78AFE23
:1017400007B0BDE8F08300002DE9F04190B006AC91
:1017500020462821FEF708FE00264FF48050CDE9F0
:101760000466CDE90266CDE90066FFF731FB012092
:101770004FF00108FFF70EFBE02000900227032046
:1017800043F200050197CDE902060520C4F20105E8
:10179000059005F5504069460496FFF7E1FB0520EA
:1017A0004FF0C061FFF744FB05204021FFF75CFBD1
:1017B00005204FF48031FFF7C3FB05200021FFF720
:1017C00087FB0520FFF79EFB0520FFF763FB052045
:1017D0000021FFF7A5FB05200021FFF769FB05208D
:1017E000FFF704FB4FF4827007A9069681E8C10158
:1017F0004FF40070CDE90B060A20CDE90D660F907D
:1018000028462146FFF79AFC2846FFF7DBFC10B07C
:10181000BDE8F08170B590B006AC20462821FEF7F7
:10182000A3FD0026CDE90466CDE90266CDE9006698
:10183000FFF7BEFA02200225FFF7ACFA4FF4604032
:10184000CDE90005032043F60005CDE90206052099
:10185000C4F20005059005F5E63069460496FFF7E9
:101860007FFB4FF482700696CDE907064FF40070B7
:10187000CDE909660B902020CDE90C060A200F90D7
:10188000284621460E96FFF759FC2846FFF79AFC9A
:1018900010B070BD10B586B000244FF40030059430
:1018A000CDE90344CDE90144FFF792FA00F000FAD4
:1018B00000F0C0F80146192000F00AFA192000F0E3
:1018C000E7F93B20ADF804004FF6FF700294CDE934
:1018D000030444F20040C4F2010001A9FFF7A4FC94
:1018E000FFF77EFC06B010BD2DE9F0438DB0002659
:1018F00010200C96CDE90A66CDE90866CDE90666AA
:10190000CDE90466CDE90266CDE90066FFF760FA2D
:101910000120FFF73FFA02204FF00209FFF73AFAE1
:1019200041F200084FF40040C4F201086D46CDE9D1
:1019300000090324072708F570402946CDE902462F
:1019400004960597FFF70CFB0820CDE9000908F580
:1019500074402946CDE90246CDE90467FFF700FB54
:1019600002204FF00061FFF763FA02200021FFF729
:101970007BFA02204FF40031FFF7E2FA0220002147
:10198000FFF7A6FA0220FFF7BDFA0220FFF782FA5E
:1019900002200021FFF7C4FA02200021FFF788FA95
:1019A0000220FFF723FA07204FF00061FFF740FA0B
:1019B00007204021FFF758FA07204FF48031FFF746
:1019C000BFFA07200021FFF783FA0720FFF79AFAF2
:1019D0000720FFF75FFA07200021FFF7A1FA072091
:1019E0000021FFF765FA0720FFF700FA00F060F921
:1019F00000F020F80146252000F06AF9252000F0CB
:101A000047F94FF4E130CDE906060C20CDE9086630
:101A1000CDE90A0606A940460C96FFF79DFCFFF7A4
:101A200083FCFFF78FFC0DB0BDE8F083FEE70000FC
:101A3000FEE700000020704700F0070080F0070379
:101A4000042B28BF04234FF0FF3C03380CFA03F3A8
:101A500038BF0020994381400CFA00F022EA0000D0
:101A6000084370477047000010B50446FFF714FBA9
:101A700041F6C451C0F30310C0F60001085C24FA1B
:101A800000F010BD10B50446FFF70EFB41F6D4512F
:101A9000800AC0F60001085C24FA00F010BD0000C6
:101AA00010B50446FFF708FB41F6D451400BC0F6D1
:101AB0000001085C24FA00F010BD000080B5FFF7BB
:101AC00003FB08280AD0042819BF42F20040C0F2E4
:101AD000F40047F64000C0F27D1080BD082000F001
:101AE00001F880BD10B50446FFF710FB082C1CBFA1
:101AF000002010BD42F20044C0F2F404B0F5800FA3
:101B000004BF47F64004C0F27D14002804BF42F22F
:101B10000044C0F2F404FFF7F1FAB4FBF0F4FFF76D
:101B2000FDFA4443FFF702FB000C022101EB4000E9
:101B3000B4FBF0F010BD000070470000B0B50138F4
:101B40000024B4EB106F1CBF0120B0BD4EF2100595
:101B5000CEF2000568604FF0FF300F2100F0C0F8B2
:101B60000720AC6028602046B0BD000080B5FEF7BD
:101B70004BFD80BD70B592B006AC20463021FEF71B
:101B8000F3FB002543F640000595CDE90355CDE96B
:101B900001550095C4F202000168022641F080510F
:101BA0000160006800F080500090009847F200004B
:101BB0000095C4F20000016841F4404101600068F2
:101BC00000F4404000900098012006904FF48030CF
:101BD00007904FF480000D900C200E9060200C9622
:101BE000CDE90F06052011902046FEF773FE78B967
:101BF0000F20CDE901064FF480500395CDE904058F
:101C000001A80321FEF782FD002804BF12B070BDB9
:101C1000FEF71AFC4EF68850CEF20000016841F43F
:101C2000700101607047000080B5012000F07AF873
:101C300000F09AF880BD000080B540F27400C2F256
:101C40000000018840880843B0FA80F0420940F65D
:101C50000000C4F202004FF40051FEF7C9FC80BD41
:101C600080B500F003F880BD7047000080B5FFF735
:101C700049FB012818BF80BDFFF7AAFA40F27000A7
:101C8000C2F2000001680131016080BDFEE7000082
:101C9000C1B200F01F00012202FA00F04EF2001261
:101CA000CEF2000242EAD10121F003010860704740
:101CB0004EF60C50CEF200000068C0F302207047D0
:101CC0004EF60C50CEF200000068C0F302207047C0
:101CD000E422C0F2E002090162F31F2001707047A4
:101CE0004EF6145300F00F02CEF2000309011A441D
:101CF00000F16043B0F1FF3FC8BF03F564421170CB
:101D0000704700004EF60C51CEF200010A684FF603
:101D1000FF031A4060F30A2242F0806040F0FD7039
:101D20000860704780B540F27801C2F20001087087
:101D3000FFF76AFAFFF74CFAFFF75CFA80BD000084
:101D400010B50C46FFF7A0F8FFF7D2F82046FFF7D2
:101D50007FF8FFF759F8FFF761F8FEF777FFFEF716
:101D6000F7FFFEF7C3FF10BD80B540F27400C2F26A
:101D700000000221FFF7E4FF80BD0000FEF752FCE7
:101D8000FFF7F8FEFFF740FCFFF70CFCFFF782FDC2
:101D9000FFF782FBFFF7D8FCFFF73CFDFFF7A4FD40
:101DA000FFF742FFFFF748FFFCE7F1EE100A4FF69E
:101DB000FF71C0F2C03120EA010040F04070E1EE56
:101DC000100A704700000000000000000102030438
:101DD000060708090000000001020304102840580B
:101DE0007088A0B8081E0008000000201000000045
:101DF000D4010008181E0008100000207006000022
:101E0000F0010008000000000024F40001000000C0
:081E10001000000000000000BA
:040000050800019955
:00000001FF
