:020000040800F2
:1000000088040020A1010008C7180008770F000825
:10001000C518000899040008ED1900080000000048
:10002000000000000000000000000000CB180008E5
:100030009B04000800000000C9180008CD18000843
:10004000BB010008BB010008BB010008BB010008A0
:10005000BB010008BB010008BB010008BB01000890
:10006000BB010008BB010008BB010008BB01000880
:10007000BB010008BB010008BB010008BB01000870
:10008000BB010008BB010008BB010008BB01000860
:10009000BB010008BB010008BB010008BB01000850
:1000A000BB010008BB010008BB010008BB01000840
:1000B000BB010008BB010008BB010008BB01000830
:1000C000BB010008BB010008BB010008BB01000820
:1000D000BB010008BB010008BB010008BB01000810
:1000E000BB010008BB010008BB010008BB01000800
:1000F000BB010008BB010008BB010008BB010008F0
:10010000BB010008BB010008BB010008BB010008DF
:10011000BB010008BB010008BB010008C3190008AF
:10012000BB010008BB010008BB010008BB010008BF
:10013000BB010008BB010008BB010008BB010008AF
:10014000BB010008BB010008BB010008BB0100089F
:10015000BB010008BB010008BB010008BB0100088F
:10016000BB010008BB010008BB010008BB0100087F
:10017000BB010008BB010008BB0100080000000033
:10018000BB010008BB010008DFF810D000F072F9D5
:1001900000480047B93F0008AFF300808804002002
:1001A0000648804706480047FEE7FEE7FEE7FEE711
:1001B000FEE7FEE7FEE7FEE7FEE7FEE7651900085B
:1001C000890100082DE9F05F0546002092469B4614
:1001D00088460646814640241BE02846414647465D
:1001E000224600F0D9F853465A46C01A914110D31E
:1001F00011461846224600F0C0F82D1A67EB010898
:100200004F4622460120002100F0B7F817EB000905
:100210004E41201EA4F10104DFDC484631462A4647
:100220004346BDE8F09FD2B201E000F8012B491E21
:10023000FBD270470022F6E710B513460A46044683
:100240001946FFF7F0FF204610BD2DE9FE4F81EA69
:10025000030404F0004421F0004100944FF0000B2F
:1002600023F0004350EA01045ED052EA03045BD05D
:10027000C3F30A54C1F30A552C44A4F2F334019495
:10028000A0FB0254C1F3130141F48011C3F3130323
:1002900043F4801301FB024400FB034E840A970AD7
:1002A00044EA815447EA8357A4FB076802958D0A04
:1002B00005FB07854FEA932C04FB0C542705029D90
:1002C0004FEA065847EA1637B5EB08056EEB070C00
:1002D000870E920E47EA811742EA8312A7FB0201BA
:1002E000B6EB0B0164EB00042B0D43EA0C335E18F4
:1002F00044EB1C50DA465146E7FB0201C5F31304F8
:100300004FEA0B3343EA14534FEA0432019C43EAA9
:100310000603A4F10C040294009CCDE900B400F0A3
:100320005AF803B0BDE8F08F00200146F9E70EB59A
:1003300040F2334102910021CDE900110A460B46FB
:1003400000F049F803B000BDC1F30A5210B5C1F383
:10035000130140F2FF3341F480119A4201DA002088
:1003600010BD40F233439A42A2F2334203DC5242C0
:1003700000F012F810BD904010BD202A04DB203A96
:1003800000FA02F1002070479140C2F1200320FAE8
:1003900003F3194390407047202A04DB203A21FAE6
:1003A00002F00021704721FA02F3D040C2F120028E
:1003B000914008431946704710B5141E73F10004AC
:1003C00008DA401C41F1000192185B411A4301D147
:1003D00020F0010010BD2DE9F04D92469B4611B171
:1003E000B1FA81F202E0B0FA80F220329046FFF7D3
:1003F000C4FF04460F4640EA0A0041EA0B01534697
:100400005A46084313D0114653EA010019D0C8F1E7
:1004100040025046FFF7C0FF05460E46504659467B
:100420004246FFF7AAFF084305D0012004E020461A
:100430003946BDE8F08D0020054346EAE0762C43BE
:1004400037430A986305E40AA0EB08000022FD0A7E
:1004500044EA47540A3002D500200146E9E7010585
:1004600010196941DDE9084500196941BDE8F04D01
:10047000A2E70000064C074D06E0E06840F00103EB
:1004800094E8070098471034AC42F6D3FFF780FE9B
:100490002887000848870008FEE7704772B6FEE725
:1004A00030B5B3F5804F05D06FF0704140F82210A1
:1004B000002030BD8C690B688D6823434C688989A6
:1004C000240144EA0524234343EA014150F8223041
:1004D000024C2340194340F82210E9E70000F0CF16
:1004E00010B50A6850F8223023F0010340F822309A
:1004F0008B68082B23D000224C681C43CB68134325
:100500000A691C4314434A691443CA6914430A6ABA
:1005100014434A6A14438A6A1443CA6A14430A6B2E
:1005200014438A692243CB6B1343064C096850F885
:100530002120A2431A4340F82120002010BD402270
:10054000DAE700007FFF0F0030B5D1E9003443EA5D
:1005500004138C688D89240244EA054423430C8AE1
:10056000641E43EA04540B7D89699B1E44EA0363BD
:100570000B43521C50F8221001F040410B4340F84D
:100580002230002030BD0000034801680348406865
:10059000C0EB0040084470472414004018000020BD
:1005A00070B5044600F054F90546601C02D00448BA
:1005B0000078044400F04CF9401BA042FAD370BD0F
:1005C000080000202DE9F04186B0142101A8FFF7B2
:1005D00031FE2148016800293AD10121016000243F
:1005E0001E48016841F001010160006800F001004F
:1005F00000904FF48058CDF80480022502950394B2
:10060000032604960C27059701A9154800F030F839
:100610004FF680700190029503940496059701A906
:10062000104800F025F84CF23370019002950394C5
:100630000496059701A90C4800F01AF8CDF804803B
:10064000029503940496059701A9084800F010F854
:1006500006B0BDE8F08100000000002038380240FC
:100660000014024000100240000C0240001802403A
:100670002DE9F84F0022DFF89C914FF00108032785
:100680004FF00F0C09F1040AA9F1040B08FA02F566
:100690000B682B40AB426ED10C7904F00304012CA3
:1006A00001D0022C15D18668540007FA04FE26EA10
:1006B0000E06D1F80CE00EFA04FE4EEA060EC0F863
:1006C00008E04468AC430D79C5F300159540254317
:1006D00045600C79E443A40708D0C568540007FAC4
:1006E00004F6B5438E68A6402E43C6600C7904F02C
:1006F0000304022C11D1D40800EB8406356A540798
:10070000E40E0CFA04FE25EA0E05D1F810E00EFA0C
:1007100004FE4EEA050EC6F820E00568540007FA0C
:1007200004F6B5430E7906F00306A6402E43066094
:100730004C6814F4403F67D0374C256845F4804539
:100740002560246804F480440094344C22F00305AE
:100750002E19D6F8085894074FEA147E0CFA0EF4B6
:10076000A5432F4CA04201D1002424E02D4CA042EF
:1007700002D101241FE047E02B4CA04201D102240A
:1007800019E02A4CA04201D1032414E0284CA042D5
:1007900001D104240FE0274CA04201D105240AE036
:1007A000254CA04201D1062405E0244CA04201D1F1
:1007B000072400E0082404FA0EF42C43C6F8084885
:1007C000D9F800409C434D68ED0200D51C43C9F8A0
:1007D0000040DAF800409C434D68AD0200D51C4350
:1007E000CAF80040DBF800409C434D68AD0300D5DB
:1007F0001C43CBF80040074D083D2C689C434E68D5
:10080000F60300D51C432C60521C102AFFF43EAFA7
:10081000BDE8F88F083C01404438024000300140F8
:10082000000002400004024000080240000C0240A8
:10083000001002400014024000180240001C024058
:10084000002A01D08161704709048161704700006E
:100850000148806870470000080000200248816855
:1008600002781144816070470800002010B50B48E1
:10087000016841F400710160016841F48061016028
:10088000016841F480710160032000F063F80F20DB
:1008900000F006F800F026F8002010BD003C0240F1
:1008A00070B504460D4D4FF47A712878B1FBF0F025
:1008B0000B490968B1FBF0F000F049FB08B10120D9
:1008C00070BD102C07D200222146501E00F022F8E5
:1008D0006C60002070BD012070BD00000800002089
:1008E0001400002008B50A48016841F48041016005
:1008F000006800F4804000900548001F016841F046
:1009000080510160006800F08050009008BD000038
:1009100044380240F0B40D460D4B1B68C3F302236C
:10092000C3F10704042C00D90424191D072901D29E
:10093000002300E0DB1E012606FA04F1491E2940CF
:1009400099409E40761E16403143F0BC01F04FB8EE
:100950000CED00E000F00701054A10684FF6FF03B8
:10096000184040EA01200349084310607047000026
:100970000CED00E00000FA052DE9F04704460D46B5
:10098000002C13D0DFF82891D9F80000EFB200F066
:100990000700A8420CD289F80070D9F8000000F0D6
:1009A0000700A84204D00120BDE8F0870120FBE742
:1009B0002068404E810712D5400703D5306840F4C7
:1009C000E05030602078000703D5306840F4604084
:1009D00030603068A16820F0F00008433060207873
:1009E000C00731D0334960680839012808D002288F
:1009F0000BD0032809D0096889070BD40120D3E75D
:100A00000968890306D40120CEE70968890101D469
:100A10000120C9E7316821F0030101433160FFF78C
:100A200017FF804641F2883A07E0FFF711FFA0EB7D
:100A30000800504501D90320B6E73068616800F02E
:100A40000C00B0EB810FF0D1D9F8000000F00700E6
:100A5000A84209D989F80070D9F8000000F0070011
:100A6000A84201D001209FE72078400705D53068D3
:100A7000E16820F4E050084330602078000706D594
:100A80003068216920F4604040EAC100306000F025
:100A900019F83168084AC1F30311515CC84007498D
:100AA000086007480068FFF7FBFE00207CE70000B5
:100AB000003C024008380240D63F000814000020E5
:100AC0000C00002010B51748006810F00C01164803
:100AD00016D04310042912D0082911D1114C241F1B
:100AE000216801F03F02216849020AD52068C0F35D
:100AF0008810A0FB03010023FFF764FB09E0184600
:100B000010BD21680023C1F38811A1FB0001FFF78C
:100B100059FB2168C1F30141491C4900B0FBF1F0C8
:100B200010BD0000083802400024F4002DE9F84F01
:100B30000446002C13D02078DFF8A083C007A8F16A
:100B4000040556D008F104000168C1F381010129B0
:100B50000CD00068C0F38100022803D00DE0012012
:100B6000BDE8F88FD8F80000400206D52868800359
:100B70003FD5606870BB0120F2E76068B0F5803F48
:100B800010D0B0F5A02F12D0286820F48030286053
:100B9000286820F4802028606068E0B1FFF758FEE4
:100BA000064614E0286840F480302860F4E728689E
:100BB00040F480202860286840F480302860EBE70B
:100BC000FFF746FE801B642801D90320C8E7286888
:100BD0008003F5D50DE0FFF73BFE064606E0FFF784
:100BE00037FE801B642801D90320B9E728688003F9
:100BF000F5D42078BA4F80074FF0000948D5B748A0
:100C0000001D016811F00C0F08D00068C0F38100CE
:100C1000022813D1D8F8000040020FD428688007BA
:100C200004D5E068012801D0012099E728682169EE
:100C300020F0F80040EAC100286029E0E068B8B17F
:100C400001203860FFF704FE064606E0FFF700FECD
:100C5000801B022801D9032082E728688007F5D588
:100C60002868216920F0F80040EAC10028600FE000
:100C7000C7F80090FFF7ECFD064606E0FFF7E8FD39
:100C8000801B022801D903206AE728688007F5D471
:100C90002078000729D5DFF844A2924861690AF15B
:100CA000700A89B101210160FFF7D2FD064606E016
:100CB000FFF7CEFD801B022801D9032050E7DAF8A8
:100CC00000008007F4D510E0C0F80090FFF7C0FDE9
:100CD000064606E0FFF7BCFD801B022801D9032071
:100CE0003EE7DAF800008007F4D42078400778D592
:100CF0004FF0000A79483C300068C0000BD47748B8
:100D00003C30016841F080510160006800F0805083
:100D100000904FF0010ADFF8D0B1DBF80000C00509
:100D200014D4DBF8000040F48070CBF80000FFF72B
:100D30008FFD064606E0FFF78BFD801B022801D9D8
:100D400003200DE7DBF80000C005F4D5634EA06872
:100D50006C3601280FD0052812D0306820F0010031
:100D60003060306820F004003060A068F8B1FFF710
:100D70006FFD834617E0306840F001003060F4E713
:100D8000306840F004003060306840F001003060AE
:100D9000EBE7FFF75DFDA0EB0B0141F288308142EC
:100DA00001D90320DCE630688007F2D510E0FFF7B8
:100DB0004FFD834609E0FFF74BFDA0EB0B0141F22D
:100DC0008830814201D90320CAE630688007F2D416
:100DD000BAF1010F05D141483C30016821F0805142
:100DE0000160A069C0B33D49091D09684FF0FF3695
:100DF000C1F38101022946D0022805D0C7F86090CE
:100E0000FFF726FD04463AE0C7F86090FFF720FDA3
:100E1000814607E0FFF71CFDA0EB0900022801D97D
:100E200003209DE628688001F4D4D4E90701084333
:100E3000616AA26A890106EB520241EA0241084353
:100E400094F82C1040EA0160C8F8000001203866D0
:100E5000FFF7FEFC044607E03DE0FFF7F9FC001B4E
:100E6000022801D903207BE628688001F5D532E00D
:100E7000FFF7EEFC001B022801D9032070E628686A
:100E80008001F5D427E0012823D0D8F80000E269DA
:100E900000F4800191421AD1226A00F03F01914290
:100EA00015D147F6C071626A0140B1EB821F0ED1C5
:100EB000A26A00F4403106EB5202B1EB024F06D1B8
:100EC00094F82C1000F07060B0EB016F03D001209B
:100ED00046E6012044E6002042E6000004380240D5
:100EE00000004742800E47420070004070B5044643
:100EF0000E461546002C03D094F8490010B107E0C7
:100F0000012070BD002084F84800204600F01DF844
:100F100004F108012068FFF7E3FA3146A26820686F
:100F2000FFF712FBD4E901022946236BFFF7B8FA59
:100F3000A168206850F8212042F0010240F82120E9
:100F4000012084F84900002070BDFFF73BBB10B5BD
:100F5000401EB0F1807F01D3012010BD4FF0E0248E
:100F600060610F21601700F042FD0020A0610720A2
:100F70002061002010BDFEE770B5064600240A4A35
:100F8000118855884D430021084600F0EFF900F024
:100F900029FBB0B24FF0D84102E0A1F88000641CF8
:100FA000AC42FAD370BD0000780000202DE9F04F6C
:100FB000304B987119462C272B252A2689884FF407
:100FC00030584FF428594FF4487441F6631A4FF0E3
:100FD000F00B45F2105E4FF4A07C4FF4F072002845
:100FE0000ED0A3F800C0A3F802B071452BD1A3F82E
:100FF0000880A3F80A90280298811C805A802DE06E
:10100000A3F800B0A3F802C0714509D1A3F8088085
:10101000A3F80A904FF42C5098811A805C800AE063
:10102000514505D11F815D819E811A805C8002E05F
:101030001F815E819D81A1F5A640103815D1A3F8CE
:1010400000C05A8011E0514505D11F815E819D810C
:101050001C805A8002E01F815E819D81A1F5A6401F
:10106000103802D11A80A3F802C0BDE8F04F00206A
:1010700000F0A4B8780000202DE9F04104460D46A8
:10108000334E2F0A3046B1884089A1F5AA434FEA72
:101090001428103B1AD0A1F5C853633B32D000F09E
:1010A00095FA404600F086FAE0B200F083FAB08983
:1010B00000F08CFA384600F07DFAE8B200F07AFAD7
:1010C0002448318901804280BDE8F08100F07EFA39
:1010D000404600F06FFA7089401C80B200F076FA4A
:1010E000E0B200F067FAB08900F070FA384600F01C
:1010F00061FAB089401C80B200F068FAE8B200F0F2
:1011000059FADDE7B17919B93188091B491E8CB24A
:1011100000F05CFA4FEA1428404600F04BFAE0B2C7
:1011200000F048FA404600F045FAE0B200F042FA1A
:10113000B08900F04BFA384600F03CFAE8B200F013
:1011400039FA384600F036FAE8B200F033FAB7E779
:10115000780000207E00006C08B5034800880090ED
:10116000BDF8000008BD00008000006C10B502460C
:10117000BE2000F02BFA052000F01CFA1046FFF705
:10118000D6F89FED0C1B53EC112BFFF75EF8FFF721
:10119000DBF880B200F00EFA012000F00BFAFF201D
:1011A00000F008FA002000F005FABDE81040002029
:1011B00000F000BA666666666666044070B5002395
:1011C000694C41F663162146A2798988012A01D12A
:1011D000B14202D1C2B9B14216D1082814D2DFE817
:1011E00000F00406080A0C0E101206200CE007207E
:1011F0000AE0042008E0052006E0012004E00020C9
:1012000002E0032000E00220082812D2DFE800F00C
:10121000110406080A0C0E1080230AE0402308E09F
:10122000C02306E0202304E0602302E0A02300E0C6
:10123000E02345F21055A94202D14FF4585000E086
:101240003620A1F51342413A03D0A1F5EE42893A86
:1012500001D143F00803194600F0CEF9A288B2424A
:101260000ED0980606D520886188884208D2218051
:10127000608005E020886188884201D921806080F3
:10128000AA4247D1608900F0A1F9002000F092F94C
:101290006089401C80B200F099F9002000F08AF9C2
:1012A0006089801C80B200F091F92088401EC0F354
:1012B0000F2000F07FF96089C01C80B200F086F931
:1012C0002078401EC0B200F075F9A08900F07EF9C8
:1012D000002000F06FF9A089401C80B200F076F980
:1012E000002000F067F9A089801C80B200F06EF940
:1012F0006088401EC0F30F2000F05CF9A089C01C7C
:1013000080B200F063F9A078BDE87040401EC0B222
:1013100000F050B9608900F059F9002000F04AF956
:10132000002000F047F92088401EC0F30F2000F095
:1013300041F92078401EC0B200F03CF9A08900F0CD
:1013400045F9002000F036F9002000F033F96088FC
:10135000401EC0F30F2000F02DF9A078BDE87040CA
:10136000401EC0B200F026B978000020F0B5024659
:101370000C463E4D260A2846A988170A4089A1F541
:10138000C853633B16D0A1F5AA43103B50D000F0E0
:101390001DF9384600F00EF9D0B200F00BF9A8891B
:1013A00000F014F9304600F005F9E0B2BDE8F04075
:1013B00000F000B9A97941B300F008F9384600F00F
:1013C000F9F8D0B200F0F6F82888401EC0F30F20DC
:1013D00000F0F0F82878401EC0B200F0EBF8A889C1
:1013E00000F0F4F8304600F0E5F8E0B200F0E2F882
:1013F0006888401EC0F30F2000F0DCF8A878BDE834
:10140000F040401EC0B200F0D5B82988891A491EA4
:101410008AB200F0DBF8002000F0CCF8002000F0E9
:10142000C9F8100A00F0C6F8D0B200F0C3F8D6E749
:1014300000F0CCF8384600F0BDF86889401C80B256
:1014400000F0C4F8D0B200F0B5F8A88900F0BEF8FA
:10145000304600F0AFF8A889401C80B200F0B6F822
:10146000E0B2BDE8F04000F0A5B800007800002030
:101470002DE9F84F82460D461F46AB46780701D04E
:10148000012000E0002000EBD70079084843C0B2FB
:101490000090203A02F0FF09002650E00C2F14D0F3
:1014A000102F19D0182F1CD0202F4BD1264800EB1D
:1014B000C910845D4FF00008200619D5234829463D
:1014C00002685046FFF7D8FD1AE0214909EB4900B0
:1014D00001EB8000845DEDE71E4800EB0910845DA0
:1014E000E8E71D4909EBC90001EB8000845DE1E7F5
:1014F0000A9828B91548294642685046FFF7BCFDAE
:101500006006040E6D1CADB214484088A84219D97B
:10151000A5EB0B00B84209D15D460AF1010A1FFA9A
:101520008AFA0E48008850450CD906E008F10108F7
:1015300008F0FF08B8F1080FBED3761CF6B2009889
:101540008642ABD3BDE8F88FA657000820000020E4
:10155000E63F00085A4400084A4A00087800002084
:101560002DE9F84F0446DDE90A760D4604F0FF0840
:1015700010191FFA80F958191FFA80FA4FF0000B62
:1015800011E04C4502D34446E81985B255450FD2C7
:101590003B4629462046CDF800B0FFF769FF04EB33
:1015A000570084B2761C3278A2F120005E28E8D978
:1015B000BDE8F88F01B5BDF800000090BDF800004F
:1015C0000149088008BD00008000006C01B5BDF82D
:1015D00000000090BDF800000149088008BD00002F
:1015E0007E00006C024803490089088070470000B3
:1015F000780000207E00006C014A10805180704706
:101600007E00006C2DE9F0410268264C264D274EE5
:10161000274F284B4FF0804CA04209D0604507D09F
:10162000A84205D0B04203D0B84201D0984205D1BB
:10163000D1F8048022F0700242EA0802A0421BD0D6
:10164000604519D0A84217D0B04215D0B84213D087
:10165000984211D0184DA8420ED0184DA8420BD078
:10166000174DA84208D0174DA84205D0164DA842E4
:1016700002D0164DA84203D1CD6822F440722A430D
:1016800002608A68C2620A888262A04201D09842DF
:1016900001D109690163416941F001014161002003
:1016A000BDE8F08100000140000400400008004057
:1016B000000C004000040140004001400044014093
:1016C0000048014000180040001C0040002000407D
:1016D00010B58EB01C2107A8FEF7ACFD1C21684692
:1016E000FEF7A8FD1B484FF0204101601A494160F8
:1016F000062181600021C160016110224261816187
:10170000C1610162416213028362C1629302036399
:10171000416381634164022007900F23089309927B
:101720000A910B9211200C900D91092400940193C1
:101730000823029303910492059006916A4607A933
:101740000448FFF7D3FB002801D0FEF7A7FE0EB038
:1017500010BD000028000020040100A02DE9F04188
:1017600086B0142101A8FEF765FD2F48016841F0FD
:1017700020010160016801F020010091016841F041
:1017800080010160016801F080010091016841F071
:1017900010010160016801F010010091016841F041
:1017A00002010160016801F002010091016841F04D
:1017B00008010160016801F008010091016841F031
:1017C00001010160016801F001010091016841F02F
:1017D00040010160006800F040000090DFF84C809C
:1017E0004FF4C064012221464046FFF729F8104F0C
:1017F0004FF40046002231463846FFF721F80194A5
:101800000124029403940225049501A94046FEF7A1
:101810002FFF019602940394049501A93846FEF720
:1018200027FF06B0BDE8F0813038024000140240C6
:101830000004024010B586B0142101A8FEF7FAFC9E
:101840001B48016841F020010160006800F02000A1
:10185000009018480068C0F30220011D072901D23A
:10186000002000E0C01E002202FA00F10801124927
:10187000087012494FF40000C1F800015320ADF880
:10188000040002924FF6FF7003900D4C01A9204610
:10189000FFF7B8FE206820F080002060606820F02C
:1018A00070006060A06820F08000A06006B010BDED
:1018B000403802400CED00E037E400E004E000E0D6
:1018C00000140040FEE7FEE770477047FEF7C6BF12
:1018D00030B593B0302107A8FEF7ACFC142102A864
:1018E000FEF7A8FC00251D48016841F08051016009
:1018F000006800F0805001901948016841F480416F
:101900000160006800F4804001900120079000040D
:10191000089002240D9480010E9004200F90A821BD
:1019200010911194129007A8FFF700F908B1FEF783
:10193000B5FD0F200290039404954FF4A05005903C
:101940004FF480500690052102A8FFF715F80028F3
:1019500001D0FEF7A3FD13B030BD000040380240B7
:10196000007000400248016841F470010160704756
:1019700088ED00E01CB5012000F058F800F08EF86A
:101980004FF6FF70FFF7F8FA07494FF47840086008
:10199000102106A0CDE900100B46C82232211E20DE
:1019A000FFF7DEFD1CBD0000200000204578706CB4
:1019B0006F7265722053544D33324634000000007C
:1019C000704700F001B8000006480169C1F300014A
:1019D000002906D06FF00101016103484168491CEC
:1019E000416070470014004018000020FEE709071E
:1019F000090E002804DB00F1E02080F80014704795
:101A000000F00F0000F1E02080F8141D704702E0A4
:101A100008C8121F08C1002AFAD170477047002079
:101A200001E001C1121F002AFBD17047074908706D
:101A30000748C16841F00101C1606FF00101016117
:101A4000016841F0010101607047000018000020AA
:101A50000014004010B502460A48007800280CD057
:101A6000FEF792FD02EB4201C1EBC21100EBC10295
:101A7000FEF78AFD9042FBD910BDBDE8104010462C
:101A8000FEF78EBD1800002000B50246FEF77CFD73
:101A90000244FEF779FD9042FBD900BD2DE9F05FCD
:101AA000D320FFF793FDFFF757FBFE4DA880FFF70C
:101AB00053FBA880FFF750FB4FF6FF7909EA00209F
:101AC000A880FFF749FBA9880843A88049F2413A5A
:101AD00045F2103745F210564FF4704B41F663183B
:101AE00047F2897450457AD00420FFF76FFDFFF765
:101AF00033FBA880FFF730FBA880FFF72DFB09EA36
:101B00000020A880FFF728FBA9880843A880A0F53B
:101B10000541523900D1AC80A888A0425FD0D420C2
:101B2000FFF754FDFFF718FBA880FFF715FBA8800F
:101B3000FFF712FB09EA0020A880FFF70DFBA98838
:101B40000843A880B8424AD055215846FFF754FDB3
:101B5000AA214FF20100FFF74FFD52214FF2020080
:101B6000FFF74AFD08214FF20300FFF745FD012171
:101B70004FF20400FFF740FD4FF44540FFF726FD0C
:101B8000FFF7EAFA09EA0020A8804CF20150FFF7BB
:101B90001DFDFFF7E1FAA9880843A8800520FFF79B
:101BA00059FFA888B0F5004F00D1AE80A888B04298
:101BB00015D0A120FFF70AFDFFF7CEFAA880FFF7A6
:101BC000CBFA09EA0020A880FFF7C6FAA9880843E3
:101BD000A880A0F5AE41613901D1A5F80480A8889C
:101BE00050457CD1CF20FFF7F1FC0020FFF7E2FC4D
:101BF000C120FFF7DFFC3020FFF7DCFCED20FFF712
:101C0000E5FC6420FFF7D6FC0320FFF7D3FC12208D
:101C1000FFF7D0FC8120FFF7CDFCE820FFF7D6FCD2
:101C20008520FFF7C7FC1020FFF7C4FC7A20FFF7E0
:101C3000C1FCCB20FFF7CAFC3920FFF7BBFC2C20EE
:101C4000FFF7B8FC0020FFF7B5FC3420FFF7B2FC2B
:101C50000220FFF7AFFCF720FFF7B8FC2020FFF7CA
:101C6000A9FCEA20FFF7B2FC0020FFF7A3FC00204C
:101C7000FFF7A0FCC020FFF7A9FC1B20FFF79AFC90
:101C8000C120FFF7A3FC0120FFF794FCC520FFF75C
:101C90009DFC3020FFF78EFC3020FFF78BFCC72027
:101CA000FFF794FCB720FFF785FC3620FFF78EFC8A
:101CB0004820FFF77FFC3A20FFF788FC5520FFF70C
:101CC00079FCB120FFF782FC0020FFF773FC1A209B
:101CD000FFF770FCB620FFF779FC0A2000E099E0DE
:101CE000FFF768FCA220FFF765FCF220FFF76EFC0F
:101CF0000020FFF75FFC2620FFF768FC0120FFF7BC
:101D000059FCE020FFF762FC0F20FFF753FC2A206C
:101D1000FFF750FC2820FFF74DFC0820FFF74AFC96
:101D20000E20FFF747FC0820FFF744FC5420FFF784
:101D300041FCA920FFF73EFC4320FFF73BFC0A20B3
:101D4000FFF738FC0F20FFF735FC0020FFF732FCCF
:101D50000020FFF72FFC0020FFF72CFC0020FFF7EE
:101D600029FCE120FFF732FC0020FFF723FC1520BF
:101D7000FFF720FC1720FFF71DFC0720FFF71AFCD8
:101D80001120FFF717FC0620FFF714FC2B20FFF7AC
:101D900011FC5620FFF70EFC3C20FFF70BFC052042
:101DA000FFF708FC1020FFF705FC0F20FFF702FCEF
:101DB0003F20FFF7FFFB3F20FFF7FCFB0F20FFF763
:101DC000F9FB2B20FFF702FC0020FFF7F3FB0020BC
:101DD000FFF7F0FB0120FFF7EDFB3F20FFF7EAFBE9
:101DE0002A20FFF7F3FB0020FFF7E4FB0020FFF7BA
:101DF000E1FB0020FFF7DEFBEF20FFF7DBFB11200C
:101E0000FFF7E4FB7820FFF725FE2920FFF7DEFB34
:101E100002F097B8A0427CD11120FFF7D7FB7820C1
:101E2000FFF718FE3620FFF7D1FB0020FFF7C2FBBB
:101E30003A20FFF7CBFB0520FFF7BCFBB220FFF7F2
:101E4000C5FB0C20FFF7B6FB0C20FFF7B3FB00200F
:101E5000FFF7B0FB3320FFF7ADFB3320FFF7AAFB02
:101E6000B720FFF7B3FB3520FFF7A4FBBB20FFF73C
:101E7000ADFB3220FFF79EFBC020FFF7A7FB0C2035
:101E8000FFF798FBC220FFF7A1FB0120FFF792FBB1
:101E9000C320FFF79BFB1020FFF78CFBC420FFF74C
:101EA00095FB01E0780000202020FFF783FBC6208F
:101EB000FFF78CFB0F20FFF77DFBD020FFF786FBA1
:101EC000A420FFF777FBA120FFF774FBE020FFF7CA
:101ED0007DFBD020FFF76EFB0020FFF76BFB02209D
:101EE000FFF768FB0720FFF765FB0A20FFF762FB9F
:101EF0002820FFF75FFB3220FFF75CFB4420FFF751
:101F000059FB4220FFF756FB0620FFF753FB0E203C
:101F100000E059E0FFF74EFB1220FFF74BFB1420C7
:101F2000FFF748FB1720FFF745FBE120FFF74EFBCB
:101F3000D020FFF73FFB0020FFF73CFB0220FFF71C
:101F400039FB0720FFF736FB0A20FFF733FB282079
:101F5000FFF730FB3120FFF72DFB5420FFF72AFB62
:101F60004720FFF727FB0E20FFF724FB1C20FFF77D
:101F700021FB1720FFF71EFB1B20FFF71BFB1E207A
:101F8000FFF718FB2A20FFF721FB0020FFF712FBC9
:101F90000020FFF70FFB0020FFF70CFBEF20FFF7FF
:101FA00009FB2B20FFF712FB0020FFF703FB0020AB
:101FB000FFF700FB0120FFF7FDFA3F20FFF7FAFAD9
:101FC0002920FFF703FB23E7B8427CD1ED20FFF780
:101FD000FDFA0120FFF7EEFAFE20FFF7EBFAEE2004
:101FE000FFF7F4FADE20FFF7E5FA2120FFF7E2FA27
:101FF000F120FFF7EBFA0120FFF7DCFADF20FFF713
:10200000E5FA1020FFF7D6FAC420FFF7DFFA8F2099
:10201000FFF7D0FAC620FFF7D9FA0020FFF7CAFA77
:10202000E220FFF7C7FAE220FFF7C4FAE220FFF749
:10203000C1FABF20FFF7CAFAAA20FFF7BBFAB02007
:10204000FFF7C4FA0D20FFF7B5FA0020FFF7B2FA48
:102050000D20FFF7AFFA0020FFF7ACFA1120FFF7D1
:10206000A9FA0020FFF7A6FA1920FFF7A3FA00202B
:10207000FFF7A0FA2120FFF79DFA0020FFF79AFA58
:102080002D20FFF797FA0020FFF794FA3D20FFF785
:1020900091FA0020FFF78EFA5D20FFF78BFA0020FF
:1020A000FFF788FA5D20FFF785FA0020FFF782FA34
:1020B000B120FFF78BFA8020FFF77CFA0020FFF7B2
:1020C00079FA8B2000E0FCE3FFF774FA0020FFF7B9
:1020D00071FA9620FFF76EFA0020FFF76BFAB22034
:1020E000FFF774FA0020FFF765FA0020FFF762FAA5
:1020F0000220FFF75FFA0020FFF75CFA0320FFF7EA
:1021000059FA0020FFF756FAB320FFF75FFA0020D4
:10211000FFF750FA0020FFF74DFA0020FFF74AFAC8
:102120000020FFF747FA0020FFF744FA0020FFF7EE
:1021300041FA0020FFF73EFA0020FFF73BFA0020AB
:10214000FFF738FA0020FFF735FA0020FFF732FAE0
:102150000020FFF72FFA0020FFF72CFA0020FFF7EE
:1021600029FA0020FFF726FA0020FFF723FA0020C3
:10217000FFF720FA0020FFF71DFA0020FFF71AFAF8
:102180000020FFF717FA0020FFF714FA0020FFF7EE
:1021900011FA0020FFF70EFA0020FFF70BFAB42027
:1021A000FFF714FA8B20FFF705FA0020FFF702FA79
:1021B0009620FFF7FFF90020FFF7FCF9A120FFF7B9
:1021C000F9F90020FFF7F6F9B520FFF7FFF9022033
:1021D000FFF7F0F90020FFF7EDF90320FFF7EAF928
:1021E0000020FFF7E7F90420FFF7E4F90020FFF7EC
:1021F000E1F9B620FFF7EAF90020FFF7DBF900204C
:10220000FFF7D8F9B720FFF7E1F90020FFF7D2F97F
:102210000020FFF7CFF93F20FFF7CCF90020FFF7B0
:10222000C9F95E20FFF7C6F90020FFF7C3F9642063
:10223000FFF7C0F90020FFF7BDF98C20FFF7BAF9CE
:102240000020FFF7B7F9AC20FFF7B4F90020FFF743
:10225000B1F9DC20FFF7AEF90020FFF7ABF97020F1
:10226000FFF7A8F90020FFF7A5F99020FFF7A2F9E2
:102270000020FFF79FF9EB20FFF79CF90020FFF704
:1022800099F9DC20FFF796F90020FFF793F9B820C1
:10229000FFF79CF90020FFF78DF90020FFF78AF97E
:1022A0000020FFF787F90020FFF784F90020FFF7EF
:1022B00081F90020FFF77EF90020FFF77BF900206D
:1022C000FFF778F9BA20FFF781F92420FFF772F9B8
:1022D0000020FFF76FF90020FFF76CF90020FFF7EF
:1022E00069F9C120FFF772F92020FFF763F9002098
:1022F000FFF760F95420FFF75DF90020FFF75AF966
:10230000FF20FFF757F90020FFF754F9C220FFF72D
:102310005DF90A20FFF74EF90020FFF74BF9042082
:10232000FFF748F90020FFF745F9C320FFF74EF902
:102330003C20FFF73FF90020FFF73CF93A20FFF778
:1023400039F90020FFF736F93920FFF733F900207B
:10235000FFF730F93720FFF72DF90020FFF72AF9B2
:102360003C20FFF727F90020FFF724F93620FFF77C
:1023700021F90020FFF71EF93220FFF71BF900209A
:10238000FFF718F92F20FFF715F90020FFF712F9D2
:102390002C20FFF70FF90020FFF70CF92920FFF799
:1023A00009F90020FFF706F92620FFF703F90020BE
:1023B000FFF700F92420FFF7FDF80020FFF7FAF8F7
:1023C0002420FFF7F7F80020FFF7F4F82320FFF7A9
:1023D000F1F80020FFF7EEF83C20FFF7EBF80020C3
:1023E000FFF7E8F83620FFF7E5F80020FFF7E2F8FE
:1023F0003220FFF7DFF80020FFF7DCF82F20FFF78F
:10240000D9F80020FFF7D6F82C20FFF7D3F80020EA
:10241000FFF7D0F82920FFF7CDF80020FFF7CAF822
:102420002620FFF7C7F80020FFF7C4F82420FFF7A5
:10243000C1F80020FFF7BEF82420FFF7BBF800200A
:10244000FFF7B8F82320FFF7B5F80020FFF7B2F840
:10245000C420FFF7BBF86220FFF7ACF80020FFF7BD
:10246000A9F80520FFF7A6F80020FFF7A3F88420BD
:10247000FFF7A0F80020FFF79DF8F020FFF79AF88B
:102480000020FFF797F81820FFF794F80020FFF7D7
:1024900091F8A420FFF78EF80020FFF78BF81820A2
:1024A000FFF788F80020FFF785F85020FFF782F843
:1024B0000020FFF77FF80C20FFF77CF80020FFF7E3
:1024C00079F81720FFF776F80020FFF773F89520CA
:1024D000FFF770F80020FFF76DF8F320FFF76AF8B8
:1024E0000020FFF767F8E620FFF764F80020FFF709
:1024F00061F8C520FFF76AF83220FFF75BF800208B
:10250000FFF758F84420FFF755F80020FFF752F87E
:102510006520FFF74FF80020FFF74CF87620FFF713
:1025200049F80020FFF746F88820FFF743F800201D
:10253000FFF740F8C620FFF749F82020FFF73AF8E8
:102540000020FFF737F81720FFF734F80020FFF7D7
:1025500031F80120FFF72EF80020FFF72BF8C720F5
:10256000FFF734F80020FFF725F80020FFF722F8E6
:102570000020FFF71FF80020FFF71CF8C820FFF726
:1025800025F80020FFF716F80020FFF713F80020C9
:10259000FFF710F80020FFF70DF8C920FFF716F835
:1025A0000020FFF707F80020FFF704F80020FFF7EE
:1025B00001F80020FEF7FEFF0020FEF7FBFF0020E1
:1025C000FEF7F8FF0020FEF7F5FF0020FEF7F2FF10
:1025D0000020FEF7EFFF0020FEF7ECFF0020FEF7E3
:1025E000E9FF0020FEF7E6FF0020FEF7E3FF0020F2
:1025F000FEF7E0FF0020FEF7DDFF0020FEF7DAFF28
:10260000E020FEF7E3FF1620FEF7D4FF0020FEF7E0
:10261000D1FF1C20FEF7CEFF0020FEF7CBFF2120CC
:10262000FEF7C8FF0020FEF7C5FF3620FEF7C2FF09
:102630000020FEF7BFFF4620FEF7BCFF0020FEF79C
:10264000B9FF5220FEF7B6FF0020FEF7B3FF64206B
:10265000FEF7B0FF0020FEF7ADFF7A20FEF7AAFFDD
:102660000020FEF7A7FF8B20FEF7A4FF0020FEF757
:10267000A1FF9920FEF79EFF0020FEF79BFFA820F8
:10268000FEF798FF0020FEF795FFB920FEF792FFB6
:102690000020FEF78FFFC420FEF78CFF0020FEF71E
:1026A00089FFCA20FEF786FF0020FEF783FFD220B5
:1026B000FEF780FF0020FEF77DFFD920FEF77AFFAE
:1026C0000020FEF777FFE020FEF774FF0020FEF702
:1026D00071FFF320FEF76EFF0020FEF76BFFE12095
:1026E000FEF774FF1620FEF765FF0020FEF762FF7D
:1026F0001C20FEF75FFF0020FEF75CFF2220FEF7A4
:1027000059FF0020FEF756FF3620FEF753FF00204A
:10271000FEF750FF4520FEF74DFF0020FEF74AFF71
:102720005220FEF747FF0020FEF744FF6420FEF72B
:1027300041FF0020FEF73EFF7A20FEF73BFF00201E
:10274000FEF738FF8B20FEF735FF0020FEF732FF43
:102750009920FEF72FFF0020FEF72CFFA820FEF7A0
:1027600029FF0020FEF726FFB920FEF723FF0020F7
:10277000FEF720FFC420FEF71DFF0020FEF71AFF22
:10278000CA20FEF717FF0020FEF714FFD220FEF745
:1027900011FF0020FEF70EFFD820FEF70BFF0020F0
:1027A000FEF708FFE020FEF705FF0020FEF702FF1E
:1027B000F320FEF7FFFE0020FEF7FCFEE220FEF70E
:1027C00005FF0520FEF7F6FE0020FEF7F3FE0B20C6
:1027D000FEF7F0FE0020FEF7EDFE1B20FEF7EAFEFE
:1027E0000020FEF7E7FE3420FEF7E4FE0020FEF7AF
:1027F000E1FE4420FEF7DEFE0020FEF7DBFE4F2068
:10280000FEF7D8FE0020FEF7D5FE6120FEF7D2FECF
:102810000020FEF7CFFE7920FEF7CCFE0020FEF769
:10282000C9FE8820FEF7C6FE0020FEF7C3FE9720F3
:10283000FEF7C0FE0020FEF7BDFEA620FEF7BAFEA2
:102840000020FEF7B7FEB720FEF7B4FE0020FEF72B
:10285000B1FEC220FEF7AEFE0020FEF7ABFEC720A1
:10286000FEF7A8FE0020FEF7A5FED120FEF7A2FE8F
:102870000020FEF79FFED620FEF79CFE0020FEF70C
:1028800099FEDD20FEF796FE0020FEF793FEF32072
:10289000FEF790FE0020FEF78DFEE320FEF796FE89
:1028A0000520FEF787FE0020FEF784FE0A20FEF7D3
:1028B00081FE0020FEF77EFE1C20FEF77BFE00203E
:1028C00000E0FFE2FEF776FE3320FEF773FE002005
:1028D000FEF770FE4420FEF76DFE0020FEF76AFE54
:1028E0005020FEF767FE0020FEF764FE6220FEF730
:1028F00061FE0020FEF75EFE7820FEF75BFE002002
:10290000FEF758FE8820FEF755FE0020FEF752FE27
:102910009720FEF74FFE0020FEF74CFEA620FEF7A4
:1029200049FE0020FEF746FEB720FEF743FE0020DA
:10293000FEF740FEC220FEF73DFE0020FEF73AFE05
:10294000C720FEF737FE0020FEF734FED120FEF749
:1029500031FE0020FEF72EFED520FEF72BFE0020D4
:10296000FEF728FEDD20FEF725FE0020FEF722FE02
:10297000F320FEF71FFE0020FEF71CFEE420FEF70A
:1029800025FE0120FEF716FE0020FEF713FE0120B3
:10299000FEF710FE0020FEF70DFE0220FEF70AFEF5
:1029A0000020FEF707FE2A20FEF704FE0020FEF7B7
:1029B00001FE3C20FEF7FEFD0020FEF7FBFD4B2054
:1029C000FEF7F8FD0020FEF7F5FD5D20FEF7F2FDB5
:1029D0000020FEF7EFFD7420FEF7ECFD0020FEF76F
:1029E000E9FD8420FEF7E6FD0020FEF7E3FD9320DD
:1029F000FEF7E0FD0020FEF7DDFDA220FEF7DAFD88
:102A00000020FEF7D7FDB320FEF7D4FD0020FEF72F
:102A1000D1FDBE20FEF7CEFD0020FEF7CBFDC42089
:102A2000FEF7C8FD0020FEF7C5FDCD20FEF7C2FD74
:102A30000020FEF7BFFDD320FEF7BCFD0020FEF70F
:102A4000B9FDDD20FEF7B6FD0020FEF7B3FDF32053
:102A5000FEF7B0FD0020FEF7ADFDE520FEF7B6FD68
:102A60000020FEF7A7FD0020FEF7A4FD0020FEF7E2
:102A7000A1FD0020FEF79EFD0220FEF79BFD002039
:102A8000FEF798FD2920FEF795FD0020FEF792FD48
:102A90003C20FEF78FFD0020FEF78CFD4B20FEF75B
:102AA00089FD0020FEF786FD5D20FEF783FD0020F6
:102AB000FEF780FD7420FEF77DFD0020FEF77AFD15
:102AC0008420FEF777FD0020FEF774FD9320FEF7CB
:102AD00071FD0020FEF76EFDA220FEF76BFD0020C9
:102AE000FEF768FDB320FEF765FD0020FEF762FDEE
:102AF000BE20FEF75FFD0020FEF75CFDC420FEF760
:102B000059FD0020FEF756FDCD20FEF753FD0020B5
:102B1000FEF750FDD320FEF74DFD0020FEF74AFDE5
:102B2000DC20FEF747FD0020FEF744FDF320FEF712
:102B300041FD0020FEF73EFDE620FEF747FD112097
:102B4000FEF738FD0020FEF735FD3420FEF732FD9C
:102B50000020FEF72FFD5620FEF72CFD0020FEF78B
:102B600029FD7620FEF726FD0020FEF723FD7720C5
:102B7000FEF720FD0020FEF71DFD6620FEF71AFD82
:102B80000020FEF717FD8820FEF714FD0020FEF759
:102B900011FD9920FEF70EFD0020FEF70BFDBB2076
:102BA000FEF708FD0020FEF705FD9920FEF702FD67
:102BB0000020FEF7FFFC6620FEF7FCFC0020FEF77D
:102BC000F9FC5520FEF7F6FC0020FEF7F3FC55203B
:102BD000FEF7F0FC0020FEF7EDFC4520FEF7EAFCD6
:102BE0000020FEF7E7FC4320FEF7E4FC0020FEF7A0
:102BF000E1FC4420FEF7DEFC0020FEF7DBFCE720D2
:102C0000FEF7E4FC3220FEF7D5FC0020FEF7D2FCF4
:102C10005520FEF7CFFC0020FEF7CCFC7620FEF717
:102C2000C9FC0020FEF7C6FC6620FEF7C3FC0020AE
:102C3000FEF7C0FC6720FEF7BDFC0020FEF7BAFCE3
:102C40006720FEF7B7FC0020FEF7B4FC8720FEF7F4
:102C5000B1FC0020FEF7AEFC9920FEF7ABFC002093
:102C6000FEF7A8FCBB20FEF7A5FC0020FEF7A2FCA7
:102C70009920FEF79FFC0020FEF79CFC7720FEF7D2
:102C800099FC0020FEF796FC4420FEF793FC002000
:102C9000FEF790FC5620FEF78DFC0020FEF78AFC24
:102CA0002320FEF787FC0020FEF784FC3320FEF78C
:102CB00081FC0020FEF77EFC4520FEF77BFC002017
:102CC000FEF778FCE820FEF781FC0020FEF772FC9E
:102CD0000020FEF76FFC9920FEF76CFC0020FEF749
:102CE00069FC8720FEF766FC0020FEF763FC882065
:102CF000FEF760FC0020FEF75DFC7720FEF75AFC33
:102D00000020FEF757FC6620FEF754FC0020FEF77B
:102D100051FC8820FEF74EFC0020FEF74BFCAA2059
:102D2000FEF748FC0020FEF745FCBB20FEF742FC06
:102D30000020FEF73FFC9920FEF73CFC0020FEF748
:102D400039FC6620FEF736FC0020FEF733FC5520E8
:102D5000FEF730FC0020FEF72DFC5520FEF72AFC84
:102D60000020FEF727FC4420FEF724FC0020FEF79D
:102D700021FC4420FEF71EFC0020FEF71BFC552022
:102D8000FEF718FC0020FEF715FCE920FEF71EFCFC
:102D9000AA20FEF70FFC0020FEF70CFC0020FEF737
:102DA00009FC0020FEF706FC0020FEF70FFCAA201D
:102DB000FEF700FCCF20FEF709FC0020FEF7FAFB2F
:102DC0000020FEF7F7FB0020FEF7F4FB0020FEF7E3
:102DD000F1FB0020FEF7EEFB0020FEF7EBFB0020EE
:102DE000FEF7E8FB0020FEF7E5FB0020FEF7E2FB24
:102DF0000020FEF7DFFB0020FEF7DCFB0020FEF7E3
:102E0000D9FB0020FEF7D6FB0020FEF7D3FB002005
:102E1000FEF7D0FB0020FEF7CDFB0020FEF7CAFB3B
:102E2000F020FEF7D3FB0020FEF7C4FB5020FEF796
:102E3000C1FB0020FEF7BEFB0020FEF7BBFB00201D
:102E4000FEF7B8FBF320FEF7C1FB0020FEF7B2FB54
:102E5000F920FEF7BBFB0620FEF7ACFB1020FEF7C7
:102E6000A9FB2920FEF7A6FB0020FEF7A3FB3A20D2
:102E7000FEF7ACFB5520FEF79DFB1120FEF7A6FBED
:102E80006420FEF701FE2920FEF7A0FB3520FEF7A7
:102E90009DFB0020FEF78EFB5120FEF797FBFF20E5
:102EA000FEF788FB5320FEF791FB2C20FEF782FBF8
:102EB0005520FEF78BFB8220FEF77CFB2C20FEF7D3
:102EC00085FBFDE3B0427DD155214FF47040FEF704
:102ED00093FBAA214FF20100FEF78EFB52214FF225
:102EE0000200FEF789FB4FF2030308211846FEF7A4
:102EF00083FB4FF2040B01215846FEF77DFB0D21A9
:102F00004FF43040FEF778FB0D214BF20100FEF745
:102F100073FB0D214BF20200FEF76EFB34214FF4E0
:102F20003640FEF769FB34214BF20160FEF764FB8B
:102F300034214BF20260FEF75FFB0D214FF431406C
:102F4000FEF75AFB0D214BF20110FEF755FB0D2148
:102F50004BF20210FEF750FB34214FF43740FEF7DE
:102F60004BFB34214BF20170FEF746FB34214BF250
:102F70000270FEF741FB00214FF43240FEF73CFBAC
:102F800000214BF20120FEF737FB00214BF202201B
:102F9000FEF732FB24214FF43840FEF72DFB2421AD
:102FA0004BF60100FEF728FB24214BF60200FEF74A
:102FB00023FB01214FF43F40FEF71EFB0F214FF48E
:102FC000334000E0FEE3FEF717FB0F214BF2013028
:102FD000FEF712FB0F214BF20230FEF70DFB3421FE
:102FE0004FF43940FEF708FB34214BF60110FEF791
:102FF00003FB34214BF60210FEF7FEFA08214FF4D2
:103000003540FEF7F9FA08214BF20150FEF7F4FAC9
:1030100008214BF20250FEF7EFFA03214FF4424031
:10302000FEF7EAFA24214FF43A40FEF7E5FA2421AC
:103030004BF60120FEF7E0FA24214BF60220FEF7C2
:10304000DBFA00214FF43C40FEF7D6FA78214BF62C
:103050000140FEF7D1FA00214BF60240FEF7CCFA10
:1030600000214FF43D40FEF7C7FA78214BF601509E
:10307000FEF7C2FA00214BF60250FEF7BDFA00211E
:103080004FF43E40FEF7B8FA64214BF60160FEF7BC
:10309000B3FA00214FF45140FEF7AEFA33214DF25E
:1030A0000110FEF7A9FA00214DF20210FEF7A4FA72
:1030B00034214DF20310FEF79FFA00214DF2041067
:1030C000FEF79AFA3A214DF20510FEF795FA002123
:1030D0004DF20610FEF790FA4A214DF20710FEF766
:1030E0008BFA00214DF20810FEF786FA5C214DF2B2
:1030F0000910FEF781FA00214DF20A10FEF77CFA62
:1031000081214DF20B10FEF777FA00214DF20C10E1
:10311000FEF772FAA6214DF20D10FEF76DFA0021AE
:103120004DF20E10FEF768FAE5214DF20F10FEF792
:1031300063FA01214DF21010FEF75EFA13214DF2F1
:103140001110FEF759FA01214DF21210FEF754FA50
:1031500054214DF21310FEF74FFA01214DF21410D5
:10316000FEF74AFA82214DF21510FEF745FA0121C9
:103170004DF21610FEF740FACA214DF21710FEF775
:103180003BFA02214DF21810FEF736FA00214DF2FB
:103190001910FEF731FA02214DF21A10FEF72CFA3F
:1031A00001214DF21B10FEF727FA02214DF21C10EF
:1031B000FEF722FA34214DF21D10FEF71DFA02210E
:1031C0004DF21E10FEF718FA67214DF21F10FEF7A0
:1031D00013FA02214DF22010FEF70EFA84214DF26F
:1031E0002110FEF709FA02214DF22210FEF704FA2F
:1031F000A4214DF22310FEF7FFF902214DF2241015
:10320000FEF7FAF9B7214DF22510FEF7F5F9022184
:103210004DF22610FEF7F0F9CF214DF22710FEF700
:10322000EBF902214DF22810FEF7E6F9DE214DF20E
:103230002910FEF7E1F902214DF22A10FEF7DCF920
:10324000F2214DF22B10FEF7D7F902214DF22C108E
:10325000FEF7D2F9FE214DF22D10FEF7CDF9032134
:103260004DF22E10FEF7C8F910214DF22F10FEF787
:10327000C3F903214DF23010FEF7BEF933214DF2B0
:103280003110FEF7B9F903214DF23210FEF7B4F90F
:103290006D214DF23310FEF7AFF900214FF452408B
:1032A000FEF7AAF933214DF20120FEF7A5F900211E
:1032B0004DF20220FEF7A0F934214DF20320FEF773
:1032C0009BF900214DF20420FEF796F93A214DF2C8
:1032D0000520FEF791F900214DF20620FEF78CF94A
:1032E0004A214DF20720FEF787F900214DF2082010
:1032F000FEF782F95C214DF20920FEF77DF90021ED
:103300004DF20A20FEF778F981214DF20B20FEF7ED
:1033100073F900214DF20C20FEF76EF9A6214DF253
:103320000D20FEF769F900214DF20E20FEF764F939
:10333000E5214DF20F20FEF75FF901214DF210203B
:10334000FEF75AF913214DF21120FEF755F901212C
:103350004DF21220FEF750F954214DF21320FEF7E2
:103360004BF901214DF21420FEF746F982214DF26E
:103370001520FEF741F901214DF21620FEF73CF928
:10338000CA214DF21720FEF737F902214DF218201D
:10339000FEF732F900214DF21920FEF72DF9022136
:1033A0004DF21A20FEF728F901214DF21B20FEF7FD
:1033B00023F902214DF21C20FEF71EF934214DF2B3
:1033C0001D20FEF719F902214DF21E20FEF714F917
:1033D00067214DF21F20FEF70FF902214DF2202048
:1033E000FEF70AF984214DF22120FEF705F90221AA
:1033F0004DF22220FEF700F9A4214DF22320FEF722
:10340000FBF802214DF22420FEF7F6F8B7214DF229
:103410002520FEF7F1F802214DF22620FEF7ECF808
:10342000CF214DF22720FEF7E7F802214DF22820A8
:10343000FEF7E2F8DE214DF22920FEF7DDF8022149
:103440004DF22A20FEF7D8F8F2214DF22B20FEF79C
:10345000D3F802214DF22C20FEF7CEF8FE214DF2DA
:103460002D20FEF7C9F803214DF22E20FEF7C4F8F7
:1034700010214DF22F20FEF7BFF803214DF230202E
:10348000FEF7BAF833214DF23120FEF7B5F80321EB
:103490004DF23220FEF7B0F86D214DF23320FEF7E9
:1034A000ABF800214FF45340FEF7A6F833214DF25C
:1034B0000130FEF7A1F800214DF20230FEF79CF832
:1034C00034214DF20330FEF797F800214DF204301D
:1034D000FEF792F83A214DF20530FEF78DF8002103
:1034E0004DF20630FEF788F84A214DF20730FEF71C
:1034F00083F800214DF20830FEF77EF85C214DF292
:103500000930FEF779F800214DF20A30FEF774F821
:1035100081214DF20B30FEF76FF800214DF20C3097
:10352000FEF76AF8A6214DF20D30FEF765F800218E
:103530004DF20E30FEF760F8E5214DF20F30FEF748
:103540005BF801214DF21030FEF756F813214DF2D1
:103550001130FEF751F801214DF21230FEF74CF810
:1035600054214DF21330FEF747F801214DF214308B
:10357000FEF742F882214DF21530FEF73DF80121A9
:103580004DF21630FEF738F8CA214DF21730FEF72B
:1035900033F802214DF21830FEF72EF800214DF2DB
:1035A0001930FEF729F802214DF21A30FEF724F8FF
:1035B00001214DF21B30FEF71FF802214DF21C30A5
:1035C000FEF71AF834214DF21D30FEF715F80221EE
:1035D0004DF21E30FEF710F867214DF21F30FEF756
:1035E0000BF802214DF22030FEF706F884214DF24F
:1035F0002130FEF701F802214DF22230FDF7FCFFE9
:10360000A4214DF22330FDF7F7FF02214DF22430C3
:10361000FDF7F2FFB7214DF22530FDF7EDFF022156
:103620004DF22630FDF7E8FFCF214DF22730FDF7B0
:10363000E3FF02214DF22830FDF7DEFFDE214DF2DF
:103640002930FDF7D9FF02214DF22A30FDF7D4FFD2
:10365000F2214DF22B30FDF7CFFF02214DF22C303D
:10366000FDF7CAFFFE214DF22D30FDF7C5FF032106
:103670004DF22E30FDF7C0FF10214DF22F30FDF737
:10368000BBFF03214DF23030FDF7B6FF33214DF281
:103690003130FDF7B1FF03214DF23230FDF7ACFFC1
:1036A0006D214DF23330FDF7A7FF00214FF4544058
:1036B000FDF7A2FF33214DF20140FDF79DFF00E031
:1036C00084E300214DF20240FDF796FF34214DF2D4
:1036D0000340FDF791FF00214DF20440FDF78CFF00
:1036E0003A214DF20540FDF787FF00214DF20640DB
:1036F000FDF782FF4A214DF20740FDF77DFF0021D3
:103700004DF20840FDF778FF5C214DF20940FDF7CE
:1037100073FF00214DF20A40FDF76EFF81214DF24B
:103720000B40FDF769FF00214DF20C40FDF764FFEF
:10373000A6214DF20D40FDF75FFF00214DF20E4036
:10374000FDF75AFFE5214DF20F40FDF755FF01212E
:103750004DF21040FDF750FF13214DF21140FDF7DF
:103760004BFF01214DF21240FDF746FF54214DF26F
:103770001340FDF741FF01214DF21440FDF73CFFDE
:1037800082214DF21540FDF737FF01214DF2164021
:10379000FDF732FFCA214DF21740FDF72DFF022140
:1037A0004DF21840FDF728FF00214DF21940FDF7BA
:1037B00023FF02214DF21A40FDF71EFF01214DF2B9
:1037C0001B4000E003E3FDF717FF02214DF21C4010
:1037D000FDF712FF34214DF21D40FDF70DFF0221D0
:1037E0004DF21E40FDF708FF67214DF21F40FDF727
:1037F00003FF02214DF22040FDF7FEFE84214DF231
:103800002140FDF7F9FE02214DF22240FDF7F4FEC2
:10381000A4214DF22340FDF7EFFE02214DF224409A
:10382000FDF7EAFEB7214DF22540FDF7E5FE022146
:103830004DF22640FDF7E0FECF214DF22740FDF787
:10384000DBFE02214DF22840FDF7D6FEDE214DF2CF
:103850002940FDF7D1FE02214DF22A40FDF7CCFEB2
:10386000F2214DF22B40FDF7C7FE02214DF22C4014
:10387000FDF7C2FEFE214DF22D40FDF7BDFE0321F6
:103880004DF22E40FDF7B8FE10214DF22F40FDF70E
:10389000B3FE03214DF23040FDF7AEFE33214DF271
:1038A0003140FDF7A9FE03214DF23240FDF7A4FEA1
:1038B0006D214DF23340FDF79FFE00214FF455403E
:1038C000FDF79AFE33214DF20150FDF795FE0021E0
:1038D0004DF20250FDF790FE34214DF20350FDF7FA
:1038E0008BFE00214DF20450FDF786FE3A214DF289
:1038F0000550FDF781FE00214DF20650FDF77CFEDC
:103900004A214DF20750FDF777FE00214DF2085095
:10391000FDF772FE5C214DF20950FDF76DFE0021AE
:103920004DF20A50FDF768FE81214DF20B50FDF774
:1039300063FE00214DF20C50FDF75EFEA6214DF214
:103940000D50FDF759FE00214DF20E50FDF754FECB
:10395000E5214DF20F50FDF74FFE01214DF21050C1
:10396000FDF74AFE13214DF21150FDF745FE0121EE
:103970004DF21250FDF740FE54214DF21350FDF769
:103980003BFE01214DF21450FDF736FE82214DF22F
:103990001550FDF731FE01214DF21650FDF72CFEBA
:1039A000CA214DF21750FDF727FE02214DF21850A3
:1039B000FDF722FE00214DF21950FDF71DFE0221F8
:1039C0004DF21A50FDF718FE01214DF21B50FDF784
:1039D00013FE02214DF21C50FDF70EFE34214DF274
:1039E0001D50FDF709FE02214DF21E50FDF704FEA9
:1039F00067214DF21F50FDF7FFFD02214DF22050CF
:103A0000FDF7FAFD84214DF22150FDF7F5FD02216D
:103A10004DF22250FDF7F0FDA4214DF22350FDF7A9
:103A2000EBFD02214DF22450FDF7E6FDB7214DF2EA
:103A30002550FDF7E1FD02214DF22650FDF7DCFD9A
:103A4000CF214DF22750FDF7D7FD02214DF228502E
:103A5000FDF7D2FDDE214DF22950FDF7CDFD02210B
:103A60004DF22A50FDF7C8FDF2214DF22B50FDF723
:103A7000C3FD02214DF22C50FDF7BEFDFE214DF29B
:103A80002D50FDF7B9FD03214DF22E50FDF7B4FD89
:103A900010214DF22F50FDF7AFFD03214DF23050B4
:103AA000FDF7AAFD33214DF23150FDF7A5FD0321AD
:103AB0004DF23250FDF7A0FD6D214DF23350FDF770
:103AC0009BFD00214FF45640FDF796FD33214DF24A
:103AD0000160FDF791FD00214DF20260FDF78CFDC4
:103AE00034214DF20360FDF787FD00214DF20460A3
:103AF000FDF782FD3A214DF20560FDF77DFD0021C5
:103B00004DF20660FDF778FD4A214DF20760FDF7A2
:103B100073FD00214DF20860FDF76EFD5C214DF252
:103B20000960FDF769FD00214DF20A60FDF764FDB3
:103B300081214DF20B60FDF75FFD00214DF20C601D
:103B4000FDF75AFDA6214DF20D60FDF755FD002150
:103B50004DF20E60FDF750FDE5214DF20F60FDF7CF
:103B60004BFD01214DF21060FDF746FD13214DF292
:103B70001160FDF741FD01214DF21260FDF73CFDA2
:103B800054214DF21360FDF737FD01214DF2146011
:103B9000FDF732FD82214DF21560FDF72DFD01216B
:103BA0004DF21660FDF728FDCA214DF21760FDF7B2
:103BB00023FD02214DF21860FDF71EFD00214DF29C
:103BC0001960FDF719FD02214DF21A60FDF714FD91
:103BD00001214DF21B60FDF70FFD02214DF21C602B
:103BE000FDF70AFD34214DF21D60FDF705FD0221B0
:103BF0004DF21E60FDF700FD67214DF21F60FDF7DD
:103C0000FBFC02214DF22060FDF7F6FC84214DF211
:103C10002160FDF7F1FC02214DF22260FDF7ECFC82
:103C2000A4214DF22360FDF7E7FC02214DF2246050
:103C3000FDF7E2FCB7214DF22560FDF7DDFC022126
:103C40004DF22660FDF7D8FCCF214DF22760FDF73D
:103C5000D3FC02214DF22860FDF7CEFCDE214DF2AF
:103C60002960FDF7C9FC02214DF22A60FDF7C4FC72
:103C7000F2214DF22B60FDF7BFFC02214DF22C60CA
:103C8000FDF7BAFCFE214DF22D60FDF7B5FC0321D6
:103C90004DF22E60FDF7B0FC10214DF22F60FDF7C4
:103CA000ABFC03214DF23060FDF7A6FC33214DF251
:103CB0003160FDF7A1FC03214DF23260FDF79CFC61
:103CC0006D214DF23360FDF797FC55214FF47040A4
:103CD000FDF792FCAA214FF20100FDF78DFC522165
:103CE0004FF20200FDF788FC08211846FDF784FC1E
:103CF00000215846FDF780FCCC214FF43140FDF700
:103D00007BFC00214BF20110FDF776FC05214FF4FE
:103D10003640FDF771FC70214FF43740FDF76CFC25
:103D200070214BF20170FDF767FC01214FF4384020
:103D3000FDF762FC03214BF60100FDF75DFC03215A
:103D40004BF60200FDF758FC03214BF60300FDF78C
:103D500053FC02214FF43C40FDF74EFC00214BF692
:103D60000140FDF749FC00214BF60240FDF744FC01
:103D7000D0214FF44940FDF73FFC02214CF60110E1
:103D8000FDF73AFC50214CF60210FDF735FC5021AE
:103D90004CF60310FDF730FC50214CF60410FDF7F3
:103DA0002BFC00214FF45450FDF726FC55214FF415
:103DB0006850FDF721FC4FF48850FDF707FC782090
:103DC000FDF762FE4FF42450FDF700FCB9E04045DA
:103DD000FCD1E220FDF7FAFB1D20FDF7EBFB0220F2
:103DE000FDF7E8FB0420FDF7E5FB6420FDF74CFE42
:103DF000E020FDF7EBFB0120FDF7DCFB0A20FDF7DF
:103E000029FEE020FDF7E2FB0320FDF7D3FB0C20A9
:103E1000FDF720FE0120FDF7D9FB0A20FDF71AFE71
:103E2000E620FDF7D3FB2F20FDF7C4FBFF20FDF7B5
:103E3000C1FBFF20FDF7BEFBB020FDF7C7FB202034
:103E4000FDF7B8FB0020FDF7B5FB0320FDF7B2FB43
:103E500040F21F30FDF7AEFB0120FDF7ABFB40F257
:103E6000DF10FDF7A7FB0020FDF7A4FBB420FDF752
:103E7000ADFB0420FDF79EFB40F21F40FDF79AFBCF
:103E80000020FDF797FB2E20FDF794FB0020FDF7A7
:103E900091FB0020FDF78EFB0020FDF78BFB00203F
:103EA000FDF788FBB620FDF791FB0220FDF782FBB2
:103EB0004FF40370FDF77EFB0020FDF77BFB17201E
:103EC000FDF778FB1520FDF775FB0020FDF772FB71
:103ED0000020FDF76FFBF020FDF778FB0320FDF7D6
:103EE00069FB2920FDF772FBD020FDF76FFB002056
:103EF000FDF760FBBE20FDF769FB0520FDF75AFBCF
:103F0000FE20FDF757FB0120FDF754FB0020FDF7D5
:103F100051FB0020FDF74EFB0020FDF74BFBB820C6
:103F2000FDF754FB0320FDF745FB0120FDF742FBA5
:103F3000BA20FDF74BFB0120FDF73CFB6420FDF7A9
:103F400015F9A888504507D0A04205D0B84203D043
:103F5000B04201D040451DD115490A6822F00F0238
:103F60000A600A6822F470620A600A6842F003027A
:103F70000A60A1F58E71A04206D1D1F81C0140F46F
:103F80004070C1F81C0105E0D1F81C0140F400703C
:103F9000C1F81C010020FDF709F80122D1030548F2
:103FA000FCF74EFC4846BDE8F05FFCF7E5BF0000BB
:103FB0001C0100A000040240FCF758FCFDF788FC3F
:103FC000FDF7CCFBFDF736FCFDF782FBFDF7D2FCDD
:103FD000FDF7F6FCFCE70000000000000000010215
:103FE00003040607080900000000000000000000AC
:103FF0000000000000003F40000000000000000042
:104000003000400030004000000009000BC03D00BF
:104010000BC03D00090018C024407FE022403180E1
:104020000000180024C01B000D8032400180038076
:104030001C4027401C80074000401000600000002A
:104040000000000000000000000000001F80204071
:1040500040200000402020401F8000000000090098
:1040600006001F80060009000000040004003F80D5
:1040700004000400000000100060000000000000C8
:10408000000004000400040004000400000000001C
:1040900000400000000000000000002001C00600F9
:1040A0003800400000001F802040204020401F803A
:1040B0000000000010403FC000400000000018C099
:1040C000214022402440184000001080204024401D
:1040D00024401B80000002000D0011003FC0014081
:1040E00000003C80244024402440238000001F80A6
:1040F000244024403440038000003000200027C0CA
:104100003800200000001B802440244024401B80F5
:1041100000001C0022C0224022401F80000000003E
:1041200000000840000000000000000000000460E3
:10413000000000000000000004000A0011002080C0
:1041400040400900090009000900090000000000C2
:104150004040208011000A00040018002000234085
:104160002400180000001F802040274029401F40E5
:104170000000004007C039000F0001C0004020408F
:104180003FC0244024401B8000001F80204020406E
:1041900020403080000020403FC0204020401F8051
:1041A000000020403FC024402E4030C0000020408E
:1041B0003FC024402E00300000000F00108020403F
:1041C00022403380020020403FC0040004003FC072
:1041D0002040204020403FC02040204000000060A0
:1041E000202020203FC02000200020403FC024404D
:1041F0000B0030C0204020403FC020400040004025
:1042000000C03FC03C0003C03C003FC00000204055
:104210003FC00C4023003FC020001F8020402040B2
:1042200020401F80000020403FC024402400180090
:1042300000001F802140214020E01FA000002040FE
:104240003FC02440260019C0004018C0244024402C
:10425000224031800000300020403FC0204030002C
:10426000000020003F80004000403F8020002000F0
:104270003E0001C0070038002000380007C03C00A5
:1042800007C038000000204039C0060039C0204077
:1042900000002000384007C03840200000003040B7
:1042A00021C02640384020C00000000000007FE010
:1042B000402040200000000070000C0003800040FF
:1042C00000000000402040207FE0000000000000CF
:1042D000200040002000000000000010001000102E
:1042E000001000100010000000004000000000005E
:1042F0000000000002800540054003C0004020008F
:104300003FC00440044003800000000003800440DC
:1043100004400640000000000380044024403FC0E9
:1043200000400000038005400540034000000000FD
:1043300004401FC0244024402000000002E005503B
:1043400005500650042020403FC00440040003C034
:1043500000400000044027C00040000000000010A2
:104360000010041027E00000000020403FC0014082
:10437000070004C00440204020403FC000400040EF
:10438000000007C0040007C0040003C00000044090
:1043900007C00440040003C0004000000380044044
:1043A000044003800000041007F004500440038020
:1043B0000000000003800440045007F00010044097
:1043C00007C0024004000400000000000640054051
:1043D000054004C00000000004001F8004400040AD
:1043E0000000040007800040044007C000400400B3
:1043F000070004C0018006000400060001C0070099
:1044000001C006000000044006C0010006C00440D0
:1044100000000410071004E0018006000400000002
:10442000044005C0064004400000000000000400F5
:104430007BE040200000000000000000FFF00000D2
:104440000000000040207BE004000000000040006D
:10445000800040002000200040000000000000001C
:10446000000000000000000000000000000000004C
:104470001FCC000C0000000000000000080030000D
:1044800060000800300060000000022003FC1E20D5
:10449000022003FC1E200220000000000E18110460
:1044A0003FFF10840C78000000000F0010840F38CC
:1044B00000C0077818840078000000780F8410C4CA
:1044C00011240E9800E400840008080068007000C1
:1044D00000000000000000000000000000000000DC
:1044E00007E01818200440020000000040022004E9
:1044F000181807E0000000000000024002400180A0
:104500000FF0018002400240000000800080008027
:104510000FF800800080008000000001000D000EF8
:10452000000000000000000000000000008000808B
:10453000008000800080008000800000000C000CE3
:10454000000000000000000000000000000600184D
:1045500000600180060018002000000007F0080835
:1045600010041004080807F0000000000804080404
:104570001FFC000400040000000000000E0C1014DA
:104580001024104411840E0C000000000C181004BC
:104590001104110412880C700000000000E00320D8
:1045A000042408241FFC0024000000001F9810842D
:1045B00011041104108810700000000007F0088832
:1045C0001104110418880070000000001C00100085
:1045D00010FC13001C001000000000000E381144F5
:1045E0001084108411440E38000000000700088C6D
:1045F00010441044088807F000000000000000008C
:10460000030C030C0000000000000000000000018B
:1046100001060000000000000000000000800140D2
:1046200002200410080810040000022002200220CA
:1046300002200220022002200000000010040808CE
:104640000410022001400080000000000E00120053
:10465000100C106C10800F00000003E00C1813E425
:10466000142417C4082807D000000004003C03C429
:104670001C40074000E4001C000410041FFC11044F
:10468000110411040E880070000003E00C181004DF
:104690001004100410081C10000010041FFC10046B
:1046A00010041004080807F0000010041FFC110497
:1046B000110417C410040818000010041FFC110492
:1046C000110017C010000800000003E00C181004CF
:1046D000100410441C780040000010041FFC1084DB
:1046E0000080008010841FFC1004000010041004DF
:1046F0001FFC100410040000000000030001100162
:1047000010011FFE10001000000010041FFC110417
:1047100003801464181C1004000010041FFC100413
:10472000000400040004000C000010041FFC1F0023
:1047300000FC1F001FFC1004000010041FFC0C04F0
:10474000030000E010181FFC100007F00808100418
:1047500010041004080807F0000010041FFC108467
:104760001080108010800F00000007F0081810243F
:104770001024101C080A07F2000010041FFC11048A
:10478000110011C011300E0C000400000E1C1104A9
:104790001084108410441C3800001800100010040D
:1047A0001FFC100410001800000010001FF8100477
:1047B0000004000410041FF8100010001E0011E097
:1047C000001C007013801C0010001FC0103C00E093
:1047D0001F0000E0103C1FC000001004180C16342D
:1047E00001C001C01634180C100410001C00130482
:1047F00000FC13041C00100000000804101C1064CE
:10480000108413041C0410180000000000000000B5
:104810007FFE4002400240020000000030000C0019
:1048200003800060001C0003000000004002400202
:1048300040027FFE00000000000000000000200099
:104840004000400040002000000000010001000185
:1048500000010001000100010001000040004000D3
:10486000200000000000000000000000009801246B
:1048700001440144014400FC000410001FFC0088B6
:10488000010401040088007000000000007000882E
:104890000104010401040088000000000070008889
:1048A0000104010411081FFC0004000000F8014489
:1048B00001440144014400C8000000000104010457
:1048C0000FFC1104110411001800000000D601298A
:1048D0000129012901C90106000010041FFC008400
:1048E00001000100010400FC00040000010419049F
:1048F00019FC000400040000000000000003000197
:104900000101190119FE0000000010041FFC002421
:10491000004001B4010C0104000000001004100468
:104920001FFC0004000400000000010401FC01045D
:10493000010001FC0104010000FC010401FC0084F1
:1049400001000100010400FC0004000000F8010463
:1049500001040104010400F80000010101FF0085C9
:10496000010401040088007000000000007000884D
:1049700001040104010501FF00010104010401FC1F
:1049800000840104010001800000000000CC01242B
:10499000012401240124019800000000010001000D
:1049A00007F80104010400000000010001F8000400
:1049B00000040004010801FC0004010001800170F2
:1049C000000C001001600180010001F0010C0030BA
:1049D00001C00030010C01F0010000000104018C55
:1049E00000740170018C010400000101018101715A
:1049F000000E001801600180010000000184010C1C
:104A0000013401440184010C00000000000000009A
:104A1000000001003EFC40024002000000000000D7
:104A20000000FFFF00000000000000004002400204
:104A30003EFC01000000000000000000600080005B
:104A40008000400040002000200000000000000026
:104A50000000000000000000000000000000000056
:104A60000000000000000000000000000000000046
:104A7000000000000000000000000000000F80386F
:104A80000FFE380F8038000000000000000000001A
:104A900000000000000000000100000600000C0003
:104AA000003800003100000600000C000038000053
:104AB0003000000000000000000061800067F8077F
:104AC000F980006180006180006180006180006782
:104AD000F807F9800061800000000000000000007D
:104AE00001C0E003E0F00630080418081FFFFE04D0
:104AF0000E080787F00381E000000000000001F0CD
:104B000000060C00040408060C7001F9C0000E0039
:104B1000003BE000EC18070808040C180003E00054
:104B200000000001E00007F003F818041C08041757
:104B30000807E1D003C0E00023B0003C08002008D3
:104B400000001000000000000001000031000032F1
:104B500000001C0000000000000000000000000039
:104B60000000000000000000000000000000000045
:104B7000000000000000000000007F0001FFC007EF
:104B800080F00C001810000420000200000000005B
:104B9000002000021000040C00180780F001FFC084
:104BA000007F000000000000000000000000000086
:104BB0000000000000004200006600006600003CAB
:104BC0000000180003FFC0001800003C0000660051
:104BD000006600004200000000000800000800001D
:104BE000080000080000080001FFC00008000008DD
:104BF000000008000008000008000000000000019C
:104C000000003100003200001C0000000000000025
:104C10000000000000000000000000000000000094
:104C2000000008000008000008000008000008005C
:104C3000000800000800000800000800000800004C
:104C400000000000000000000000380000380000F4
:104C5000380000000000000000000000000000001C
:104C600000000000000000000000000600001C0022
:104C70000070000180000E0000380000C000070036
:104C8000001C0000300000000000000000007F80D9
:104C900001FFE00380700600180400080400080605
:104CA000001803807001FFE0007F8000000000001A
:104CB0000000000001000801000801000803FFF8DF
:104CC00007FFF800000800000800000800000000CE
:104CD000000000000001C03802C058040098040120
:104CE00018040218040418061C1803F81801E0F848
:104CF00000000000000000000001C0E003C0F0045C
:104D0000000804080804080806180803F41801E756
:104D1000F00001E0000000000000000000000300BF
:104D2000000D000011000061000081080301080768
:104D3000FFF80FFFF8000108000108000000000064
:104D4000000000E007FCD00608080610080610085E
:104D5000061008061838060FF00607C0000000000D
:104D60000000000000003F8001FFE00384300208E3
:104D700018041008041008041008071810030FF096
:104D80000007C000000000000000000003C0000792
:104D900000000600000600F80607F806180006E006
:104DA0000007000006000000000000000001E1E034
:104DB00003F7F0063410041808041808040C08045B
:104DC0000C0806161803F3F001C1E0000000000013
:104DD0000000F80003FC300306380402080402084F
:104DE0000402080404100308F001FFC0007F000063
:104DF00000000000000000000000000000000000B3
:104E000000007038007038007038000000000000AA
:104E10000000000000000000000000000000000092
:104E2000000000000000301A00301C0000000000EC
:104E30000000000000000000000000000000000072
:104E400000080000140000220000410000808001E2
:104E500000400200200400100800080000000000CC
:104E6000000021000021000021000021000021009D
:104E7000002100002100002100002100002100008D
:104E800000000000000000000800080400100200FC
:104E9000200100400080800041000022000014003A
:104EA00000080000000000000003C00004C000046F
:104EB0000000080038080F380808380810000C30C7
:104EC0000007E00003C000000000000000003F8079
:104ED00000FFE0038070020F1006708804C0880491
:104EE0008308047F8802C09003012000FE40000078
:104EF000080000180001F8003E0801C20007020087
:104F000007E20000FE00001FC80001F800003800A2
:104F1000000804000807FFF807FFF8040808040861
:104F20000804080804080806180803F41801E7F044
:104F30000001E0000000000000003F8001FFE003EE
:104F4000807002001804000804000804000804002F
:104F5000100600200780C000000004000807FFF8CA
:104F600007FFF80400080400080400080400180201
:104F7000001003807001FFE0007F8000000004004B
:104F80000807FFF807FFF8040808040808040808E1
:104F9000040808043E080400080600180100600028
:104FA000000004000807FFF807FFF80408080408D9
:104FB00000040800040800043E000600000600008B
:104FC000018000000000000000003F8001FFE003BE
:104FD0008070060018040008040208040208020396
:104FE000F00783F000020000020004000807FFF849
:104FF00007FFF80408080008000008000008000087
:10500000080004080807FFF807FFF804000800007C
:105010000000000004000804000804000807FFF86E
:1050200007FFF8040008040008040008000000005E
:10503000000000000000000600000700000104005E
:105040000104000104000307FFFE07FFFC04000049
:1050500004000004000004000807FFF807FFF8043C
:105060000C08001800003E0004C7800503C80600B5
:10507000F804003804001800000804000807FFF8CE
:1050800007FFF804000800000800000800000800FE
:105090000008000008000018000060000000040084
:1050A0000807FFF807800807FC00007FC00003F82E
:1050B0000007C000780007800807FFF807FFF80422
:1050C000000804000807FFF807000803C00000E01C
:1050D00000003800001E000007000001C00400F0BE
:1050E00007FFF8040000000000007F8001FFE003DC
:1050F0008070060018040008040008060018030069
:105100003001FFE0007F8000000004000807FFF886
:1051100007FFF80404080404000404000404000465
:105120000400060C0003F80001F00000000000007D
:1051300000007F8001FFE003807006008804008883
:105140000400C806003C03003E01FFE6007F840027
:10515000000004000807FFF807FFF8040808040827
:1051600000040C00040F00040BC00610F003F0381C
:1051700001E00800000800000001E0F803F030063C
:105180003010041808041808040C08040C0802065F
:10519000180207F00781E00000000180000600000F
:1051A00004000004000004000807FFF807FFF804EB
:1051B0000008040000040000060000018000040054
:1051C0000007FFE007FFF0040018000008000008D7
:1051D00000000800000800000804001007FFE004B9
:1051E000000004000006000007E00007FE00041FA6
:1051F000E00001F80000380001E0043E0007C000B4
:1052000006000004000004000007E00007FFC004DF
:105210001FF80007C007F80007FF80043FF80007E9
:10522000C004F800070000040000000000040008AB
:1052300006001807C07805F1C8003E00001F800472
:1052400063E80780F8060018040008000000040066
:105250000006000007800007E008047C08001FF833
:105260000007F800180804E0080700000600000422
:1052700000000000000100080600380400F80403E4
:10528000E8040F08047C0805F00807C008070018A8
:1052900004006000000000000000000000000000AA
:1052A00000000000003FFFFE20000220000220005E
:1052B00002200002200002000000000000000000A8
:1052C00008000007000000C00000380000060000D1
:1052D00001C000003000000E0000010000000000CE
:1052E0000000000020000220000220000220000236
:1052F0002000023FFFFE0000000000000000000050
:105300000000000000000000000000080000100085
:1053100000300000200000300000100000080000F5
:10532000000000000000000001000001000001007A
:105330000001000001000001000001000001000068
:105340000100000100000100000100000000000059
:1053500000000020000020000010000010000000ED
:10536000000000000000000000000000000000003D
:10537000000000F00019F8001B18002208002608A1
:10538000002408002410003FF8001FF80000080067
:10539000001800000004000007FFF80FFFF00018DD
:1053A00018001008002008002008003018001FF026
:1053B000000FC00000000000000007C0001FF00048
:1053C0001830002008002008002008003C08001CBD
:1053D000100000600000000000000000000007C096
:1053E000001FF000381800200800200800200804E2
:1053F000101007FFF80FFFF0000010000000000081
:10540000000000000007C0001FF00012300022184A
:10541000002208002208003208001E10000E2000A2
:10542000000000000000200000200800200801FF0C
:10543000F803FFF8062008042008042008072000CD
:1054400003000000000000000000000E000E6E00CF
:105450001FF30031B10020B10020B1003191001FD5
:1054600013002E1E00200E00300000000004000873
:1054700007FFF80FFFF800100800200000200000D0
:105480002008003FF8001FF800000800000000009E
:1054900000000000002008002008002008063FF857
:1054A000063FF800000800000800000800000000A7
:1054B00000000000000000000000030000030020C6
:1054C00001002001002003063FFE063FFC00000013
:1054D00000000000000000000004000807FFF80FB3
:1054E000FFF8000188000300002FC00038F80020FA
:1054F0003800200800000800000000000000000044
:1055000004000804000804000807FFF80FFFF80073
:105510000008000008000008000000000000002053
:1055200008003FF8003FF8001008002000003FF896
:10553000003FF8001008002000003FF8003FF8008E
:105540000008000000002008003FF8003FF80010AD
:1055500008001000002000002008003FF8001FF89D
:105560000000080000000000000007C0000FF0006D
:10557000183000300800200800200800300800180B
:1055800030000FF00007C000000000000000200104
:10559000003FFF003FFF001011002009002008001D
:1055A0002008003038001FF0000FC000000000008D
:1055B000000007C0001FF000381800200800200875
:1055C000002009001011001FFF003FFF0000010034
:1055D0000000002008002008002008003FF8003FDD
:1055E000F800080800100800200800200000300023
:1055F000003000000000000000000000000C7800F7
:105600001E1800330800230800210800218800210B
:10561000980030F00038600000000000000020001A
:1056200000200000200000FFF003FFF80020080029
:1056300020080020080000300000000000000000EA
:1056400000002000003FF0007FF800001800000874
:10565000000008002010003FF8007FF0000010005C
:105660000000000000002000003000003C00003F6F
:10567000800023F0000078000070002380003C00D0
:10568000003000002000002000003C00003FE0004F
:1056900023F80000E0002700003E00003FE000216A
:1056A000F80001E0003E000020000000000020089B
:1056B000002008003838003E680027800003C8003A
:1056C0002CF80038380020180020080000000000E6
:1056D00000002000003003003C01003F830023EC69
:1056E000000070002380003C00002000002000002B
:1056F00000000000000000000038080020380020F2
:10570000F80023E8002F88003E0800380800201821
:105710000000700000000000000000000000000019
:1057200000000000000008000014001FF7FC30001B
:105730000620000200000000000000000000000041
:10574000000000000000000000000000FFFFFF005C
:105750000000000000000000000000000000000049
:10576000000000002000023000061FF7FC001400BB
:105770000008000000000000000000000000000021
:105780000000000000180000600000400000400021
:1057900000200000100000080000040000040000C9
:1057A0000C000010000000000000000000000000DD
:1057B00000000000000000000000000000000000E9
:1057C00000000000000000000000000000000000D9
:1057D00000000000000000000000000000000000C9
:1057E00000000000000000000000000000000000B9
:1057F00000000000000000000000000000000000A9
:105800000000000000000000000000000000000098
:105810000000000000000000000000000000000088
:105820000000000000000000000000000000000078
:10583000000000000000000000000000000007F071
:1058400000C007FFE1E007F001E0000000C0000039
:105850000000000000000000000000000000000048
:105860000000000000000000000000000000000038
:105870000000000000000000000000000000000028
:105880000000000000000000000000000000000018
:105890000000000000000000000000000000000008
:1058A00000000000000000000000000000000020D8
:1058B000000001C00000078000001F0000001E0063
:1058C00000001C20000001C00000078000001F0035
:1058D00000001E0000001C0000000000000000008E
:1058E00000000000000000000000000000000000B8
:1058F00000000000000000000000000000000000A8
:105900000000000000000000000000000000000097
:105910000000000000000000000000000000000087
:105920000000000000000000000000180C0000183B
:105930000C0000180FE0001FFC0003F80C0000181A
:105940000C0000180C0000180C0000180C000018C7
:105950000FE0001FFC0003F80C0000180C000018FA
:105960000C0000000000000000000000000000002B
:105970000000000000000000000000000000000027
:105980000000000000000000000000000000000017
:105990000000000000000000000000000000000007
:1059A00000000000000000000000000000000000F7
:1059B0000780007807C000FC0640010E00200307A6
:1059C0000020020380200FFFFFFC0201C020020024
:1059D000E0600130704001F03F8000F01F000000E7
:1059E00000000000000000000000000000000000B7
:1059F00000000000000000000000000000000000A7
:105A00000000000000000000000000000000000096
:105A10000000000000000000000000000000000086
:105A200000000000000000FE000001FF0000030174
:105A3000800002008060030181C001FF070000FEBA
:105A400018000000E0000003BF00000CFFC0007160
:105A5000806001C10020030180600000FFC00000E1
:105A60003F000000000000000000000000000000F7
:105A70000000000000000000000000000000000026
:105A80000000000000000000000000000000000016
:105A90000000000000000000000000000000000006
:105AA00000000000000000001F0000007FC000FC9C
:105AB000C0C001FF80600303E020020278200206DC
:105AC0001E2003FC074001F00380000103C0000119
:105AD0001C600001E02000010020000100400000E7
