:020000040800F2
:100000009007002039020008451E0008710C000806
:10001000411E0008310400087D2400080000000093
:100020000000000000000000000000003522000871
:100030004504000800000000B920000869220008FB
:10004000530200085302000853020008530200083C
:10005000530200085302000853020008530200082C
:10006000530200085302000853020008530200081C
:10007000530200085302000853020008530200080C
:100080005302000853020008530200080000000059
:100090000000000000000000000000005302000803
:1000A00053020008512400085302000853020008BC
:1000B00053020008530200085302000853020008CC
:1000C00053020008530200085302000853020008BC
:1000D00053020008592400085302000800000000E1
:1000E00053020008530200085302000800000000F9
:1000F00000000000000000000000000053020008A3
:1001000000000000530200085302000853020008D8
:1001100000000000000000000000000000000000DF
:10012000350400085302000839040008530200088F
:100130005302000800000000000000000000000062
:100140000000000000000000000000005302000852
:100150003D0400085302000841040008530200084F
:1001600053020008530200080000000000000000D5
:10017000000000000000000000000000000000007F
:100180000000000053020008000000000000000012
:10019000530200085302000800F002F800F03CF897
:1001A0000AA090E8000C82448344AAF10107DA45D2
:1001B00001D100F031F8AFF2090EBAE80F0013F0E8
:1001C000010F18BFFB1A43F001031847DC5D000064
:1001D000FC5D0000103A24BF78C878C1FAD85207F5
:1001E00024BF30C830C144BF04680C6070470000B1
:1001F0000023002400250026103A28BF78C1FBD830
:10020000520728BF30C148BF0B6070471FB502F0CE
:10021000A4FC1FBD10B510BD00F0D0F81146FFF7CB
:10022000F5FF02F083FC00F0EEF803B4FFF7F2FFF5
:1002300003BC00F0F5F80000094880470948004772
:10024000FEE7FEE7FEE7FEE7FEE7FEE7FEE7FEE786
:10025000FEE7FEE704480549054A064B70470000E3
:100260001123000899010008900100209007002048
:10027000900300209003002053EA020C00F06980F4
:100280002DE9F04B4FF00006002B1FBFB3FA83F5AA
:1002900003FA05F424FA05F65E4012BF1643B2FADB
:1002A00082F502FA05F4C5F120051EBF22FA05FC0D
:1002B00044EA0C04203556EA044C4FEA144418BFB3
:1002C000641C4FF000084FF00009904271EB030CE2
:1002D00039D3002919BFB1FA81F701FA07F6B0FA4C
:1002E00080F700FA07F6C7F120071EBF20FA07FCC7
:1002F00046EA0C062037B6FBF4FCA7EB0507103FD7
:1003000007F01F0BCBF120062CFA06F60CFA0BFBBC
:1003100044BFB3460026202FA4BF5E464FF0000B1B
:100320005BEA060C08BF4FF0010B19EB0B0948EB19
:100330000608ABFB027C06FB02CC0BFB03CCC01B0C
:1003400071EB0C01C1E70B46024641464846BDE849
:10035000F08B13B5084318BF4FF0FF300146AFF3E1
:100360000080BDE81C4070474FF0000200B5134606
:1003700094469646203922BFA0E80C50A0E80C50C5
:10038000B1F12001BFF4F7AF090728BFA0E80C5076
:1003900048BF0CC05DF804EB890028BF40F8042B6F
:1003A00008BF704748BF20F8022B11F0804F18BFDC
:1003B00000F8012B7047704770477047754600F092
:1003C0002BF8AE4605006946534620F007008546E7
:1003D00018B020B5FFF73EFFBDE820404FF0000603
:1003E0004FF000074FF000084FF0000BAC46ACE8B0
:1003F000C009ACE8C009ACE8C009ACE8C00921F00C
:1004000007018D46704710B50446AFF300802046C3
:10041000BDE81040FFF709BF0048704710000020FA
:1004200001491820ABBEFEE726000200704700001D
:10043000FEE70000704700007047000070470000B2
:100440007047000070470000EFF3108072B600BFE5
:10045000FEE7000044F2244040F27411C4F20100AF
:10046000C2F2000100680968C1EB0141084470470D
:10047000B0B5044600F0EAF8054640F20600C2F2C4
:1004800000000078611C18BF044400BF00F0DEF8D3
:10049000401BA042FAD3B0BD2DE9F04F83B000F16C
:1004A0003E4202F1FF724FEAB22241F2000701928E
:1004B000C4F2020707224FF0010E00254FF0000A98
:1004C0004FF00008B84208BF042200920AE000BFC3
:1004D00008F101080AF1040AB8F1100F05F102054C
:1004E00000F0A4800C680EFA08FB14EA0B09EFD0A8
:1004F0004C6804F0030CACF1010EBEF1010F11D8F1
:100500000322876802FA05F6CA68B743AA403A434D
:1005100082604268C4F3001722EA0B0207FA08F768
:100520003A434260BCF1030F1CD0C26803238E68BB
:1005300003FA05F7BA4306FA05F73A43BCF1020F8E
:10054000C2600FD16FF0030202EA580202440AF0BF
:100550001C060F23176A03FA06F40B69A743B3407E
:100560003B431362026803234F68AB409A4307F092
:100570000303AB401A4317F4403F4FF0010E0260F3
:10058000A6D0002243F644030292C4F202031A6882
:1005900043F6004442F480421A601A68C4F201042F
:1005A00002F480420292029A28F003024FF6084BAE
:1005B0002244CFF6FF7B52F80B300AF00C070F26CF
:1005C000BE4023EA060C019B009E042B38BF1E464A
:1005D00006FA07F747EA0C0342F80B30A2684B68AB
:1005E00042EA090743F60C4CDE0258BF22EA09072B
:1005F000A760C4F2010CDCF800209E0242EA090761
:1006000058BF22EA0907CCF8007062689E0342EAEC
:10061000090758BF22EA090767602268DB0342EA3C
:10062000090358BF22EA0903236051E703B0BDE87C
:10063000F08F00000069084018BF012070470000DB
:10064000002A08BF090481617047000040F2881049
:10065000C2F200000068704740F2060040F28811C4
:10066000C2F20000C2F2000100780A68104408607B
:100670007047000080B543F60040C4F202000168F4
:1006800041F400710160016841F48061016001681A
:1006900041F480710160032000F05CF80F2000F04D
:1006A00005F800F02BF8002080BD0000B0B540F246
:1006B0000602C2F2000240F200011278C2F200010A
:1006C0004FF47A730968B3FBF2F20446B1FBF2F11E
:1006D000084600F0C9FA0F2C4FF001050CD858B9A4
:1006E0004FF0FF3021460022002500F023F840F2B1
:1006F0000800C2F2000004602846B0BD82B00020AD
:1007000043F640010190C4F202014A6842F480427B
:100710004A604A6802F480420192019A0090086897
:1007200040F080500860086800F080500090009809
:1007300002B0704770B514460D46064601F028FF1A
:100740002946224601F0A2FC0146304601F030FF66
:1007500070BD000080B501F03DFF80BD2DE9F04186
:10076000002800F08B8043F60808C4F20208044613
:10077000D8F8F8030D4600F00700884207D288F841
:10078000F853D8F8F80300F00700A84276D12068A3
:10079000810717D5410705D5D8F8001041F4E0517D
:1007A000C8F80010010705D5D8F8001041F46041E1
:1007B000C8F80010D8F80010A26821F0F001114329
:1007C000C8F80010C0073FD1D8F8F80300F00700C0
:1007D000A84207D988F8F853D8F8F80300F00700C2
:1007E000A8424BD12068410707D5D8F80010E2682D
:1007F00021F4E0511143C8F80010000708D5D8F8DB
:100800000000216920F4604040EAC100C8F80000FF
:1008100000F054F8D8F8001042F67432C1F3031116
:10082000C0F60002515C40F2000220FA01F140F2F1
:100830000800C2F200000068C2F200021160FFF777
:1008400035FF0020BDE8F0816068811E022907D2D3
:1008500058F8081C89015CBF0120BDE8F08110E058
:10086000012807D158F8081C89035CBF0120BDE8A6
:10087000F08106E058F8081C890702D40120BDE881
:10088000F081D8F8001021F003010843C8F80000F7
:10089000FFF7DCFE064641F2883700BFD8F80000BB
:1008A000616800F00C00B0EB810F8DD0FFF7CEFE39
:1008B000801BB842F2D90320BDE8F08110B543F6A1
:1008C0000404C4F20204606800F00C0008280AD096
:1008D000042819BF42F20040C0F2F40047F640007D
:1008E000C0F27D1010BD206821682368490247F6D8
:1008F0004001C0F27D1100F03F02C3F388105CBFDD
:1009000042F20041C0F2F401A1FB00010023FFF715
:10091000B3FC21680222C1F3014102EB4101B0FBAB
:10092000F1F010BD2DE9F04182B0002800F0A18067
:100930000446007843F60006C007C4F2020643D01E
:10094000B06800F00C00042805D1306880033BD566
:100950006068C8BB8DE0B06800F00C00082802D1C8
:1009600070684002F1D46568B5F5A02F0AD0B5F5DE
:10097000803F0BD0306820F480303060306820F445
:10098000802006E0306840F480203060306840F419
:1009900080303060FFF75AFE002D054611D000BFB1
:1009A0003068800310D4FFF751FE401B6428F7D94C
:1009B00020E100BFFFF74AFE401B64284FF0030010
:1009C00054D830688003F5D4207880071AD5B068F1
:1009D00010F00C0F09D0B06800F00C00082840F0AF
:1009E00088807068400200F184803068800702D5FA
:1009F000E06801283DD13068216920F0F80040EA24
:100A0000C10030602078000737D4207840074AD4EE
:100A1000A56955B3B06800F00C00082840F09C8030
:100A2000012D26D07068E16900F480028A4220D14D
:100A3000216A00F03F028A421BD147F6C071626A08
:100A40000140B1EB821F14D1A16A4FF6FF73C903B5
:100A5000994300F44032A1F580318A4209D1E16A1C
:100A600000F07060B0EB016F03D1002002B0BDE870
:100A7000F081012002B0BDE8F0816069002840F2F9
:100A80000000C4F2472056D00121C0F8801EFFF7B5
:100A9000DDFD0546706F8007B7D4FFF7D7FD401B1B
:100AA0000228F7D9A6E0306C10F080580AD1002057
:100AB0000190306C40F080503064306C00F0805019
:100AC0000190019847F20007C4F200073868C0059A
:100AD00024D4386840F480703860FFF7B7FD0546CD
:100AE0003868C0051AD4FFF7B1FD401B0228F7D9BA
:100AF00080E0E068002851D00020C4F247200121A6
:100B00000160FFF7A3FD0546306880073FF573AF2E
:100B1000FFF79CFD401B0228F6D96BE0A568052D68
:100B200050D0012D52D0306F20F001003067306F6F
:100B300020F004004DE00021C0F8801EFFF786FD84
:100B4000054600BF706F80077FF55FAFFFF77EFD42
:100B5000401B0228F6D94DE00027C4F247270020A9
:100B60003866FFF773FD022D05460BD13068800112
:100B700058D5FFF76BFD401B02284FF00300F5D955
:100B800074E700BF306880017FF56FAFFFF75EFD4F
:100B9000401B02284FF00300F4D967E70020C4F29D
:100BA000472000210160FFF751FD054630688007AE
:100BB0007FF528AFFFF74AFD401B02284FF00300E6
:100BC000F4D953E7306F40F004003067306F40F0E5
:100BD00001003067FFF73AFD002D054641F28837E6
:100BE00014D000BF306F800713D4FFF72FFD401BD8
:100BF000B842F7D9032002B0BDE8F081FFF726FD27
:100C0000401BB8424FF003003FF630AF306F800713
:100C1000F4D4B8F1000F7FF4FBAE306C20F08050BC
:100C20003064F5E604F11C052FCD084340EA82103C
:100C3000D9034FF6FF729143A1F5803140EA056078
:100C40000843706001203866FFF700FD044600BFCE
:100C5000306880013FF509AFFFF7F8FC001B022860
:100C60004FF00300F4D901E780B501F0E5FA80BD4B
:100C7000FEE70000F0B581B007462A201C46154665
:100C80000E4600F055F9B81C80B200F031F9A81CEE
:100C900080B200F02DF92B2000F04AF9701C80B2D0
:100CA00000F026F9601C80B200F022F92C2000F040
:100CB0003FF901B0F0BD000010B5144602460B46E6
:100CC000FFF7D8FF204600F013F910BD2DE9F041E1
:100CD0000C460646151AA3EB0108501E591E82B297
:100CE0008BB230462146FFF7C5FFAFB2C6EB4700D7
:100CF00000F086FA40F20040C4F202000221012214
:100D0000FFF79EFCB6EB470F0FD2069840F2700338
:100D10007900020AC2F20003354600BF02359F196E
:100D20009A55AEB2B1427870F8D81FFA88F5A5424C
:100D30000CD900BF00F036FA00F03EFA0028FBD0D4
:100D400000F0F2F90134A0B2A842F3D300F00CFA9B
:100D5000BDE8F0812DE9F04F87B0DDF84480814691
:100D60004FEA58074FEA18101C46924601237A07AB
:100D700018BF03EB181000FB08F609EB580001EB55
:100D800008020138531E82B29BB248460D460691B6
:100D9000FFF770FF002E049600F08280A8F10C018E
:100DA000CAB2920842EA8111AAF12000CBB243F202
:100DB0000A01C2B2C0F6000101EB0211019144F236
:100DC000CA71129DC0F600010020029201EB82114F
:100DD0004E4600224FF0000A0091039309E04FF0C5
:100DE000000A00BF059A04990132039B90B2814228
:100DF00056D9052B54D80592DFE803F0030E5210A4
:100E0000521A029942F6963201EB4101C0F60002F5
:100E100002EB81010DE000BF01990AE0029943F263
:100E2000FA5201EB4101C0F6000202EB011100E0B1
:100E30000099084490F800B04FF0000817E000BF98
:100E400010EA0B0F2046109908BF084600F050F832
:100E50000AF1010A5FFA8AF0B0FBF7F101FB170013
:100E60000028BCD008F10108B8F1080FBAD0012061
:100E7000002D00FA08F0E3D010EA0B0F05D0069918
:100E8000B0B289B22246FFF717FF0136B0B2A0EB2D
:100E90000900B842E6D106984E4601300690A1E717
:100EA00007B0BDE8F08F00002DE9F04F83B09B46FE
:100EB0001378CBB1DDE90C9ADDF838800D46064693
:100EC0004FEA5A07541E00BFB0B2DAB229465B4659
:100ED000CDE9009ACDF80880FFF73CFFA3783E44A7
:100EE000002B04F10104EFD103B0BDE8F08F000046
:100EF00010B5044640F20040C4F202000221012273
:100F0000FFF79EFB200A00F021F8E0B200F01EF887
:100F100010BD000010B5044640F20040C4F20200CB
:100F200002210122FFF78CFB204600F00FF810BDD4
:100F300010B5044640F20040C4F202000221002233
:100F4000FFF77EFB204600F001F810BD80B501469A
:100F500043F20000C4F20100642201F04BF980BDAD
:100F6000B0B5044642F20000C4F201000D4600F0A4
:100F700031F800281CBF0120B0BD2968204600F0D0
:100F8000A1F80020B0BD000042F20800C4F2010048
:100F9000016841F00101016070470000B0B50D46E5
:100FA000044600F017F800281CBF0120B0BD60689F
:100FB0004FF6FF61CFF6FF41084095E80E00084369
:100FC00018436060A06820F400601043A060002017
:100FD000B0BD0000806800F001007047B0B50D465C
:100FE0000446FFF7F7FF00281CBF0120B0BD696869
:100FF0006068002920F468401CBFAA681043606044
:10100000A0684FF6FD42CCF2FF0210402A68D5E9F5
:10101000033502F07062184310432843A060204655
:1010200000F016F80020B0BD42F20800C4F2010042
:10103000016841F4407101607047000042F208000D
:10104000C4F20100016841F4806101607047000052
:10105000C26A22F470021143C162704780B542F245
:101060002C0CC0F30122C4F2010C5CF822E000F069
:101070001F001F23834001F01F012EEA030301FA22
:1010800000F018434CF8220080BD000042F2080036
:10109000C4F20100016841F0804101607047000026
:1010A00042F20C0CC0F34061C4F2010C5CF8213038
:1010B000C0F30450072202FA00F023EA00004CF8C3
:1010C00021007047426822F440321143416070476A
:1010D00081B043F63001C4F202010A6802430A609B
:1010E000096808400090009801B0704781B043F64D
:1010F0004000C4F20200016841F4804101600068D0
:1011000000F480400090009801B0704781B043F631
:101110004401C4F202010A6802430A6009680840F7
:101120000090009801B0704746F20C40C4F20200F3
:101130004FF400610160704745F68A71C0F6000106
:10114000085C46F21441C4F20201425822F0040243
:101150004250704746F21040C4F20200016821F08C
:10116000010101607047000046F28840C4F20200AD
:10117000016821F0010101607047000046F28840DB
:10118000C4F20200016821F0010101607047000013
:1011900046F21040C4F20200016841F00101016012
:1011A0007047000046F28840C4F20200016841F036
:1011B000010101607047000046F20440C4F20200E1
:1011C0000068C0F3C020704745F68A72C0F600027E
:1011D000105C46F20042C4F20202835823F06063BE
:1011E000194381507047000046F21441C4F20201D5
:1011F0000A684FF6FF739A43104308607047000077
:1012000046F28C41C4F202010A684FF6FF739A431A
:10121000104308607047000045F68A72C0F600026D
:10122000105C46F20042C4F20202835823F0C0036D
:10123000194381507047000046F21C41C4F202017C
:101240000860704740F2700046F29441C2F200001C
:10125000C4F202010860704745F68A71C0F60001C9
:10126000085C46F20041C4F20201425842F4806236
:101270004250704745F68A72C0F60002105C46F292
:101280000042C4F20202835823F4C0431943815040
:101290007047000045F68A72C0F60002105C46F204
:1012A0000042C4F20202835823F490731943815020
:1012B0007047000046F2184042F24C01C4F20200AE
:1012C000C4F201010160704746F2904043F20C0104
:1012D000C4F20200C4F201010160704745F68A7150
:1012E000C0F60001085C46F20041C4F20201425817
:1012F00022F400724250704745F68A72C0F600022E
:10130000105C46F20042C4F20202835823F4C05338
:10131000194381507047000045F68A72C0F60002FA
:10132000105C46F20042C4F20202835823F44033B8
:1013300019438150704700002DE9F0410C460968BF
:1013400091FAA1F2B2FA82F731FA07F235D00546E6
:101350004FF001080EE062692846314600F040F87F
:1013600062682846314600F04DF82168013731FAAD
:1013700007F022D008FA07F011EA0006F5D06068FD
:101380000138012809D8A2682846314600F060F8E3
:10139000E2682846314600F045F822692846314681
:1013A00000F046F860680228DAD13006D3D06269CE
:1013B0002846314600F004F8D2E70020BDE8F0816D
:1013C00091FAA1F1B1FA81F1D0F820C089000F2380
:1013D0008B402CEA030302FA01F1194301627047C2
:1013E000090A91FAA1F1B1FA81F1D0F824C089007B
:1013F0000F238B402CEA030302FA01F119434162E7
:101400007047000091FAA1F1B1FA81F1D0F800C063
:10141000490003238B402CEA030302FA01F119432C
:101420000160704743688B435143194341607047E3
:1014300091FAA1F1B1FA81F1D0F80CC0490003236F
:101440008B402CEA030302FA01F11943C160704793
:1014500091FAA1F1B1FA81F1D0F808C04900032353
:101460008B402CEA030302FA01F1194381607047B3
:1014700043F60800C4F20200006800F0F000704774
:1014800043F60800C4F20200006800F4E050704720
:1014900043F60800C4F20200006800F460407047A0
:1014A00043F60800C4F20200006800F00C00704728
:1014B00010B5044600F02CFE206000F0FFFD6060D7
:1014C00000F00AFE6168A060084600F013FEE060CC
:1014D00010BD000043F60400C4F20200006800F0F2
:1014E0003F00704743F60400C4F20200006800F4B5
:1014F0008000704743F60400C4F202000068C0F3A5
:101500008810704743F60400C4F20200006800F43B
:1015100040307047016841F04001016070470000B1
:1015200043F60000C4F20000016841F04001016090
:101530007047000043F20000C4F20100016841F06E
:10154000400101607047000043F20400C4F2010052
:10155000016841F002010160704700002DE9F0438D
:1015600081B00D46044600F03DF808B1012029E0A5
:1015700020684FF6BF7120EA010C95E80E4205F194
:10158000140841EA0C011143194398E8C00141EAEB
:10159000090141EA0E013143286A394341EA080151
:1015A000014321606168B0F5005F21F0040141EA68
:1015B0001641616005D1696A204600F01BF80020E1
:1015C00000E00020E16921F40061E16101B0BDE8C3
:1015D000F0830000806800F0010070478068C0F36D
:1015E000400070470068C0F380107047C06880B248
:1015F0007047000089B2016170470000416821F026
:10160000100141607047000044F21040C4F2010034
:101610006FF001010160704744F20040C4F2010024
:10162000016821F0800101607047000044F2004031
:10163000C4F20100016841F001010160704700003F
:1016400044F20C40C4F20100016841F00101016064
:1016500070470000416941F001014161704700009D
:1016600070B50D4640F2FF7104460068C4F20001F7
:1016700000268C42C4F201060ADD40F60002C4F2E4
:10168000000294420DD0B4420BD040F6004204E078
:10169000B4F1804F05D040F20042C4F200029442FF
:1016A00003D16A6820F0700010434FF6FF72C4F255
:1016B0000002944209DC8C4212DCB4F1804F26D047
:1016C00040F20041C4F200011FE044F2FF31C4F2D5
:1016D00001018C420FDCB44219D044F2000112E047
:1016E00040F60001C4F200018C4210D040F60041E7
:1016F000C4F2000109E044F60001C4F201018C4289
:1017000005D044F20041C4F201018C4203D1E968E2
:1017100020F4407008432060A968204600F016F8C5
:101720002988204600F014F8B44202D1286900F05C
:1017300011F82046FFF78EFF002070BD44F21040E4
:10174000C4F20100006800F001007047C1627047F8
:10175000816270473021C4F20101086070470000C7
:1017600041F21000C4F20100016821F490410160CF
:10177000416821F02A0141607047000041F20C00ED
:10178000C4F20100016841F400510160704700009B
:1017900070B584B00D46044600F044F810B1012045
:1017A00004B070BDE06849F20C6120EA010CD5E993
:1017B00001E1D5E903364CEA0E00AA69184330432B
:1017C0001043E060204600F07DF86969204600F093
:1017D00073F86846FFF76CFE44F20040C4F2000064
:1017E00084420ED041F20040C4F20100844205D090
:1017F00041F20000C4F20100844205D1039931B9DD
:10180000CDE7029919B9CAE700210029C7D02B6892
:10181000002BC4D0AA69204600F008F8002004B0CC
:1018200070BD0000C068C0F34030704710B504467A
:101830001920B2F5004FA1FB00011CD15A00DB0FAB
:10184000FEF71AFD48F21F51C5F2EB11A0FB012370
:101850005A096FF0630302FB0300322303EBC0005D
:10186000A0FB01014FF4F87000EA111000EB021028
:10187000C1F342111AE09A009B0FFEF7FDFC48F2FB
:101880001F51C5F2EB11A0FB01235A096FF063034E
:1018900002FB0300322303EB0010A0FB0101F02048
:1018A00000EA511000EB0210C1F343114FF6F07241
:1018B00010400844A06010BD426922F440721143F8
:1018C00041617047026922F440521143016170473F
:1018D000F0B58FB000254FF480700E95CDE90C5512
:1018E000CDE90A55CDE90855CDE90655CDE90455B0
:1018F000CDE90255CDE900554FF48076FFF706FC9F
:101900000120FFF7E5FB062042F2000400900320CF
:10191000C4F20104019004F5604069460495FFF7A4
:101920000BFD00200021FFF74FFC00200021FFF7F6
:1019300073FC00204FF480314FF48037FFF7ECFC4C
:1019400000204FF48071FFF7A5FC0020FFF7C6FCD4
:101950000020FFF781FC00204FF40061FFF7CCFC72
:1019600000204FF40051FFF785FC0020FFF7E4FB57
:101970000CA92046CDE90C550E96FFF70FFB4FF44E
:1019800080100795CDE9080502200A904FF44070B9
:101990000B9007A92046FFF721FBFFF74FFB04F54B
:1019A000407006A90697FFF7DBFA0124C0F2302445
:1019B0004FF400702146FFF751FB2046FFF770FB04
:1019C0000224C0F2602440F205202146FFF746FBC6
:1019D0002046FFF765FB0FB0F0BD000080B54FF467
:1019E0008000FFF775FB00F0CBFD00F04DFB0146DA
:1019F000382000F0D5FD382000F0B2FD00F0C0FD29
:101A000000F042FB01463A2000F0CAFD3A2000F007
:101A1000A7FD00F0B5FD00F037FB0146442000F0C3
:101A2000BFFD442000F09CFD00F0AAFD00F02CFB5F
:101A30000146462000F0B4FD462000F091FD80BD37
:101A40002DE9F04387B0002743F630000697CDE933
:101A50000477CDE902770197C4F20200016840F2F1
:101A6000000841F0040101600168C4F2020801F0BD
:101A700004010191019901970168012241F080015F
:101A800001600168012501F0800101910199019730
:101A9000016841F001010160016801F0010101915B
:101AA00001990197016841F00201016000684FF45B
:101AB000047100F00200019001984046FEF7C0FD5D
:101AC00008F58064204640F207410122FEF7B8FD88
:101AD00040464FF480710022FEF7B2FD4FF46040A3
:101AE00002AECDE9020708F5006031460497FEF723
:101AF000D3FC4FF44470CDE902054FF00209404693
:101B000031460495CDF81490FEF7C6FC0320CDE9CC
:101B10000205CDE9045020463146FEF7BDFC40F2F7
:101B20000440CDE9020520463146CDE90459FEF7CF
:101B3000B3FC4FF48060CDE902074046314604957E
:101B4000FEF7AAFC4FF46070CDE90207204631464B
:101B50000497FEF7A1FC07B0BDE8F0832DE9F04142
:101B600090B006AC20462821FEF7FEFB00264FF47D
:101B70008050CDE90466CDE90266CDE90066FFF745
:101B8000C5FA01204FF00108FFF7A2FAE02000900B
:101B90000227032043F200050197CDE90206052044
:101BA000C4F20105059005F5504069460496FFF71B
:101BB000C3FB05204FF0C061FFF706FB0520402165
:101BC000FFF72AFB05204FF48031FFF7A5FB052026
:101BD0000021FFF75FFB0520FFF780FB0520FFF7E3
:101BE0003BFB05200021FFF787FB05200021FFF7C5
:101BF00041FB0520FFF7A0FA4FF4827007A9069673
:101C000081E8C1014FF40070CDE90B060A20CDE94F
:101C10000D660F9028462146FFF7A0FC2846FFF7E7
:101C2000EDFC10B0BDE8F08170B590B006AC204678
:101C30002821FEF799FB0026CDE90466CDE902666E
:101C4000CDE90066FFF752FA02200225FFF740FABD
:101C50004FF46040CDE90005032043F60005CDE9CF
:101C600002060520C4F20005059005F5E630694638
:101C70000496FFF761FB4FF482700696CDE90706E4
:101C80004FF40070CDE909660B902020CDE90C06D9
:101C90000A200F90284621460E96FFF75FFC284643
:101CA000FFF7ACFC10B070BD10B586B000244FF447
:101CB00000300594CDE90344CDE90144FFF726FA4D
:101CC00000F05EFC00F0E0F90146192000F068FC2D
:101CD000192000F045FC3B20ADF804004FF6FF70E2
:101CE0000294CDE9030444F20040C4F2010001A9CA
:101CF000FFF7B6FCFFF790FC06B010BD2DE9F043EE
:101D00008DB0002610200C96CDE90A66CDE9086654
:101D1000CDE90666CDE90466CDE90266CDE9006647
:101D2000FFF7F4F90120FFF7D3F902204FF0020981
:101D3000FFF7CEF941F200084FF40040C4F2010869
:101D40006D46CDE900090324072708F570402946B0
:101D5000CDE9024604960597FFF7EEFA0820CDE993
:101D6000000908F574402946CDE90246CDE904672B
:101D7000FFF7E2FA02204FF00061FFF725FA022098
:101D80000021FFF749FA02204FF40031FFF7C4FAAF
:101D900002200021FFF77EFA0220FFF79FFA0220BF
:101DA000FFF75AFA02200021FFF7A6FA02200021CD
:101DB000FFF760FA0220FFF7BFF907204FF000613C
:101DC000FFF702FA07204021FFF726FA07204FF419
:101DD0008031FFF7A1FA07200021FFF75BFA072007
:101DE000FFF77CFA0720FFF737FA07200021FFF7FB
:101DF00083FA07200021FFF73DFA0720FFF79CF93F
:101E000000F0BEFB00F040F90146252000F0C8FBC1
:101E1000252000F0A5FB4FF4E130CDE906060C20AB
:101E2000CDE90866CDE90A0606A940460C96FFF7FB
:101E3000AFFCFFF795FCFFF7A1FC0DB0BDE8F08308
:101E4000FEE70000FEE7000010B582B06FF05A0018
:101E50008DF804004FF0A5306C46009030202146EC
:101E6000052200F0C3F810202146052200F010F8EA
:101E7000002000BF215CA52904D1042800F1010045
:101E8000F8D30520053818BF012002B010BD0000AE
:101E90002DE9F04381B043F60006C4F2000606F5D2
:101EA000E43415468946074620464FF40071002267
:101EB000FEF7C6FB3046394600F082F980464DB148
:101EC000A9F101073046FF2100F07AF9013D07F83A
:101ED000010FF7D120464FF400710122FEF7B0FB4D
:101EE000404601B0BDE8F08370B543F60005C4F28A
:101EF000000505F5E436044630464FF40071002233
:101F0000FEF79EFB2846214600F05AF92846FF219D
:101F100000F056F9044630464FF400710122FEF7F6
:101F20008FFB204670BD000010B50024C4F20204EF
:101F300020464FF480710022FEF782FB42F6913179
:101F4000C0F600013020052200F050F842F68C3136
:101F5000C0F600012A20052200F048F821200121C6
:101F600000F070F82220012100F06CF824201A21E2
:101F700000F068F82520282100F064F826200F21C1
:101F800000F060F820200E2100F05CF820464FF4AD
:101F900080710122FEF754FB10BD000010B5014610
:101FA000A020202200F022F80024C4F2020400BF86
:101FB00020464FF48061FEF73DFB0028F8D1072052
:101FC000FFF792FF04462720214600F03BF8E00689
:101FD00005D4A0064FF0200058BFFF2010BDE1201F
:101FE000FF2100F02FF8102010BD00002DE9F04770
:101FF00043F60006C4F2000606F5E43A15468946A3
:10200000074650464FF400710022FEF719FB304698
:10201000394600F0D5F8804655B1A9F101070024F2
:1020200017F8011F304600F0CBF80134AC42F7D36B
:1020300050464FF400710122FEF702FB4046BDE816
:10204000F0870000F0B581B043F60006C4F2000648
:1020500006F5E4370C46054638464FF40071002279
:10206000FEF7EEFA3046294600F0AAF8054630465B
:10207000214600F0A5F838464FF400710122FEF722
:10208000DFFA284601B0F0BD0020704700F00700DD
:1020900080F00703042B28BF04234FF0FF3C0338D4
:1020A0000CFA03F338BF0020994381400CFA00F08A
:1020B00022EA0000084370477047000010B504464C
:1020C000FFF7D6F942F67431C0F30310C0F60001F1
:1020D000085C24FA00F010BD10B50446FFF7D0F9F3
:1020E00042F68431800AC0F60001085C24FA00F050
:1020F00010BD000010B50446FFF7CAF942F684315E
:10210000400BC0F60001085C24FA00F010BD00008E
:1021100080B5FFF7C5F908280AD0042819BF42F294
:102120000040C0F2F40047F64000C0F27D1080BDD0
:10213000082000F001F880BD10B50446FFF7D2F981
:10214000082C1CBF002010BD42F20044C0F2F40471
:10215000B0F5800F04BF47F64004C0F27D1400289C
:1021600004BF42F20044C0F2F404FFF7B3F9B4FB39
:10217000F0F4FFF7BFF94443FFF7C4F9000C022164
:1021800001EB4000B4FBF0F010BD000070B50D464F
:10219000044640F2F51600BF2046FFF71FFA08B9C3
:1021A000013EF9D1E56040F2F51500BF2046FFF78A
:1021B00011FA08B9013DF9D12046FFF717FA70BDB1
:1021C00070B50D46044640F2F51600BF2046FFF7F5
:1021D00005FA08B9013EF9D1E56040F2F51500BFF6
:1021E0002046FFF7F7F908B9013DF9D1E068C0B220
:1021F00070BD000070B50C46054640F2E93600BFE0
:102200002846FFF7EBF908B9013EF9D1EC6070BD43
:1022100080B543F20002C4F20102D2F800C04FF6CA
:10222000C77303EA0C031360136819431160FFF7C7
:1022300071F980BD70470000B0B501380024B4EBDF
:10224000106F1CBF0120B0BD4EF21005CEF200058C
:1022500068604FF0FF300F2100F0AAF90720AC6052
:1022600028602046B0BD000080B5FEF7F5F980BDBE
:1022700070B592B006AC20463021FEF775F8002507
:1022800043F640000595CDE90355CDE9015500958C
:10229000C4F202000168022641F08051016000682A
:1022A00000F080500090009847F200000095C4F2C2
:1022B0000000016841F440410160006800F44040C2
:1022C00000900098012006904FF4803007904FF462
:1022D00080000D900C200E9060200C96CDE90F062A
:1022E000052011902046FEF71DFB78B90F20CDE99F
:1022F00001064FF480500395CDE9040501A80321A0
:10230000FEF72CFA002804BF12B070BDFEF79CF84F
:102310004EF68850CEF20000016841F47001016071
:1023200070470000F0B583B001204FF6FF7500F054
:1023300061F900F00FFB00F0D1FA00F0ADF90020D8
:1023400000218022A02300950026FEF7BFFC00F0AC
:102350008BF9FFF779FDE0B110271BA40A201E219D
:1023600022464FF47843CDE900570296FEF79CFDD4
:10237000C82000F061F9002000218022A0230095F0
:10238000FEF7A4FCC82000F057F9FFF75DFD002818
:10239000E4D11020CDE901060FA20A201E214FF43E
:1023A00078430095FEF780FDFFF7BEFD4FF4FA601D
:1023B00000F042F9002000218022A0230095FEF7C2
:1023C00085FC03B0F0BD00BF4E524632344C303174
:1023D000204572726F7200004E524632344C3031DA
:1023E000204F4B0010B584B040F27010C2F20000D4
:1023F000016840F27C14013101600068C2F20004FF
:10240000207000F0E9FA2046FFF7C8FD45F6A071FC
:1024100045F69873C0F60001C0F60003102845F693
:10242000927208BF0B46C0F6000220284FF0180039
:102430004FF6FF7118BF1A460024CDE900100020A6
:1024400000214FF478430294FEF72EFD04B010BD36
:1024500080B500F003F880BD7047000080B5FFF73D
:102460006DF9012818BF80BDFFF7CEF840F2741057
:10247000C2F2000001680131016080BDFEE700008A
:10248000F0B581B043F20005C4F2010505F55444EE
:10249000204601210122FEF7D3F805F550463046CB
:1024A00010210022FEF7CCF828469021FFF788FE85
:1024B00028460021FFF784FE28460021FFF780FE12
:1024C00028460021FFF77CFE2846FF21FFF75EFE2D
:1024D00007462846FF21FFF759FE40EA0725304608
:1024E00010210122FEF7ACF8204601210022FEF760
:1024F000A7F8A8B201B0F0BDF0B581B043F2000674
:10250000C4F201060525022806F5544408BF352506
:10251000032820464FF001014FF0010208BF1525A6
:10252000FEF78EF806F55047384610210022FEF7D8
:1025300087F830462946FFF743FE3046FF21FFF774
:102540003FFE0546384610210122FEF779F8204665
:1025500001210022FEF774F8284601B0F0BD00000A
:10256000C1B200F01F00012202FA00F04EF2001288
:10257000CEF2000242EAD10121F003010860704767
:102580004EF60C50CEF200000068C0F302207047F7
:102590004EF60C50CEF200000068C0F302207047E7
:1025A000E422C0F2E002090162F31F2001707047CB
:1025B0004EF6145300F00F02CEF2000309011A4444
:1025C00000F16043B0F1FF3FC8BF03F564421170F2
:1025D000704700004EF60C51CEF200010A684FF62B
:1025E000FF031A4060F30A2242F0806040F0FD7061
:1025F0000860704780B540F27D11C2F2000108709A
:10260000FFF71EF8FFF700F8FFF710F880BD000095
:1026100010B50C46FEF710FEFEF74CFE2046FEF706
:10262000E3FDFEF797FDFEF7B3FDFEF7ADFCFEF709
:102630002DFDFEF7F9FC10BD10B540F27D11C2F280
:1026400000010978044651B1FDF704FF4FF47A7197
:1026500004FB0104FDF7FEFE8442FBD210BD2046C0
:10266000FDF706FF10BD000010B50024C4F20204FF
:1026700020464FF480710022FDF7E2FF20464FF420
:1026800000710122FDF7DCFFA4F5E4302021FFF703
:10269000BFFDFEF745FF10BD10B5FEF715FEFEF7B6
:1026A000D1FDFEF751FFFEF769FDFEF743FF40F253
:1026B0000044C4F20204204604210122FDF7C0FFB9
:1026C000204601210022FDF7BBFF6420FFF7B4FF85
:1026D00020464FF480610122FDF7B2FF6420FFF72E
:1026E000ABFF1120FEF724FC7820FFF7A5FFB120F7
:1026F000FEF71EFC0120FEF70DFC2C20FEF70AFC65
:102700002D20FEF707FCB220FEF712FC0120FEF799
:1027100001FC2C20FEF7FEFB2D20FEF7FBFBB32077
:10272000FEF706FC0120FEF7F5FB2C20FEF7F2FB7E
:102730002D20FEF7EFFB0120FEF7ECFB2C20FEF72F
:10274000E9FB2D20FEF7E6FBB420FEF7F1FB0320AA
:10275000FEF7E0FBC020FEF7EBFBA220FEF7DAFB62
:102760000220FEF7D7FB8420FEF7D4FBC120FEF742
:10277000DFFBC520FEF7CEFBC220FEF7D9FB0A2007
:10278000FEF7C8FB0020FEF7C5FBC320FEF7D0FB19
:102790008A20FEF7BFFB2A20FEF7BCFBC420FEF711
:1027A000C7FB8A20FEF7B6FBEE20FEF7B3FBC52081
:1027B000FEF7BEFB0E20FEF7ADFB3620FEF7B8FBA2
:1027C000C020FEF7A7FBE020FEF7B2FB0F20FEF7CC
:1027D000A1FB1A20FEF79EFB0F20FEF79BFB1820A3
:1027E000FEF798FB2F20FEF795FB2820FEF792FBC3
:1027F0002020FEF78FFB2220FEF78CFB1F20FEF728
:1028000089FB1B20FEF786FB2320FEF783FB372086
:10281000FEF780FB0020FEF77DFB0720FEF77AFB2A
:102820000220FEF777FB1020FEF774FBE120FEF795
:102830007FFB0F20FEF76EFB1B20FEF76BFB0F20CC
:10284000FEF768FB1720FEF765FB3320FEF762FBFF
:102850002C20FEF75FFB2920FEF75CFB2E20FEF705
:1028600059FB3020FEF756FB3020FEF753FB392092
:10287000FEF750FB3F20FEF74DFB0020FEF74AFB22
:102880000720FEF747FB0320FEF744FB1020FEF76E
:1028900041FB2B20FEF74CFB0020FEF73BFB00200A
:1028A000FEF738FB0020FEF735FB9F20FEF732FBDA
:1028B000F020FEF73DFB0120FEF72CFBF620FEF793
:1028C00037FB0020FEF726FB3A20FEF731FB052000
:1028D000FEF720FB2920FEF72BFB10BDB0B500242E
:1028E000C4F20204FFF7CCFD40F2040145F21822C5
:1028F000C2F20001904208801FD10320FFF7FCFDC7
:10290000C0071AD104F58065284601210122FDF790
:1029100097FE204610210022FDF792FEA4F55040BC
:10292000B721FFF74DFC204610210122FDF788FE5C
:10293000284601210022FDF783FE04F58060012175
:102940000022FDF77DFE204610210122FDF778FED2
:10295000B0BD000080B540F27810C2F20000022144
:10296000FFF756FE80BD0000012806DB401A01B2C9
:102970000029D8BF002000B27047B0F1FF3F01DD51
:1029800000B27047084401B200EAE13000B270477B
:102990009042C8BF1046521A401AB8BF002000EE3D
:1029A000100A01EE102AB8EEC00AB8EEC11A80EE85
:1029B000010A0098C01A01EE100AB8EEC11A20EE02
:1029C000010A01EE103AB8EEC11A30EE010ABDEE6E
:1029D000C00A10EE100A70472DE9F0412DED048B6E
:1029E00090B040F27811C2F200019FED4F8AB1F829
:1029F0000080498800220DF1240C0DF1080E0025FD
:102A0000002600240023B0EE480A32E00CEB020757
:102A100057F8047CA8EB07000628A8BF4CF8027002
:102A20000EEB020050F8047CC81B0628A8BF4EF825
:102A300002705CF802009842C8BF03465EF802705C
:102A400001EE100AA042B8EEC11AB8BF0446B74260
:102A500030EE010A01EE107AC8BF3E46AF42B8EE32
:102A6000C11A02F10402B8BF3D461C2A38EE018AA1
:102A70000AD0002A4CF802804EF80210C6D1099BF9
:102A8000029E1C463546D4E701EE103AB8EEC11A54
:102A900030EE410A01EE104AB8EEC11A30EE410A9A
:102AA000B1EE049A80EE090A4FF65454CFF6FF7443
:102AB0004FF42B77002140F6FA7223460097BDEEC3
:102AC000C00A10EE100AFFF763FF00B21821FFF7EB
:102AD0004BFF00EE106AB8EEC00A01EE105A38EE55
:102AE000400AB8EEC11A30EE410A80EE090A40F2FF
:102AF0008015C2F200052860231D4FF42A770021BB
:102B000040F6FA720097BDEEC00A10EE100AFFF709
:102B10003FFF00B21421FFF727FF686010B0BDEC43
:102B2000048BBDE8F08100BF00000000FDF7A2FDAE
:102B3000FFF79EFBFEF784FFFEF750FFFFF7B4F8A8
:102B4000FEF7C6FEFFF70AF8FFF76EF8FFF7D6F8B4
:102B5000FFF7E8FBFFF746FCFCE7F1EE100A4FF643
:102B6000FF71C0F2C03120EA010040F04070E1EE98
:102B7000100A70470000000000000000010203047A
:102B80000607080900000000010203043443101086
:102B9000013443101001000000000000000000009C
:102BA00000000000040404040400000400001414E5
:102BB0000A00000000000000000000000A0A1F0ACE
:102BC0000A1F0A0A000000040E1505060C14150E53
:102BD0000400000012150D152E2C2A120000000012
:102BE000040A0A3615152916000002020100000029
:102BF0000000000000001008080404040404080891
:102C00001000020404080808080804040200000078
:102C10000004150E0E150400000000000008083E18
:102C20000808000000000000000000000000020290
:102C3000010000000000003F000000000000000054
:102C40000000000000000002000000201010080832
:102C500004040202010000000E1111111111110EE5
:102C600000000000040604040404040E0000000038
:102C70000E1111080402011F000000000E11100CBB
:102C80001010110E00000000080C0C0A091F081C8F
:102C9000000000001F01010F1110110E00000000C4
:102CA0000C12010D1311110E000000001E10080877
:102CB00004040404000000000E11110E1111110E85
:102CC000000000000E111119161009060000000086
:102CD00000000400000000040000000000000004E8
:102CE00000000004040000001008040202040810A0
:102CF0000000000000003F003F0000000000000056
:102D00000204081010080402000000000E1111084F
:102D100004040004000000001C22292D2D1D221C8B
:102D20000000000004040C0A0A1E12330000000018
:102D30000F12120E1212120F000000001E110101DC
:102D40000101110E000000000F1212121212120FD8
:102D5000000000001F120A0E0A02121F00000000ED
:102D60001F120A0E0A020207000000001C120101D5
:102D70003911120C000000003312121E121212330D
:102D8000000000001F0404040404041F00000000ED
:102D90003E080808080808080907000037120A0654
:102DA0000A12123700000000070202020202223F4C
:102DB000000000003B1B1B1B151515350000000013
:102DC0003B1216161A1A1217000000000E111111EC
:102DD0001111110E000000000F12120E0202020764
:102DE000000000000E1111111117190E180000003B
:102DF0000F12120E0A121237000000001E110106F7
:102E00000810110F000000001F1504040404040E34
:102E100000000000331212121212120C0000000007
:102E20003312120A0A0C04040000000015151515CF
:102E30000E0A0A0A000000001B0A0A04040A0A1B00
:102E4000000000001B0A0A0A0404040E000000002F
:102E50001F0908040402121F00001C0404040404D7
:102E6000040404041C0000020204040408080810FE
:102E700010000E0808080808080808080E00040AD0
:102E80000000000000000000000000000000000042
:102E900000000000003F02040000000000000000ED
:102EA000000000000000000C121C123C0000000397
:102EB0000202020E1212120E000000000000001C9E
:102EC0001202120C000000181010101C1212123CFA
:102ED000000000000000000C121E021C0000001880
:102EE0002404041E0404041E000000000000003C32
:102EF000120C021C221C00030202020E12121237D4
:102F000000000004040000060404040E0000000891
:102F10000800000C08080808080700030202021A4B
:102F20000A060A1300000007040404040404041F32
:102F3000000000000000000F15151515000000002E
:102F40000000000F12121237000000000000000CF9
:102F50001212120C000000000000000F1212120EDC
:102F6000020700000000001C1212121C10380000A2
:102F70000000001B06020207000000000000001E07
:102F8000020C101E000000000004041E0404041CB7
:102F9000000000000000001B1212123C00000000A4
:102FA0000000001B0A0A04040000000000000015D5
:102FB000150E0A0A000000000000001B0A040A1B8C
:102FC000000000000000003312120C08040300008F
:102FD0000000001E0804041E000018080808080C61
:102FE0000808080818000808080808080808080859
:102FF000080806040404040804040404060016096E
:1030000000000000000000000000000000000000C0
:103010000000000000000000000000000008080898
:103020000808080800001818000000486C24120066
:103030000000000000000000000000000024242424
:103040007F1212127F12121200000000081C2A2A9E
:103050000A0C1828282A2A1C080800000022251516
:1030600015152A585454542200000000000C121266
:10307000120A76252911916E00000006060403004D
:1030800000000000000000000000004020101008B8
:103090000808080808101020400000020408081062
:1030A00010101010100808040200000000000808AA
:1030B0006B1C1C6B080800000000000000000808E2
:1030C00008087F0808080800000000000000000051
:1030D00000000000000006060403000000000000DD
:1030E0000000FE00000000000000000000000000E2
:1030F00000000000000006060000000080404020A4
:1031000020101008080404020200000000182442E5
:1031100042424242424224180000000000080E08C9
:10312000080808080808083E00000000003C424269
:10313000422020100804427E00000000003C424271
:10314000201820404042221C0000000000203028AF
:10315000242422227E20207800000000007E02022B
:10316000021A26404042221C0000000000382402BF
:10317000021A26424242241800000000007E222249
:10318000101008080808080800000000003C42422F
:10319000422418244242423C00000000001824420D
:1031A000424264584040241C00000000000000001F
:1031B00018180000000018180000000000000000AF
:1031C0000008000000000008080400000040201073
:1031D0000804020408102040000000000000000065
:1031E0007F0000007F0000000000000000020408D3
:1031F000102040201008040200000000003C424261
:10320000464020101000181800000000001C225A30
:10321000555555552D42221C000000000008081885
:103220001414243C224242E700000000001F222226
:10323000221E22424242221F00000000007C424225
:10324000010101010142221C00000000001F224276
:10325000424242424242221F00000000003F42120E
:10326000121E12120242423F00000000003F4212B2
:10327000121E12120202020700000000003C22226D
:10328000010101712122221C0000000000E74242DE
:1032900042427E42424242E700000000003E0808EF
:1032A000080808080808083E00000000007C10100C
:1032B0001010101010101010110F000000772212C3
:1032C0000A0E0A12122222770000000000070202F2
:1032D000020202020202427F00000000007736363E
:1032E00036362A2A2A2A2A6B0000000000E34646C6
:1032F0004A4A52525262624700000000001C2241BA
:10330000414141414141221C00000000003F424236
:1033100042423E020202020700000000001C22415D
:10332000414141414D53321C60000000003F424288
:10333000423E1212222242C700000000007C42429C
:10334000020418204042423E00000000007F49086D
:10335000080808080808081C0000000000E74242AE
:10336000424242424242423C0000000000E74242E8
:10337000222424141418080800000000006B494996
:1033800049495555362222220000000000E7422418
:1033900024181818242442E7000000000077222295
:1033A000141408080808081C00000000007E2120F2
:1033B000101008040442423F000000780808080882
:1033C0000808080808080808780000000202040439
:1033D00008080810102020204040001E1010101077
:1033E00010101010101010101E00003844000000C3
:1033F00000000000000000000000000000000000CD
:10340000000000000000000000FF000608000000AF
:1034100000000000000000000000000000000000AC
:10342000003C4278444242FC0000000000030202DB
:10343000021A26424242261A000000000000000044
:10344000003844020202443800000000006040409E
:1034500040784442424264D800000000000000006E
:10346000003C427E0202423C0000000000F088085E
:10347000087E08080808083E000000000000000060
:10348000007C22221C023C42423C0000000302025B
:10349000023A4642424242E700000000000C0C00A3
:1034A000000E08080808083E000000000030300048
:1034B0000038202020202020221E000000030202CD
:1034C0000272120A1612227700000000000E08088D
:1034D000080808080808083E000000000000000076
:1034E000007F9292929292B70000000000000000CC
:1034F000003B4642424242E700000000000000005C
:10350000003C42424242423C0000000000000000F9
:10351000001B26424242221E02070000000000005B
:10352000007844424242447840E00000000000003D
:1035300000774C040404041F000000000000000099
:10354000007C42023C40423E0000000000000008B7
:10355000083E0808080808300000000000000000CD
:1035600000634242424262DC0000000000000000B2
:1035700000E74224241408080000000000000000B6
:1035800000EB4949555522220000000000000000D0
:10359000007624181818246E0000000000000000B7
:1035A00000E7422424141808080700000000000067
:1035B000007E22100808447E000000C02020202049
:1035C0002010202020202020C000101010101010EB
:1035D0001010101010101010101000060808080825
:1035E000081008080808080806000C32C20000008D
:1035F00000000000000000000000000000000000CB
:1036000000000000000000000000000000000000BA
:1036100000000000000000000000000000000000AA
:10362000000000000000000000000000000000009A
:1036300000006000600060006000600060006000EA
:10364000400020002000200000000000000060007A
:103650006000600000000000000000000000600644
:10366000600630039801880044000000000000005C
:10367000000000000000000000000000000000004A
:10368000000000000000000000000000000000003A
:1036900000001002100210021002FE07FE070802CE
:1036A0000801080108010801FE07FE0704010401E2
:1036B0000401040100000000000000000000000000
:1036C00040004000F00158034C03CC034C0058006C
:1036D0007000E000C001C00140034C035C034C03D8
:1036E0004801F00040004000000000000000000021
:1036F00000000E010A01910091009100510051005B
:103700003A00AE03A00250045004480448044804A0
:10371000840284030000000000000000000000009C
:10372000000038006C006C006C006C006C002C0019
:1037300098071C011A01330133016301E300C30838
:10374000C6093C07000000000000000000000C005B
:103750001C00100010000800040000000000000021
:103760000000000000000000000000000000000059
:103770000000000000000000000000000000000445
:103780000002000180008000400040002000200076
:103790002000200020002000200040004000800089
:1037A0008000000100020004000000000000020090
:1037B000040008001000100020002000400040001D
:1037C0004000400040004000400020002000100069
:1037D00010000800040002000000000000000000CB
:1037E0000000000000004000C0004000460C4E0FEA
:1037F000D001F0015E0F460C400040004000000088
:1038000000000000000000000000000000000000B8
:1038100000000000000000004000400040004000A8
:103820004000FE0F4000400040004000400000000B
:103830000000000000000000000000000000000088
:103840000000000000000000000000000000000078
:1038500000000000000000000000000000000C005C
:103860001C00100010000800040000000000000010
:103870000000000000000000000000000000000048
:103880000000FE0700000000000000000000000033
:103890000000000000000000000000000000000028
:1038A0000000000000000000000000000000000018
:1038B00000000000000000000000000000001C00EC
:1038C0001C001C00000000000000000000000004BC
:1038D000000600020003000100018000800040009B
:1038E00040006000200020001000100008000800C8
:1038F0000C000400060002000000000000000000B0
:1039000000000000F00098010C030C0306060606F8
:103910000606060606060606060606060C030C0341
:103920009801F0000000000000000000000000000E
:103930000000000040007C0060006000600060004B
:103940006000600060006000600060006000600077
:103950006000FC0300000000000000000000000008
:1039600000000000F80084010203060306030003C0
:1039700000018001C0006000200010000802040265
:103980000602FE030000000000000000000000002E
:10399000000000007800C6008601860180018001D9
:1039A000C00070008001000100030003060306034D
:1039B0008601F80000000000000000000000000088
:1039C0000000000080018001C001A001A001900161
:1039D0008801880184018201FE0F8001800180013D
:1039E0008001E0070000000000000000000000006F
:1039F00000000000FC0304000400040004000400B4
:103A0000F4008C0104030003000306030603820193
:103A10008401F80000000000000000000000000029
:103A200000000000E00118030C030C000400060075
:103A3000E60116030E0606060606060604060C0236
:103A40001803F0000000000000000000000000006B
:103A500000000000F8070C06040204010001000148
:103A60008000800040004000400060006000600076
:103A70006000600000000000000000000000000086
:103A800000000000F8010C030606060606060C02FC
:103A90001C03F000C8010C0306060606060606060F
:103AA0000C03F00100000000000000000000000016
:103AB00000000000F0000C010C03060206060606DA
:103AC000060606078C0678060006000300030C01B4
:103AD0008C017800000000000000000000000000E1
:103AE0000000000000000000000000000000E000F6
:103AF000E000E00000000000000000000000E00026
:103B0000E000E000000000000000000000000000F5
:103B10000000000000000000000000000000600045
:103B20006000000000000000000000000000000035
:103B30006000600040002000200000000000000045
:103B4000000000040002000180004000200010007E
:103B50000800040008001000200040008000000160
:103B6000000200040000000000000000000000004F
:103B70000000000000000000000000000000FE0740
:103B8000000000000000FE07000000000000000030
:103B90000000000000000000000000000000000025
:103BA0000000040008001000200040008000000118
:103BB000000200040002000180004000200010000C
:103BC00008000400000000000000000000000000E9
:103BD00000000000E0031806040C040C0C0C0C0C94
:103BE0000007800140004000400000000000E000AD
:103BF000E000E00000000000000000000000000005
:103C00000000E00018030C02CC0564056605A6055B
:103C1000B604B604B604B604B602E4010C040C0201
:103C20001803F00000000000000000000000000089
:103C300000000000600060005000D0009000900084
:103C4000880088010801F801040304030402020249
:103C500002060F0F0000000000000000000000003E
:103C600000000000FE008C030C030C030C030C038B
:103C70008C01FC000C030C020C060C060C060C0656
:103C80000C03FE0100000000000000000000000026
:103C900000000000E00318030C060C0404040600F6
:103CA0000600060006000600060006040C040C02CE
:103CB0001803F000000000000000000000000000F9
:103CC000000000007F008C010C030C030C060C06A6
:103CD0000C060C060C060C060C060C060C030C035A
:103CE0008C017F00000000000000000000000000C8
:103CF00000000000FF030603060406040600860019
:103D00008600FE0086008600860006000604060483
:103D10000602FF0300000000000000000000000099
:103D200000000000FF0306030604060406008600E8
:103D30008600FE008600860086000600060006005B
:103D400006001F000000000000000000000000004E
:103D500000000000F00018010C020C020402060032
:103D6000060006000600C60F060306030C030C033C
:103D70001803F00000000000000000000000000038
:103D8000000000000F0F06060606060606060606D9
:103D90000606FE07060606060606060606060606CA
:103DA00006060F0F000000000000000000000000E9
:103DB00000000000FC036000600060006000600024
:103DC00060006000600060006000600060006000F3
:103DD0006000FC0300000000000000000000000084
:103DE00000000000F807C000C000C000C000C00014
:103DF000C000C000C000C000C000C000C000C000C3
:103E0000C000C000C60066003C00000000000000CA
:103E100000000000CF038601C60046002600160001
:103E200036002E006E004600C600860086010601A0
:103E300006038F07000000000000000000000000E3
:103E4000000000001F000600060006000600060035
:103E5000060006000600060006000600060406042A
:103E60000602FF0300000000000000000000000048
:103E7000000000000707860386038E038E034E03AF
:103E80004E034A035A035A033A03320332033203FE
:103E9000120387070000000000000000000000007F
:103EA000000000008E0F0C021C021C0234023402BF
:103EB000640264024402C40284028403840304038F
:103EC00004031F02000000000000000000000000CA
:103ED00000000000F00098010C030C020606060624
:103EE0000606060606060606060606060C020C036D
:103EF0009801F00000000000000000000000000039
:103F000000000000FF000603060606060606060679
:103F100006068603FE0006000600060006000600F0
:103F200006001F000000000000000000000000006C
:103F300000000000F00098010C030C0206060606C3
:103F40000606060606060606060676064C02CC039C
:103F50009801F0008007000300000000000000004E
:103F600000000000FF010603060606060606060618
:103F70000603FE004600C60086008601060306030F
:103F800006060F0E00000000000000000000000008
:103F900000000000F8020C030602060206000E00F4
:103FA0003C00F800E0038003000702060206060654
:103FB0000C03F00100000000000000000000000001
:103FC00000000000FE0762046108610860006000F4
:103FD00060006000600060006000600060006000E1
:103FE0006000F80100000000000000000000000078
:103FF000000000001E070C020C020C020C020C0256
:104000000C020C020C020C020C020C020C020C0240
:104010001801F00000000000000000000000000097
:10402000000000000F070602040104010C010C014E
:104030008800880098009800500050007000300000
:104040002000200000000000000000000000000030
:1040500000000000F70E62044204460446046402B5
:104060006402E402E4029C029C0198019801880128
:104070008800880000000000000000000000000030
:10408000000000009E070C01080118019000B0001C
:104090006000200060006000D000900088010801EE
:1040A00004038E0700000000000000000000000074
:1040B000000000000F0F060404020C0208011801A2
:1040C000B800B00070006000600060006000600038
:1040D0006000F80100000000000000000000000087
:1040E00000000000FC070C020603020180018000B2
:1040F00040004000200020001000180008040C04BC
:104100000402FE0300000000000000000000E003C5
:10411000200020002000200020002000200020009F
:10412000200020002000200020002000200020008F
:10413000200020002000E00300000000000000003C
:104140000000040004000800080010001000100027
:104150002000200040004000C000800080000001DE
:1041600000010002000200020004000000007C00C8
:10417000400040004000400040004000400040003F
:10418000400040004000400040004000400040002F
:104190004000400040007C000000000060009000F3
:1041A0000801000000000000000000000000000006
:1041B00000000000000000000000000000000000FF
:1041C00000000000000000000000000000000000EF
:1041D00000000000000000000000000000000000DF
:1041E00000000000000000000000000000000000CF
:1041F0000000000000000000FF0F00000000180099
:10420000600000000000000000000000000000004E
:10421000000000000000000000000000000000009E
:10422000000000000000000000000000000000008E
:104230000000000000000000000000000000F0018D
:104240000C030C030003E0031C030E030603060328
:104250008E0B7C0E0000000000000000000000003B
:10426000000008000E000C000C000C000C00CC013B
:104270003C031C060C060C060C060C060C060C0275
:104280001C03E4010000000000000000000000002A
:104290000000000000000000000000000000F0002E
:1042A0008C018C01860106000600060006020C0245
:1042B0000C01F00000000000000000000000000001
:1042C00000000002C00300030003000300037803A2
:1042D0008C030C030603060306030603060304030C
:1042E0008C077801000000000000000000000000C2
:1042F0000000000000000000000000000000E001DD
:10430000180308020C060C06FC070C000C0018042D
:104310001802E001000000000000000000000000A2
:1043200000000000C0036006300630003000FE01CF
:1043300030003000300030003000300030003000FD
:104340003000FC0100000000000000000000000040
:104350000000000000000000000000000000F00766
:10436000D8068C018C018C019801F8000C00FC002F
:10437000CC03060306038E03F800000000000000D3
:10438000000008000E000C000C000C000C00EC01FA
:104390001C030C030C030C030C030C030C030C0395
:1043A0000C039E0700000000000000000000000059
:1043B00000000000600060000000000040007C0081
:1043C00060006000600060006000600060006000ED
:1043D0006000FC030000000000000000000000007E
:1043E00000000000C001C001000000000001F00159
:1043F00080018001800180018001800180018001B5
:10440000800180018001CC007C00000000000000E1
:10441000000008000E000C000C000C000C008C03C7
:104420008C008C004C006C005C008C008C010C013A
:104430000C039E07000000000000000000000000C8
:10444000000040007C0060006000600060006000D0
:10445000600060006000600060006000600060005C
:104460006000FC03000000000000000000000000ED
:1044700000000000000000000000000000003707FE
:10448000EE06660666066606660666066606660644
:104490006606FF0F000000000000000000000000A2
:1044A0000000000000000000000000000000EE011D
:1044B0001C030C030C030C030C030C030C030C0374
:1044C0000C039E0700000000000000000000000038
:1044D0000000000000000000000000000000F000EC
:1044E00098010C03060606060606060606060C03D9
:1044F0000C03F000000000000000000000000000BD
:104500000000000000000000000000000000EE01BC
:104510001C030C060C060C060C060C060C060C0301
:104520001C03EC010C000C003E0000000000000029
:104530000000000000000000000000000000780201
:104540008C030C0306030603060306030603040399
:104550008C03780300030003C00700000000000084
:1045600000000000000000000000000000009F03A9
:10457000580638061800180018001800180018000F
:104580001800FF0000000000000000000000000014
:104590000000000000000000000000000000F00328
:1045A0001C030C020C023800F000C00304030403D7
:1045B0008C03FC010000000000000000000000006F
:1045C0000000000000002000200030003000FE014C
:1045D0003000300030003000300030003000300259
:1045E0003002E001000000000000000000000000B8
:1045F00000000000000000000000000008028E0320
:104600000C030C030C030C030C030C030C030C0332
:104610009C0778010000000000000000000000007E
:1046200000000000000000000000000000001E0765
:104630000C020801080118019000B000B0006000F1
:1046400060002000000000000000000000000000EA
:104650000000000000000000000000000000F70E55
:104660006204460464026402EC029C019801980111
:104670009801080000000000000000000000000099
:104680000000000000000000000000000000BC0767
:1046900018011001B00060006000E0009000080107
:1046A00008039E070000000000000000000000005A
:1046B00000000000000000000000000000009E0755
:1046C00008010801080190009000B000600060003F
:1046D00060002000200024001C00000000000000FA
:1046E0000000000000000000000000000000FC01CD
:1046F0008401C40044006000200030001802080259
:104700000C03FC010000000000000000000000039A
:104710008000800080008000800080008000800099
:104720004000200040008000800080008000800069
:104730008000800080000003000040004000400036
:104740004000400040004000400040004000400069
:104750004000400040004000400040004000400059
:1047600040004000400040004000000000000C00FD
:1047700010001000100010001000100010001000B9
:104780002000400020001000100010001000100059
:104790001000100010000C00000000001C0022049B
:1047A000C2048003000000000000000000000000C0
:1047B00000000000000000000000000000000000F9
:1047C00000000000000000000000000000000000E9
:1047D00000000000000000000000000000000000D9
:1047E00000000000000000000000000000000000C9
:1047F00000000000000000000000000000000000B9
:1048000000000000000000000000000000000000A8
:1048100000000000C001C001C001C001C001C00112
:10482000C001800080008000800080008000800047
:1048300000000000000000008001C003C0038001F0
:104840000000000000000000000000000000000068
:10485000E01CE01CF01E700E3807180308018400ED
:104860000000000000000000000000000000000048
:104870000000000000000000000000000000000038
:104880000000000000000000000000000000000028
:104890000000000000002010201020102010201028
:1048A000FE7FFE7F1008100810081008100810087E
:1048B0001008FE7FFE7F08040804080408040804AA
:1048C00000000000000000000000000000000000E8
:1048D000000000010001C0076019103118311839BB
:1048E000183938017001E001C0038007000F001D76
:1048F000003900311C311C310C310C11180DE0074E
:1049000000010001000100000000000000000000A4
:104910000000000000001C1036186308630C6304DC
:104920006304630263026301361D9C378022806347
:104930004063406320632063306310221836081CF4
:104940000000000000000000000000000000000067
:10495000000000000000F00098018C018C018C0127
:104960008C018C00CC007800183E1C0836083208F8
:1049700063046304C304C303834306438E26781C85
:104980000000000000000000000000000000000027
:104990001C003C003C003000300010000C00060001
:1049A0000000000000000000000000000000000007
:1049B00000000000000000000000000000000000F7
:1049C00000000000000000000000000000000000E7
:1049D0000040002000100008000C00040006000346
:1049E00000030003800180018001800180018001BB
:1049F0008001800100030003000300060006000C94
:104A0000000800100020004000000000000000002E
:104A10000200040008001000300020006000C00008
:104A2000C000C00080018001800180018001800100
:104A300080018001C000C000C00060006000300044
:104A40001000080004000200000000000000000048
:104A5000000000000000000000000001800380034F
:104A600000011C713C79783DC0070001C007783D0A
:104A70003C791C710001800380038001000000006C
:104A80000000000000000000000000000000000026
:104A90000000000000000000000000000001000114
:104AA00000010001000100010001FC7F0001000184
:104AB00000010001000100010001000000000000F1
:104AC00000000000000000000000000000000000E6
:104AD00000000000000000000000000000000000D6
:104AE00000000000000000000000000000000000C6
:104AF000000000000000000000001C003C003C0022
:104B00003000300010000C00060000000000000023
:104B10000000000000000000000000000000000095
:104B200000000000000000000000FE7F0000000008
:104B30000000000000000000000000000000000075
:104B40000000000000000000000000000000000065
:104B50000000000000000000000000000000000055
:104B60000000000000000000000000000000000045
:104B7000000000000000000018003C003C0018008D
:104B80000000000000000000000000000000000025
:104B90000040006000200030001000180008000CE9
:104BA0000004000600020003000180018000C00034
:104BB00040006000200030001000180008000C00C9
:104BC00004000600020000000000000000000000D9
:104BD000000000000000C007600C301818301830CA
:104BE00018200C600C600C600C600C600C600C6099
:104BF0000C600C601820183018303018600CC0079A
:104C000000000000000000000000000000000000A4
:104C100000000000000000018001F8018001800117
:104C2000800180018001800180018001800180017C
:104C3000800180018001800180018001C003F81F94
:104C40000000000000000000000000000000000064
:104C5000000000000000E007101C081804300430B9
:104C60000C300C3000300018000800040002000175
:104C7000800040002020102008200430FC1FFC1F72
:104C80000000000000000000000000000000000024
:104C9000000000000000E003180E0C0C0C180C18AB
:104CA0000C180018000C0006C003000E00180010BD
:104CB000003000300C300C300C100C18180CE003D5
:104CC00000000000000000000000000000000000E4
:104CD000000000000000000C000E000E000F800E0F
:104CE000800E400E600E200E100E100E080E040EE8
:104CF000040EFE7F000E000E000E000E000E000ED1
:104D0000C07F000000000000000000000000000064
:104D1000000000000000F03FF03F10001000100005
:104D200008000800C807280C1818081000300030C8
:104D3000003000300C300C3004180418080CF0035C
:104D40000000000000000000000000000000000063
:104D5000000000000000800FC0102030103018004C
:104D6000180008000C008C0F6C183C301C600C60A4
:104D70000C600C600C601860182030306018C007A0
:104D80000000000000000000000000000000000023
:104D9000000000000000F83FF83F1C100C08040859
:104DA0000404000400020002000100010001800070
:104DB00080008000C000C000C000C000C000C00073
:104DC00000000000000000000000000000000000E3
:104DD000000000000000E007300C18180C300C3008
:104DE0000C301C3038187008E007B007180E0C1C87
:104DF000063806300630063006300C18180CE00372
:104E000000000000000000000000000000000000A2
:104E1000000000000000E00318040C080C18061045
:104E2000063006300630063006380C3C1836F031B5
:104E300000300018001800180C0C0C060C03F001D0
:104E40000000000000000000000000000000000062
:104E50000000000000000000000000000000000052
:104E6000000000008001C003C003800100000000BA
:104E700000000000000000008001C003C0038001AA
:104E80000000000000000000000000000000000022
:104E90000000000000000000000000000000000012
:104EA00000000000C000C000000000000000000082
:104EB000000000000000000000000000C000C00072
:104EC0008000800040004000000000000000000062
:104ED000000000000020001000080004000600038D
:104EE0008001C0006000300018000C001800300085
:104EF0006000C000800100030006000400080010EC
:104F00000020000000000000000000000000000081
:104F10000000000000000000000000000000000091
:104F200000000000FE7F0000000000000000000004
:104F3000FE7F0000000000000000000000000000F4
:104F40000000000000000000000000000000000061
:104F50000000000004000800100020006000C000F5
:104F6000800100030006000C001800300018000C3F
:104F7000000600038001C00060002000100008004F
:104F8000040000000000000000000000000000001D
:104F900000000000C0073018083008600C601C607A
:104FA0001C601C600030001C0006000180008000B6
:104FB00080008000000000008001C003C003800169
:104FC00000000000000000000000000000000000E1
:104FD000000000000000C0076018103018200C2FDF
:104FE0008C4D864CC64CC64C664C66446644662660
:104FF00066266615CC1C0C40082018303018C007F7
:1050000000000000000000000000000000000000A0
:10501000000000000001C001C001C00140016003A8
:105020002003200320033006100610061006F80F98
:10503000080C080C080C0C0C0418041806181F7C2B
:105040000000000000000000000000000000000060
:10505000000000000000FE07181C18381830183037
:10506000183018301818180CF807181818301820AD
:105070001860186018601860186018301818FE0F53
:105080000000000000000000000000000000000020
:10509000000000000000C0276038103018200C40CD
:1050A0000C4004000600060006000600060006008C
:1050B000060006000C400C400C2018303018C007C9
:1050C00000000000000000000000000000000000E0
:1050D000000000000000FE03180E181818301830E9
:1050E0001830186018601860186018601860186030
:1050F000186018601830183018101818180EFE03B1
:10510000000000000000000000000000000000009F
:10511000000000000000FE3F183018201860184002
:10512000180018081808180CF80F180C1808180898
:105130001800180018001840184018201830FE3FBA
:10514000000000000000000000000000000000005F
:10515000000000000000FE7F1870184018C0188082
:105160001800181018101818F81F18181810181010
:1051700018001800180018001800180018007E0009
:10518000000000000000000000000000000000001F
:10519000000000000000C013701C101018100C203C
:1051A0000C2004000600060006000600060006FCAF
:1051B000063006300C300C30183018303008C0077C
:1051C00000000000000000000000000000000000DF
:1051D0000000000000003F7E0C180C180C180C1882
:1051E0000C180C180C180C180C18FC1F0C180C18A8
:1051F0000C180C180C180C180C180C180C183F7EF6
:10520000000000000000000000000000000000009E
:10521000000000000000F81F800180018001800173
:105220008001800180018001800180018001800176
:105230008001800180018001800180018001F81FD0
:10524000000000000000000000000000000000005E
:10525000000000000000E07F0006000600060006D7
:10526000000600060006000600060006000600060E
:1052700000060006000600060006000600060006FE
:1052800000060E060E038E01FC0000000000000068
:105290000000000000007E7C18181808180418068A
:1052A0001802180198019801D801B80338031807AB
:1052B0001806180E180C181C1818183018307EFC18
:1052C00000000000000000000000000000000000DE
:1052D0000000000000007E001800180018001800F0
:1052E00018001800180018001800180018001800FE
:1052F0001800180018001840184018201830FE3FF9
:10530000000000000000000000000000000000009D
:105310000000000000001FF81C381C381C381C3C22
:105320003434343434343436743264326432643273
:105330006431C431C431C431C430C43084309FFCC2
:10534000000000000000000000000000000000005D
:105350000000000000001F7C1C103C1034103410B2
:1053600074106410E410C410C41184118413041365
:1053700004170416041E041C041C041C04181F1823
:10538000000000000000000000000000000000001D
:10539000000000000000C003300C181808100C308A
:1053A0000C300660066006600660066006600660F7
:1053B000066006600C200C3008101818300CC00372
:1053C00000000000000000000000000000000000DD
:1053D000000000000000FE0F181818301860186058
:1053E00018601860186018301818F80F18001800A6
:1053F00018001800180018001800180018007E0087
:10540000000000000000000000000000000000009C
:10541000000000000000C003300C18180C100C3005
:105420000C20066006600660066006600660066086
:1054300006600660E4612C331C321816300EC0077B
:10544000004C007C0038000000000000000000005C
:10545000000000000000FE07181C18381830183033
:10546000183018301818180CF80798031803180784
:1054700018061806180E180C180C181C18187E7828
:10548000000000000000000000000000000000001C
:10549000000000000000E027303818300C200C20FD
:1054A0000C000C0018007800E003800F001E00388C
:1054B0000070006004600460086018303818C80F7D
:1054C00000000000000000000000000000000000DC
:1054D000000000000000FC3F8C2184618241824179
:1054E00080018001800180018001800180018001B4
:1054F0008001800180018001800180018001E0073E
:10550000000000000000000000000000000000009B
:105510000000000000003F7C0C100C100C100C1060
:105520000C100C100C100C100C100C100C100C109B
:105530000C100C100C100C100C1008083804E003B0
:10554000000000000000000000000000000000005B
:105550000000000000003EF818201820182030102D
:10556000301030103010600860086008E00CC00493
:10557000C004C00480038003800380030001000195
:10558000000000000000000000000000000000001B
:10559000000000000000DFF38661862186218C2157
:1055A0000C218C238C138C138C134C13581258160B
:1055B000580E380E380E380E300C1004100410043B
:1055C00000000000000000000000000000000000DB
:1055D0000000000000007E3E180838083004300447
:1055E00070026002E001C001C0018001800340033D
:1055F000400720062006100C100C081808183E7CE6
:10560000000000000000000000000000000000009A
:105610000000000000007E7C1C10181018083008E4
:10562000300C700460046002C002C002C00180013E
:105630008001800180018001800180018001E007FC
:10564000000000000000000000000000000000005A
:10565000000000000000F83F18180818040C040EA1
:1056600000060007000380038001C001C000E000C5
:10567000600070003000382018201C100C18FE1F2D
:10568000000000000000000000000000000000001A
:10569000C03F40004000400040004000400040004B
:1056A00040004000400040004000400040004000FA
:1056B00040004000400040004000400040004000EA
:1056C00040004000C03F000000000000000000005B
:1056D0000000000008001800180010003000200032
:1056E000600060004000C000800080018001000177
:1056F00000030002000600060004000C0008001869
:105700000018001000300020000000000000000021
:10571000FC0300020002000200020002000200027C
:105720000002000200020002000200020002000269
:105730000002000200020002000200020002000259
:1057400000020002FC030000000000000000000056
:105750008007C006200810100000000000000000B4
:105760000000000000000000000000000000000039
:105770000000000000000000000000000000000029
:105780000000000000000000000000000000000019
:105790000000000000000000000000000000000009
:1057A00000000000000000000000000000000000F9
:1057B00000000000000000000000000000000000E9
:1057C0000000000000000000FFFF000000000000DB
:1057D0007800C00000010000000000000000000090
:1057E00000000000000000000000000000000000B9
:1057F00000000000000000000000000000000000A9
:105800000000000000000000000000000000000098
:105810000000000000000000000000000000000088
:1058200000000000F00318060C0C0C0C000C800F9C
:10583000700C1C0C0C0C060C060C064C0C4FF838AB
:105840000000000000000000000000000000000058
:105850000000000010001E001800180018001800BA
:1058600018001800180FD818383038601860186001
:105870001860186018601860182038307818C80749
:105880000000000000000000000000000000000018
:105890000000000000000000000000000000000008
:1058A00000000000C007700C181818180C180C0025
:1058B0000C000C000C000C20182018103008C00739
:1058C00000000000000000000000000000000000D8
:1058D000000000000010001E00180018001800183A
:1058E00000180018E01B301C181818180C180C1899
:1058F0000C180C180C180C180818181C307AE00931
:105900000000000000000000000000000000000097
:105910000000000000000000000000000000000087
:1059200000000000C007300C181808100C300C30B4
:10593000FC3F0C000C000C00182018107018C00759
:105940000000000000000000000000000000000057
:10595000000000000000003E80C380C0C0C0C00046
:10596000C000C000FC1FC000C000C000C000C000DC
:10597000C000C000C000C000C000C000C000F80FE0
:105980000000000000000000000000000000000017
:105990000000000000000000000000000000000007
:1059A00000000000C077306C10181818181818186C
:1059B0001018300CF00718001800F00FF03F0870B6
:1059C0000C600C600C603838E00F00000000000034
:1059D0000000000010001E00180018001800180039
:1059E00018001800980FD8183830183018301830B0
:1059F00018301830183018301830183018307EFC35
:105A00000000000000000000000000000000000096
:105A100000000000000080038003800300000000FD
:105A200000000001F80180018001800180018001F7
:105A30008001800180018001800180018001F81FC8
:105A40000000000000000000000000000000000056
:105A5000000000000000003800380038000000009E
:105A600000000010801F001800180018001800180F
:105A70000018001800180018001800180018001866
:105A800000180018180C1806F003000000000000B1
:105A90000000000010001E00180018001800180078
:105AA00018001800183E180C180618031801980161
:105AB000D801380318071806180C181C18187E7C13
:105AC00000000000000000000000000000000000D6
:105AD000000000000001F8018001800180018001C8
