:020000040800F2
:10000000D0070020690100088B0200087502000873
:1000100089020008EF010008110500080000000037
:1000200000000000000000000000000007030008BE
:10003000F50100080000000005030008090300089E
:100040008301000883010008830100088301000880
:100050008301000883010008830100088301000870
:100060008301000883010008830100088301000860
:1000700083010008F101000883010008F301000872
:100080008301000883010008B10100088301000812
:100090008301000883010008830100088301000830
:1000A0008301000883010008830100088301000820
:1000B0008301000883010008830100088301000810
:1000C0008301000883010008830100088301000800
:1000D00083010008D103000883010008D50300084C
:1000E00083010008830100088301000883010008E0
:1000F000830100088301000883010008000000005C
:10010000830100080000000083010008830100084B
:100110008301000883010008CD0300088301000863
:10012000830100088301000883010008830100089F
:1001300083010008000000000000000083010008A7
:10014000830100088301000883010008830100087F
:10015000DFF810D000F01AF800480047E11100085D
:10016000AFF30080D00700200648804706480047CC
:10017000FEE7FEE7FEE7FEE7FEE7FEE7FEE7FEE757
:10018000FEE7FEE70D03000851010008064C074D8D
:1001900006E0E06840F0010394E807009847103457
:1001A000AC42F6D3FFF7D8FFA02C0008C02C000803
:1001B0000248016821F004010160704700240140F9
:1001C00010B500F0FDFC00F0F9FB00F0D9FA00F0EA
:1001D00023FB00F043FB00F029FD00F0E1FD00F0FF
:1001E00047FD00F06FFCBDE8104000F0BFBCFEE72B
:1001F000704770477047000010B500F03DF8124896
:1002000000210160416081600022026142619FED36
:100210000F0A80ED060A80ED070A80ED080A80EDDE
:10022000090A80ED0A0A80ED0B0A80ED0E0A9FEDA7
:10023000080A80ED0C0A9FED070A80ED0D0A9FED7C
:10024000060A80ED0F0A10BD280000200000000003
:1002500000007A450024744A0000C8420348416AFD
:1002600003480068C0EB004008447047001000409D
:1002700008000020FEE7000002494FF48040C860FB
:100280007047000028000020FEE7704710B540F2DC
:10029000DC501B490860091D0860091D0860184CE6
:1002A0000121343C204601F054FD0121204601F09B
:1002B00053FD0028F9D00121204601F04AFD01221A
:1002C0000021204601F048FC01221146204601F0A1
:1002D00043FC01220221204601F03EFC04220021C1
:1002E000204601F0C9FA04220121204601F0C4FA97
:1002F00020460422BDE81040022101F0BDBA0000F2
:10030000342C0140704770477047000008B52C48F6
:10031000016841F4700101602A48016841F001015F
:10032000016001688907FCD5416841F080014160A6
:100330000022009202E00099491C00910099502986
:10034000F9D3416841F090014160009202E00099C8
:10035000491C009100995029F9D3416841F0A0014E
:100360004160009202E00099491C009100995029D7
:10037000F9D3416841F0B0014160009202E0009978
:10038000491C009100995029F9D3416821F00301DB
:10039000416001680C4B194001604FF47F0181609E
:1003A0004260C262016821F48021016001F044FAD8
:1003B000BDE8084000214FF0006000F0EDBF0000F4
:1003C00088ED00E000100240FFFFF6EA00F08AB876
:1003D00001F044BD01F07ABD3548002101609FED78
:1003E000350A80ED010A9FED340A80ED020A0722EA
:1003F000C2609FED320A80ED040A80ED050AB2EE7C
:10040000040A80ED060ADFED2E0AC0ED070A01227C
:10041000C2638262DFED2B0AC0ED0B0ADFED2A0A10
:10042000C0ED0C0ADFED290AC0ED0D0ADFED280A48
:10043000C0ED0E0A0164F6EE000AC0ED110ADFED10
:10044000250AC0ED120ADFED240AC0ED130ADFED24
:10045000230AC0ED140AF0EE000AC0ED150AF3EE0F
:100460000E0AC0ED160ADFED1E0AC0ED170AC0ED38
:10047000180AF2EE000AC0ED190AB3EE0C1A80ED6C
:100480001A1AB3EE041A80ED1B1AB1EE041A80EDAD
:100490001C1A80ED1D0AC0F88810C0ED080AB0EEE5
:1004A000080A80ED090A43F68C71C0F89010704775
:1004B000B800002017B7D138DAAC7A3D0000000050
:1004C0000000704200002043CDCC4C3D0AD7A33C35
:1004D00000007A440AD7233CCDCCCC3D0000C84272
:1004E0000000484210B5084C0121204601F093FC61
:1004F000012807D10121204601F08AFC0348016848
:10050000491C016010BD00000010004008000020E0
:10051000FEE702E008C8121F08C1002AFAD170479E
:100520007047002001E001C1121F002AFBD1704773
:10053000521E01290DD002290AD1816B21F44011EC
:100540008163816B4FF4401303EA025211438163CC
:100550007047C16A21F47001C162C16A4FF470032F
:1005600003EA02521143C1627047002904D0816836
:1005700041F4006181607047816821F4006181600D
:100580007047000010B50D4940180CD0B0F5806FD1
:1005900013D140F20A34204600F050FF2046BDE857
:1005A000104000F03DBF40F20934204600F046FF05
:1005B0002046BDE8104000F033BF10BD00DCFEBF98
:1005C000002A0CD0CA0703D0826842F480128260ED
:1005D000890703D5816841F4004181607047CA07EB
:1005E00003D0826822F4801282608907F6D5816880
:1005F00021F4004181607047012909D0022906D108
:10060000816821F4E0418160816811438160704715
:10061000816821F4602181608168114381607047A5
:1006200030B5846BC4F30155846B491BC91C01EBC5
:1006300081011F258D40AC4302FA01F525438563F6
:1006400007250A2A08D2046902EB42018D40AC4317
:100650008B402343036130BD122AFCD2C4680A3A9E
:1006600002EB42018D40AC438B402343C36030BD5D
:10067000CA0703D0426842F0400242608A0703D5AD
:10068000426842F020024260490703D5416841F0C8
:10069000800141607047000004490A6822F470221A
:1006A0000A600A6802430A6070470000042401409F
:1006B00030B51F24062909D2456B01EB81018C401E
:1006C000A54302FA01F42C43446318E00C290AD232
:1006D000056B891F01EB81018C40A54302FA01F4EF
:1006E0002C4304630BE0102909D2C56A0C3901EBD5
:1006F00081018C40A54302FA01F42C43C462072512
:100700000A2A08D2046902EB42018D40AC438B40B7
:100710002343036130BD122AFCD2C4680A3A02EBBB
:1007200042018D40AC438B402343C36030BD002A5F
:1007300012D0CA0503D5426842F4807242604A056D
:1007400003D5426842F480624260890703D581681C
:1007500041F0020181607047CA0503D5426822F466
:10076000807242604A0503D5426822F4806242608A
:100770008907F0D5816821F002018160704700008F
:1007800010B54FF4A020FFF787FF224C2046FFF75B
:10079000F9FE012202212046FFF7C9FF01221102C2
:1007A0002046FFF7C4FF00212046FFF7DEFE0122AE
:1007B00011462046FFF7BCFE0123032200212046FC
:1007C000FFF776FF022211462046FFF7B1FE002216
:1007D000012311462046FFF723FF01231A4619463D
:1007E0002046FFF71DFF4FF4602201212046FFF74E
:1007F00003FF012211462046FFF7E2FEA214022168
:100800002046FFF7F9FE20460122BDE810400221F4
:10081000FFF7D6BE0024014010B50F4C2046FFF76D
:10082000B1FE00212046FFF7A0FE01220221204652
:10083000FFF77EFE0123022200212046FFF7F0FE93
:10084000A21402212046FFF7D7FE20460122BDE870
:1008500010400221FFF7B4BE002801402DE9F04707
:1008600088B0DFF83CA10021504600F051FB01A800
:1008700000F0DCFB4B4801904B48039000248DF8BE
:100880001C4001258DF81D50280202908000049024
:100890008DF81E4005958700069701AA0021504655
:1008A00000F053FB0021504600F020FB0021504691
:1008B00000F0F8FA0221504600F02AFB01A800F0EF
:1008C000B5FB8DF81E40394803908DF81D500494F7
:1008D0004FF02008CDF81480DFF8D490CDF80490C4
:1008E0008DF81C4002946E03069601AA0221504620
:1008F00000F02BFB0221504600F0E6FA02215046A0
:1009000000F076FB0221504600F0CCFA012150465F
:1009100000F0FEFA01A800F089FB8DF81E508DF85A
:100920001D500494CDF804908DF81C400294069755
:1009300001AA0121504600F008FB0121504600F0B9
:10094000C3FA0121504600F053FB0421504600F049
:10095000DFFA01A800F06AFB8DF81E4015480390ED
:100960008DF81D500494CDF81480134801908DF833
:100970001C400294069601AA0421504600F0E5FAB4
:100980000421504600F0A0FA0421504600F030FB4C
:100990000421504600F086FA08B0BDE8F087000058
:1009A000000002404C2401400C0000209003002075
:1009B00004480040500300200438004070B53F4C0C
:1009C0004FF4807303221821204600F061FB631569
:1009D00003221821204600F05BFB25152B4603223D
:1009E0001821204600F054FB354E631403221821D1
:1009F000304600F04DFB2B0103221821304600F059
:100A000047FB6B0103221821304600F041FB012314
:100A100004220021204600F03BFB02230422002197
:100A2000204600F035FB04231A460021204600F042
:100A30002FFB082304220021204600F029FB042379
:100A400001221021304600F023FB0421304600F043
:100A50001BFB0121042000F075FB40230322182119
:100A6000304600F015FB802303220421304600F0BD
:100A70000FFB2B4603221821304600F009FBE3143C
:100A800003220421304600F003FB10230322194601
:100A9000204600F0FDFA1021204600F0F7FAA023CE
:100AA00003221821204600F0F3FA2046BDE87040EA
:100AB00040230322042100F0EBBA000000080140AB
:100AC000000C014070B5274C4FF48071204600F0B7
:100AD00031FB6115204600F02DFB251529462046E7
:100AE00000F028FB204E6114304600F023FB290162
:100AF000304600F01FFB6901304600F01BFB01216E
:100B0000204600F017FB0221204600F013FB0421D1
:100B1000204600F00FFB0821204600F00BFB1021BF
:100B2000204600F007FB2021204600F003FB402177
:100B3000204600F0FFFA8021204600F0FBFA402119
:100B4000304600F0F7FA8021304600F0F3FA2946EB
:100B5000304600F0EFFAE1143046BDE8704000F096
:100B6000E9BA000000080140000C014010B54FF444
:100B7000407000F007FC00220421362000F0BAFB90
:100B800001210C4801F040F900220321122000F05D
:100B9000B1FB04210848FFF76BFD0022042125204A
:100BA00000F0A8FBBDE810404FF44171034801F08C
:100BB000C9B9000000100040002401400038014085
:100BC00010B540F2026000F01DFC40F2036000F03E
:100BD00019FC40F2046000F015FC4FF4C06000F016
:100BE00011FC40F2096000F00DFC40F20A6000F0D8
:100BF00009FC012000F0DCFB40F20B6000F002FC7D
:100C000040F2047000F0FEFB4FF4A06000F0FAFB2D
:100C100040F2127000F0F6FB40F20E6000F0F2FBC2
:100C2000BDE8104040F20C6000F0ECBB10B588B09D
:100C30000E4C204600F058FC01A800F098FC002162
:100C400002914FF482720192E214039203220692FF
:100C50006215049210220792059101A9204600F026
:100C60006FFC204600F03AFC08B010BD0030014097
:100C700030B58BB0494D284600F0A2FF07A801F01F
:100C8000E2F80024ADF81C404020ADF81E00ADF89D
:100C9000204040F6B8300990ADF828408DF82A4041
:100CA00007A9284601F060F804A800F080FF0120A1
:100CB000ADF810000420ADF81200ADF81440ADF806
:100CC0001640ADF81840ADF81A4004AA0021284695
:100CD00000F0F2FD04AA0121284600F0EDFD04AA6F
:100CE0000221284600F0E8FD04AA0321284600F06E
:100CF000E3FD00221146284600F0F4FE60220021A8
:100D0000284600F0C5FE08220021284600F0FAFE21
:100D100000220121284600F0E5FE6022012128463C
:100D200000F0B6FE08220121284600F0EBFE00226A
:100D30000221284600F0D6FE60220221284600F05B
:100D4000A7FE08220221284600F0DCFE40F6B3325E
:100D50000321284600F0C6FE60220321284600F049
:100D600097FE00220321284600F0CCFE684600F0E2
:100D70007AFDADF80040ADF80240ADF80440ADF8A2
:100D80000640ADF80840ADF80A40ADF80C406946A1
:100D9000284600F058FD0BB030BD0000002C01408B
:100DA0001FB50C4C204600F00BFF684601F04BF8D5
:100DB0007721ADF800100021ADF80210ADF8041055
:100DC0004FF6FF720292ADF80C106946204600F013
:100DD000CBFF1FBD001000409FED1E1AF5EE000A6C
:100DE00040EE010ABDEEE00A10EE100AF5EEC00A70
:100DF000F1EE10FA00D2401E00EE100AB8EEC00A62
:100E000030EEC00ADFED140A20EE200ABCEEC01A54
:100E100011EE100A80B2B0F5007F02D3002030EE50
:100E2000600A00EE900AF8EE600A70EE600A0B4964
:100E300001EB800292ED000A401C01EB800090ED76
:100E4000001AF7EE001A71EEE01A21EE800A00EEA9
:100E5000810A704783F9223E000000449C1F00086D
:100E6000014800F071BF00000010004000B50246CC
:100E7000FFF7F4F90244FFF7F1F99042FBD900BD06
:100E800070B505460C462146284600F0C3F840B12F
:100E900004EB840005EB8000816821F00101816092
:100EA00070BDFEE770B505460C462146284600F0A9
:100EB000B1F840B104EB840005EB8000816841F09B
:100EC0000101816070BDFEE770B505460C46214604
:100ED000284600F09FF840B104EB840005EB800049
:100EE000816821F02001816070BDFEE770B5054684
:100EF0000C462146284600F08DF840B104EB8400F2
:100F000005EB8000816841F02001816070BDFEE743
:100F100070B504460D462946204600F07BF898B18E
:100F200005EB850004EB8002906820F001009060E2
:100F300000209060D060106150616068AA000F21AD
:100F400091400843606070BDFEE770B506460D46EF
:100F500014462946304600F05DF848B305EB85009D
:100F600006EB800022680261A1684161218A89B292
:100F7000C160816821F47C52E36861681943636948
:100F8000134319438160217E012912D0816821F029
:100F900040018160617E012910D0816821F08001CB
:100FA0008160A17E79B1816841F01001816070BDDE
:100FB000FEE7816841F040018160EBE7816841F024
:100FC00080018160EDE7816821F01001816070BDD2
:100FD00070B506460C4615462146304600F01AF814
:100FE00028B104EB840006EB8000456170BDFEE78C
:100FF00070B505460C462146284600F00BF840B176
:1010000004EB840005EB8000816821F4804181605D
:1010100070BDFEE702460120034B9A4202D104292B
:1010200000D90020704700000004024000280AD0C8
:1010300000210160416001768160C16041760161FB
:10104000817641617047FEE770B506460C4615464D
:1010500021463046FFF7DEFF30B104EB840106EB9A
:101060008101A8B2C86070BDFEE770B505460C46A8
:1010700021462846FFF7CEFF28B104EB840005EB9C
:101080008000C06870BDFEE7416170470161704734
:101090002DE9F04301F00F04CD0602D5042A18D043
:1010A000144300224FF00F0C012707FA02F51D40F0
:1010B0001AD0D0F8009096000CFA06F829EA080930
:1010C00004FA06F848EA0908282908D0482908D06F
:1010D00008E044F00304C26B1A43C263E1E74561D0
:1010E00000E00561C0F80080521C92B2082ADCD3EF
:1010F000082207FA02F51D4016D0D0F80490A2F19C
:101100000806B6000CFA06F829EA080904FA06F8F7
:1011100048EA0908282902D0482902D002E045619E
:1011200000E00561C0F80480521C92B2102AE0D39E
:10113000BDE8F08341F4803282618161826181691E
:1011400080697047F0B5154C002801DAE36900E0CA
:101150006368C0F30346420D120185B2C0F3015724
:101160009540032F07D0C2020CD50322B24093430F
:1011700043F0E06209E023F0E062636823F0E0639B
:10118000636002E0AB4343F0E06201B12A43002810
:1011900001DAE261F0BD6260F0BD000000000140D4
:1011A00010B5F0EE402AB0EE603AF0EE413A034658
:1011B0000C46B0EE630A00F04FF9B0EE402AB0EEF4
:1011C000630AFFF709FE62EE800A43EE420AC3EDAE
:1011D000000A62EE820A43EE000AC4ED000A10BD66
:1011E0002DED028B82B072B6FEF7EAFFFFF7F4F83E
:1011F000FFF702F8FFF734FE374C204600F0A4FD5D
:101200000121204600F01DFE0121204600F00DFEC8
:10121000204600F013FBFFF739F862B6DFF8C890FC
:101220009FED2E8A2E4CDFED2F8A09F13C0709F144
:1012300038084FF08D4609F1340994ED010A70EE3B
:10124000080AC4ED010A10EE900AB04205DD9FEDD8
:10125000270A30EEC00A84ED010A694601A894ED20
:10126000011AD4ED000AB0EE680AFFF799FF3A467A
:1012700041464846DDED000A9DED010A00F080F987
:1012800030BB194BDFED1A0A93ED0D1A21EE200A3F
:10129000BCEEC01A11EE100A85B20F48343005605A
:1012A00093ED0E1A21EE200ABCEEC01A11EE100AC0
:1012B00085B209483830056093ED0F0A20EE200A08
:1012C000FCEEC00A10EE900A80B203493C3108607F
:1012D0003220FFF7CBFDB0E7002C014034FA8E3C02
:1012E0000000002000000000680000200000804690
:1012F00000803B45F0B506460F46002300242048F9
:10130000006800F4E0654FF4A06085422FD006DC51
:10131000B5F5407F31D0B5F5806F06D12AE0B5F53F
:10132000C06F21D0B5F5E06F1CD000F02BF8022380
:101330000224C3F104008740C4F104010F20C84017
:1013400010403843000106F1E02181F8000406F066
:101350001F01012088407109890001F1E021C1F8D5
:101360000001F0BD0424E4E701230324E1E70223A4
:101370000224DEE703230124DBE70423D9E700008E
:101380000CED00E002490843024908607047000084
:101390000000FA050CED00E0034A11400143034848
:1013A0000160BFF34F8F704780FFFF1F08ED00E023
:1013B00010B5124B5968124A1140DA6A22F00052F5
:1013C0000C2817D2DFE800F00606060616091609F3
:1013D0001010101041EA80310CE020F0040041EAC6
:1013E000803040F0805105E020F00C0041EA80316F
:1013F00042F000525960DA6210BD00000010024055
:10140000FF3FFFEF054901EB90110A6800F01F0351
:101410000120984002430A6070470000001002401B
:10142000054901EB90110A6800F01F030120984064
:1014300082430A607047000000100240054901EB3A
:1014400090110A6800F01F030120984002430A60CF
:101450007047000000100240DFED1D0A60EE200A18
:10146000BDEEE01A11EE100AB5EEC00AF1EE10FA68
:1014700000D2401E00EE100AB8EEC00A30EEC00ADC
:10148000DFED140A20EE200ABCEEC01A11EE100A9D
:1014900080B2B0F5007F02D3002030EE600A00EE8B
:1014A000900AF8EE600A70EE600A0B4901EB8002C8
:1014B00092ED000A401C01EB800090ED001AF7EE5F
:1014C000001A71EEE01A21EE800A00EE810A7047E0
:1014D00083F9223E000000449C1F0008016841F08F
:1014E000400101607047000010B5144940180FD04A
:1014F000B0F5806F16D0B0F5784F1DD14FF443741E
:101500002046FFF79BFF2046BDE81040FFF788BF4D
:1015100040F20E442046FFF791FF2046BDE8104000
:10152000FFF77EBF40F20F442046FFF787FF2046BB
:10153000BDE81040FFF774BF10BD000000C8FFBF3A
:10154000026802F441520B6813434A681A438B68DD
:101550001343CA681A430B6913434A691A438969DA
:1015600011430160C16921F40061C161704700212C
:10157000016041608160C1600161416181617047CA
:1015800010B59FED7C1A20EE811ADFED7B1AF5EE87
:10159000C00A7A4B60EEA11AF1EE10FA19DBB5EE33
:1015A000C00A0224F1EE10FA09DBB4EEC01AF1EE23
:1015B00010FA01DD1C6025E001241C6022E0F4EE3D
:1015C000C01AF1EE10FA02DD03241C601AE01C6060
:1015D00018E0B5EEC00A0524F1EE10FA09DBF4EECE
:1015E000C01AF1EE10FA01DD1C600BE006241C604D
:1015F00008E0B4EEC01AF1EE10FA02DD04241C601B
:1016000000E01C601B68DFED5B4AF0EE402A40EE14
:10161000E42A9FED5B1AB0EE403AF0EE403AB1EEAC
:10162000402A00EEA43A50EEA43A00EEE42A20EE5E
:10163000814AB7EE001AF6EE001A9FED520A072B08
:1016400020EE800A6AD2DFE803F0690415263748E5
:10165000590031EE620A30EE440A20EE210A80ED94
:10166000000A30EE220A81ED000A30EE040A82ED13
:10167000000A53E031EE430A30EE630A20EE210AFD
:1016800081ED000A30EE230A80ED000A30EE030AF5
:1016900082ED000A42E031EE440A30EE420A20EECA
:1016A000210A81ED000A30EE040A82ED000A30EED4
:1016B000020A80ED000A31E071EE630A70EEC00AA2
:1016C00060EEA10AC2ED000A30EE800A81ED000A48
:1016D00030EE230A80ED000A20E031EE420A30EEBF
:1016E000620A20EE210A82ED000A30EE020A80ED45
:1016F000000A30EE220A81ED000A0FE071EE400A86
:1017000070EEC30A60EEA10AC0ED000A70EE830A13
:10171000C2ED000A30EE800A81ED000A90ED000A69
:10172000B5EEC00AF1EE10FA1DDB10EE100A4FF014
:101730007E53984217DC91ED000AB5EEC00AF1EE37
:1017400010FA10DB10EE100A98420CDC92ED000A41
:10175000B5EEC00AF1EE10FA05DB10EE100A984261
:1017600001DC012000E0002008B1002010BD4FF096
:10177000FF3010BD3ACD133F3ACD13BF100000200B
:101780003ACD933F3ACD93BF00212548026842F4F9
:10179000803202604FF6FF73491C026802F4003287
:1017A0000AB99942F8D10168890300D4FEE71D49BE
:1017B0000A6822F00702D21C0A6041684160416851
:1017C0004160416841F4806141604168164A1140BE
:1017D00041604168154A11434160C16A144A114091
:1017E000C162C16A134A1143C162016841F080615C
:1017F000016001680901FCD5016841F08071016058
:1018000001688901FCD5416821F00301416041680C
:1018100041F00201416041680907FCD570470000B2
:101820000010024000200240FFFFC3DF000035200F
:1018300000F0FEBF19080100FFF7A6BF016841F0E4
:1018400080010160704710B50A884B88CC881A4324
:101850008B8823431A430B891A434B8989891A437E
:101860000A43426410BD0021018041808180C18013
:10187000018141818181704700290CD0012912D05A
:10188000022907D1016A21F480610162016A41EAFB
:10189000022101627047016A21F004010162016ABC
:1018A000114301627047016A21F040010162016A3F
:1018B00041EA02110162704730B5734B734C002945
:1018C00029D0012960D002297ED0032922D1016AC2
:1018D00021F480510162016A158841EA05310162F3
:1018E000016A21F400510162016A958841EA0531DB
:1018F0000162984201D0A04208D1416821F48041A0
:1019000041604168128941EA82114160C16921F454
:101910004071C16130BD016A21F001010162016ABB
:10192000158829430162016A21F002010162016AFE
:10193000958829430162984201D0A0421FD1016AD3
:1019400021F004010162016A538819430162016AAE
:1019500021F008010162016AD388194301624168DC
:1019600021F48071416041681389194341604168E5
:1019700021F40071416041685289114341608169DD
:1019800021F00301816130BD016A21F01001016283
:10199000016A158841EA05110162016A21F02001FE
:1019A0000162016A958841EA05110162984201D0FD
:1019B000A04225D1016A21F040010162016A5388E9
:1019C00041EA0311016200E01FE0016A21F0800199
:1019D0000162016AD38841EA03110162416821F47E
:1019E000806141604168138941EA83014160416837
:1019F00021F4006141604168528941EA82014160FD
:101A0000816921F44071816130BD016A21F48071E6
:101A10000162016A158841EA05210162016A21F427
:101A200000710162016A958841EA052101629842CC
:101A300001D0A04223D1016A21F480610162016AD0
:101A4000538841EA03210162016A21F400610162C5
:101A5000016AD38841EA03210162416821F480517F
:101A600041604168138941EA03114160416821F4F2
:101A7000005141604168528941EA02114160C169E7
:101A800021F00301C16130BD002C01400034014050
:101A900000290ED0012914D002291BD0032907D117
:101AA000C16921F4E041C161C16941EA0221C1611A
:101AB0007047816921F07001816181691143816101
:101AC0007047816921F4E0418161816941EA022125
:101AD00081617047C16921F07001C161C169114321
:101AE000C1617047002907D0012907D0022907D01A
:101AF000032900D1026470474263704782637047D4
:101B0000C263704700290ED0012914D002291BD0CE
:101B1000032907D1C16921F40061C161C16941EAAA
:101B20000221C1617047816921F0080181618169E9
:101B3000114381617047816921F40061816181698C
:101B400041EA022181617047C16921F00801C16148
:101B5000C1691143C161704700290ED0012914D019
:101B600002291BD0032907D1016A21F480510162A7
:101B7000016A41EA023101627047016A21F0010104
:101B80000162016A114301627047016A21F010018C
:101B90000162016A41EA021101627047016A21F49F
:101BA00080710162016A41EA0221016270470021ED
:101BB000018041808180C1800181418170470000A6
:101BC00010B55E4A811A141590427DD029DC5C4A1A
:101BD000A0EB0201904266D011DCB0F1804F50D0F2
:101BE0005849401855D0A0426FD140F202442046D7
:101BF000FFF724FC2046BDE81040FFF711BCA142CE
:101C00005BD0B1F5006F65D0B1F5406F5DD140F2AA
:101C100006442046FFF712FC2046BDE81040FFF7BF
:101C2000FFBBB1F5983F5FD011DCA1427AD0B1F58E
:101C3000883F1CD0B1F58C3F7ED140F20D34204658
:101C4000FFF7FCFB2046BDE81040FFF7E9BBB1F50C
:101C50009A3F53D0B1F59C3F6ED140F215342046E7
:101C6000FFF7ECFB2046BDE81040FFF7D9BB40F280
:101C70000B342046FFF7E2FB2046BDE81040FFF79B
:101C8000CFBB2046FFF7DAFB2046BDE81040FFF748
:101C9000C7BB40F201442046FFF7D0FB2046BDE819
:101CA0001040FFF7BDBB40F203442046FFF7C6FBE0
:101CB0002046BDE81040FFF7B3BB40F20444204685
:101CC000FFF7BCFB204601E022E035E0BDE8104014
:101CD000FFF7A6BB40F205442046FFF7AFFB2046C6
:101CE000BDE81040FFF79CBB40F213342046FFF7DD
:101CF000A5FB2046BDE81040FFF792BB4FF44574AA
:101D00002046FFF79BFB2046BDE81040FFF788BB4D
:101D100040F207442046FFF791FB2046BDE8104003
:101D2000FFF77EBB4FF481642046FFF787FB204618
:101D3000BDE81040FFF774BB10BD0000001C004060
:101D4000000C004000FCFFBF016841F00101016090
:101D50007047C943016170470069084201D0012002
:101D6000704700207047000030B50A8882621F4A21
:101D70001F4B90420DD0B0F1804F0AD01D4CA042B5
:101D800007D01D4CA04204D01C4CA04201D0984268
:101D90000FD1046824F07004046004688D7805F0A5
:101DA00060052C43046004680D7905F010052C4390
:101DB00004608C68C462124CA0420CD0114CA0424A
:101DC00009D0046824F44074046004688D8905F423
:101DD00040752C430460904201D0984201D1897B28
:101DE0000163416941F00101416130BD002C0140B6
:101DF000003401400004004000080040000C004096
:101E00000010004000140040C2680A43C2607047DE
:101E1000C94301617047C2680A400069084202D0A4
:101E20000AB10120704700207047012904D0416C9D
:101E300021F4004141647047416C41F40041416428
:101E400070470163704700210180418081804FF617
:101E5000FF728260818181737047000070B5164DFA
:101E6000164C2946204600F080F8012823D1294647
:101E7000204600F071F8204600F060F8104C042174
:101E80002046FEF7FDFF04212046FFF7EEF80D493E
:101E9000C0F1200008800C4A04212046FFF798F882
:101EA000202204212046FFF7CFF82046BDE87040ED
:101EB0000421FEF7F7BF70BD0403040000380140A1
:101EC00000000240140000205003002070B5164DA1
:101ED000164C2946204600F048F8012823D129460F
:101EE000204600F039F8204600F028F8104C022176
:101EF0002046FEF7C5FF02212046FFF7B6F80D4940
:101F0000C0F1200048800C4A02212046FFF760F80B
:101F1000202202212046FFF797F82046BDE87040B6
:101F20000221FEF7BFBF70BD04030400004800405B
:101F30000000024014000020900300204068C0F31D
:101F40000800704700EB9110026801F01F030121A7
:101F500099400A4302607047C1F3044301229A404A
:101F600000EB9150D2430260704730B5C1F3891243
:101F7000825801F01F04012505FA04F31A4000EB12
:101F800091500068C1F3044105FA01F3184000289C
:101F900002D00AB1012030BD002030BD0000000099
:101FA000920E493CB10AC93C2BC3163D2EFB483D5D
:101FB000752B7B3D04A9963D80B6AF3D36BDC83D2F
:101FC0002FBCE13D73B2FA3D87CF093E8340163EF8
:101FD000B5AB223EA2102F3ECF6E3B3EC2C5473E60
:101FE0000115543E135C603E7F9A6C3ECCCF783E28
:101FF000C07D823E938E883E229A8E3E32A0943ED1
:1020000086A09A3EE59AA03E128FA63ED47CAC3EB6
:10201000EF63B23E2A44B83E491DBE3E15EFC33EB3
:1020200053B9C93ECA7BCF3E4136D53E80E8DA3E41
:102030004F92E03E7533E63EBBCBEB3EEA5AF13EB3
:10204000CBE0F63E275DFC3EE4E7003F3D9C033FCE
:10205000824B063F9BF5083F6B9A0B3FDA390E3FE8
:10206000CDD3103F2A68133FD9F6153FC07F183FE4
:10207000C6021B3FD17F1D3FCBF61F3F9967223F12
:1020800025D2243F5636273F1594293F4AEB2B3F54
:10209000DE3B2E3FBB85303FC9C8323FF304353F9E
:1020A000233A373F4268393F3B8F3B3FF9AE3D3FD4
:1020B00067C73F3F70D8413F01E2433F03E4453FDC
:1020C00065DE473F12D1493FF8BB4B3F029F4D3F72
:1020D000207A4F3F3D4D513F4918533F31DB543F2C
:1020E000E595563F5348583F6AF2593F1A945B3F73
:1020F000532D5D3F05BE5E3F2146603F97C5613F62
:102100005A3C633F59AA643F880F663FD86B673FCC
:102110003CBF683FA7096A3F0C4B6B3F5E836C3F37
:1021200093B26D3F9ED86E3F73F56F3F0809713FC4
:102130005213723F4714733FDD0B743F0BFA743F29
:10214000C6DE753F07BA763FC58B773FF853783FB9
:102150009812793F9DC7793F02737A3FBE147B3F47
:10216000CDAC7B3F283B7C3FC9BF7C3FAC3A7D3F39
:10217000CCAB7D3F23137E3FB0707E3F6DC47E3F6E
:10218000580E7F3F6D4E7F3FAB847F3F0FB17F3F47
:1021900097D37F3F43EC7F3F11FB7F3F0000803FA1
:1021A00011FB7F3F43EC7F3F97D37F3F0FB17F3FD2
:1021B000AB847F3F6D4E7F3F580E7F3F6DC47E3FA7
:1021C000B0707E3F23137E3FCCAB7D3FAC3A7D3F6A
:1021D000C9BF7C3F283B7C3FCDAC7B3FBE147B3FDF
:1021E00002737A3F9DC7793F9812793FF853783F41
:1021F000C58B773F07BA763FC6DE753F0BFA743F53
:10220000DD0B743F4714733F5213723F0809713F4F
:1022100073F56F3F9ED86E3F93B26D3F5E836C3F08
:102220000C4B6B3FA7096A3F3CBF683FD86B673FC9
:10223000880F663F59AA643F5A3C633F97C5613F88
:102240002146603F05BE5E3F532D5D3F1A945B3FC4
:102250006AF2593F5348583FE595563F31DB543FAA
:102260004918533F3D4D513F207A4F3F029F4D3F0C
:10227000F8BB4B3F12D1493F65DE473F03E4453F82
:1022800001E2433F70D8413F67C73F3FF9AE3D3F52
:102290003B8F3B3F4268393F233A373FF304353F9A
:1022A000C9C8323FBB85303FDE3B2E3F4AEB2B3F58
:1022B0001594293F5636273F25D2243F9967223F60
:1022C000CBF61F3FD17F1D3FC6021B3FC07F183F8B
:1022D000D9F6153F2A68133FCDD3103FDA390E3FA8
:1022E0006B9A0B3F9BF5083F824B063F3D9C033F9B
:1022F000E4E7003F275DFC3ECBE0F63EEA5AF13EC4
:10230000BBCBEB3E7533E63E4F92E03E80E8DA3ED3
:102310004136D53ECA7BCF3E53B9C93E15EFC33EC9
:10232000491DBE3E2A44B83EEF63B23ED47CAC3E6B
:10233000128FA63EE59AA03E86A09A3E32A0943E19
:10234000229A8E3E938E883EC07D823ECCCF783ED0
:102350007F9A6C3E135C603E0115543EC2C5473EF9
:10236000CF6E3B3EA2102F3EB5AB223E8340163EC1
:1023700087CF093E73B2FA3D2FBCE13D36BDC83D63
:1023800080B6AF3D04A9963D752B7B3D2EFB483DA5
:102390002BC3163DB10AC93C920E493C0000000017
:1023A000920E49BCB10AC9BC2BC316BD2EFB48BD59
:1023B000752B7BBD04A996BD80B6AFBD36BDC8BD2B
:1023C0002FBCE1BD73B2FABD87CF09BE834016BEF4
:1023D000B5AB22BEA2102FBECF6E3BBEC2C547BE5C
:1023E000011554BE135C60BE7F9A6CBECCCF78BE24
:1023F000C07D82BE938E88BE229A8EBE32A094BECD
:1024000086A09ABEE59AA0BE128FA6BED47CACBEB2
:10241000EF63B2BE2A44B8BE491DBEBE15EFC3BEAF
:1024200053B9C9BECA7BCFBE4136D5BE80E8DABE3D
:102430004F92E0BE7533E6BEBBCBEBBEEA5AF1BEAF
:10244000CBE0F6BE275DFCBEE4E700BF3D9C03BFCA
:10245000824B06BF9BF508BF6B9A0BBFDA390EBFE4
:10246000CDD310BF2A6813BFD9F615BFC07F18BFE0
:10247000C6021BBFD17F1DBFCBF61FBF996722BF0E
:1024800025D224BF563627BF159429BF4AEB2BBF50
:10249000DE3B2EBFBB8530BFC9C832BFF30435BF9A
:1024A000233A37BF426839BF3B8F3BBFF9AE3DBFD0
:1024B00067C73FBF70D841BF01E243BF03E445BFD8
:1024C00065DE47BF12D149BFF8BB4BBF029F4DBF6E
:1024D000207A4FBF3D4D51BF491853BF31DB54BF28
:1024E000E59556BF534858BF6AF259BF1A945BBF6F
:1024F000532D5DBF05BE5EBF214660BF97C561BF5E
:102500005A3C63BF59AA64BF880F66BFD86B67BFC8
:102510003CBF68BFA7096ABF0C4B6BBF5E836CBF33
:1025200093B26DBF9ED86EBF73F56FBF080971BFC0
:10253000521372BF471473BFDD0B74BF0BFA74BF25
:10254000C6DE75BF07BA76BFC58B77BFF85378BFB5
:10255000981279BF9DC779BF02737ABFBE147BBF43
:10256000CDAC7BBF283B7CBFC9BF7CBFAC3A7DBF35
:10257000CCAB7DBF23137EBFB0707EBF6DC47EBF6A
:10258000580E7FBF6D4E7FBFAB847FBF0FB17FBF43
:1025900097D37FBF43EC7FBF11FB7FBF000080BF9D
:1025A00011FB7FBF43EC7FBF97D37FBF0FB17FBFCE
:1025B000AB847FBF6D4E7FBF580E7FBF6DC47EBFA3
:1025C000B0707EBF23137EBFCCAB7DBFAC3A7DBF66
:1025D000C9BF7CBF283B7CBFCDAC7BBFBE147BBFDB
:1025E00002737ABF9DC779BF981279BFF85378BF3D
:1025F000C58B77BF07BA76BFC6DE75BF0BFA74BF4F
:10260000DD0B74BF471473BF521372BF080971BF4B
:1026100073F56FBF9ED86EBF93B26DBF5E836CBF04
:102620000C4B6BBFA7096ABF3CBF68BFD86B67BFC5
:10263000880F66BF59AA64BF5A3C63BF97C561BF84
:10264000214660BF05BE5EBF532D5DBF1A945BBFC0
:102650006AF259BF534858BFE59556BF31DB54BFA6
:10266000491853BF3D4D51BF207A4FBF029F4DBF08
:10267000F8BB4BBF12D149BF65DE47BF03E445BF7E
:1026800001E243BF70D841BF67C73FBFF9AE3DBF4E
:102690003B8F3BBF426839BF233A37BFF30435BF96
:1026A000C9C832BFBB8530BFDE3B2EBF4AEB2BBF54
:1026B000159429BF563627BF25D224BF996722BF5C
:1026C000CBF61FBFD17F1DBFC6021BBFC07F18BF87
:1026D000D9F615BF2A6813BFCDD310BFDA390EBFA4
:1026E0006B9A0BBF9BF508BF824B06BF3D9C03BF97
:1026F000E4E700BF275DFCBECBE0F6BEEA5AF1BEC0
:10270000BBCBEBBE7533E6BE4F92E0BE80E8DABECF
:102710004136D5BECA7BCFBE53B9C9BE15EFC3BEC5
:10272000491DBEBE2A44B8BEEF63B2BED47CACBE67
:10273000128FA6BEE59AA0BE86A09ABE32A094BE15
:10274000229A8EBE938E88BEC07D82BECCCF78BECC
:102750007F9A6CBE135C60BE011554BEC2C547BEF5
:10276000CF6E3BBEA2102FBEB5AB22BE834016BEBD
:1027700087CF09BE73B2FABD2FBCE1BD36BDC8BD5F
:1027800080B6AFBD04A996BD752B7BBD2EFB48BDA1
:102790002BC316BDB10AC9BC920E49BC0000008013
:1027A000005EBCE2613FDD83C29C7E20A3FD1F4131
:1027B0009DC3217FFCA2401E5F01E3BD3E6082DC21
:1027C000237D9FC1421CFEA0E1BF5D0380DE3C6211
:1027D000BEE0025CDF81633D7C22C09E1D43A1FF01
:1027E0004618FAA427799BC584DA3866E5BB5907F1
:1027F000DB856739BAE406581947A5FB7826C49AE1
:10280000653BD987045AB8E6A7F91B45C6987A24D0
:10281000F8A6441A99C7257B3A6486D85B05E7B9C0
:102820008CD2306EEDB3510F4E10F2AC2F7193CDB0
:10283000114FADF3702ECC92D38D6F31B2EC0E50A0
:10284000AFF1134DCE90722C6D33D18F0C52B0EE90
:10285000326C8ED0530DEFB1F0AE4C1291CF2D7380
:10286000CA947628ABF517490856B4EA6937D58B70
:102870005709EBB536688AD495CB2977F4AA481660
:10288000E9B7550B88D6346A2B7597C94A14F6A850
:10289000742AC896154BA9F7B6E80A54D7896B3540
:1028A00000000000B71DC1046E3B8209D926430D0C
:1028B000DC7604136B6BC517B24D861A0550471EA4
:1028C000B8ED08260FF0C922D6D68A2F61CB4B2B44
:1028D000649B0C35D386CD310AA08E3CBDBD4F38EC
:1028E00070DB114CC7C6D0481EE09345A9FD52418C
:1028F000ACAD155F1BB0D45BC2969756758B565224
:10290000C836196A7F2BD86EA60D9B6311105A67C3
:1029100014401D79A35DDC7D7A7B9F70CD665E746B
:10292000E0B6239857ABE29C8E8DA19139906095CB
:102930003CC0278B8BDDE68F52FBA582E5E66486E3
:10294000585B2BBEEF46EABA3660A9B7817D68B303
:10295000842D2FAD3330EEA9EA16ADA45D0B6CA02B
:10296000906D32D42770F3D0FE56B0DD494B71D94B
:102970004C1B36C7FB06F7C32220B4CE953D75CA63
:1029800028803AF29F9DFBF646BBB8FBF1A679FF83
:10299000F4F63EE143EBFFE59ACDBCE82DD07DECAB
:1029A00077708634C06D4730194B043DAE56C5393B
:1029B000AB0682271C1B4323C53D002E7220C12A73
:1029C000CF9D8E1278804F16A1A60C1B16BBCD1F73
:1029D00013EB8A01A4F64B057DD00808CACDC90CBB
:1029E00007AB9778B0B6567C69901571DE8DD475BB
:1029F000DBDD936B6CC0526FB5E6116202FBD066F3
:102A0000BF469F5E085B5E5AD17D1D576660DC53F2
:102A100063309B4DD42D5A490D0B1944BA16D8403A
:102A200097C6A5AC20DB64A8F9FD27A54EE0E6A17A
:102A30004BB0A1BFFCAD60BB258B23B69296E2B232
:102A40002F2BAD8A98366C8E41102F83F60DEE87B2
:102A5000F35DA9994440689D9D662B902A7BEA947A
:102A6000E71DB4E0500075E4892636E93E3BF7EDFA
:102A70003B6BB0F38C7671F7555032FAE24DF3FEB2
:102A80005FF0BCC6E8ED7DC231CB3ECF86D6FFCB32
:102A90008386B8D5349B79D1EDBD3ADC5AA0FBD8FA
:102AA000EEE00C6959FDCD6D80DB8E6037C64F645A
:102AB0003296087A858BC97E5CAD8A73EBB04B7712
:102AC000560D044FE110C54B383686468F2B4742D2
:102AD0008A7B005C3D66C158E4408255535D43519A
:102AE0009E3B1D252926DC21F0009F2C471D5E28DA
:102AF000424D1936F550D8322C769B3F9B6B5A3B92
:102B000026D6150391CBD40748ED970AFFF0560E51
:102B1000FAA011104DBDD014949B93192386521D19
:102B20000E562FF1B94BEEF5606DADF8D7706CFC19
:102B3000D2202BE2653DEAE6BC1BA9EB0B0668EF51
:102B4000B6BB27D701A6E6D3D880A5DE6F9D64DA91
:102B50006ACD23C4DDD0E2C004F6A1CDB3EB60C9D9
:102B60007E8D3EBDC990FFB910B6BCB4A7AB7DB099
:102B7000A2FB3AAE15E6FBAACCC0B8A77BDD79A3D1
:102B8000C660369B717DF79FA85BB4921F46759611
:102B90001A163288AD0BF38C742DB081C330718559
:102BA00099908A5D2E8D4B59F7AB085440B6C950A9
:102BB00045E68E4EF2FB4F4A2BDD0C479CC0CD43C1
:102BC000217D827B9660437F4F460072F85BC17621
:102BD000FD0B86684A16476C93300461242DC56549
:102BE000E94B9B115E565A1587701918306DD81C29
:102BF000353D9F0282205E065B061D0BEC1BDC0F41
:102C000051A69337E6BB52333F9D113E8880D03AA0
:102C10008DD097243ACD5620E3EB152D54F6D429C8
:102C20007926A9C5CE3B68C1171D2BCCA000EAC8E8
:102C3000A550ADD6124D6CD2CB6B2FDF7C76EEDB80
:102C4000C1CBA1E376D660E7AFF023EA18EDE2EE60
:102C50001DBDA5F0AAA064F4738627F9C49BE6FD08
:102C600009FDB889BEE0798D67C63A80D0DBFB8468
:102C7000D58BBC9A62967D9EBBB03E930CADFF9700
:102C8000B110B0AF060D71ABDF2B32A66836F3A2E0
:102C90006D66B4BCDA7B75B8035D36B5B440F7B188
:102CA000C02C0008000000201800000012050008D9
:102CB000D82C000818000020B807000022050008E2
:102CC0000000000000000000000000000000000004
:082CD0000000000000000000FC
:04000005080001519D
:00000001FF
