:020000040800F2
:1000000030050020B1010008BB160008910B000864
:10001000B9160008BD020008C91B00080000000056
:100020000000000000000000000000009919000816
:10003000C3020008000000000F1900089B19000807
:10004000CB010008CB010008CB010008CB01000860
:10005000CB010008CB010008CB010008CB01000850
:10006000CB010008CB010008CB010008CB01000840
:10007000CB010008CB010008CB010008CB01000830
:10008000CB010008CB010008CB01000800000000F4
:10009000000000000000000000000000CB0100088C
:1000A000CB010008A11B0008CB010008CB01000810
:1000B000CB010008CB010008CB010008CB010008F0
:1000C000CB010008CB010008CB010008CB010008E0
:1000D000CB010008CB010008CB01000800000000A4
:1000E000CB010008CB010008CB0100080000000094
:1000F000000000000000000000000000CB0100082C
:1001000000000000CB010008CB010008CB01000873
:1001100000000000000000000000000000000000DF
:10012000BF020008CB010008CB010008CB0100088A
:10013000CB010008000000000000000000000000EB
:10014000000000000000000000000000CB010008DB
:10015000C1020008CB010008CB010008CB01000858
:10016000CB010008CB0100080000000000000000E7
:10017000000000000000000000000000000000007F
:1001800000000000CB01000800000000000000009B
:10019000CB010008CB010008DFF810D000F07CF89C
:1001A000004800476D210008AFF3008030050020B3
:1001B0000648804706480047FEE7FEE7FEE7FEE701
:1001C000FEE7FEE7FEE7FEE7FEE7FEE7311A00087E
:1001D000990100082DE9F05F0546002092469B46F4
:1001E00088460646814640241BE02846414647464D
:1001F000224600F041F853465A46C01A914110D3A6
:1002000011461846224600F028F82D1A67EB01081F
:100210004F4622460120002100F01FF817EB00098D
:100220004E41201EA4F10104DFDC484631462A4637
:100230004346BDE8F09FD2B201E000F8012B491E11
:10024000FBD270470022F6E710B513460A46044673
:100250001946FFF7F0FF204610BD202A04DB203AA4
:1002600000FA02F1002070479140C2F1200320FA09
:1002700003F3194390407047202A04DB203A21FA07
:1002800002F00021704721FA02F3D040C2F12002AF
:100290009140084319467047064C074D06E0E06858
:1002A00040F0010394E8070098471034AC42F6D3BD
:1002B000FFF776FFEC5A00080C5B0008FEE770477A
:1002C0007047704772B6FEE703480168034840680C
:1002D000C0EB00400844704724440140180000204F
:1002E00070B5044600F0F0F80546601C02D00448E2
:1002F0000078044400F0E8F8401BA042FAD370BD37
:10030000000000202DE9F84F0022DFF880914FF027
:10031000010803274FF00F0C09F1040AA9F1040B9F
:1003200008FA02F50B682B40AB426ED10C7904F051
:100330000304012C01D0022C15D18668540007FA61
:1003400004FE26EA0E06D1F80CE00EFA04FE4EEA90
:10035000060EC0F808E04468AC430D79C5F30015FB
:100360009540254345600C79E443A40708D0C5684F
:10037000540007FA04F6B5438E68A6402E43C660C3
:100380000C7904F00304022C11D1D40800EB84068C
:10039000356A5407E40E0CFA04FE25EA0E05D1F87E
:1003A00010E00EFA04FE4EEA050EC6F820E00568DD
:1003B000540007FA04F6B5430E7906F00306A6408A
:1003C0002E4306604C6814F4403F58D0304C2568EA
:1003D00045F480452560246804F4804400942D4C45
:1003E00022F003052E19D6F8085894074FEA147E18
:1003F0000CFA0EF4A543284CA04201D1002415E0CC
:10040000264CA04202D1012410E038E0244CA04246
:1004100001D102240AE0234CA04201D1032405E0CB
:10042000214CA04201D1042400E0072404FA0EF478
:100430002C43C6F80848D9F800409C434D68ED02AB
:1004400000D51C43C9F80040DAF800409C434D68D1
:10045000AD0200D51C43CAF80040DBF800409C43C5
:100460004D68AD0300D51C43CBF80040074D083D57
:100470002C689C434E68F60300D51C432C60521C2C
:10048000102AFFF44DAFBDE8F88F0000083C014092
:1004900044380240003001400000024000040240A5
:1004A00000080240000C02400010024000690842AF
:1004B00001D00120704700207047002A01D08161DF
:1004C00070470904816170470148806870470000E7
:1004D0000000002002488168027811448160704762
:1004E0000000002010B50B48016841F40071016064
:1004F000016841F480610160016841F4807101602C
:10050000032000F063F80F2000F006F800F026F852
:10051000002010BD003C024070B504460D4D4FF464
:100520007A712878B1FBF0F00B490968B1FBF0F063
:1005300000F01AFB08B1012070BD102C07D2002278
:100540002146501E00F022F86C60002070BD012092
:1005500070BD0000000000200C00002008B50A4813
:10056000016841F480410160006800F4804000901F
:100570000548001F016841F080510160006800F0EB
:100580008050009008BD000044380240F0B40D4691
:100590000D4B1B68C3F30223C3F10704042C00D9DD
:1005A0000424191D072901D2002300E0DB1E0126C7
:1005B00006FA04F1491E294099409E40761E1640D5
:1005C0003143F0BC01F01EBB0CED00E000F0070170
:1005D000054A10684FF6FF03184040EA012003491E
:1005E00008431060704700000CED00E00000FA05C1
:1005F0002DE9F04704460D46002C13D0DFF8289172
:10060000D9F80000EFB200F00700A8420CD289F838
:100610000070D9F8000000F00700A84204D00120C3
:10062000BDE8F0870120FBE72068404E810712D526
:10063000400703D5306840F4E05030602078000770
:1006400003D5306840F4604030603068A16820F025
:10065000F000084330602078C00731D0334960682B
:100660000839012808D002280BD0032809D00968CE
:1006700089070BD40120D3E70968890306D4012038
:10068000CEE70968890101D40120C9E7316821F06A
:10069000030101433160FFF717FF804641F2883ABA
:1006A00007E0FFF711FFA0EB0800504501D9032038
:1006B000B6E73068616800F00C00B0EB810FF0D154
:1006C000D9F8000000F00700A84209D989F80070A5
:1006D000D9F8000000F00700A84201D001209FE7F0
:1006E0002078400705D53068E16820F4E0500843E1
:1006F00030602078000706D53068216920F460401A
:1007000040EAC100306000F019F83168084AC1F3CE
:100710000311515CC8400749086007480068FFF7AB
:10072000FBFE00207CE70000003C0240083802404D
:100730009E2100080C0000200400002010B517487E
:10074000006810F00C01164816D0164B042912D080
:10075000082911D1114C241F216801F03F022168A2
:1007600049020AD52068C0F38810A0FB03010023CA
:10077000FFF730FD09E0184610BD21680023C1F3E2
:100780008811A1FB0001FFF725FD2168C1F301419C
:10079000491C4900B0FBF1F010BD000008380240D0
:1007A0000024F40040787D012DE9F84F0446002C28
:1007B00013D02078DFF8A083C007A8F1040556D035
:1007C00008F104000168C1F3810101290CD000681F
:1007D000C0F38100022803D00DE00120BDE8F88FAE
:1007E000D8F80000400206D5286880033FD560682D
:1007F00070BB0120F2E76068B0F5803F10D0B0F523
:10080000A02F12D0286820F480302860286820F4B7
:10081000802028606068E0B1FFF756FE064614E0CD
:10082000286840F480302860F4E7286840F480208D
:100830002860286840F480302860EBE7FFF744FE2A
:10084000801B642801D90320C8E728688003F5D5F8
:100850000DE0FFF739FE064606E0FFF735FE801B88
:10086000642801D90320B9E728688003F5D42078EB
:10087000BA4F80074FF0000948D5B748001D0168FE
:1008800011F00C0F08D00068C0F38100022813D1CA
:10089000D8F8000040020FD42868800704D5E0682B
:1008A000012801D0012099E72868216920F0F8008B
:1008B00040EAC100286029E0E068B8B10120386052
:1008C000FFF702FE064606E0FFF7FEFD801B02284A
:1008D00001D9032082E728688007F5D528682169B7
:1008E00020F0F80040EAC10028600FE0C7F800904F
:1008F000FFF7EAFD064606E0FFF7E6FD801B02284B
:1009000001D903206AE728688007F5D4207800071A
:1009100029D5DFF844A2924861690AF1700A89B1C9
:1009200001210160FFF7D0FD064606E0FFF7CCFD90
:10093000801B022801D9032050E7DAF80000800765
:10094000F4D510E0C0F80090FFF7BEFD064606E0C3
:10095000FFF7BAFD801B022801D903203EE7DAF831
:1009600000008007F4D42078400778D54FF0000AC3
:1009700079483C300068C0000BD477483C300168AF
:1009800041F080510160006800F0805000904FF00D
:10099000010ADFF8D0B1DBF80000C00514D4DBF8A1
:1009A000000040F48070CBF80000FFF78DFD064694
:1009B00006E0FFF789FD801B022801D903200DE71F
:1009C000DBF80000C005F4D5634EA0686C36012842
:1009D0000FD0052812D0306820F001003060306858
:1009E00020F004003060A068F8B1FFF76DFD834689
:1009F00017E0306840F001003060F4E7306840F004
:100A000004003060306840F001003060EBE7FFF731
:100A10005BFDA0EB0B0141F28830814201D903203C
:100A2000DCE630688007F2D510E0FFF74DFD834625
:100A300009E0FFF749FDA0EB0B0141F2883081424C
:100A400001D90320CAE630688007F2D4BAF1010F59
:100A500005D141483C30016821F080510160A06916
:100A6000C0B33D49091D09684FF0FF36C1F381014C
:100A7000022946D0022805D0C7F86090FFF724FD70
:100A800004463AE0C7F86090FFF71EFD814607E094
:100A9000FFF71AFDA0EB0900022801D903209DE60B
:100AA00028688001F4D4D4E907010843616AA26A86
:100AB000890106EB520241EA0241084394F82C10E6
:100AC00040EA0160C8F8000001203866FFF7FCFC2E
:100AD000044607E03DE0FFF7F7FC001B022801D9C0
:100AE00003207BE628688001F5D532E0FFF7ECFCB7
:100AF000001B022801D9032070E628688001F5D484
:100B000027E0012823D0D8F80000E26900F4800132
:100B100091421AD1226A00F03F01914215D147F665
:100B2000C071626A0140B1EB821F0ED1A26A00F46B
:100B3000403106EB5202B1EB024F06D194F82C1073
:100B400000F07060B0EB016F03D0012046E6012099
:100B500044E6002042E6000004380240000047421C
:100B6000800E47420070004010B5401EB0F1807FFB
:100B700001D3012010BD4FF0E02460610F21601708
:100B800001F040F80020A06107202061002010BD86
:100B9000FEE72DE9F04105460F4614461E462A2081
:100BA00000F04AF9AD1CA8B200F026F9A41CA0B2CE
:100BB00000F022F92B2000F03FF97F1CB8B200F0C2
:100BC0001BF9761CB0B200F017F9BDE8F0412C20FB
:100BD00000F032B910B514460B460246FFF7D9FFB4
:100BE0002046BDE8104000F007B900002DE9F047AD
:100BF0000446DDF820A00D46101B1FFA80F9581B93
:100C000087B25B1E521E9BB292B229462046FFF766
:100C1000C0FF204EC4EB4900DFF87C80321D98F8FD
:100C2000051089586FF30F01014398F805008150B2
:100C3000012210211948FFF740FC4FEA1A211848F9
:100C40000AF0FF0204E0015503195A70A41CA4B273
:100C5000B4EB490FF7D311E098F80500305898F835
:100C6000051040F0010070507068C0F3C0200028EB
:100C7000FAD04FF40060F0606D1CADB2BD42EBD312
:100C800098F80500305898F8051020F001007050D1
:100C9000BDE8F08700640240BE2100080004024065
:100CA0002C0000202DE9FF4F83B00746DDF844906B
:100CB0004FF0000801974FEA590A5FEA4A7001D0E5
:100CC000012000E0002000EBDA0000FB09F00290B8
:100CD000203A02F0FF0B049804994844401E83B266
:100CE00007EB0A00401E82B23846FFF752FF00258C
:100CF00054E0B9F10C0F24D0B9F1100F28D0B9F19C
:100D0000180F2AD0B9F1200F4BD1294800EB8B10D6
:100D1000465D0024129838B30120A040304204D030
:100D20003846069A0499FFF755FF7F1CBFB2019819
:100D3000381A50452CD1019F0498401C80B2049071
:100D40002AE01C490BEB4B0001EB8000465DE0E71D
:100D5000194800EB0B10465DDBE718490BEB4B0025
:100D600001EB0010465DD4E70120A040304203D0E3
:100D7000069800F041F802E0109800F03DF808F104
:100D8000010808F0FF08B8FBFAF00AFB108058B120
:100D9000641CE4B2082CBDD36D1CADB20298854230
:100DA000A7D307B0BDE8F08F4FF00008F4E70000CC
:100DB000FA3D0008C62100083A2600082A2C00083F
:100DC0002DE9FE4F0546DDE90D68894614469A4631
:100DD0000C9F0BE0CDE90168534649462846009731
:100DE000FFF760FF05EB560085B2641C2278002AED
:100DF000F0D1BDE8FE8F000010B50446012210219D
:100E00000548FFF75AFB200A00F024F8E0B2BDE8DD
:100E1000104000F01FB800000004024010B5044666
:100E2000012210210348FFF748FB2046BDE810408F
:100E300000F010B80004024010B504460022102152
:100E40000348FFF73AFB2046BDE8104000F002B827
:100E50000004024001466422014800F078BD000011
:100E60000030014002460020074B9B68C3F300039B
:100E7000002B01D0012070470968536823F44033E8
:100E80000B435360704700000020014030B5002242
:100E90008368C3F30003002B02D00122104630BD4B
:100EA0008C680B6823434468054D2C402343436002
:100EB0008368496823F400630B438360EEE7000016
:100EC000FFFEFFFC30B500224B688468C4F30004C9
:100ED000002C02D00122104630BD33B143688C682B
:100EE00023F468432343436003E0436823F46843E7
:100EF0004360D1E9033423438468074D2C400D68D7
:100F000005F070652C43234383604968C36A23F46A
:100F100070030B43C362DEE7FDFCFFC010B54FF466
:100F2000407494FAA4F401F44073B4FA84F4E340F6
:100F300000EB8300C36A01F01F011F248C4002F004
:100F40001F02A3438A401343C36210BD70B54FF024
:100F5000007494FAA4F401F00073B4FA84F4E3404A
:100F600000EB8300C4684FF0F87393FAA3F501F027
:100F7000F871B5FA85F521FA05F50726AE4093FA22
:100F8000A3F3B3FA83F3D940B4438A401443C46053
:100F900070BD000008B504490A6802430A60096888
:100FA0000140009108BD00003038024008B50449F6
:100FB0000A6802430A6009680140009108BD000008
:100FC00044380240034A1430515C0A5822F00402AB
:100FD0000A50704796210008034B595C435823F090
:100FE000606313434350704796210008034B595CDC
:100FF000435823F0C0031343435070479621000821
:10100000034B595C435823F48063134343507047A8
:1010100096210008034B595C435823F4C043134303
:101020004350704796210008034B595C435823F402
:10103000907313434350704796210008034B595C4B
:10104000435823F40073134343507047962100081C
:10105000034B595C435823F4C05313434350704728
:1010600096210008034B595C435823F44033134343
:1010700043507047962100082DE9F0410A6892FA22
:10108000A2F2B2FA82F30F2603258AE001249C40E3
:101090002240002A7DD04C68012C01D0022C1BD1AB
:1010A0008C68876892FAA2FCBCFA8CFC4FEA4C0C64
:1010B00005FA0CFC27EA0C0792FAA2FCBCFA8CFC9D
:1010C0004FEA4C0C04FA0CF427438760CC6847685D
:1010D00054439743274347600C69C76892FAA2FCC0
:1010E000BCFA8CFC4FEA4C0C05FA0CFC27EA0C0706
:1010F00092FAA2FCBCFA8CFC4FEA4C0C04FA0CF4F9
:101100002743C7604C68022C34D192FAA2F4B4FA97
:1011100084F4082C16D24C69076A92FAA2FCBCFA35
:101120008CFC4FEA8C0C06FA0CFC27EA0C0792FAAE
:10113000A2FCBCFA8CFC4FEA8C0C04FA0CF427439A
:10114000076217E04F69D0F824C0140A94FAA4F893
:10115000B8FA88F84FEA880806FA08F894FAA4F46E
:10116000B4FA84F4A4002CEA080CA7404CEA070C5B
:10117000C0F824C04C68076892FAA2FCBCFA8CFC48
:101180004FEA4C0805FA08FC27EA0C0792FAA2F28B
:1011900000E005E0B2FA82F2520094402743076073
:1011A0005B1C0A6832FA03F47FF470AF0020BDE8DC
:1011B000F08110B501220368C3F38013002B25D101
:1011C000D1E900231A43D1E9023423431A430B69BE
:1011D0001A434B691A438B691A43CB691A430B6A4A
:1011E0001A4303684FF6BF74A3431A430260426870
:1011F0004B6922F0040242EA134242600A6AB2F5E5
:10120000005F02D1898C89B201610022C16921F499
:101210000061C161104610BDF0B502681D4B1E4C47
:101220009F031E4D1E4E984207D0B84205D0A042E3
:1012300003D0A84201D0B04205D1D1F804C022F0B9
:10124000700242EA0C02984210D0B8420ED0A0427E
:101250000CD0A8420AD0B04208D0124CA04205D00F
:10126000114CA04202D0114CA04203D1CC6822F410
:101270004072224302608A68C2620A88826298428F
:1012800001D109690163416941F001014161002017
:10129000F0BD0000000001400004004000080040D4
:1012A000000C004000400140004401400048014063
:1012B000F0B58FB000240C940D940E94142107A85F
:1012C000FEF7C0FF069418216846FEF7BBFF4FF4F7
:1012D00080752846FFF76AFE0120FFF75BFE0621B6
:1012E000009103210191049469463448FFF7C4FE3C
:1012F000334F002211463846FFF76EFE002211469A
:101300003846FFF773FE2E02324600213846FFF7BB
:10131000A9FE2A4600213846FFF786FE0022114624
:101320003846FFF78BFEAA0000213846FFF768FE1B
:10133000EA0000213846FFF78BFE6A01002138469B
:10134000FFF768FE00213846FFF73CFE0C940D9431
:101350000E951C4D0CA92846FFF798FD0794300107
:101360000890099402200A904FF440700B9007A94E
:101370002846FFF7A7FDA86840F48060A86006969D
:1013800006A91148FFF76EFD104C69152246284644
:10139000FFF7C4FD002221462846FFF7D7FD0C4C7D
:1013A00040F2052122462846FFF7B8FD00222146DB
:1013B0002846FFF7CBFD0FB0F0BD00000000024053
:1013C000006402400020014000230140010030027F
:1013D0000200600210B54FF48000FFF7DBFD0F4CF8
:1013E0002068C0F302200022114600F077FA01467F
:1013F000382000F0F7FB382000F0E7FB2068C0F34E
:1014000002200022114600F069FA0146442000F053
:10141000E9FBBDE81040442000F0D7BB0CED00E034
:101420002DE9F04186B0142101A8FEF70BFF00263C
:101430002948016841F080010160016801F08001E4
:101440000091016841F001010160016801F00101B2
:101450000091016841F002010160006800F00200A3
:1014600000901E4F0122D2213846FFF726F80022B5
:1014700004213846FFF721F80122DFF86480D50304
:1014800029464046FFF719F8012401940296039477
:1014900001A93846FEF736FF862001900294039496
:1014A0000226049601A93846FEF72CFF0195029406
:1014B0000394049601A94046FEF724FF50200190B2
:1014C000029403940320049001A93846FEF71AFF02
:1014D00006B0BDE8F0810000303802400004024050
:1014E0000000024070B590B0282106A8FEF7AAFEC1
:1014F00018216846FEF7A6FE4FF48050FFF756FD10
:101500000220FFF747FD28200090022501950320C7
:10151000029000240394049405200590694626480F
:10152000FFF7AAFD254E4FF0C06205213046FFF7B8
:1015300053FD402205213046FFF758FDEA030521FF
:101540003046FFF78FFD002205213046FFF76CFD86
:10155000002205213046FFF771FD6A020521304661
:10156000FFF74EFD002205213046FFF771FD0022F6
:1015700005213046FFF74EFD05213046FFF722FDDD
:101580004FF4404006904FF48270079008940995FC
:1015900001200A9040020B900C940D940E940A20A6
:1015A0000F90074C06A92046FFF703FE616821F063
:1015B0001001616010B070BD000402400064024080
:1015C0000030014010B592B0282108A8FEF73AFE7D
:1015D000182102A8FEF736FE1B48016841F480413D
:1015E0000160006800F4804001900220FFF7D2FC07
:1015F0004FF4444002900220039003200490002402
:10160000059406940520079002A91048FFF734FDC1
:1016100008944FF4827009900A940B940C944FF440
:1016200000700D9020200E900F9410940A201190BD
:10163000074C08A92046FFF7BCFD616821F01001A6
:10164000616012B010BD000040380240000402404A
:101650000038004010B586B0142101A8FEF7F2FD55
:101660004FF40030FFF7A2FC11480068C0F30220DD
:101670000022114600F032F90146192000F0B2FABA
:10168000192000F0A2FA3B20ADF8040000200290DF
:101690004FF6FF7103910490064C01A92046FFF715
:1016A000BBFD216821F08001216006B010BD000063
:1016B0000CED00E000440140FEE7FEE71CB50EA083
:1016C00003C8CDE9000105226946302000F0BCF8CE
:1016D00005226946102000F013F8002069460A5CD4
:1016E000A52A03D1401CC0B20528F8D3052801D093
:1016F00001201CBD00201CBDA5A5A5A5A5000000BE
:101700002DE9F04704460D461646DFF840900022CA
:1017100002214846FEF7D1FEDFF8348021464046DC
:1017200000F0FAF80746002406E0FF21404600F0EA
:10173000F3F82855641CE4B2B442F6D30122022126
:101740004846FEF7BAFE3846BDE8F087000402407E
:101750000038004070B505460B4C0022022120469F
:10176000FEF7ABFE2946094D284600F0D5F8FF21CB
:10177000284600F0D1F80546012202212046FEF756
:101780009CFE284670BD0000000402400038004066
:1017900010B5184C002204212046FEF78EFE0522CB
:1017A0001549302000F050F813490522491D2A2020
:1017B00000F04AF80121212000F070F801212220D8
:1017C00000F06CF81A21242000F068F82821252068
:1017D00000F064F80F21262000F060F80E21202090
:1017E00000F05CF820460122BDE810400421FEF71D
:1017F00064BE000000040240E25A000810B5014631
:101800002022A02000F020F80E4C01212046FEF7F7
:101810004DFE0028F9D10720FFF79CFF0446214622
:10182000272000F03BF8E00605D5FF21E12000F07D
:1018300035F8102010BDA00601D5202010BDFF20D6
:1018400010BD0000000402402DE9F04704460D469B
:101850001646DFF84090002202214846FEF72DFE92
:10186000DFF834802146404600F056F80746002451
:1018700006E015F8011B404600F04EF8641CE4B287
:10188000B442F6D3012202214846FEF716FE38463E
:10189000BDE8F08700040240003800402DE9F04127
:1018A00005460F460B4C002202212046FEF705FE9E
:1018B0002946094D284600F02FF8064639462846A5
:1018C00000F02AF8012202212046FEF7F6FD3046FC
:1018D000BDE8F081000402400038004030B500F05F
:1018E0000703C3F10704042C00D90424181D07289A
:1018F00001D2002300E0DB1E012505FA04F0401EA2
:10190000084098409D406D1E1540284330BD7047EB
:10191000401E80B2FCD2704710B54FF4FA7300221B
:1019200002E0521C9A4204D88468C4F34004002C9C
:10193000F7D0C160002102E0491C994204D88268B6
:10194000C2F30002002AF7D0C068C0B210BD30B4A4
:1019500003464FF47A75002002E0401CA84204D8E8
:101960009C68C4F34004002CF7D0D96030BC10460A
:10197000FFF7CEBF10B5074A13684FF6C774234070
:10198000136013680B431360016841F0400101606C
:1019900010BD0000003001407047FEF79BBD000005
:1019A00030B593B0302107A8FEF74CFC142102A8F3
:1019B000FEF748FC00251C48016841F08051016099
:1019C000006800F0805001901848016841F44041DF
:1019D0000160006800F4404001900120079000047D
:1019E000089002240D9480010E900C200F9060202E
:1019F000109011940520129007A8FEF7D5FE08B1AB
:101A0000FEF760FC0F200290039404954FF4805081
:101A100005900695032102A8FEF7EAFD002801D0F3
:101A2000FEF750FC13B030BD40380240007000405B
:101A30000248016841F470010160704788ED00E0E0
:101A4000FEB5012000F0FEF800F0B6FA00F078F9DB
:101A50004FF6FF740021A023802208460094FFF770
:101A6000C5F800F053F9002510264FF4784715E02B
:101A7000CDE901653B4617A21E210A200094FFF71D
:101A80009FF9C82000F028F90021A02380220846F1
:101A90000094FFF7ABF8C82000F01EF9FFF70EFE28
:101AA0000028E5D1CDE901653B460EA21E210A20A2
:101AB0000094FFF785F9FFF76BFE4FF4FA6000F032
:101AC0000BF90021A023802208460094FFF78EF82E
:101AD000FEBD00004E524632344C30312045727209
:101AE0006F7200004E524632344C3031204F4B0062
:101AF000FEB524484168491C41604068214908609E
:101B000000F094FA1F48FFF779FE002518264FF6DB
:101B1000FF744FF47847202812D0102821D00021DC
:101B2000A023802208460094FFF760F8CDE9016504
:101B300000213B4614A208460094FFF741F9FEBD80
:101B40000021A023802208460094FFF74FF8CDE93A
:101B5000016500213B460EA208460094FFF730F9CC
:101B6000FEBD0021A023802208460094FFF73EF826
:101B7000CDE9016500213B4607A208460094FFF726
:101B80001FF9FEBD1000002054585F454F5252000F
:101B900054585F4F4B00000054585F4D41580000AF
:101BA000AFF3008006480169C1F30001002906D0A7
:101BB0006FF00101016103484168491C41607047B1
:101BC0000044014018000020FEE7002809DB00F077
:101BD0001F02012191404009800000F1E020C0F87F
:101BE000001170470907090E002804DB00F1E0200E
:101BF00080F80014704700F00F0000F1E02080F83A
:101C0000141D70470907090E002804DB00F1E020CD
:101C100080F80014704700F00F0000F1E02080F819
:101C2000141D704702E008C8121F08C1002AFAD12B
:101C300070477047002001E001C1121F002AFBD14C
:101C400070470000074908700748C16841F001016A
:101C5000C1606FF001010161016841F001010160A3
:101C600070470000180000200044014070B5174B79
:101C7000174A164D14780C3560511648154C4C34E3
:101C8000124E15780836AC5115781C1D2D596FF37E
:101C90000F050D4311780D5111785958147821F022
:101CA0000101195111785958127841F001019950E8
:101CB000816841F001018160816841F0804181606B
:101CC000816841F44071816070BD00000064024091
:101CD000AE2100080020014010B502460A480078F5
:101CE00000280CD0FEF7F0FA02EB4201C1EBC21162
:101CF00000EBC102FEF7E8FA9042FBD910BDBDE847
:101D000010401046FEF7ECBA1800002010B50A4C3F
:101D1000002204212046FEF7D0FB012202212046AA
:101D2000FEF7CBFB054C20212046FFF723FE216860
:101D300041F04001216010BD000402400038004025
:101D400010B5974A97499848954C437908341951EA
:101D500096494379241D195192490C394B6843F037
:101D600002034B604379D358407923F001031350A9
:101D7000086840F0400008600122D1038C48FEF75B
:101D80009CFB8C4C002240212046FEF796FB6420F1
:101D9000FFF7A2FF012280212046FEF78EFB642080
:101DA000FFF79AFF1120FFF747F87820FFF794FF1D
:101DB000B120FFF741F80120FFF730F82C20FFF7A2
:101DC0002DF82D20FFF72AF8B220FFF735F8012073
:101DD000FFF724F82C20FFF721F82D20FFF71EF83D
:101DE000B320FFF729F80120FFF718F82C20FFF7A0
:101DF00015F82D20FFF712F80120FFF70FF82C201F
:101E0000FFF70CF82D20FFF709F8B420FFF714F8BE
:101E10000320FFF703F8C020FFF70EF8A220FEF71B
:101E2000FDFF0220FEF7FAFF8420FEF7F7FFC12036
:101E3000FFF702F8C520FEF7F1FFC220FEF7FCFF16
:101E40000A20FEF7EBFF0020FEF7E8FFC320FEF7B5
:101E5000F3FF8A20FEF7E2FF2A20FEF7DFFFC4200F
:101E6000FEF7EAFF8A20FEF7D9FFEE20FEF7D6FF45
:101E7000C520FEF7E1FF0E20FEF7D0FF3620FEF76B
:101E8000DBFFC020FEF7CAFFE020FEF7D5FF0F20E2
:101E9000FEF7C4FF1A20FEF7C1FF0F20FEF7BEFFBA
:101EA0001820FEF7BBFF2F20FEF7B8FF2820FEF713
:101EB000B5FF2020FEF7B2FF2220FEF7AFFF1F2064
:101EC000FEF7ACFF1B20FEF7A9FF2320FEF7A6FFBD
:101ED0003720FEF7A3FF0020FEF7A0FF0720FEF744
:101EE0009DFF0220FEF79AFF1020FEF797FFE120EA
:101EF000FEF7A2FF0F20FEF791FF1B20FEF78EFFDB
:101F00000F20FEF78BFF1720FEF788FF3320FEF728
:101F100085FF2C20FEF782FF2920FEF77FFF2E2071
:101F2000FEF77CFF3020FEF779FF3020FEF776FFCA
:101F30003920FEF773FF3F20FEF770FF0020FEF709
:101F40006DFF0720FEF76AFF0320FEF767FF1020F2
:101F5000FEF764FF2B20FEF76FFF0020FEF75EFF09
:101F60000020FEF75BFF0020FEF758FF9F20FEF7E2
:101F700055FFF020FEF760FF0120FEF74FFFF6202F
:101F8000FEF75AFF0020FEF749FF3A20FEF754FF04
:101F90000520FEF743FFBDE810402920FEF74CBFA7
:101FA000006402400C300140B62100082C000020E3
:101FB000000002400004024002210148FFF756BE23
:101FC00020000020002806DDA0EB010000B2002860
:101FD00000DA00207047FDDA084400B20028F9DD7D
:101FE0000020704730B5039D541AED1A904200DD71
:101FF0001046884200DA0846401A00EE100AF8EE51
:10200000C00A00EE104AB8EEC00A80EE801A00EE58
:10201000103AF8EEC00A00EE105AB8EEC00A40EED0
:10202000010ABDEEE00A10EE100A30BD2DE9F047BE
:102030008FB09FED4C0AF0EE401A002100220024E0
:1020400000250020484B08AE01AFB3F800A0B3F85C
:1020500002C0D14646F820A047F820C000287BD017
:10206000A0F1010856F82830A9EB0309B9F1050FD2
:1020700001DD46F8203057F82830ACEB0308B8F102
:10208000050F01DD47F8203056F820308B4200DD87
:102090001946934200DA1A4657F82080A04500DD21
:1020A0004446A84500DA454600EE903AF8EEE00ACC
:1020B00030EE800A00EE908AF8EEE00A70EEA11A87
:1020C000401CC0B20728C4D300EE901AB1EE042A17
:1020D0004FF42B71F8EEE00A4B4240F6FA7700918C
:1020E00070EE600A00EE102A3A460021B8EEC00AEF
:1020F00030EEC00AC0EE020ABDEEE00A10EE100A91
:10210000FFF770FF00B21821FFF75CFF164E361D77
:10211000306000EE104A4FF42A714B42B8EEC00A0C
:1021200000913A46002171EEC00A00EE105AB8EE56
:10213000C00A30EEC00AC0EE020ABDEEE00A10EEA0
:10214000100AFFF74FFF00B21421FFF73BFF70604A
:102150000FB0BDE8F087FFE708990A46019C2546C5
:1021600092E700000000000020000020FEF7BAF90E
:10217000FFF716FCFFF754F9FFF72CF9FFF76AFA9F
:10218000FFF796F8FFF7AEF9FFF71CFAFFF758FCD8
:10219000FFF7AEFCFCE7102840587088A0B800009C
:1021A00000000000000001020304060708091028CF
:1021B00040587088A0B8102840587088A0B81028DF
:1021C00040587088A0B80000000000000000000027
:1021D00000000000040404040400000400001414BF
:1021E0000A00000000000000000000000A0A1F0AA8
:1021F0000A1F0A0A000000040E1505060C14150E2D
:102200000400000012150D152E2C2A1200000000EB
:10221000040A0A3615152916000002020100000002
:10222000000000000000100808040404040408086A
:102230001000020404080808080804040200000052
:102240000004150E0E150400000000000008083EF2
:10225000080800000000000000000000000002026A
:10226000010000000000003F00000000000000002E
:10227000000000000000000200000020101008080C
:1022800004040202010000000E1111111111110EBF
:1022900000000000040604040404040E0000000012
:1022A0000E1111080402011F000000000E11100C95
:1022B0001010110E00000000080C0C0A091F081C69
:1022C000000000001F01010F1110110E000000009E
:1022D0000C12010D1311110E000000001E10080851
:1022E00004040404000000000E11110E1111110E5F
:1022F000000000000E111119161009060000000060
:1023000000000400000000040000000000000004C1
:102310000000000404000000100804020204081079
:102320000000000000003F003F000000000000002F
:102330000204081010080402000000000E11110829
:1023400004040004000000001C22292D2D1D221C65
:102350000000000004040C0A0A1E123300000000F2
:102360000F12120E1212120F000000001E110101B6
:102370000101110E000000000F1212121212120FB2
:10238000000000001F120A0E0A02121F00000000C7
:102390001F120A0E0A020207000000001C120101AF
:1023A0003911120C000000003312121E12121233E7
:1023B000000000001F0404040404041F00000000C7
:1023C0003E080808080808080907000037120A062E
:1023D0000A12123700000000070202020202223F26
:1023E000000000003B1B1B1B1515153500000000ED
:1023F0003B1216161A1A1217000000000E111111C6
:102400001111110E000000000F12120E020202073D
:10241000000000000E1111111117190E1800000014
:102420000F12120E0A121237000000001E110106D0
:102430000810110F000000001F1504040404040E0E
:1024400000000000331212121212120C00000000E1
:102450003312120A0A0C04040000000015151515A9
:102460000E0A0A0A000000001B0A0A04040A0A1BDA
:10247000000000001B0A0A0A0404040E0000000009
:102480001F0908040402121F00001C0404040404B1
:10249000040404041C0000020204040408080810D8
:1024A00010000E0808080808080808080E00040AAA
:1024B000000000000000000000000000000000001C
:1024C00000000000003F02040000000000000000C7
:1024D000000000000000000C121C123C0000000371
:1024E0000202020E1212120E000000000000001C78
:1024F0001202120C000000181010101C1212123CD4
:10250000000000000000000C121E021C0000001859
:102510002404041E0404041E000000000000003C0B
:10252000120C021C221C00030202020E12121237AD
:1025300000000004040000060404040E000000086B
:102540000800000C08080808080700030202021A25
:102550000A060A1300000007040404040404041F0C
:10256000000000000000000F151515150000000008
:102570000000000F12121237000000000000000CD3
:102580001212120C000000000000000F1212120EB6
:10259000020700000000001C1212121C103800007C
:1025A0000000001B06020207000000000000001EE1
:1025B000020C101E000000000004041E0404041C91
:1025C000000000000000001B1212123C000000007E
:1025D0000000001B0A0A04040000000000000015AF
:1025E000150E0A0A000000000000001B0A040A1B66
:1025F000000000000000003312120C080403000069
:102600000000001E0804041E000018080808080C3A
:102610000808080818000808080808080808080832
:102620000808060404040408040404040600160947
:10263000000000000000000000000000000000009A
:102640000000000000000000000000000008080872
:102650000808080800001818000000486C24120040
:1026600000000000000000000000000000242424FE
:102670007F1212127F12121200000000081C2A2A78
:102680000A0C1828282A2A1C0808000000222515F0
:1026900015152A585454542200000000000C121240
:1026A000120A76252911916E000000060604030027
:1026B0000000000000000000000000402010100892
:1026C000080808080810102040000002040808103C
:1026D0001010101010080804020000000000080884
:1026E0006B1C1C6B080800000000000000000808BC
:1026F00008087F080808080000000000000000002B
:1027000000000000000006060403000000000000B6
:102710000000FE00000000000000000000000000BB
:10272000000000000000060600000000804040207D
:1027300020101008080404020200000000182442BF
:1027400042424242424224180000000000080E08A3
:10275000080808080808083E00000000003C424243
:10276000422020100804427E00000000003C42424B
:10277000201820404042221C000000000020302889
:10278000242422227E20207800000000007E020205
:10279000021A26404042221C000000000038240299
:1027A000021A26424242241800000000007E222223
:1027B000101008080808080800000000003C424209
:1027C000422418244242423C0000000000182442E7
:1027D000424264584040241C0000000000000000F9
:1027E0001818000000001818000000000000000089
:1027F000000800000000000808040000004020104D
:10280000080402040810204000000000000000003E
:102810007F0000007F0000000000000000020408AC
:10282000102040201008040200000000003C42423A
:10283000464020101000181800000000001C225A0A
:10284000555555552D42221C00000000000808185F
:102850001414243C224242E700000000001F222200
:10286000221E22424242221F00000000007C4242FF
:10287000010101010142221C00000000001F224250
:10288000424242424242221F00000000003F4212E8
:10289000121E12120242423F00000000003F42128C
:1028A000121E12120202020700000000003C222247
:1028B000010101712122221C0000000000E74242B8
:1028C00042427E42424242E700000000003E0808C9
:1028D000080808080808083E00000000007C1010E6
:1028E0001010101010101010110F0000007722129D
:1028F0000A0E0A12122222770000000000070202CC
:10290000020202020202427F000000000077363617
:1029100036362A2A2A2A2A6B0000000000E346469F
:102920004A4A52525262624700000000001C224193
:10293000414141414141221C00000000003F424210
:1029400042423E020202020700000000001C224137
:10295000414141414D53321C60000000003F424262
:10296000423E1212222242C700000000007C424276
:10297000020418204042423E00000000007F490847
:10298000080808080808081C0000000000E7424288
:10299000424242424242423C0000000000E74242C2
:1029A000222424141418080800000000006B494970
:1029B00049495555362222220000000000E74224F2
:1029C00024181818242442E700000000007722226F
:1029D000141408080808081C00000000007E2120CC
:1029E000101008040442423F00000078080808085C
:1029F0000808080808080808780000000202040413
:102A000008080810102020204040001E1010101050
:102A100010101010101010101E000038440000009C
:102A200000000000000000000000000000000000A6
:102A3000000000000000000000FF00060800000089
:102A40000000000000000000000000000000000086
:102A5000003C4278444242FC0000000000030202B5
:102A6000021A26424242261A00000000000000001E
:102A70000038440202024438000000000060404078
:102A800040784442424264D8000000000000000048
:102A9000003C427E0202423C0000000000F0880838
:102AA000087E08080808083E00000000000000003A
:102AB000007C22221C023C42423C00000003020235
:102AC000023A4642424242E700000000000C0C007D
:102AD000000E08080808083E000000000030300022
:102AE0000038202020202020221E000000030202A7
:102AF0000272120A1612227700000000000E080867
:102B0000080808080808083E00000000000000004F
:102B1000007F9292929292B70000000000000000A5
:102B2000003B4642424242E7000000000000000035
:102B3000003C42424242423C0000000000000000D3
:102B4000001B26424242221E020700000000000035
:102B5000007844424242447840E000000000000017
:102B600000774C040404041F000000000000000073
:102B7000007C42023C40423E000000000000000891
:102B8000083E0808080808300000000000000000A7
:102B900000634242424262DC00000000000000008C
:102BA00000E7422424140808000000000000000090
:102BB00000EB4949555522220000000000000000AA
:102BC000007624181818246E000000000000000091
:102BD00000E7422424141808080700000000000041
:102BE000007E22100808447E000000C02020202023
:102BF0002010202020202020C000101010101010C5
:102C000010101010101010101010000608080808FE
:102C1000081008080808080806000C32C200000066
:102C200000000000000000000000000000000000A4
:102C30000000000000000000000000000000000094
:102C40000000000000000000000000000000000084
:102C50000000000000000000000000000000000074
:102C600000006000600060006000600060006000C4
:102C70004000200020002000000000000000600054
:102C8000600060000000000000000000000060061E
:102C90006006300398018800440000000000000036
:102CA0000000000000000000000000000000000024
:102CB0000000000000000000000000000000000014
:102CC00000001002100210021002FE07FE070802A8
:102CD0000801080108010801FE07FE0704010401BC
:102CE00004010401000000000000000000000000DA
:102CF00040004000F00158034C03CC034C00580046
:102D00007000E000C001C00140034C035C034C03B1
:102D10004801F000400040000000000000000000FA
:102D200000000E010A019100910091005100510034
:102D30003A00AE03A002500450044804480448047A
:102D40008402840300000000000000000000000076
:102D5000000038006C006C006C006C006C002C00F3
:102D600098071C011A01330133016301E300C30812
:102D7000C6093C07000000000000000000000C0035
:102D80001C001000100008000400000000000000FB
:102D90000000000000000000000000000000000033
:102DA000000000000000000000000000000000041F
:102DB0000002000180008000400040002000200050
:102DC0002000200020002000200040004000800063
:102DD000800000010002000400000000000002006A
:102DE00004000800100010002000200040004000F7
:102DF0004000400040004000400020002000100043
:102E000010000800040002000000000000000000A4
:102E10000000000000004000C0004000460C4E0FC3
:102E2000D001F0015E0F460C400040004000000061
:102E30000000000000000000000000000000000092
:102E40000000000000000000400040004000400082
:102E50004000FE0F400040004000400040000000E5
:102E60000000000000000000000000000000000062
:102E70000000000000000000000000000000000052
:102E800000000000000000000000000000000C0036
:102E90001C001000100008000400000000000000EA
:102EA0000000000000000000000000000000000022
:102EB0000000FE070000000000000000000000000D
:102EC0000000000000000000000000000000000002
:102ED00000000000000000000000000000000000F2
:102EE00000000000000000000000000000001C00C6
:102EF0001C001C0000000000000000000000000496
:102F00000006000200030001000180008000400074
:102F100040006000200020001000100008000800A1
:102F20000C00040006000200000000000000000089
:102F300000000000F00098010C030C0306060606D2
:102F40000606060606060606060606060C030C031B
:102F50009801F000000000000000000000000000E8
:102F60000000000040007C00600060006000600025
:102F70006000600060006000600060006000600051
:102F80006000FC03000000000000000000000000E2
:102F900000000000F800840102030603060300039A
:102FA00000018001C000600020001000080204023F
:102FB0000602FE0300000000000000000000000008
:102FC000000000007800C6008601860180018001B3
:102FD000C000700080010001000300030603060327
:102FE0008601F80000000000000000000000000062
:102FF0000000000080018001C001A001A00190013B
:103000008801880184018201FE0F80018001800116
:103010008001E00700000000000000000000000048
:1030200000000000FC03040004000400040004008D
:10303000F4008C010403000300030603060382016D
:103040008401F80000000000000000000000000003
:1030500000000000E00118030C030C00040006004F
:10306000E60116030E0606060606060604060C0210
:103070001803F00000000000000000000000000045
:1030800000000000F8070C06040204010001000122
:103090008000800040004000400060006000600050
:1030A0006000600000000000000000000000000060
:1030B00000000000F8010C030606060606060C02D6
:1030C0001C03F000C8010C030606060606060606E9
:1030D0000C03F001000000000000000000000000F0
:1030E00000000000F0000C010C03060206060606B4
:1030F000060606078C0678060006000300030C018E
:103100008C017800000000000000000000000000BA
:103110000000000000000000000000000000E000CF
:10312000E000E00000000000000000000000E000FF
:10313000E000E000000000000000000000000000CF
:10314000000000000000000000000000000060001F
:10315000600000000000000000000000000000000F
:10316000600060004000200020000000000000001F
:103170000000000400020001800040002000100058
:10318000080004000800100020004000800000013A
:103190000002000400000000000000000000000029
:1031A0000000000000000000000000000000FE071A
:1031B000000000000000FE0700000000000000000A
:1031C00000000000000000000000000000000000FF
:1031D00000000400080010002000400080000001F2
:1031E00000020004000200018000400020001000E6
:1031F00008000400000000000000000000000000C3
:1032000000000000E0031806040C040C0C0C0C0C6D
:103210000007800140004000400000000000E00086
:10322000E000E000000000000000000000000000DE
:103230000000E00018030C02CC0564056605A60535
:10324000B604B604B604B604B602E4010C040C02DB
:103250001803F00000000000000000000000000063
:1032600000000000600060005000D000900090005E
:10327000880088010801F801040304030402020223
:1032800002060F0F00000000000000000000000018
:1032900000000000FE008C030C030C030C030C0365
:1032A0008C01FC000C030C020C060C060C060C0630
:1032B0000C03FE0100000000000000000000000000
:1032C00000000000E00318030C060C0404040600D0
:1032D0000600060006000600060006040C040C02A8
:1032E0001803F000000000000000000000000000D3
:1032F000000000007F008C010C030C030C060C0680
:103300000C060C060C060C060C060C060C030C0333
:103310008C017F00000000000000000000000000A1
:1033200000000000FF0306030604060406008600F2
:103330008600FE008600860086000600060406045D
:103340000602FF0300000000000000000000000073
:1033500000000000FF0306030604060406008600C2
:103360008600FE0086008600860006000600060035
:1033700006001F0000000000000000000000000028
:1033800000000000F00018010C020C02040206000C
:10339000060006000600C60F060306030C030C0316
:1033A0001803F00000000000000000000000000012
:1033B000000000000F0F06060606060606060606B3
:1033C0000606FE07060606060606060606060606A4
:1033D00006060F0F000000000000000000000000C3
:1033E00000000000FC0360006000600060006000FE
:1033F00060006000600060006000600060006000CD
:103400006000FC030000000000000000000000005D
:1034100000000000F807C000C000C000C000C000ED
:10342000C000C000C000C000C000C000C000C0009C
:10343000C000C000C60066003C00000000000000A4
:1034400000000000CF038601C600460026001600DB
:1034500036002E006E004600C6008600860106017A
:1034600006038F07000000000000000000000000BD
:10347000000000001F00060006000600060006000F
:103480000600060006000600060006000604060404
:103490000602FF0300000000000000000000000022
:1034A000000000000707860386038E038E034E0389
:1034B0004E034A035A035A033A03320332033203D8
:1034C0001203870700000000000000000000000059
:1034D000000000008E0F0C021C021C023402340299
:1034E000640264024402C402840284038403040369
:1034F00004031F02000000000000000000000000A4
:1035000000000000F00098010C030C0206060606FD
:103510000606060606060606060606060C020C0346
:103520009801F00000000000000000000000000012
:1035300000000000FF000603060606060606060653
:1035400006068603FE0006000600060006000600CA
:1035500006001F0000000000000000000000000046
:1035600000000000F00098010C030C02060606069D
:103570000606060606060606060676064C02CC0376
:103580009801F00080070003000000000000000028
:1035900000000000FF0106030606060606060606F2
:1035A0000603FE004600C6008600860106030603E9
:1035B00006060F0E000000000000000000000000E2
:1035C00000000000F8020C030602060206000E00CE
:1035D0003C00F800E003800300070206020606062E
:1035E0000C03F001000000000000000000000000DB
:1035F00000000000FE0762046108610860006000CE
:1036000060006000600060006000600060006000BA
:103610006000F80100000000000000000000000051
:10362000000000001E070C020C020C020C020C022F
:103630000C020C020C020C020C020C020C020C021A
:103640001801F00000000000000000000000000071
:10365000000000000F070602040104010C010C0128
:1036600088008800980098005000500070003000DA
:10367000200020000000000000000000000000000A
:1036800000000000F70E620442044604460464028F
:103690006402E402E4029C029C0198019801880102
:1036A000880088000000000000000000000000000A
:1036B000000000009E070C01080118019000B000F6
:1036C0006000200060006000D000900088010801C8
:1036D00004038E070000000000000000000000004E
:1036E000000000000F0F060404020C02080118017C
:1036F000B800B00070006000600060006000600012
:103700006000F80100000000000000000000000060
:1037100000000000FC070C0206030201800180008B
:1037200040004000200020001000180008040C0495
:103730000402FE0300000000000000000000E0039F
:103740002000200020002000200020002000200079
:103750002000200020002000200020002000200069
:10376000200020002000E003000000000000000016
:103770000000040004000800080010001000100001
:103780002000200040004000C000800080000001B8
:1037900000010002000200020004000000007C00A2
:1037A0004000400040004000400040004000400019
:1037B0004000400040004000400040004000400009
:1037C0004000400040007C000000000060009000CD
:1037D00008010000000000000000000000000000E0
:1037E00000000000000000000000000000000000D9
:1037F00000000000000000000000000000000000C9
:1038000000000000000000000000000000000000B8
:1038100000000000000000000000000000000000A8
:103820000000000000000000FF0F00000000180072
:103830006000000000000000000000000000000028
:103840000000000000000000000000000000000078
:103850000000000000000000000000000000000068
:103860000000000000000000000000000000F00167
:103870000C030C030003E0031C030E030603060302
:103880008E0B7C0E00000000000000000000000015
:10389000000008000E000C000C000C000C00CC0115
:1038A0003C031C060C060C060C060C060C060C024F
:1038B0001C03E40100000000000000000000000004
:1038C0000000000000000000000000000000F00008
:1038D0008C018C01860106000600060006020C021F
:1038E0000C01F000000000000000000000000000DB
:1038F00000000002C003000300030003000378037C
:103900008C030C03060306030603060306030403E5
:103910008C0778010000000000000000000000009B
:103920000000000000000000000000000000E001B6
:10393000180308020C060C06FC070C000C00180407
:103940001802E0010000000000000000000000007C
:1039500000000000C0036006300630003000FE01A9
:1039600030003000300030003000300030003000D7
:103970003000FC010000000000000000000000001A
:103980000000000000000000000000000000F00740
:10399000D8068C018C018C019801F8000C00FC0009
:1039A000CC03060306038E03F800000000000000AD
:1039B000000008000E000C000C000C000C00EC01D4
:1039C0001C030C030C030C030C030C030C030C036F
:1039D0000C039E0700000000000000000000000033
:1039E00000000000600060000000000040007C005B
:1039F00060006000600060006000600060006000C7
:103A00006000FC0300000000000000000000000057
:103A100000000000C001C001000000000001F00132
:103A2000800180018001800180018001800180018E
:103A3000800180018001CC007C00000000000000BB
:103A4000000008000E000C000C000C000C008C03A1
:103A50008C008C004C006C005C008C008C010C0114
:103A60000C039E07000000000000000000000000A2
:103A7000000040007C0060006000600060006000AA
:103A80006000600060006000600060006000600036
:103A90006000FC03000000000000000000000000C7
:103AA00000000000000000000000000000003707D8
:103AB000EE0666066606660666066606660666061E
:103AC0006606FF0F0000000000000000000000007C
:103AD0000000000000000000000000000000EE01F7
:103AE0001C030C030C030C030C030C030C030C034E
:103AF0000C039E0700000000000000000000000012
:103B00000000000000000000000000000000F000C5
:103B100098010C03060606060606060606060C03B2
:103B20000C03F00000000000000000000000000096
:103B30000000000000000000000000000000EE0196
:103B40001C030C060C060C060C060C060C060C03DB
:103B50001C03EC010C000C003E0000000000000003
:103B600000000000000000000000000000007802DB
:103B70008C030C0306030603060306030603040373
:103B80008C03780300030003C0070000000000005E
:103B900000000000000000000000000000009F0383
:103BA00058063806180018001800180018001800E9
:103BB0001800FF00000000000000000000000000EE
:103BC0000000000000000000000000000000F00302
:103BD0001C030C020C023800F000C00304030403B1
:103BE0008C03FC0100000000000000000000000049
:103BF0000000000000002000200030003000FE0126
:103C00003000300030003000300030003000300232
:103C10003002E00100000000000000000000000091
:103C200000000000000000000000000008028E03F9
:103C30000C030C030C030C030C030C030C030C030C
:103C40009C07780100000000000000000000000058
:103C500000000000000000000000000000001E073F
:103C60000C020801080118019000B000B0006000CB
:103C700060002000000000000000000000000000C4
:103C80000000000000000000000000000000F70E2F
:103C90006204460464026402EC029C0198019801EB
:103CA0009801080000000000000000000000000073
:103CB0000000000000000000000000000000BC0741
:103CC00018011001B00060006000E00090000801E1
:103CD00008039E0700000000000000000000000034
:103CE00000000000000000000000000000009E072F
:103CF00008010801080190009000B0006000600019
:103D000060002000200024001C00000000000000D3
:103D10000000000000000000000000000000FC01A6
:103D20008401C40044006000200030001802080232
:103D30000C03FC0100000000000000000000000374
:103D40008000800080008000800080008000800073
:103D50004000200040008000800080008000800043
:103D60008000800080000003000040004000400010
:103D70004000400040004000400040004000400043
:103D80004000400040004000400040004000400033
:103D900040004000400040004000000000000C00D7
:103DA0001000100010001000100010001000100093
:103DB0002000400020001000100010001000100033
:103DC0001000100010000C00000000001C00220475
:103DD000C20480030000000000000000000000009A
:103DE00000000000000000000000000000000000D3
:103DF00000000000000000000000000000000000C3
:103E000000000000000000000000000000000000B2
:103E100000000000000000000000000000000000A2
:103E20000000000000000000000000000000000092
:103E30000000000000000000000000000000000082
:103E400000000000C001C001C001C001C001C001EC
:103E5000C001800080008000800080008000800021
:103E600000000000000000008001C003C0038001CA
:103E70000000000000000000000000000000000042
:103E8000E01CE01CF01E700E3807180308018400C7
:103E90000000000000000000000000000000000022
:103EA0000000000000000000000000000000000012
:103EB0000000000000000000000000000000000002
:103EC0000000000000002010201020102010201002
:103ED000FE7FFE7F10081008100810081008100858
:103EE0001008FE7FFE7F0804080408040804080484
:103EF00000000000000000000000000000000000C2
:103F0000000000010001C007601910311831183994
:103F1000183938017001E001C0038007000F001D4F
:103F2000003900311C311C310C310C11180DE00727
:103F3000000100010001000000000000000000007E
:103F40000000000000001C1036186308630C6304B6
:103F50006304630263026301361D9C378022806321
:103F60004063406320632063306310221836081CCE
:103F70000000000000000000000000000000000041
:103F8000000000000000F00098018C018C018C0101
:103F90008C018C00CC007800183E1C0836083208D2
:103FA00063046304C304C303834306438E26781C5F
:103FB0000000000000000000000000000000000001
:103FC0001C003C003C003000300010000C000600DB
:103FD00000000000000000000000000000000000E1
:103FE00000000000000000000000000000000000D1
:103FF00000000000000000000000000000000000C1
:104000000040002000100008000C0004000600031F
:104010000003000380018001800180018001800194
:104020008001800100030003000300060006000C6D
:104030000008001000200040000000000000000008
:104040000200040008001000300020006000C000E2
:10405000C000C000800180018001800180018001DA
:1040600080018001C000C000C0006000600030001E
:104070001000080004000200000000000000000022
:104080000000000000000000000000018003800329
:1040900000011C713C79783DC0070001C007783DE4
:1040A0003C791C7100018003800380010000000046
:1040B0000000000000000000000000000000000000
:1040C00000000000000000000000000000010001EE
:1040D00000010001000100010001FC7F000100015E
:1040E00000010001000100010001000000000000CB
:1040F00000000000000000000000000000000000C0
:1041000000000000000000000000000000000000AF
:10411000000000000000000000000000000000009F
:10412000000000000000000000001C003C003C00FB
:104130003000300010000C000600000000000000FD
:10414000000000000000000000000000000000006F
:1041500000000000000000000000FE7F00000000E2
:10416000000000000000000000000000000000004F
:10417000000000000000000000000000000000003F
:10418000000000000000000000000000000000002F
:10419000000000000000000000000000000000001F
:1041A000000000000000000018003C003C00180067
:1041B00000000000000000000000000000000000FF
:1041C0000040006000200030001000180008000CC3
:1041D0000004000600020003000180018000C0000E
:1041E00040006000200030001000180008000C00A3
:1041F00004000600020000000000000000000000B3
:10420000000000000000C007600C301818301830A3
:1042100018200C600C600C600C600C600C600C6072
:104220000C600C601820183018303018600CC00773
:10423000000000000000000000000000000000007E
:1042400000000000000000018001F80180018001F1
:104250008001800180018001800180018001800156
:10426000800180018001800180018001C003F81F6E
:10427000000000000000000000000000000000003E
:10428000000000000000E007101C08180430043093
:104290000C300C300030001800080004000200014F
:1042A000800040002020102008200430FC1FFC1F4C
:1042B00000000000000000000000000000000000FE
:1042C000000000000000E003180E0C0C0C180C1885
:1042D0000C180018000C0006C003000E0018001097
:1042E000003000300C300C300C100C18180CE003AF
:1042F00000000000000000000000000000000000BE
:10430000000000000000000C000E000E000F800EE8
:10431000800E400E600E200E100E100E080E040EC1
:10432000040EFE7F000E000E000E000E000E000EAA
:10433000C07F00000000000000000000000000003E
:10434000000000000000F03FF03F100010001000DF
:1043500008000800C807280C1818081000300030A2
:10436000003000300C300C3004180418080CF00336
:10437000000000000000000000000000000000003D
:10438000000000000000800FC01020301030180026
:10439000180008000C008C0F6C183C301C600C607E
:1043A0000C600C600C601860182030306018C0077A
:1043B00000000000000000000000000000000000FD
:1043C000000000000000F83FF83F1C100C08040833
:1043D000040400040002000200010001000180004A
:1043E00080008000C000C000C000C000C000C0004D
:1043F00000000000000000000000000000000000BD
:10440000000000000000E007300C18180C300C30E1
:104410000C301C3038187008E007B007180E0C1C60
:10442000063806300630063006300C18180CE0034B
:10443000000000000000000000000000000000007C
:10444000000000000000E00318040C080C1806101F
:10445000063006300630063006380C3C1836F0318F
:1044600000300018001800180C0C0C060C03F001AA
:10447000000000000000000000000000000000003C
:10448000000000000000000000000000000000002C
:10449000000000008001C003C00380010000000094
:1044A00000000000000000008001C003C003800184
:1044B00000000000000000000000000000000000FC
:1044C00000000000000000000000000000000000EC
:1044D00000000000C000C00000000000000000005C
:1044E000000000000000000000000000C000C0004C
:1044F000800080004000400000000000000000003C
:104500000000000000200010000800040006000366
:104510008001C0006000300018000C00180030005E
:104520006000C000800100030006000400080010C5
:10453000002000000000000000000000000000005B
:10454000000000000000000000000000000000006B
:1045500000000000FE7F00000000000000000000DE
:10456000FE7F0000000000000000000000000000CE
:10457000000000000000000000000000000000003B
:104580000000000004000800100020006000C000CF
:10459000800100030006000C001800300018000C19
:1045A000000600038001C000600020001000080029
:1045B00004000000000000000000000000000000F7
:1045C00000000000C0073018083008600C601C6054
:1045D0001C601C600030001C000600018000800090
:1045E00080008000000000008001C003C003800143
:1045F00000000000000000000000000000000000BB
:10460000000000000000C0076018103018200C2FB8
:104610008C4D864CC64CC64C664C66446644662639
:1046200066266615CC1C0C40082018303018C007D0
:10463000000000000000000000000000000000007A
:10464000000000000001C001C001C0014001600382
:104650002003200320033006100610061006F80F72
:10466000080C080C080C0C0C0418041806181F7C05
:10467000000000000000000000000000000000003A
:10468000000000000000FE07181C18381830183011
:10469000183018301818180CF80718181830182087
:1046A0001860186018601860186018301818FE0F2D
:1046B00000000000000000000000000000000000FA
:1046C000000000000000C0276038103018200C40A7
:1046D0000C40040006000600060006000600060066
:1046E000060006000C400C400C2018303018C007A3
:1046F00000000000000000000000000000000000BA
:10470000000000000000FE03180E181818301830C2
:104710001830186018601860186018601860186009
:10472000186018601830183018101818180EFE038A
:104730000000000000000000000000000000000079
:10474000000000000000FE3F1830182018601840DC
:10475000180018081808180CF80F180C1808180872
:104760001800180018001840184018201830FE3F94
:104770000000000000000000000000000000000039
:10478000000000000000FE7F1870184018C018805C
:104790001800181018101818F81F181818101810EA
:1047A00018001800180018001800180018007E00E3
:1047B00000000000000000000000000000000000F9
:1047C000000000000000C013701C101018100C2016
:1047D0000C2004000600060006000600060006FC89
:1047E000063006300C300C30183018303008C00756
:1047F00000000000000000000000000000000000B9
:104800000000000000003F7E0C180C180C180C185B
:104810000C180C180C180C180C18FC1F0C180C1881
:104820000C180C180C180C180C180C180C183F7ECF
:104830000000000000000000000000000000000078
:10484000000000000000F81F80018001800180014D
:104850008001800180018001800180018001800150
:104860008001800180018001800180018001F81FAA
:104870000000000000000000000000000000000038
:10488000000000000000E07F0006000600060006B1
:1048900000060006000600060006000600060006E8
:1048A00000060006000600060006000600060006D8
:1048B00000060E060E038E01FC0000000000000042
:1048C0000000000000007E7C181818081804180664
:1048D0001802180198019801D801B8033803180785
:1048E0001806180E180C181C1818183018307EFCF2
:1048F00000000000000000000000000000000000B8
:104900000000000000007E001800180018001800C9
:1049100018001800180018001800180018001800D7
:104920001800180018001840184018201830FE3FD2
:104930000000000000000000000000000000000077
:104940000000000000001FF81C381C381C381C3CFC
:10495000343434343434343674326432643264324D
:104960006431C431C431C431C430C43084309FFC9C
:104970000000000000000000000000000000000037
:104980000000000000001F7C1C103C10341034108C
:1049900074106410E410C410C4118411841304133F
:1049A00004170416041E041C041C041C04181F18FD
:1049B00000000000000000000000000000000000F7
:1049C000000000000000C003300C181808100C3064
:1049D0000C300660066006600660066006600660D1
:1049E000066006600C200C3008101818300CC0034C
:1049F00000000000000000000000000000000000B7
:104A0000000000000000FE0F181818301860186031
:104A100018601860186018301818F80F180018007F
:104A200018001800180018001800180018007E0060
:104A30000000000000000000000000000000000076
:104A4000000000000000C003300C18180C100C30DF
:104A50000C20066006600660066006600660066060
:104A600006600660E4612C331C321816300EC00755
:104A7000004C007C00380000000000000000000036
:104A8000000000000000FE07181C1838183018300D
:104A9000183018301818180CF8079803180318075E
:104AA00018061806180E180C180C181C18187E7802
:104AB00000000000000000000000000000000000F6
:104AC000000000000000E027303818300C200C20D7
:104AD0000C000C0018007800E003800F001E003866
:104AE0000070006004600460086018303818C80F57
:104AF00000000000000000000000000000000000B6
:104B0000000000000000FC3F8C2184618241824152
:104B1000800180018001800180018001800180018D
:104B20008001800180018001800180018001E00717
:104B30000000000000000000000000000000000075
:104B40000000000000003F7C0C100C100C100C103A
:104B50000C100C100C100C100C100C100C100C1075
:104B60000C100C100C100C100C1008083804E0038A
:104B70000000000000000000000000000000000035
:104B80000000000000003EF8182018201820301007
:104B9000301030103010600860086008E00CC0046D
:104BA000C004C0048003800380038003000100016F
:104BB00000000000000000000000000000000000F5
:104BC000000000000000DFF38661862186218C2131
:104BD0000C218C238C138C138C134C1358125816E5
:104BE000580E380E380E380E300C10041004100415
:104BF00000000000000000000000000000000000B5
:104C00000000000000007E3E180838083004300420
:104C100070026002E001C001C00180018003400316
:104C2000400720062006100C100C081808183E7CBF
:104C30000000000000000000000000000000000074
:104C40000000000000007E7C1C10181018083008BE
:104C5000300C700460046002C002C002C001800118
:104C60008001800180018001800180018001E007D6
:104C70000000000000000000000000000000000034
:104C8000000000000000F83F18180818040C040E7B
:104C900000060007000380038001C001C000E0009F
:104CA000600070003000382018201C100C18FE1F07
:104CB00000000000000000000000000000000000F4
:104CC000C03F400040004000400040004000400025
:104CD00040004000400040004000400040004000D4
:104CE00040004000400040004000400040004000C4
:104CF00040004000C03F0000000000000000000035
:104D0000000000000800180018001000300020000B
:104D1000600060004000C000800080018001000150
:104D200000030002000600060004000C0008001842
:104D300000180010003000200000000000000000FB
:104D4000FC03000200020002000200020002000256
:104D50000002000200020002000200020002000243
:104D60000002000200020002000200020002000233
:104D700000020002FC030000000000000000000030
:104D80008007C0062008101000000000000000008E
:104D90000000000000000000000000000000000013
:104DA0000000000000000000000000000000000003
:104DB00000000000000000000000000000000000F3
:104DC00000000000000000000000000000000000E3
:104DD00000000000000000000000000000000000D3
:104DE00000000000000000000000000000000000C3
:104DF0000000000000000000FFFF000000000000B5
:104E00007800C00000010000000000000000000069
:104E10000000000000000000000000000000000092
:104E20000000000000000000000000000000000082
:104E30000000000000000000000000000000000072
:104E40000000000000000000000000000000000062
:104E500000000000F00318060C0C0C0C000C800F76
:104E6000700C1C0C0C0C060C060C064C0C4FF83885
:104E70000000000000000000000000000000000032
:104E80000000000010001E00180018001800180094
:104E900018001800180FD8183830386018601860DB
:104EA0001860186018601860182038307818C80723
:104EB00000000000000000000000000000000000F2
:104EC00000000000000000000000000000000000E2
:104ED00000000000C007700C181818180C180C00FF
:104EE0000C000C000C000C20182018103008C00713
:104EF00000000000000000000000000000000000B2
:104F0000000000000010001E001800180018001813
:104F100000180018E01B301C181818180C180C1872
:104F20000C180C180C180C180818181C307AE0090A
:104F30000000000000000000000000000000000071
:104F40000000000000000000000000000000000061
:104F500000000000C007300C181808100C300C308E
:104F6000FC3F0C000C000C00182018107018C00733
:104F70000000000000000000000000000000000031
:104F8000000000000000003E80C380C0C0C0C00020
:104F9000C000C000FC1FC000C000C000C000C000B6
:104FA000C000C000C000C000C000C000C000F80FBA
:104FB00000000000000000000000000000000000F1
:104FC00000000000000000000000000000000000E1
:104FD00000000000C077306C101818181818181846
:104FE0001018300CF00718001800F00FF03F087090
:104FF0000C600C600C603838E00F0000000000000E
:105000000000000010001E00180018001800180012
:1050100018001800980FD818383018301830183089
:1050200018301830183018301830183018307EFC0E
:105030000000000000000000000000000000000070
:1050400000000000000080038003800300000000D7
:1050500000000001F80180018001800180018001D1
:105060008001800180018001800180018001F81FA2
:105070000000000000000000000000000000000030
:105080000000000000000038003800380000000078
:1050900000000010801F00180018001800180018E9
:1050A0000018001800180018001800180018001840
:1050B00000180018180C1806F0030000000000008B
:1050C0000000000010001E00180018001800180052
:1050D00018001800183E180C18061803180198013B
:1050E000D801380318071806180C181C18187E7CED
:1050F00000000000000000000000000000000000B0
:10510000000000000001F8018001800180018001A1
:105110008001800180018001800180018001800187
:105120008001800180018001800180018001F81FE1
:10513000000000000000000000000000000000006F
:10514000000000000000000000000000000000005F
:1051500000000800EE1C9C338C318C318C318C317A
:105160008C318C318C318C318C318C318C31DE7BBB
:10517000000000000000000000000000000000002F
:10518000000000000000000000000000000000001F
:10519000000010001E0FD8183830183018301830A2
:1051A00018301830183018301830183018307EFC8D
:1051B00000000000000000000000000000000000EF
:1051C00000000000000000000000000000000000DF
:1051D00000000000C007701C103018300C600C601C
:1051E0000C600C600C600C60183018303018C00770
:1051F00000000000000000000000000000000000AF
:10520000000000000000000000000000000000009E
:10521000000010009E0F58183830182018601860D1
:1052200018601860186018601830383078189807BF
:1052300018001800180018007E0000000000000090
:10524000000000000000000000000000000000005E
:1052500000000000C023303C183818300C300C30EF
:105260000C300C300C300C3008301838303CE03347
:10527000003000300030003000FC00000000000072
:10528000000000000000000000000000000000001E
:10529000000060007E3C60666061E000E00060004D
:1052A0006000600060006000600060006000FE0759
:1052B00000000000000000000000000000000000EE
:1052C00000000000000000000000000000000000DE
:1052D00000000000E0273038183018201800700057
:1052E000E003800F001C043004300C301C18EC0F5D
:1052F00000000000000000000000000000000000AE
:10530000000000000000000000008000800080001D
:10531000C000E000FC1FC000C000C000C000C00012
:10532000C000C000C000C000C020C0208011000F1D
:10533000000000000000000000000000000000006D
:10534000000000000000000000000000000000005D
:10535000000010201E3C183018301830183018305B
:1053600018301830183018301830183830F4E0136E
:10537000000000000000000000000000000000002D
:10538000000000000000000000000000000000001D
:10539000000000007E3C181818083808300430045B
:1053A000700260026002E001C001C001C000800024
:1053B00000000000000000000000000000000000ED
:1053C00000000000000000000000000000000000DD
:1053D00000000000DFF78E630C238C238C239813CE
:1053E000981358165816700E700E700E2004200474
:1053F00000000000000000000000000000000000AD
:10540000000000000000000000000000000000009C
:1054100000000000FC3E70087004E004C002C001FF
:105420008003800340076006200C100C18183E7E95
:10543000000000000000000000000000000000006C
:10544000000000000000000000000000000000005C
:10545000000000007E7C181818083008300830045E
:1054600060046004C002C002C002800180018001AB
:105470008000800080004C003C0000000000000024
:10548000000000000000000000000000000000001C
:1054900000000000FC1F0C0C040E04060003800337
:1054A0008001C000E0007020302038301C18FC1F44
:1054B00000000000000000000000000000000000EC
:1054C000003000080004000400040004000400048C
:1054D0000004000400040004000280010002000433
:1054E000000400040004000400040004000400049C
:1054F0000004000400080030000000010001000169
:105500000001000100010001000100010001000193
:105510000001000100010001000100010001000183
:105520000001000100010001000100010001000173
:105530000001000100010001000100000000000066
:105540000C0010002000200020002000200020007F
:1055500020002000200020004000800140002000AA
:10556000200020002000200020002000200020003B
:105570002000200010000C00000000003800C400D3
:10558000864002610022001C0000000000000000B4
:10559000000000000000000000000000000000000B
:1055A00000000000000000000000000000000000FB
:1055B00000000000000000000000D6D02000200005
:1055C0002000FE03220222022202FE032202200009
:1055D00020002000BEB0FC010401FC010401FC011C
:1055E0002000FF070401FC01200024013202D4B096
:1055F000FE070204FA0402040204FE0552045204E7
:105600004A0586050204FE07B5E710001000FF01F9
:1056100011011101FF0111011101FF011104100419
:10562000E007D7D30000FC018000400020002000EC
:10563000FF0720002000200020003800D6D0800086
:10564000800080008000FC1F84108410841084106F
:105650008410FC1F84108000800080008000BEB099
:10566000F80F0808F80F0808F80F8000FF7F000007
:10567000F80F08080808F80F80008410A2204000E6
:10568000D4B00000FE3F0220F22702200220FA2FB1
:10569000222122212221122912290A2E0220FE3F34
:1056A0000220B5E7800080008000FC1F8410841079
:1056B0008410FC1F841084108410FC1F84508040D0
:1056C0008040007FD7D30000FE1F000800040002C6
:1056D00080018000FF7F80008000800080008000CB
:1056E0008000A0004000D6D000000000000000189C
:1056F00000000800000800000800080818F8FF1F54
:105700001808181808181808181808181808181869
:105710000818F8FF1F080808000800000800000823
:105720000000080000180000180000180000000029
:10573000BEB0000000000000400006C0FF074000AF
:1057400006C0FF07400006C0FF0740080200300007
:10575000FEFF3F000000C0FF07C00002C00002C003
:105760000002C0FF0380100080110160100E301095
:10577000180C1E30001C00000000D4B00000000017
:105780000000080030F8FF1F08001008C010083F94
:1057900010080010080010080013C8FF100822109D
:1057A000082210082210082210082112082114884B
:1057B000601648C013280010080010F8FF1F0800EA
:1057C00010000000B5E70000000000000018000015
:1057D0000800000800000800F0FF0F10080410087F
:1057E00004100804100804F0FF071008041008044F
:1057F000100804100804F0FF07100800000810004B
:10580000081000082000183000F01F000000D7D357
:10581000000000000000000004F0FF0F0000060080
:10582000000100C000002800001800001800001847
:1058300030FEFF7F0018000018000018000018005C
:1058400000180000180000180000180000180000E0
:105850001F00000C00000000D6D000000000000077
:105860000000008000000080010000800100008036
:10587000010000800100008001001080010CF0FF99
:10588000FF0F30800104308001043080010430803B
:105890000104308001043080010430800104308034
:1058A0000104F0FFFF073080010430800104008014
:1058B00001000080010000800100008001000080E4
:1058C00001000080010000800100008001000080D4
:1058D00001000080000000000000BEB000000000D9
:1058E00000000000000000000001800100FFFF0137
:1058F000000380010003800100FFFF01000380011D
:105900000003800100FFFF0100818100000003000F
:105910000000031CFCFFFF3F000040000003C0012B
:1059200000FFFF010003C0000003C0000003C0002F
:1059300000FFFF000001410000040100000E7100A3
:1059400000078101800101076000010E1898011C09
:1059500004E0011800C0000000000000D4B0000006
:1059600000000000000000000008F0FFFF1F3000F2
:10597000000C3000000C3000100C30FE3F0C3004E6
:10598000000C3000000C3000000C3000000C300027
:10599000C00CF0FFFF0D3030060E3030060C30101A
:1059A000060C3010060C3010060C3018860C30181F
:1059B000860C3008060D300C860D3006EE0F3002D6
:1059C000FC0D3001000CF000000C3000000CF0FF6A
:1059D000FF0F3000000C1000000400000000B5E7CD
:1059E000000000000000000000C0000000C0010036
:1059F00000C0000000C0000000C0000000C00000A7
:105A0000E0FFFF0360C0000360C0000360C000034C
:105A100060C0000360C0000360C00003E0FFFF033C
:105A200060C0000360C0000360C0000360C00003EA
:105A300060C00003E0FFFF0360C0000160C0000021
:105A400000C0000800C0001000C0001000C0001816
:105A500000C001380080FF1F0000000000000000AF
:105A6000D7D300000000000000000000000000008C
:105A70000003C0FFFF07000080070000C000000017
:105A800060000000180000000C000080030000808F
:105A9000030000800100008001080080011CFCFF61
:105AA000FF3F0080010000800100008001000080B5
:105AB00001000080010000800100008001000080E2
:105AC00001000080010000800100008001000080D2
:105AD000010000FC010000E00000004000000000A8
