:020000040800F2
:1000000070040020B10100087F140008BD12000830
:100010007D1400084D060008ED15000800000000E2
:100020000000000000000000000000008314000831
:100030004F06000800000000811400088514000825
:10004000CB010008CB010008CB010008CB01000860
:10005000CB010008CB010008CB010008CB01000850
:10006000CB010008CB010008CB010008CB01000840
:10007000CB010008CB010008CB010008CB01000830
:10008000CB010008CB010008CB01000800000000F4
:10009000000000000000000000000000CB0100088C
:1000A000CB010008C5150008CB010008CB010008F2
:1000B000CB010008CB010008CB010008CB010008F0
:1000C000CB010008CB010008CB010008CB010008E0
:1000D000CB010008CB010008CB01000800000000A4
:1000E000CB010008CB010008CB0100080000000094
:1000F000000000000000000000000000CB0100082C
:1001000000000000CB010008CB010008CB01000873
:1001100000000000000000000000000000000000DF
:10012000CB010008CB010008CB010008CB0100087F
:10013000CB010008000000000000000000000000EB
:10014000000000000000000000000000CB010008DB
:10015000CB010008CB010008CB010008CB0100084F
:10016000CB010008CB0100080000000000000000E7
:10017000000000000000000000000000000000007F
:1001800000000000CB01000800000000000000009B
:10019000CB010008CB010008DFF810D000F0ACF96B
:1001A0000048004755160008AFF300807004002097
:1001B0000648804706480047FEE7FEE7FEE7FEE701
:1001C000FEE7FEE7FEE7FEE7FEE7FEE7191500089B
:1001D000990100082DE9F05F0546002092469B46F4
:1001E00088460646814640241BE02846414647464D
:1001F000224600F0DCF853465A46C01A914110D30B
:1002000011461846224600F0C3F82D1A67EB010884
:100210004F4622460120002100F0BAF817EB0009F2
:100220004E41201EA4F10104DFDC484631462A4637
:100230004346BDE8F09FD2B201E000F8012B491E11
:10024000FBD270470022F6E710B513460A46044673
:100250001946FFF7F0FF204610BD2DE9FE4F81EA59
:10026000030404F0004421F0004100944FF0000B1F
:1002700023F0004350EA01045ED052EA03045BD04D
:10028000C3F30A54C1F30A552C44A4F2F334019485
:10029000A0FB0254C1F3130141F48011C3F3130313
:1002A00043F4801301FB024400FB034E840A970AC7
:1002B00044EA815447EA8357A4FB076802958D0AF4
:1002C00005FB07854FEA932C04FB0C542705029D80
:1002D0004FEA065847EA1637B5EB08056EEB070CF0
:1002E000870E920E47EA811742EA8312A7FB0201AA
:1002F000B6EB0B0164EB00042B0D43EA0C335E18E4
:1003000044EB1C50DA465146E7FB0201C5F31304E7
:100310004FEA0B3343EA14534FEA0432019C43EA99
:100320000603A4F10C040294009CCDE900B400F093
:1003300094F803B0BDE8F08F00200146F9E70EB550
:1003400040F2334102910021CDE900110A460B46EB
:1003500000F083F803B000BD01F0004330B421F099
:10036000004150EA010206D00A0DA2F56072C1F305
:100370001301002A02DC30BC00207047440F44EA1D
:10038000C104C100E01830BC00EBC25000F01FB83F
:10039000202A04DB203A00FA02F100207047914045
:1003A000C2F1200320FA03F3194390407047202A3A
:1003B00004DB203A21FA02F00021704721FA02F30F
:1003C000D040C2F1200291400843194670470029ED
:1003D000A8BF7047401C490008BF20F001007047CB
:1003E00010B4B0FA80FC00FA0CF050EA010404BF2B
:1003F00010BC704749B1CCF1200421FA04F411FA81
:100400000CF118BF012121430843A3EB0C01CB1DC4
:100410004FEA00614FEA102042BF002010BC704735
:1004200000EBC35010440029A4BF10BC7047401C0F
:10043000490008BF20F0010010BC704710B5141E21
:1004400073F1000408DA401C41F1000192185B418D
:100450001A4301D120F0010010BD2DE9F04D924664
:100460009B4611B1B1FA81F202E0B0FA80F220327B
:100470009046FFF78DFF04460F4640EA0A0041EA26
:100480000B0153465A46084313D0114653EA010064
:1004900019D0C8F140025046FFF789FF05460E46C5
:1004A000504659464246FFF773FF084305D00120E6
:1004B00004E020463946BDE8F08D0020054346EAB9
:1004C000E0762C4337430A986305E40AA0EB080062
:1004D0000022FD0A44EA47540A3002D500200146B2
:1004E000E9E7010510196941DDE90845001969418D
:1004F000BDE8F04DA2E70000064C074D06E0E068BD
:1005000040F0010394E8070098471034AC42F6D35A
:10051000FFF746FE84160008A41600084A494A68F8
:1005200022F440324A604A6843681A434A600168CC
:100530004A6822F480724A6001684A68036942EAA4
:1005400003224A6001684A6822F040724A600168EA
:100550004A6883681A434A6001688A6822F4006224
:100560008A6001688A68C3681A438A60816A6FF08A
:100570007062D14214D001688A6822F070628A6089
:1005800001688A68836A1A438A6001688A6822F06F
:1005900040528A6001688A68C36A1A438A6009E027
:1005A00001688A6822F070628A6001688A6822F0B5
:1005B00040528A6001688A6822F002028A600168FB
:1005C0008A68037E42EA43028A6090F8201089B16B
:1005D00001684A6842F400624A6001684A6822F48D
:1005E00060424A6001684B68426A521E43EA4232E6
:1005F0004A6004E001684A6822F400624A600168C7
:10060000CA6A22F47002CA620168CB6A828B521EE7
:1006100043EA0252CA6201688A6822F400728A6060
:1006200001688A6890F8303042EA43228A600168A3
:100630008A6822F480628A6001688A68406942EAB6
:10064000802088607047000000230140FEE770476B
:1006500072B6FEE778B50024009490F83C20012A99
:1006600019D0012280F83C200A680725092A14D9EC
:100670000368DE680A3A02EB42029540AE43DE6050
:100680000A788B680A3A02EB420293400268D56806
:100690002B43D36011E0022078BD03681E6902EB92
:1006A00042029540AE431E610A788B6802EB42021B
:1006B0009340026815692B4313614A681F25072A76
:1006C00013D203685E6B521E02EB82029540AE436A
:1006D0005E630A8893B20A79521E02EB820293404B
:1006E0000268556B2B43536328E00D2A13D203682D
:1006F0001E6BD21F02EB82029540AE431E630A8836
:1007000093B20A79D21F02EB820293400268156B02
:100710002B43136312E00368DE6A0D3A02EB820298
:100720009540AE43DE620A8893B20A790D3A02EB35
:10073000820293400268D56A2B43D3621B4A1C4B4A
:1007400005689D420AD10D68122D07D1556825F420
:1007500000055560556845F48005556005689D4263
:1007600020D1144D0B68AB4201D0112B1AD1536824
:1007700023F480035360536843F400035360096813
:10078000A9420FD10C490D4A0968B1FBF2F101EB06
:1007900081014900009102E00099491E00910099F1
:1007A0000029F9D180F83C40002078BD00230140A9
:1007B00000200140120000100C00002040420F00F9
:1007C0000068C06C704770B504460026002C03D04A
:1007D000206C002510B107E0012070BD204600F01C
:1007E0001DF8656484F83C50206CC00610D4206C61
:1007F00020F4885040F0020020642046FFF78EFE6F
:100800006564206C20F0020040F00100206400E0EC
:10081000012684F83C50304670BD000010B586B00B
:100820000446142101A8FFF70DFD114920688842F4
:100830001BD100210F48026842F4807202600068F8
:1008400000F4807000900B481438026842F00102F6
:100850000260006800F00100009003200190029007
:10086000039101A9044800F0F1F806B010BD0000A2
:100870000020014044380240000002402DE9F041D0
:1008800004460D46206881684FF0000749050BD5E6
:100890008068C00508D5206C40F02000206484F8F2
:1008A0003C700120BDE8F08100F0A4F9064613E099
:1008B000681C11D025B100F09DF9801BA8420BD90E
:1008C00020680068800707D4206C40F00400206492
:1008D00084F83C700320E5E7206800688007E7D5CE
:1008E00021686FF012000860206C40F400702064F2
:1008F0002068816811F0405F13D1217E89B9C16AF7
:1009000011F4700F02D0806840050AD4206C20F4E6
:1009100080702064206CC00403D4206C40F001007F
:1009200020640020BEE7000018B50022009290F875
:100930003C10012907D0012180F83C1001688B6828
:10094000DB0702D014E0022018BD8B6843F00103DE
:100950008B602B492B4B0968B1FBF3F101EB410193
:10096000009102E00099491E009100990029F9D1F7
:1009700001688B68DB0739D0036C40F20164A34344
:1009800043F4807303644B685B0505D5036C23F463
:10099000005343F480530364036CDB0404D5436CBD
:1009A00023F00603436400E0426480F83C20164ACA
:1009B0006FF022030B605168C90608D00068134924
:1009C00088421BD1816811F0405F0AD016E00068B0
:1009D000816811F0405F11D1816841F080418160F0
:1009E0000CE0816841F08041816007E0016C41F0DA
:1009F00010010164416C41F001014164002018BD07
:100A00000C00002040420F00002301400020014064
:100A100090F83C1001290CD0012180F83C100168AD
:100A20008A6822F001028A6001688968C90702D0D9
:100A300007E002207047016C21F4885141F0010168
:100A40000164002180F83C10002070472DE9F84F28
:100A50000022DFF880914FF0010803274FF00F0CC0
:100A600009F1040AA9F1040B08FA02F50B682B40FE
:100A7000AB426ED10C7904F00304012C01D0022C9E
:100A800015D18668540007FA04FE26EA0E06D1F84E
:100A90000CE00EFA04FE4EEA060EC0F808E04468C8
:100AA000AC430D79C5F300159540254345600C799D
:100AB000E443A40708D0C568540007FA04F6B54318
:100AC0008E68A6402E43C6600C7904F00304022C05
:100AD00011D1D40800EB8406356A5407E40E0CFAF1
:100AE00004FE25EA0E05D1F810E00EFA04FE4EEAE7
:100AF000050EC6F820E00568540007FA04F6B54371
:100B00000E7906F00306A6402E4306604C6814F4E6
:100B1000403F58D0304C256845F480452560246816
:100B200004F4804400942D4C22F003052E19D6F8CD
:100B3000085894074FEA147E0CFA0EF4A543284C8B
:100B4000A04201D1002415E0264CA04202D101248C
:100B500010E038E0244CA04201D102240AE0234CEA
:100B6000A04201D1032405E0214CA04201D104247C
:100B700000E0072404FA0EF42C43C6F80848D9F81C
:100B800000409C434D68ED0200D51C43C9F800406D
:100B9000DAF800409C434D68AD0200D51C43CAF80A
:100BA0000040DBF800409C434D68AD0300D51C437A
:100BB000CBF80040074D083D2C689C434E68F60377
:100BC00000D51C432C60521C102AFFF44DAFBDE829
:100BD000F88F0000083C01404438024000300140DA
:100BE000000002400004024000080240000C0240E5
:100BF000001002400148806870470000000000209B
:100C0000024881680278114481607047000000202A
:100C100010B50B48016841F400710160016841F4AE
:100C200080610160016841F480710160032000F07F
:100C300063F80F2000F006F800F026F8002010BD41
:100C4000003C024070B504460D4D4FF47A7128788F
:100C5000B1FBF0F00B490968B1FBF0F000F01AFBB2
:100C600008B1012070BD102C07D200222146501E71
:100C700000F022F86C60002070BD012070BD000003
:100C8000000000200C00002008B50A48016841F46B
:100C900080410160006800F4804000900548001F1A
:100CA000016841F080510160006800F080500090C0
:100CB00008BD000044380240F0B40D460D4B1B68DF
:100CC000C3F30223C3F10704042C00D90424191D23
:100CD000072901D2002300E0DB1E012606FA04F1F9
:100CE000491E294099409E40761E16403143F0BC73
:100CF00000F07DBC0CED00E000F00701054A106833
:100D00004FF6FF03184040EA0120034908431060F2
:100D1000704700000CED00E00000FA052DE9F047F7
:100D200004460D46002C13D0DFF82891D9F80000B6
:100D3000EFB200F00700A8420CD289F80070D9F891
:100D4000000000F00700A84204D00120BDE8F087B1
:100D50000120FBE72068404E810712D5400703D5EC
:100D6000306840F4E05030602078000703D53068E8
:100D700040F4604030603068A16820F0F000084323
:100D800030602078C00731D03349606808390128C5
:100D900008D002280BD0032809D0096889070BD492
:100DA0000120D3E70968890306D40120CEE709684A
:100DB000890101D40120C9E7316821F00301014311
:100DC0003160FFF717FF804641F2883A07E0FFF7EE
:100DD00011FFA0EB0800504501D90320B6E73068A9
:100DE000616800F00C00B0EB810FF0D1D9F8000081
:100DF00000F00700A84209D989F80070D9F800006E
:100E000000F00700A84201D001209FE720784007AA
:100E100005D53068E16820F4E05008433060207860
:100E2000000706D53068216920F4604040EAC1001F
:100E3000306000F019F83168084AC1F30311515CC1
:100E4000C8400749086007480068FFF7FBFE00201C
:100E50007CE70000003C024008380240721600089F
:100E60000C0000200400002010B51748006810F0A6
:100E70000C01164816D0164B042912D0082911D19E
:100E8000114C241F216801F03F02216849020AD554
:100E90002068C0F38810A0FB03010023FFF79AF934
:100EA00009E0184610BD21680023C1F38811A1FB99
:100EB0000001FFF78FF92168C1F30141491C490086
:100EC000B0FBF1F010BD0000083802400024F4002F
:100ED00040787D012DE9F84F0446002C13D020788E
:100EE000DFF8A083C007A8F1040556D008F104007C
:100EF0000168C1F3810101290CD00068C0F38100B1
:100F0000022803D00DE00120BDE8F88FD8F80000DA
:100F1000400206D5286880033FD5606870BB012079
:100F2000F2E76068B0F5803F10D0B0F5A02F12D086
:100F3000286820F480302860286820F48020286009
:100F40006068E0B1FFF756FE064614E0286840F4FA
:100F500080302860F4E7286840F480202860286802
:100F600040F480302860EBE7FFF744FE801B6428E4
:100F700001D90320C8E728688003F5D50DE0FFF705
:100F800039FE064606E0FFF735FE801B642801D9CE
:100F90000320B9E728688003F5D42078BA4F80078A
:100FA0004FF0000948D5B748001D016811F00C0F3B
:100FB00008D00068C0F38100022813D1D8F80000DF
:100FC00040020FD42868800704D5E068012801D0CA
:100FD000012099E72868216920F0F80040EAC10063
:100FE000286029E0E068B8B101203860FFF702FE10
:100FF000064606E0FFF7FEFD801B022801D903200C
:1010000082E728688007F5D52868216920F0F80074
:1010100040EAC10028600FE0C7F80090FFF7EAFD42
:10102000064606E0FFF7E6FD801B022801D90320F3
:101030006AE728688007F5D42078000729D5DFF80B
:1010400044A2924861690AF1700A89B101210160E4
:10105000FFF7D0FD064606E0FFF7CCFD801B022817
:1010600001D9032050E7DAF800008007F4D510E03A
:10107000C0F80090FFF7BEFD064606E0FFF7BAFD98
:10108000801B022801D903203EE7DAF80000800720
:10109000F4D42078400778D54FF0000A79483C30E6
:1010A0000068C0000BD477483C30016841F08051A3
:1010B0000160006800F0805000904FF0010ADFF8F6
:1010C000D0B1DBF80000C00514D4DBF8000040F418
:1010D0008070CBF80000FFF78DFD064606E0FFF7B5
:1010E00089FD801B022801D903200DE7DBF80000F1
:1010F000C005F4D5634EA0686C3601280FD00528D2
:1011000012D0306820F001003060306820F0040018
:101110003060A068F8B1FFF76DFD834617E03068D6
:1011200040F001003060F4E7306840F004003060C7
:10113000306840F001003060EBE7FFF75BFDA0EBAB
:101140000B0141F28830814201D90320DCE630688E
:101150008007F2D510E0FFF74DFD834609E0FFF769
:1011600049FDA0EB0B0141F28830814201D90320F7
:10117000CAE630688007F2D4BAF1010F05D14148C0
:101180003C30016821F080510160A069C0B33D4945
:10119000091D09684FF0FF36C1F38101022946D0CD
:1011A000022805D0C7F86090FFF724FD04463AE016
:1011B000C7F86090FFF71EFD814607E0FFF71AFDB4
:1011C000A0EB0900022801D903209DE628688001D0
:1011D000F4D4D4E907010843616AA26A890106EBE5
:1011E000520241EA0241084394F82C1040EA01609F
:1011F000C8F8000001203866FFF7FCFC044607E051
:101200003DE0FFF7F7FC001B022801D903207BE635
:1012100028688001F5D532E0FFF7ECFC001B0228BE
:1012200001D9032070E628688001F5D427E0012861
:1012300023D0D8F80000E26900F4800191421AD16D
:10124000226A00F03F01914215D147F6C071626AEF
:101250000140B1EB821F0ED1A26A00F4403106EBCF
:101260005202B1EB024F06D194F82C1000F07060DE
:10127000B0EB016F03D0012046E6012044E60020D8
:1012800042E600000438024000004742800E474218
:101290000070004010B5401EB0F1807F01D30120E6
:1012A00010BD4FF0E02460610F21601700F09FF93E
:1012B0000020A06107202061002010BDFEE7000093
:1012C000F0B502681D4B1E4C9F031E4D1E4E9842EA
:1012D00007D0B84205D0A04203D0A84201D0B04206
:1012E00005D1D1F804C022F0700242EA0C02984203
:1012F00010D0B8420ED0A0420CD0A8420AD0B042C2
:1013000008D0124CA04205D0114CA04202D0114C82
:10131000A04203D1CC6822F44072224302608A6862
:10132000C2620A888262984201D1096901634169F7
:1013300041F0010141610020F0BD000000000140CA
:101340000004004000080040000C00400040014044
:1013500000440140004801407FB5002400940194FE
:10136000029403941848174901604FF4803141609A
:10137000846001250561047680F820504562C462CE
:1013800012498162C4600226C66180F8304045611E
:10139000FFF719FA08B1FFF75BF900940195029481
:1013A00069460948FFF756F908B1FFF751F900956A
:1013B000019669460448FFF74DF9002801D0FFF770
:1013C00047F97FBD00200140240000200100000FEC
:1013D00008B50948016841F080010160016801F029
:1013E00080010091016841F001010160006800F096
:1013F0000100009008BD00003038024010B586B0F2
:10140000142101A8FEF71EFF1848016841F40031BD
:101410000160006800F40030009015480068C0F3D7
:101420000220011D072901D2002000E0C01E002279
:1014300002FA00F108010F4908704FF0E0214FF067
:101440000070C1F800016320ADF8040002924FF66D
:10145000FF7003900492084C01A92046FFF730FF6B
:10146000216821F08001216006B010BD443802409F
:101470000CED00E019E400E000440140FEE7FEE767
:1014800070477047FFF7BCBB30B593B0302107A859
:10149000FEF7D8FE142102A8FEF7D4FE00251C4852
:1014A000016841F080510160006800F080500190B7
:1014B0001848016841F440410160006800F4404070
:1014C0000190012007900004089002240D948001EF
:1014D0000E900C200F906020109011940420129018
:1014E00007A8FFF7F7FC08B1FFF7B2F80F2002904A
:1014F000039404954FF4805005900695032102A8AB
:10150000FFF70CFC002801D0FFF7A2F813B030BDA4
:1015100040380240007000400248016841F4700108
:101520000160704788ED00E0012000F07FB8000006
:1015300070B52DED048B00241C4D1D48FFF7F4F908
:101540000A211B48FFF79AF91948FFF739F925F8DE
:101550001400641CE4B2022CEFD31548FFF758FACC
:101560002888FEF7ECFE9FED138B53EC182BFEF74B
:1015700074FE9FED129B53EC192BFEF76EFEFEF7E7
:10158000EBFE0A4C241D20606888FEF7D8FE53EC61
:10159000182BFEF762FE53EC192BFEF75EFEFEF7EA
:1015A000DBFE6060BDEC048B70BD0000100000200D
:1015B000240000206666666666660A400000000039
:1015C0000000303FAFF3008006480169C1F300011D
:1015D000002906D06FF00101016103484168491CF0
:1015E00041607047004401401C000020FEE70907ED
:1015F000090E002804DB00F1E02080F80014704799
:1016000000F00F0000F1E02080F8141D704702E0A8
:1016100008C8121F08C1002AFAD17047704700207D
:1016200001E001C1121F002AFBD170470749087071
:101630000748C16841F00101C1606FF0010101611B
:10164000016841F001010160704700001C000020AA
:1016500000440140FFF7DCFAFFF716FFFFF7B8FE82
:10166000FFF7CCFEFFF778FEFFF75EFFFFF760FFA6
:10167000FCE7000000000000000001020304060770
:1016800008090000A4160008000000202400000043
:101690000E160008C8160008240000204C040000A4
:1016A0001E160008010000001000000000000000ED
:1016B0000024F40000000000000000000000000012
:0816C000000000000000000022
:040000050800019955
:00000001FF
